{
	"compilerInput": "{\"language\":\"Solidity\",\"sources\":{\"contracts/reg.sol\":{\"content\":\"// SPDX-License-Identifier: MIT\\r\\npragma solidity ^0.8.0;\\r\\n\\r\\ncontract LandRegistry {\\r\\n    struct Land {\\r\\n        string location;\\r\\n        uint256 size;\\r\\n        address owner;\\r\\n        string documentHash;\\r\\n        bool exists; // Track if the land is already registered\\r\\n    }\\r\\n\\r\\n    mapping(uint256 => Land) public lands;\\r\\n    mapping(string => bool) private registeredDocumentHashes; // Mapping to track registered document hashes\\r\\n    uint256 public landCount;\\r\\n\\r\\n    event LandRegistered(uint256 indexed landId, string location, uint256 size, address indexed owner, string documentHash);\\r\\n    event LandTransferred(uint256 indexed landId, address indexed oldOwner, address indexed newOwner);\\r\\n\\r\\n    // Modifier to check if the caller is the owner of the land\\r\\n    modifier onlyOwner(uint256 _landId) {\\r\\n        require(msg.sender == lands[_landId].owner, \\\"Only the owner can perform this action\\\");\\r\\n        _;\\r\\n    }\\r\\n\\r\\n    // Register a new land in the system\\r\\n    function registerLand(string memory _location, uint256 _size, string memory _documentHash) public {\\r\\n        require(bytes(_location).length > 0, \\\"Location is required\\\");\\r\\n        require(_size > 0, \\\"Size must be greater than zero\\\");\\r\\n        require(bytes(_documentHash).length > 0, \\\"Document hash is required\\\");\\r\\n        \\r\\n        // Check for duplicate document hash using the mapping\\r\\n        require(!registeredDocumentHashes[_documentHash], \\\"This land is already registered\\\");\\r\\n\\r\\n        lands[landCount] = Land(_location, _size, msg.sender, _documentHash, true);\\r\\n        registeredDocumentHashes[_documentHash] = true; // Mark the document hash as registered\\r\\n\\r\\n        emit LandRegistered(landCount, _location, _size, msg.sender, _documentHash);\\r\\n        landCount++;\\r\\n    }\\r\\n\\r\\n    // Transfer land ownership to a new owner\\r\\n    function transferLand(uint256 _landId, address _newOwner) public onlyOwner(_landId) {\\r\\n        require(_landId < landCount, \\\"Land ID is invalid\\\");\\r\\n        require(_newOwner != address(0), \\\"New owner address is required\\\");\\r\\n\\r\\n        address oldOwner = lands[_landId].owner;\\r\\n        lands[_landId].owner = _newOwner;\\r\\n\\r\\n        emit LandTransferred(_landId, oldOwner, _newOwner);\\r\\n    }\\r\\n\\r\\n    // View all registered lands\\r\\n    function getAllLands() public view returns (Land[] memory) {\\r\\n        Land[] memory allLands = new Land[](landCount);\\r\\n\\r\\n        for (uint256 i = 0; i < landCount; i++) {\\r\\n            Land storage land = lands[i];\\r\\n            allLands[i] = land;\\r\\n        }\\r\\n\\r\\n        return allLands;\\r\\n    }\\r\\n}\\r\\n\"}},\"settings\":{\"optimizer\":{\"enabled\":false,\"runs\":200},\"outputSelection\":{\"*\":{\"\":[\"ast\"],\"*\":[\"abi\",\"metadata\",\"devdoc\",\"userdoc\",\"storageLayout\",\"evm.legacyAssembly\",\"evm.bytecode\",\"evm.deployedBytecode\",\"evm.methodIdentifiers\",\"evm.gasEstimates\",\"evm.assembly\"]}},\"remappings\":[]}}",
	"name": "LandRegistry",
	"bytecode": {
		"linkReferences": {},
		"object": "6080604052348015600e575f80fd5b506116dd8061001c5f395ff3fe608060405234801561000f575f80fd5b5060043610610055575f3560e01c80637e6e448a14610059578063b7b6e54314610075578063c798ff7d14610093578063d7bce658146100af578063e261f1e5146100cd575b5f80fd5b610073600480360381019061006e9190610b87565b610101565b005b61007d6103c8565b60405161008a9190610e0c565b60405180910390f35b6100ad60048036038101906100a89190610e56565b61061a565b005b6100b7610855565b6040516100c49190610ea3565b60405180910390f35b6100e760048036038101906100e29190610ebc565b61085b565b6040516100f8959493929190610f4d565b60405180910390f35b5f835111610144576040517f08c379a000000000000000000000000000000000000000000000000000000000815260040161013b90610ff6565b60405180910390fd5b5f8211610186576040517f08c379a000000000000000000000000000000000000000000000000000000000815260040161017d9061105e565b60405180910390fd5b5f8151116101c9576040517f08c379a00000000000000000000000000000000000000000000000000000000081526004016101c0906110c6565b60405180910390fd5b6001816040516101d9919061111e565b90815260200160405180910390205f9054906101000a900460ff1615610234576040517f08c379a000000000000000000000000000000000000000000000000000000000815260040161022b9061117e565b60405180910390fd5b6040518060a001604052808481526020018381526020013373ffffffffffffffffffffffffffffffffffffffff168152602001828152602001600115158152505f8060025481526020019081526020015f205f820151815f0190816102999190611396565b50602082015181600101556040820151816002015f6101000a81548173ffffffffffffffffffffffffffffffffffffffff021916908373ffffffffffffffffffffffffffffffffffffffff16021790555060608201518160030190816102ff9190611396565b506080820151816004015f6101000a81548160ff02191690831515021790555090505060018082604051610333919061111e565b90815260200160405180910390205f6101000a81548160ff0219169083151502179055503373ffffffffffffffffffffffffffffffffffffffff166002547f339619fa84b087c7546a6105aeb2c85c0b4fba885879b3d76b498f3c181f3e878585856040516103a493929190611465565b60405180910390a360025f8154809291906103be906114d5565b9190505550505050565b60605f60025467ffffffffffffffff8111156103e7576103e6610a30565b5b60405190808252806020026020018201604052801561042057816020015b61040d6109c3565b8152602001906001900390816104055790505b5090505f5b600254811015610612575f805f8381526020019081526020015f209050806040518060a00160405290815f8201805461045d906111c9565b80601f0160208091040260200160405190810160405280929190818152602001828054610489906111c9565b80156104d45780601f106104ab576101008083540402835291602001916104d4565b820191905f5260205f20905b8154815290600101906020018083116104b757829003601f168201915b5050505050815260200160018201548152602001600282015f9054906101000a900473ffffffffffffffffffffffffffffffffffffffff1673ffffffffffffffffffffffffffffffffffffffff1673ffffffffffffffffffffffffffffffffffffffff16815260200160038201805461054c906111c9565b80601f0160208091040260200160405190810160405280929190818152602001828054610578906111c9565b80156105c35780601f1061059a576101008083540402835291602001916105c3565b820191905f5260205f20905b8154815290600101906020018083116105a657829003601f168201915b50505050508152602001600482015f9054906101000a900460ff1615151515815250508383815181106105f9576105f861151c565b5b6020026020010181905250508080600101915050610425565b508091505090565b815f808281526020019081526020015f206002015f9054906101000a900473ffffffffffffffffffffffffffffffffffffffff1673ffffffffffffffffffffffffffffffffffffffff163373ffffffffffffffffffffffffffffffffffffffff16146106bb576040517f08c379a00000000000000000000000000000000000000000000000000000000081526004016106b2906115b9565b60405180910390fd5b60025483106106ff576040517f08c379a00000000000000000000000000000000000000000000000000000000081526004016106f690611621565b60405180910390fd5b5f73ffffffffffffffffffffffffffffffffffffffff168273ffffffffffffffffffffffffffffffffffffffff160361076d576040517f08c379a000000000000000000000000000000000000000000000000000000000815260040161076490611689565b60405180910390fd5b5f805f8581526020019081526020015f206002015f9054906101000a900473ffffffffffffffffffffffffffffffffffffffff169050825f808681526020019081526020015f206002015f6101000a81548173ffffffffffffffffffffffffffffffffffffffff021916908373ffffffffffffffffffffffffffffffffffffffff1602179055508273ffffffffffffffffffffffffffffffffffffffff168173ffffffffffffffffffffffffffffffffffffffff16857f1080b2f211753e5090f26ef7ffdc6bb3e66a125c7290200d10b502160bb1f56660405160405180910390a450505050565b60025481565b5f602052805f5260405f205f91509050805f018054610879906111c9565b80601f01602080910402602001604051908101604052809291908181526020018280546108a5906111c9565b80156108f05780601f106108c7576101008083540402835291602001916108f0565b820191905f5260205f20905b8154815290600101906020018083116108d357829003601f168201915b505050505090806001015490806002015f9054906101000a900473ffffffffffffffffffffffffffffffffffffffff1690806003018054610930906111c9565b80601f016020809104026020016040519081016040528092919081815260200182805461095c906111c9565b80156109a75780601f1061097e576101008083540402835291602001916109a7565b820191905f5260205f20905b81548152906001019060200180831161098a57829003601f168201915b505050505090806004015f9054906101000a900460ff16905085565b6040518060a00160405280606081526020015f81526020015f73ffffffffffffffffffffffffffffffffffffffff168152602001606081526020015f151581525090565b5f604051905090565b5f80fd5b5f80fd5b5f80fd5b5f80fd5b5f601f19601f8301169050919050565b7f4e487b71000000000000000000000000000000000000000000000000000000005f52604160045260245ffd5b610a6682610a20565b810181811067ffffffffffffffff82111715610a8557610a84610a30565b5b80604052505050565b5f610a97610a07565b9050610aa38282610a5d565b919050565b5f67ffffffffffffffff821115610ac257610ac1610a30565b5b610acb82610a20565b9050602081019050919050565b828183375f83830152505050565b5f610af8610af384610aa8565b610a8e565b905082815260208101848484011115610b1457610b13610a1c565b5b610b1f848285610ad8565b509392505050565b5f82601f830112610b3b57610b3a610a18565b5b8135610b4b848260208601610ae6565b91505092915050565b5f819050919050565b610b6681610b54565b8114610b70575f80fd5b50565b5f81359050610b8181610b5d565b92915050565b5f805f60608486031215610b9e57610b9d610a10565b5b5f84013567ffffffffffffffff811115610bbb57610bba610a14565b5b610bc786828701610b27565b9350506020610bd886828701610b73565b925050604084013567ffffffffffffffff811115610bf957610bf8610a14565b5b610c0586828701610b27565b9150509250925092565b5f81519050919050565b5f82825260208201905092915050565b5f819050602082019050919050565b5f81519050919050565b5f82825260208201905092915050565b8281835e5f83830152505050565b5f610c6a82610c38565b610c748185610c42565b9350610c84818560208601610c52565b610c8d81610a20565b840191505092915050565b610ca181610b54565b82525050565b5f73ffffffffffffffffffffffffffffffffffffffff82169050919050565b5f610cd082610ca7565b9050919050565b610ce081610cc6565b82525050565b5f8115159050919050565b610cfa81610ce6565b82525050565b5f60a083015f8301518482035f860152610d1a8282610c60565b9150506020830151610d2f6020860182610c98565b506040830151610d426040860182610cd7565b5060608301518482036060860152610d5a8282610c60565b9150506080830151610d6f6080860182610cf1565b508091505092915050565b5f610d858383610d00565b905092915050565b5f602082019050919050565b5f610da382610c0f565b610dad8185610c19565b935083602082028501610dbf85610c29565b805f5b85811015610dfa5784840389528151610ddb8582610d7a565b9450610de683610d8d565b925060208a01995050600181019050610dc2565b50829750879550505050505092915050565b5f6020820190508181035f830152610e248184610d99565b905092915050565b610e3581610cc6565b8114610e3f575f80fd5b50565b5f81359050610e5081610e2c565b92915050565b5f8060408385031215610e6c57610e6b610a10565b5b5f610e7985828601610b73565b9250506020610e8a85828601610e42565b9150509250929050565b610e9d81610b54565b82525050565b5f602082019050610eb65f830184610e94565b92915050565b5f60208284031215610ed157610ed0610a10565b5b5f610ede84828501610b73565b91505092915050565b5f82825260208201905092915050565b5f610f0182610c38565b610f0b8185610ee7565b9350610f1b818560208601610c52565b610f2481610a20565b840191505092915050565b610f3881610cc6565b82525050565b610f4781610ce6565b82525050565b5f60a0820190508181035f830152610f658188610ef7565b9050610f746020830187610e94565b610f816040830186610f2f565b8181036060830152610f938185610ef7565b9050610fa26080830184610f3e565b9695505050505050565b7f4c6f636174696f6e2069732072657175697265640000000000000000000000005f82015250565b5f610fe0601483610ee7565b9150610feb82610fac565b602082019050919050565b5f6020820190508181035f83015261100d81610fd4565b9050919050565b7f53697a65206d7573742062652067726561746572207468616e207a65726f00005f82015250565b5f611048601e83610ee7565b915061105382611014565b602082019050919050565b5f6020820190508181035f8301526110758161103c565b9050919050565b7f446f63756d656e742068617368206973207265717569726564000000000000005f82015250565b5f6110b0601983610ee7565b91506110bb8261107c565b602082019050919050565b5f6020820190508181035f8301526110dd816110a4565b9050919050565b5f81905092915050565b5f6110f882610c38565b61110281856110e4565b9350611112818560208601610c52565b80840191505092915050565b5f61112982846110ee565b915081905092915050565b7f54686973206c616e6420697320616c72656164792072656769737465726564005f82015250565b5f611168601f83610ee7565b915061117382611134565b602082019050919050565b5f6020820190508181035f8301526111958161115c565b9050919050565b7f4e487b71000000000000000000000000000000000000000000000000000000005f52602260045260245ffd5b5f60028204905060018216806111e057607f821691505b6020821081036111f3576111f261119c565b5b50919050565b5f819050815f5260205f209050919050565b5f6020601f8301049050919050565b5f82821b905092915050565b5f600883026112557fffffffffffffffffffffffffffffffffffffffffffffffffffffffffffffffff8261121a565b61125f868361121a565b95508019841693508086168417925050509392505050565b5f819050919050565b5f61129a61129561129084610b54565b611277565b610b54565b9050919050565b5f819050919050565b6112b383611280565b6112c76112bf826112a1565b848454611226565b825550505050565b5f90565b6112db6112cf565b6112e68184846112aa565b505050565b5b81811015611309576112fe5f826112d3565b6001810190506112ec565b5050565b601f82111561134e5761131f816111f9565b6113288461120b565b81016020851015611337578190505b61134b6113438561120b565b8301826112eb565b50505b505050565b5f82821c905092915050565b5f61136e5f1984600802611353565b1980831691505092915050565b5f611386838361135f565b9150826002028217905092915050565b61139f82610c38565b67ffffffffffffffff8111156113b8576113b7610a30565b5b6113c282546111c9565b6113cd82828561130d565b5f60209050601f8311600181146113fe575f84156113ec578287015190505b6113f6858261137b565b86555061145d565b601f19841661140c866111f9565b5f5b828110156114335784890151825560018201915060208501945060208101905061140e565b86831015611450578489015161144c601f89168261135f565b8355505b6001600288020188555050505b505050505050565b5f6060820190508181035f83015261147d8186610ef7565b905061148c6020830185610e94565b818103604083015261149e8184610ef7565b9050949350505050565b7f4e487b71000000000000000000000000000000000000000000000000000000005f52601160045260245ffd5b5f6114df82610b54565b91507fffffffffffffffffffffffffffffffffffffffffffffffffffffffffffffffff8203611511576115106114a8565b5b600182019050919050565b7f4e487b71000000000000000000000000000000000000000000000000000000005f52603260045260245ffd5b7f4f6e6c7920746865206f776e65722063616e20706572666f726d2074686973205f8201527f616374696f6e0000000000000000000000000000000000000000000000000000602082015250565b5f6115a3602683610ee7565b91506115ae82611549565b604082019050919050565b5f6020820190508181035f8301526115d081611597565b9050919050565b7f4c616e6420494420697320696e76616c696400000000000000000000000000005f82015250565b5f61160b601283610ee7565b9150611616826115d7565b602082019050919050565b5f6020820190508181035f830152611638816115ff565b9050919050565b7f4e6577206f776e657220616464726573732069732072657175697265640000005f82015250565b5f611673601d83610ee7565b915061167e8261163f565b602082019050919050565b5f6020820190508181035f8301526116a081611667565b905091905056fea26469706673582212203fc00ebdaed8022ce98265554ad91f75f7e9bb89dbb830e536611dcca1d8be1164736f6c634300081a0033",
		"opcodes": "PUSH1 0x80 PUSH1 0x40 MSTORE CALLVALUE DUP1 ISZERO PUSH1 0xE JUMPI PUSH0 DUP1 REVERT JUMPDEST POP PUSH2 0x16DD DUP1 PUSH2 0x1C PUSH0 CODECOPY PUSH0 RETURN INVALID PUSH1 0x80 PUSH1 0x40 MSTORE CALLVALUE DUP1 ISZERO PUSH2 0xF JUMPI PUSH0 DUP1 REVERT JUMPDEST POP PUSH1 0x4 CALLDATASIZE LT PUSH2 0x55 JUMPI PUSH0 CALLDATALOAD PUSH1 0xE0 SHR DUP1 PUSH4 0x7E6E448A EQ PUSH2 0x59 JUMPI DUP1 PUSH4 0xB7B6E543 EQ PUSH2 0x75 JUMPI DUP1 PUSH4 0xC798FF7D EQ PUSH2 0x93 JUMPI DUP1 PUSH4 0xD7BCE658 EQ PUSH2 0xAF JUMPI DUP1 PUSH4 0xE261F1E5 EQ PUSH2 0xCD JUMPI JUMPDEST PUSH0 DUP1 REVERT JUMPDEST PUSH2 0x73 PUSH1 0x4 DUP1 CALLDATASIZE SUB DUP2 ADD SWAP1 PUSH2 0x6E SWAP2 SWAP1 PUSH2 0xB87 JUMP JUMPDEST PUSH2 0x101 JUMP JUMPDEST STOP JUMPDEST PUSH2 0x7D PUSH2 0x3C8 JUMP JUMPDEST PUSH1 0x40 MLOAD PUSH2 0x8A SWAP2 SWAP1 PUSH2 0xE0C JUMP JUMPDEST PUSH1 0x40 MLOAD DUP1 SWAP2 SUB SWAP1 RETURN JUMPDEST PUSH2 0xAD PUSH1 0x4 DUP1 CALLDATASIZE SUB DUP2 ADD SWAP1 PUSH2 0xA8 SWAP2 SWAP1 PUSH2 0xE56 JUMP JUMPDEST PUSH2 0x61A JUMP JUMPDEST STOP JUMPDEST PUSH2 0xB7 PUSH2 0x855 JUMP JUMPDEST PUSH1 0x40 MLOAD PUSH2 0xC4 SWAP2 SWAP1 PUSH2 0xEA3 JUMP JUMPDEST PUSH1 0x40 MLOAD DUP1 SWAP2 SUB SWAP1 RETURN JUMPDEST PUSH2 0xE7 PUSH1 0x4 DUP1 CALLDATASIZE SUB DUP2 ADD SWAP1 PUSH2 0xE2 SWAP2 SWAP1 PUSH2 0xEBC JUMP JUMPDEST PUSH2 0x85B JUMP JUMPDEST PUSH1 0x40 MLOAD PUSH2 0xF8 SWAP6 SWAP5 SWAP4 SWAP3 SWAP2 SWAP1 PUSH2 0xF4D JUMP JUMPDEST PUSH1 0x40 MLOAD DUP1 SWAP2 SUB SWAP1 RETURN JUMPDEST PUSH0 DUP4 MLOAD GT PUSH2 0x144 JUMPI PUSH1 0x40 MLOAD PUSH32 0x8C379A000000000000000000000000000000000000000000000000000000000 DUP2 MSTORE PUSH1 0x4 ADD PUSH2 0x13B SWAP1 PUSH2 0xFF6 JUMP JUMPDEST PUSH1 0x40 MLOAD DUP1 SWAP2 SUB SWAP1 REVERT JUMPDEST PUSH0 DUP3 GT PUSH2 0x186 JUMPI PUSH1 0x40 MLOAD PUSH32 0x8C379A000000000000000000000000000000000000000000000000000000000 DUP2 MSTORE PUSH1 0x4 ADD PUSH2 0x17D SWAP1 PUSH2 0x105E JUMP JUMPDEST PUSH1 0x40 MLOAD DUP1 SWAP2 SUB SWAP1 REVERT JUMPDEST PUSH0 DUP2 MLOAD GT PUSH2 0x1C9 JUMPI PUSH1 0x40 MLOAD PUSH32 0x8C379A000000000000000000000000000000000000000000000000000000000 DUP2 MSTORE PUSH1 0x4 ADD PUSH2 0x1C0 SWAP1 PUSH2 0x10C6 JUMP JUMPDEST PUSH1 0x40 MLOAD DUP1 SWAP2 SUB SWAP1 REVERT JUMPDEST PUSH1 0x1 DUP2 PUSH1 0x40 MLOAD PUSH2 0x1D9 SWAP2 SWAP1 PUSH2 0x111E JUMP JUMPDEST SWAP1 DUP2 MSTORE PUSH1 0x20 ADD PUSH1 0x40 MLOAD DUP1 SWAP2 SUB SWAP1 KECCAK256 PUSH0 SWAP1 SLOAD SWAP1 PUSH2 0x100 EXP SWAP1 DIV PUSH1 0xFF AND ISZERO PUSH2 0x234 JUMPI PUSH1 0x40 MLOAD PUSH32 0x8C379A000000000000000000000000000000000000000000000000000000000 DUP2 MSTORE PUSH1 0x4 ADD PUSH2 0x22B SWAP1 PUSH2 0x117E JUMP JUMPDEST PUSH1 0x40 MLOAD DUP1 SWAP2 SUB SWAP1 REVERT JUMPDEST PUSH1 0x40 MLOAD DUP1 PUSH1 0xA0 ADD PUSH1 0x40 MSTORE DUP1 DUP5 DUP2 MSTORE PUSH1 0x20 ADD DUP4 DUP2 MSTORE PUSH1 0x20 ADD CALLER PUSH20 0xFFFFFFFFFFFFFFFFFFFFFFFFFFFFFFFFFFFFFFFF AND DUP2 MSTORE PUSH1 0x20 ADD DUP3 DUP2 MSTORE PUSH1 0x20 ADD PUSH1 0x1 ISZERO ISZERO DUP2 MSTORE POP PUSH0 DUP1 PUSH1 0x2 SLOAD DUP2 MSTORE PUSH1 0x20 ADD SWAP1 DUP2 MSTORE PUSH1 0x20 ADD PUSH0 KECCAK256 PUSH0 DUP3 ADD MLOAD DUP2 PUSH0 ADD SWAP1 DUP2 PUSH2 0x299 SWAP2 SWAP1 PUSH2 0x1396 JUMP JUMPDEST POP PUSH1 0x20 DUP3 ADD MLOAD DUP2 PUSH1 0x1 ADD SSTORE PUSH1 0x40 DUP3 ADD MLOAD DUP2 PUSH1 0x2 ADD PUSH0 PUSH2 0x100 EXP DUP2 SLOAD DUP2 PUSH20 0xFFFFFFFFFFFFFFFFFFFFFFFFFFFFFFFFFFFFFFFF MUL NOT AND SWAP1 DUP4 PUSH20 0xFFFFFFFFFFFFFFFFFFFFFFFFFFFFFFFFFFFFFFFF AND MUL OR SWAP1 SSTORE POP PUSH1 0x60 DUP3 ADD MLOAD DUP2 PUSH1 0x3 ADD SWAP1 DUP2 PUSH2 0x2FF SWAP2 SWAP1 PUSH2 0x1396 JUMP JUMPDEST POP PUSH1 0x80 DUP3 ADD MLOAD DUP2 PUSH1 0x4 ADD PUSH0 PUSH2 0x100 EXP DUP2 SLOAD DUP2 PUSH1 0xFF MUL NOT AND SWAP1 DUP4 ISZERO ISZERO MUL OR SWAP1 SSTORE POP SWAP1 POP POP PUSH1 0x1 DUP1 DUP3 PUSH1 0x40 MLOAD PUSH2 0x333 SWAP2 SWAP1 PUSH2 0x111E JUMP JUMPDEST SWAP1 DUP2 MSTORE PUSH1 0x20 ADD PUSH1 0x40 MLOAD DUP1 SWAP2 SUB SWAP1 KECCAK256 PUSH0 PUSH2 0x100 EXP DUP2 SLOAD DUP2 PUSH1 0xFF MUL NOT AND SWAP1 DUP4 ISZERO ISZERO MUL OR SWAP1 SSTORE POP CALLER PUSH20 0xFFFFFFFFFFFFFFFFFFFFFFFFFFFFFFFFFFFFFFFF AND PUSH1 0x2 SLOAD PUSH32 0x339619FA84B087C7546A6105AEB2C85C0B4FBA885879B3D76B498F3C181F3E87 DUP6 DUP6 DUP6 PUSH1 0x40 MLOAD PUSH2 0x3A4 SWAP4 SWAP3 SWAP2 SWAP1 PUSH2 0x1465 JUMP JUMPDEST PUSH1 0x40 MLOAD DUP1 SWAP2 SUB SWAP1 LOG3 PUSH1 0x2 PUSH0 DUP2 SLOAD DUP1 SWAP3 SWAP2 SWAP1 PUSH2 0x3BE SWAP1 PUSH2 0x14D5 JUMP JUMPDEST SWAP2 SWAP1 POP SSTORE POP POP POP POP JUMP JUMPDEST PUSH1 0x60 PUSH0 PUSH1 0x2 SLOAD PUSH8 0xFFFFFFFFFFFFFFFF DUP2 GT ISZERO PUSH2 0x3E7 JUMPI PUSH2 0x3E6 PUSH2 0xA30 JUMP JUMPDEST JUMPDEST PUSH1 0x40 MLOAD SWAP1 DUP1 DUP3 MSTORE DUP1 PUSH1 0x20 MUL PUSH1 0x20 ADD DUP3 ADD PUSH1 0x40 MSTORE DUP1 ISZERO PUSH2 0x420 JUMPI DUP2 PUSH1 0x20 ADD JUMPDEST PUSH2 0x40D PUSH2 0x9C3 JUMP JUMPDEST DUP2 MSTORE PUSH1 0x20 ADD SWAP1 PUSH1 0x1 SWAP1 SUB SWAP1 DUP2 PUSH2 0x405 JUMPI SWAP1 POP JUMPDEST POP SWAP1 POP PUSH0 JUMPDEST PUSH1 0x2 SLOAD DUP2 LT ISZERO PUSH2 0x612 JUMPI PUSH0 DUP1 PUSH0 DUP4 DUP2 MSTORE PUSH1 0x20 ADD SWAP1 DUP2 MSTORE PUSH1 0x20 ADD PUSH0 KECCAK256 SWAP1 POP DUP1 PUSH1 0x40 MLOAD DUP1 PUSH1 0xA0 ADD PUSH1 0x40 MSTORE SWAP1 DUP2 PUSH0 DUP3 ADD DUP1 SLOAD PUSH2 0x45D SWAP1 PUSH2 0x11C9 JUMP JUMPDEST DUP1 PUSH1 0x1F ADD PUSH1 0x20 DUP1 SWAP2 DIV MUL PUSH1 0x20 ADD PUSH1 0x40 MLOAD SWAP1 DUP2 ADD PUSH1 0x40 MSTORE DUP1 SWAP3 SWAP2 SWAP1 DUP2 DUP2 MSTORE PUSH1 0x20 ADD DUP3 DUP1 SLOAD PUSH2 0x489 SWAP1 PUSH2 0x11C9 JUMP JUMPDEST DUP1 ISZERO PUSH2 0x4D4 JUMPI DUP1 PUSH1 0x1F LT PUSH2 0x4AB JUMPI PUSH2 0x100 DUP1 DUP4 SLOAD DIV MUL DUP4 MSTORE SWAP2 PUSH1 0x20 ADD SWAP2 PUSH2 0x4D4 JUMP JUMPDEST DUP3 ADD SWAP2 SWAP1 PUSH0 MSTORE PUSH1 0x20 PUSH0 KECCAK256 SWAP1 JUMPDEST DUP2 SLOAD DUP2 MSTORE SWAP1 PUSH1 0x1 ADD SWAP1 PUSH1 0x20 ADD DUP1 DUP4 GT PUSH2 0x4B7 JUMPI DUP3 SWAP1 SUB PUSH1 0x1F AND DUP3 ADD SWAP2 JUMPDEST POP POP POP POP POP DUP2 MSTORE PUSH1 0x20 ADD PUSH1 0x1 DUP3 ADD SLOAD DUP2 MSTORE PUSH1 0x20 ADD PUSH1 0x2 DUP3 ADD PUSH0 SWAP1 SLOAD SWAP1 PUSH2 0x100 EXP SWAP1 DIV PUSH20 0xFFFFFFFFFFFFFFFFFFFFFFFFFFFFFFFFFFFFFFFF AND PUSH20 0xFFFFFFFFFFFFFFFFFFFFFFFFFFFFFFFFFFFFFFFF AND PUSH20 0xFFFFFFFFFFFFFFFFFFFFFFFFFFFFFFFFFFFFFFFF AND DUP2 MSTORE PUSH1 0x20 ADD PUSH1 0x3 DUP3 ADD DUP1 SLOAD PUSH2 0x54C SWAP1 PUSH2 0x11C9 JUMP JUMPDEST DUP1 PUSH1 0x1F ADD PUSH1 0x20 DUP1 SWAP2 DIV MUL PUSH1 0x20 ADD PUSH1 0x40 MLOAD SWAP1 DUP2 ADD PUSH1 0x40 MSTORE DUP1 SWAP3 SWAP2 SWAP1 DUP2 DUP2 MSTORE PUSH1 0x20 ADD DUP3 DUP1 SLOAD PUSH2 0x578 SWAP1 PUSH2 0x11C9 JUMP JUMPDEST DUP1 ISZERO PUSH2 0x5C3 JUMPI DUP1 PUSH1 0x1F LT PUSH2 0x59A JUMPI PUSH2 0x100 DUP1 DUP4 SLOAD DIV MUL DUP4 MSTORE SWAP2 PUSH1 0x20 ADD SWAP2 PUSH2 0x5C3 JUMP JUMPDEST DUP3 ADD SWAP2 SWAP1 PUSH0 MSTORE PUSH1 0x20 PUSH0 KECCAK256 SWAP1 JUMPDEST DUP2 SLOAD DUP2 MSTORE SWAP1 PUSH1 0x1 ADD SWAP1 PUSH1 0x20 ADD DUP1 DUP4 GT PUSH2 0x5A6 JUMPI DUP3 SWAP1 SUB PUSH1 0x1F AND DUP3 ADD SWAP2 JUMPDEST POP POP POP POP POP DUP2 MSTORE PUSH1 0x20 ADD PUSH1 0x4 DUP3 ADD PUSH0 SWAP1 SLOAD SWAP1 PUSH2 0x100 EXP SWAP1 DIV PUSH1 0xFF AND ISZERO ISZERO ISZERO ISZERO DUP2 MSTORE POP POP DUP4 DUP4 DUP2 MLOAD DUP2 LT PUSH2 0x5F9 JUMPI PUSH2 0x5F8 PUSH2 0x151C JUMP JUMPDEST JUMPDEST PUSH1 0x20 MUL PUSH1 0x20 ADD ADD DUP2 SWAP1 MSTORE POP POP DUP1 DUP1 PUSH1 0x1 ADD SWAP2 POP POP PUSH2 0x425 JUMP JUMPDEST POP DUP1 SWAP2 POP POP SWAP1 JUMP JUMPDEST DUP2 PUSH0 DUP1 DUP3 DUP2 MSTORE PUSH1 0x20 ADD SWAP1 DUP2 MSTORE PUSH1 0x20 ADD PUSH0 KECCAK256 PUSH1 0x2 ADD PUSH0 SWAP1 SLOAD SWAP1 PUSH2 0x100 EXP SWAP1 DIV PUSH20 0xFFFFFFFFFFFFFFFFFFFFFFFFFFFFFFFFFFFFFFFF AND PUSH20 0xFFFFFFFFFFFFFFFFFFFFFFFFFFFFFFFFFFFFFFFF AND CALLER PUSH20 0xFFFFFFFFFFFFFFFFFFFFFFFFFFFFFFFFFFFFFFFF AND EQ PUSH2 0x6BB JUMPI PUSH1 0x40 MLOAD PUSH32 0x8C379A000000000000000000000000000000000000000000000000000000000 DUP2 MSTORE PUSH1 0x4 ADD PUSH2 0x6B2 SWAP1 PUSH2 0x15B9 JUMP JUMPDEST PUSH1 0x40 MLOAD DUP1 SWAP2 SUB SWAP1 REVERT JUMPDEST PUSH1 0x2 SLOAD DUP4 LT PUSH2 0x6FF JUMPI PUSH1 0x40 MLOAD PUSH32 0x8C379A000000000000000000000000000000000000000000000000000000000 DUP2 MSTORE PUSH1 0x4 ADD PUSH2 0x6F6 SWAP1 PUSH2 0x1621 JUMP JUMPDEST PUSH1 0x40 MLOAD DUP1 SWAP2 SUB SWAP1 REVERT JUMPDEST PUSH0 PUSH20 0xFFFFFFFFFFFFFFFFFFFFFFFFFFFFFFFFFFFFFFFF AND DUP3 PUSH20 0xFFFFFFFFFFFFFFFFFFFFFFFFFFFFFFFFFFFFFFFF AND SUB PUSH2 0x76D JUMPI PUSH1 0x40 MLOAD PUSH32 0x8C379A000000000000000000000000000000000000000000000000000000000 DUP2 MSTORE PUSH1 0x4 ADD PUSH2 0x764 SWAP1 PUSH2 0x1689 JUMP JUMPDEST PUSH1 0x40 MLOAD DUP1 SWAP2 SUB SWAP1 REVERT JUMPDEST PUSH0 DUP1 PUSH0 DUP6 DUP2 MSTORE PUSH1 0x20 ADD SWAP1 DUP2 MSTORE PUSH1 0x20 ADD PUSH0 KECCAK256 PUSH1 0x2 ADD PUSH0 SWAP1 SLOAD SWAP1 PUSH2 0x100 EXP SWAP1 DIV PUSH20 0xFFFFFFFFFFFFFFFFFFFFFFFFFFFFFFFFFFFFFFFF AND SWAP1 POP DUP3 PUSH0 DUP1 DUP7 DUP2 MSTORE PUSH1 0x20 ADD SWAP1 DUP2 MSTORE PUSH1 0x20 ADD PUSH0 KECCAK256 PUSH1 0x2 ADD PUSH0 PUSH2 0x100 EXP DUP2 SLOAD DUP2 PUSH20 0xFFFFFFFFFFFFFFFFFFFFFFFFFFFFFFFFFFFFFFFF MUL NOT AND SWAP1 DUP4 PUSH20 0xFFFFFFFFFFFFFFFFFFFFFFFFFFFFFFFFFFFFFFFF AND MUL OR SWAP1 SSTORE POP DUP3 PUSH20 0xFFFFFFFFFFFFFFFFFFFFFFFFFFFFFFFFFFFFFFFF AND DUP2 PUSH20 0xFFFFFFFFFFFFFFFFFFFFFFFFFFFFFFFFFFFFFFFF AND DUP6 PUSH32 0x1080B2F211753E5090F26EF7FFDC6BB3E66A125C7290200D10B502160BB1F566 PUSH1 0x40 MLOAD PUSH1 0x40 MLOAD DUP1 SWAP2 SUB SWAP1 LOG4 POP POP POP POP JUMP JUMPDEST PUSH1 0x2 SLOAD DUP2 JUMP JUMPDEST PUSH0 PUSH1 0x20 MSTORE DUP1 PUSH0 MSTORE PUSH1 0x40 PUSH0 KECCAK256 PUSH0 SWAP2 POP SWAP1 POP DUP1 PUSH0 ADD DUP1 SLOAD PUSH2 0x879 SWAP1 PUSH2 0x11C9 JUMP JUMPDEST DUP1 PUSH1 0x1F ADD PUSH1 0x20 DUP1 SWAP2 DIV MUL PUSH1 0x20 ADD PUSH1 0x40 MLOAD SWAP1 DUP2 ADD PUSH1 0x40 MSTORE DUP1 SWAP3 SWAP2 SWAP1 DUP2 DUP2 MSTORE PUSH1 0x20 ADD DUP3 DUP1 SLOAD PUSH2 0x8A5 SWAP1 PUSH2 0x11C9 JUMP JUMPDEST DUP1 ISZERO PUSH2 0x8F0 JUMPI DUP1 PUSH1 0x1F LT PUSH2 0x8C7 JUMPI PUSH2 0x100 DUP1 DUP4 SLOAD DIV MUL DUP4 MSTORE SWAP2 PUSH1 0x20 ADD SWAP2 PUSH2 0x8F0 JUMP JUMPDEST DUP3 ADD SWAP2 SWAP1 PUSH0 MSTORE PUSH1 0x20 PUSH0 KECCAK256 SWAP1 JUMPDEST DUP2 SLOAD DUP2 MSTORE SWAP1 PUSH1 0x1 ADD SWAP1 PUSH1 0x20 ADD DUP1 DUP4 GT PUSH2 0x8D3 JUMPI DUP3 SWAP1 SUB PUSH1 0x1F AND DUP3 ADD SWAP2 JUMPDEST POP POP POP POP POP SWAP1 DUP1 PUSH1 0x1 ADD SLOAD SWAP1 DUP1 PUSH1 0x2 ADD PUSH0 SWAP1 SLOAD SWAP1 PUSH2 0x100 EXP SWAP1 DIV PUSH20 0xFFFFFFFFFFFFFFFFFFFFFFFFFFFFFFFFFFFFFFFF AND SWAP1 DUP1 PUSH1 0x3 ADD DUP1 SLOAD PUSH2 0x930 SWAP1 PUSH2 0x11C9 JUMP JUMPDEST DUP1 PUSH1 0x1F ADD PUSH1 0x20 DUP1 SWAP2 DIV MUL PUSH1 0x20 ADD PUSH1 0x40 MLOAD SWAP1 DUP2 ADD PUSH1 0x40 MSTORE DUP1 SWAP3 SWAP2 SWAP1 DUP2 DUP2 MSTORE PUSH1 0x20 ADD DUP3 DUP1 SLOAD PUSH2 0x95C SWAP1 PUSH2 0x11C9 JUMP JUMPDEST DUP1 ISZERO PUSH2 0x9A7 JUMPI DUP1 PUSH1 0x1F LT PUSH2 0x97E JUMPI PUSH2 0x100 DUP1 DUP4 SLOAD DIV MUL DUP4 MSTORE SWAP2 PUSH1 0x20 ADD SWAP2 PUSH2 0x9A7 JUMP JUMPDEST DUP3 ADD SWAP2 SWAP1 PUSH0 MSTORE PUSH1 0x20 PUSH0 KECCAK256 SWAP1 JUMPDEST DUP2 SLOAD DUP2 MSTORE SWAP1 PUSH1 0x1 ADD SWAP1 PUSH1 0x20 ADD DUP1 DUP4 GT PUSH2 0x98A JUMPI DUP3 SWAP1 SUB PUSH1 0x1F AND DUP3 ADD SWAP2 JUMPDEST POP POP POP POP POP SWAP1 DUP1 PUSH1 0x4 ADD PUSH0 SWAP1 SLOAD SWAP1 PUSH2 0x100 EXP SWAP1 DIV PUSH1 0xFF AND SWAP1 POP DUP6 JUMP JUMPDEST PUSH1 0x40 MLOAD DUP1 PUSH1 0xA0 ADD PUSH1 0x40 MSTORE DUP1 PUSH1 0x60 DUP2 MSTORE PUSH1 0x20 ADD PUSH0 DUP2 MSTORE PUSH1 0x20 ADD PUSH0 PUSH20 0xFFFFFFFFFFFFFFFFFFFFFFFFFFFFFFFFFFFFFFFF AND DUP2 MSTORE PUSH1 0x20 ADD PUSH1 0x60 DUP2 MSTORE PUSH1 0x20 ADD PUSH0 ISZERO ISZERO DUP2 MSTORE POP SWAP1 JUMP JUMPDEST PUSH0 PUSH1 0x40 MLOAD SWAP1 POP SWAP1 JUMP JUMPDEST PUSH0 DUP1 REVERT JUMPDEST PUSH0 DUP1 REVERT JUMPDEST PUSH0 DUP1 REVERT JUMPDEST PUSH0 DUP1 REVERT JUMPDEST PUSH0 PUSH1 0x1F NOT PUSH1 0x1F DUP4 ADD AND SWAP1 POP SWAP2 SWAP1 POP JUMP JUMPDEST PUSH32 0x4E487B7100000000000000000000000000000000000000000000000000000000 PUSH0 MSTORE PUSH1 0x41 PUSH1 0x4 MSTORE PUSH1 0x24 PUSH0 REVERT JUMPDEST PUSH2 0xA66 DUP3 PUSH2 0xA20 JUMP JUMPDEST DUP2 ADD DUP2 DUP2 LT PUSH8 0xFFFFFFFFFFFFFFFF DUP3 GT OR ISZERO PUSH2 0xA85 JUMPI PUSH2 0xA84 PUSH2 0xA30 JUMP JUMPDEST JUMPDEST DUP1 PUSH1 0x40 MSTORE POP POP POP JUMP JUMPDEST PUSH0 PUSH2 0xA97 PUSH2 0xA07 JUMP JUMPDEST SWAP1 POP PUSH2 0xAA3 DUP3 DUP3 PUSH2 0xA5D JUMP JUMPDEST SWAP2 SWAP1 POP JUMP JUMPDEST PUSH0 PUSH8 0xFFFFFFFFFFFFFFFF DUP3 GT ISZERO PUSH2 0xAC2 JUMPI PUSH2 0xAC1 PUSH2 0xA30 JUMP JUMPDEST JUMPDEST PUSH2 0xACB DUP3 PUSH2 0xA20 JUMP JUMPDEST SWAP1 POP PUSH1 0x20 DUP2 ADD SWAP1 POP SWAP2 SWAP1 POP JUMP JUMPDEST DUP3 DUP2 DUP4 CALLDATACOPY PUSH0 DUP4 DUP4 ADD MSTORE POP POP POP JUMP JUMPDEST PUSH0 PUSH2 0xAF8 PUSH2 0xAF3 DUP5 PUSH2 0xAA8 JUMP JUMPDEST PUSH2 0xA8E JUMP JUMPDEST SWAP1 POP DUP3 DUP2 MSTORE PUSH1 0x20 DUP2 ADD DUP5 DUP5 DUP5 ADD GT ISZERO PUSH2 0xB14 JUMPI PUSH2 0xB13 PUSH2 0xA1C JUMP JUMPDEST JUMPDEST PUSH2 0xB1F DUP5 DUP3 DUP6 PUSH2 0xAD8 JUMP JUMPDEST POP SWAP4 SWAP3 POP POP POP JUMP JUMPDEST PUSH0 DUP3 PUSH1 0x1F DUP4 ADD SLT PUSH2 0xB3B JUMPI PUSH2 0xB3A PUSH2 0xA18 JUMP JUMPDEST JUMPDEST DUP2 CALLDATALOAD PUSH2 0xB4B DUP5 DUP3 PUSH1 0x20 DUP7 ADD PUSH2 0xAE6 JUMP JUMPDEST SWAP2 POP POP SWAP3 SWAP2 POP POP JUMP JUMPDEST PUSH0 DUP2 SWAP1 POP SWAP2 SWAP1 POP JUMP JUMPDEST PUSH2 0xB66 DUP2 PUSH2 0xB54 JUMP JUMPDEST DUP2 EQ PUSH2 0xB70 JUMPI PUSH0 DUP1 REVERT JUMPDEST POP JUMP JUMPDEST PUSH0 DUP2 CALLDATALOAD SWAP1 POP PUSH2 0xB81 DUP2 PUSH2 0xB5D JUMP JUMPDEST SWAP3 SWAP2 POP POP JUMP JUMPDEST PUSH0 DUP1 PUSH0 PUSH1 0x60 DUP5 DUP7 SUB SLT ISZERO PUSH2 0xB9E JUMPI PUSH2 0xB9D PUSH2 0xA10 JUMP JUMPDEST JUMPDEST PUSH0 DUP5 ADD CALLDATALOAD PUSH8 0xFFFFFFFFFFFFFFFF DUP2 GT ISZERO PUSH2 0xBBB JUMPI PUSH2 0xBBA PUSH2 0xA14 JUMP JUMPDEST JUMPDEST PUSH2 0xBC7 DUP7 DUP3 DUP8 ADD PUSH2 0xB27 JUMP JUMPDEST SWAP4 POP POP PUSH1 0x20 PUSH2 0xBD8 DUP7 DUP3 DUP8 ADD PUSH2 0xB73 JUMP JUMPDEST SWAP3 POP POP PUSH1 0x40 DUP5 ADD CALLDATALOAD PUSH8 0xFFFFFFFFFFFFFFFF DUP2 GT ISZERO PUSH2 0xBF9 JUMPI PUSH2 0xBF8 PUSH2 0xA14 JUMP JUMPDEST JUMPDEST PUSH2 0xC05 DUP7 DUP3 DUP8 ADD PUSH2 0xB27 JUMP JUMPDEST SWAP2 POP POP SWAP3 POP SWAP3 POP SWAP3 JUMP JUMPDEST PUSH0 DUP2 MLOAD SWAP1 POP SWAP2 SWAP1 POP JUMP JUMPDEST PUSH0 DUP3 DUP3 MSTORE PUSH1 0x20 DUP3 ADD SWAP1 POP SWAP3 SWAP2 POP POP JUMP JUMPDEST PUSH0 DUP2 SWAP1 POP PUSH1 0x20 DUP3 ADD SWAP1 POP SWAP2 SWAP1 POP JUMP JUMPDEST PUSH0 DUP2 MLOAD SWAP1 POP SWAP2 SWAP1 POP JUMP JUMPDEST PUSH0 DUP3 DUP3 MSTORE PUSH1 0x20 DUP3 ADD SWAP1 POP SWAP3 SWAP2 POP POP JUMP JUMPDEST DUP3 DUP2 DUP4 MCOPY PUSH0 DUP4 DUP4 ADD MSTORE POP POP POP JUMP JUMPDEST PUSH0 PUSH2 0xC6A DUP3 PUSH2 0xC38 JUMP JUMPDEST PUSH2 0xC74 DUP2 DUP6 PUSH2 0xC42 JUMP JUMPDEST SWAP4 POP PUSH2 0xC84 DUP2 DUP6 PUSH1 0x20 DUP7 ADD PUSH2 0xC52 JUMP JUMPDEST PUSH2 0xC8D DUP2 PUSH2 0xA20 JUMP JUMPDEST DUP5 ADD SWAP2 POP POP SWAP3 SWAP2 POP POP JUMP JUMPDEST PUSH2 0xCA1 DUP2 PUSH2 0xB54 JUMP JUMPDEST DUP3 MSTORE POP POP JUMP JUMPDEST PUSH0 PUSH20 0xFFFFFFFFFFFFFFFFFFFFFFFFFFFFFFFFFFFFFFFF DUP3 AND SWAP1 POP SWAP2 SWAP1 POP JUMP JUMPDEST PUSH0 PUSH2 0xCD0 DUP3 PUSH2 0xCA7 JUMP JUMPDEST SWAP1 POP SWAP2 SWAP1 POP JUMP JUMPDEST PUSH2 0xCE0 DUP2 PUSH2 0xCC6 JUMP JUMPDEST DUP3 MSTORE POP POP JUMP JUMPDEST PUSH0 DUP2 ISZERO ISZERO SWAP1 POP SWAP2 SWAP1 POP JUMP JUMPDEST PUSH2 0xCFA DUP2 PUSH2 0xCE6 JUMP JUMPDEST DUP3 MSTORE POP POP JUMP JUMPDEST PUSH0 PUSH1 0xA0 DUP4 ADD PUSH0 DUP4 ADD MLOAD DUP5 DUP3 SUB PUSH0 DUP7 ADD MSTORE PUSH2 0xD1A DUP3 DUP3 PUSH2 0xC60 JUMP JUMPDEST SWAP2 POP POP PUSH1 0x20 DUP4 ADD MLOAD PUSH2 0xD2F PUSH1 0x20 DUP7 ADD DUP3 PUSH2 0xC98 JUMP JUMPDEST POP PUSH1 0x40 DUP4 ADD MLOAD PUSH2 0xD42 PUSH1 0x40 DUP7 ADD DUP3 PUSH2 0xCD7 JUMP JUMPDEST POP PUSH1 0x60 DUP4 ADD MLOAD DUP5 DUP3 SUB PUSH1 0x60 DUP7 ADD MSTORE PUSH2 0xD5A DUP3 DUP3 PUSH2 0xC60 JUMP JUMPDEST SWAP2 POP POP PUSH1 0x80 DUP4 ADD MLOAD PUSH2 0xD6F PUSH1 0x80 DUP7 ADD DUP3 PUSH2 0xCF1 JUMP JUMPDEST POP DUP1 SWAP2 POP POP SWAP3 SWAP2 POP POP JUMP JUMPDEST PUSH0 PUSH2 0xD85 DUP4 DUP4 PUSH2 0xD00 JUMP JUMPDEST SWAP1 POP SWAP3 SWAP2 POP POP JUMP JUMPDEST PUSH0 PUSH1 0x20 DUP3 ADD SWAP1 POP SWAP2 SWAP1 POP JUMP JUMPDEST PUSH0 PUSH2 0xDA3 DUP3 PUSH2 0xC0F JUMP JUMPDEST PUSH2 0xDAD DUP2 DUP6 PUSH2 0xC19 JUMP JUMPDEST SWAP4 POP DUP4 PUSH1 0x20 DUP3 MUL DUP6 ADD PUSH2 0xDBF DUP6 PUSH2 0xC29 JUMP JUMPDEST DUP1 PUSH0 JUMPDEST DUP6 DUP2 LT ISZERO PUSH2 0xDFA JUMPI DUP5 DUP5 SUB DUP10 MSTORE DUP2 MLOAD PUSH2 0xDDB DUP6 DUP3 PUSH2 0xD7A JUMP JUMPDEST SWAP5 POP PUSH2 0xDE6 DUP4 PUSH2 0xD8D JUMP JUMPDEST SWAP3 POP PUSH1 0x20 DUP11 ADD SWAP10 POP POP PUSH1 0x1 DUP2 ADD SWAP1 POP PUSH2 0xDC2 JUMP JUMPDEST POP DUP3 SWAP8 POP DUP8 SWAP6 POP POP POP POP POP POP SWAP3 SWAP2 POP POP JUMP JUMPDEST PUSH0 PUSH1 0x20 DUP3 ADD SWAP1 POP DUP2 DUP2 SUB PUSH0 DUP4 ADD MSTORE PUSH2 0xE24 DUP2 DUP5 PUSH2 0xD99 JUMP JUMPDEST SWAP1 POP SWAP3 SWAP2 POP POP JUMP JUMPDEST PUSH2 0xE35 DUP2 PUSH2 0xCC6 JUMP JUMPDEST DUP2 EQ PUSH2 0xE3F JUMPI PUSH0 DUP1 REVERT JUMPDEST POP JUMP JUMPDEST PUSH0 DUP2 CALLDATALOAD SWAP1 POP PUSH2 0xE50 DUP2 PUSH2 0xE2C JUMP JUMPDEST SWAP3 SWAP2 POP POP JUMP JUMPDEST PUSH0 DUP1 PUSH1 0x40 DUP4 DUP6 SUB SLT ISZERO PUSH2 0xE6C JUMPI PUSH2 0xE6B PUSH2 0xA10 JUMP JUMPDEST JUMPDEST PUSH0 PUSH2 0xE79 DUP6 DUP3 DUP7 ADD PUSH2 0xB73 JUMP JUMPDEST SWAP3 POP POP PUSH1 0x20 PUSH2 0xE8A DUP6 DUP3 DUP7 ADD PUSH2 0xE42 JUMP JUMPDEST SWAP2 POP POP SWAP3 POP SWAP3 SWAP1 POP JUMP JUMPDEST PUSH2 0xE9D DUP2 PUSH2 0xB54 JUMP JUMPDEST DUP3 MSTORE POP POP JUMP JUMPDEST PUSH0 PUSH1 0x20 DUP3 ADD SWAP1 POP PUSH2 0xEB6 PUSH0 DUP4 ADD DUP5 PUSH2 0xE94 JUMP JUMPDEST SWAP3 SWAP2 POP POP JUMP JUMPDEST PUSH0 PUSH1 0x20 DUP3 DUP5 SUB SLT ISZERO PUSH2 0xED1 JUMPI PUSH2 0xED0 PUSH2 0xA10 JUMP JUMPDEST JUMPDEST PUSH0 PUSH2 0xEDE DUP5 DUP3 DUP6 ADD PUSH2 0xB73 JUMP JUMPDEST SWAP2 POP POP SWAP3 SWAP2 POP POP JUMP JUMPDEST PUSH0 DUP3 DUP3 MSTORE PUSH1 0x20 DUP3 ADD SWAP1 POP SWAP3 SWAP2 POP POP JUMP JUMPDEST PUSH0 PUSH2 0xF01 DUP3 PUSH2 0xC38 JUMP JUMPDEST PUSH2 0xF0B DUP2 DUP6 PUSH2 0xEE7 JUMP JUMPDEST SWAP4 POP PUSH2 0xF1B DUP2 DUP6 PUSH1 0x20 DUP7 ADD PUSH2 0xC52 JUMP JUMPDEST PUSH2 0xF24 DUP2 PUSH2 0xA20 JUMP JUMPDEST DUP5 ADD SWAP2 POP POP SWAP3 SWAP2 POP POP JUMP JUMPDEST PUSH2 0xF38 DUP2 PUSH2 0xCC6 JUMP JUMPDEST DUP3 MSTORE POP POP JUMP JUMPDEST PUSH2 0xF47 DUP2 PUSH2 0xCE6 JUMP JUMPDEST DUP3 MSTORE POP POP JUMP JUMPDEST PUSH0 PUSH1 0xA0 DUP3 ADD SWAP1 POP DUP2 DUP2 SUB PUSH0 DUP4 ADD MSTORE PUSH2 0xF65 DUP2 DUP9 PUSH2 0xEF7 JUMP JUMPDEST SWAP1 POP PUSH2 0xF74 PUSH1 0x20 DUP4 ADD DUP8 PUSH2 0xE94 JUMP JUMPDEST PUSH2 0xF81 PUSH1 0x40 DUP4 ADD DUP7 PUSH2 0xF2F JUMP JUMPDEST DUP2 DUP2 SUB PUSH1 0x60 DUP4 ADD MSTORE PUSH2 0xF93 DUP2 DUP6 PUSH2 0xEF7 JUMP JUMPDEST SWAP1 POP PUSH2 0xFA2 PUSH1 0x80 DUP4 ADD DUP5 PUSH2 0xF3E JUMP JUMPDEST SWAP7 SWAP6 POP POP POP POP POP POP JUMP JUMPDEST PUSH32 0x4C6F636174696F6E206973207265717569726564000000000000000000000000 PUSH0 DUP3 ADD MSTORE POP JUMP JUMPDEST PUSH0 PUSH2 0xFE0 PUSH1 0x14 DUP4 PUSH2 0xEE7 JUMP JUMPDEST SWAP2 POP PUSH2 0xFEB DUP3 PUSH2 0xFAC JUMP JUMPDEST PUSH1 0x20 DUP3 ADD SWAP1 POP SWAP2 SWAP1 POP JUMP JUMPDEST PUSH0 PUSH1 0x20 DUP3 ADD SWAP1 POP DUP2 DUP2 SUB PUSH0 DUP4 ADD MSTORE PUSH2 0x100D DUP2 PUSH2 0xFD4 JUMP JUMPDEST SWAP1 POP SWAP2 SWAP1 POP JUMP JUMPDEST PUSH32 0x53697A65206D7573742062652067726561746572207468616E207A65726F0000 PUSH0 DUP3 ADD MSTORE POP JUMP JUMPDEST PUSH0 PUSH2 0x1048 PUSH1 0x1E DUP4 PUSH2 0xEE7 JUMP JUMPDEST SWAP2 POP PUSH2 0x1053 DUP3 PUSH2 0x1014 JUMP JUMPDEST PUSH1 0x20 DUP3 ADD SWAP1 POP SWAP2 SWAP1 POP JUMP JUMPDEST PUSH0 PUSH1 0x20 DUP3 ADD SWAP1 POP DUP2 DUP2 SUB PUSH0 DUP4 ADD MSTORE PUSH2 0x1075 DUP2 PUSH2 0x103C JUMP JUMPDEST SWAP1 POP SWAP2 SWAP1 POP JUMP JUMPDEST PUSH32 0x446F63756D656E74206861736820697320726571756972656400000000000000 PUSH0 DUP3 ADD MSTORE POP JUMP JUMPDEST PUSH0 PUSH2 0x10B0 PUSH1 0x19 DUP4 PUSH2 0xEE7 JUMP JUMPDEST SWAP2 POP PUSH2 0x10BB DUP3 PUSH2 0x107C JUMP JUMPDEST PUSH1 0x20 DUP3 ADD SWAP1 POP SWAP2 SWAP1 POP JUMP JUMPDEST PUSH0 PUSH1 0x20 DUP3 ADD SWAP1 POP DUP2 DUP2 SUB PUSH0 DUP4 ADD MSTORE PUSH2 0x10DD DUP2 PUSH2 0x10A4 JUMP JUMPDEST SWAP1 POP SWAP2 SWAP1 POP JUMP JUMPDEST PUSH0 DUP2 SWAP1 POP SWAP3 SWAP2 POP POP JUMP JUMPDEST PUSH0 PUSH2 0x10F8 DUP3 PUSH2 0xC38 JUMP JUMPDEST PUSH2 0x1102 DUP2 DUP6 PUSH2 0x10E4 JUMP JUMPDEST SWAP4 POP PUSH2 0x1112 DUP2 DUP6 PUSH1 0x20 DUP7 ADD PUSH2 0xC52 JUMP JUMPDEST DUP1 DUP5 ADD SWAP2 POP POP SWAP3 SWAP2 POP POP JUMP JUMPDEST PUSH0 PUSH2 0x1129 DUP3 DUP5 PUSH2 0x10EE JUMP JUMPDEST SWAP2 POP DUP2 SWAP1 POP SWAP3 SWAP2 POP POP JUMP JUMPDEST PUSH32 0x54686973206C616E6420697320616C7265616479207265676973746572656400 PUSH0 DUP3 ADD MSTORE POP JUMP JUMPDEST PUSH0 PUSH2 0x1168 PUSH1 0x1F DUP4 PUSH2 0xEE7 JUMP JUMPDEST SWAP2 POP PUSH2 0x1173 DUP3 PUSH2 0x1134 JUMP JUMPDEST PUSH1 0x20 DUP3 ADD SWAP1 POP SWAP2 SWAP1 POP JUMP JUMPDEST PUSH0 PUSH1 0x20 DUP3 ADD SWAP1 POP DUP2 DUP2 SUB PUSH0 DUP4 ADD MSTORE PUSH2 0x1195 DUP2 PUSH2 0x115C JUMP JUMPDEST SWAP1 POP SWAP2 SWAP1 POP JUMP JUMPDEST PUSH32 0x4E487B7100000000000000000000000000000000000000000000000000000000 PUSH0 MSTORE PUSH1 0x22 PUSH1 0x4 MSTORE PUSH1 0x24 PUSH0 REVERT JUMPDEST PUSH0 PUSH1 0x2 DUP3 DIV SWAP1 POP PUSH1 0x1 DUP3 AND DUP1 PUSH2 0x11E0 JUMPI PUSH1 0x7F DUP3 AND SWAP2 POP JUMPDEST PUSH1 0x20 DUP3 LT DUP2 SUB PUSH2 0x11F3 JUMPI PUSH2 0x11F2 PUSH2 0x119C JUMP JUMPDEST JUMPDEST POP SWAP2 SWAP1 POP JUMP JUMPDEST PUSH0 DUP2 SWAP1 POP DUP2 PUSH0 MSTORE PUSH1 0x20 PUSH0 KECCAK256 SWAP1 POP SWAP2 SWAP1 POP JUMP JUMPDEST PUSH0 PUSH1 0x20 PUSH1 0x1F DUP4 ADD DIV SWAP1 POP SWAP2 SWAP1 POP JUMP JUMPDEST PUSH0 DUP3 DUP3 SHL SWAP1 POP SWAP3 SWAP2 POP POP JUMP JUMPDEST PUSH0 PUSH1 0x8 DUP4 MUL PUSH2 0x1255 PUSH32 0xFFFFFFFFFFFFFFFFFFFFFFFFFFFFFFFFFFFFFFFFFFFFFFFFFFFFFFFFFFFFFFFF DUP3 PUSH2 0x121A JUMP JUMPDEST PUSH2 0x125F DUP7 DUP4 PUSH2 0x121A JUMP JUMPDEST SWAP6 POP DUP1 NOT DUP5 AND SWAP4 POP DUP1 DUP7 AND DUP5 OR SWAP3 POP POP POP SWAP4 SWAP3 POP POP POP JUMP JUMPDEST PUSH0 DUP2 SWAP1 POP SWAP2 SWAP1 POP JUMP JUMPDEST PUSH0 PUSH2 0x129A PUSH2 0x1295 PUSH2 0x1290 DUP5 PUSH2 0xB54 JUMP JUMPDEST PUSH2 0x1277 JUMP JUMPDEST PUSH2 0xB54 JUMP JUMPDEST SWAP1 POP SWAP2 SWAP1 POP JUMP JUMPDEST PUSH0 DUP2 SWAP1 POP SWAP2 SWAP1 POP JUMP JUMPDEST PUSH2 0x12B3 DUP4 PUSH2 0x1280 JUMP JUMPDEST PUSH2 0x12C7 PUSH2 0x12BF DUP3 PUSH2 0x12A1 JUMP JUMPDEST DUP5 DUP5 SLOAD PUSH2 0x1226 JUMP JUMPDEST DUP3 SSTORE POP POP POP POP JUMP JUMPDEST PUSH0 SWAP1 JUMP JUMPDEST PUSH2 0x12DB PUSH2 0x12CF JUMP JUMPDEST PUSH2 0x12E6 DUP2 DUP5 DUP5 PUSH2 0x12AA JUMP JUMPDEST POP POP POP JUMP JUMPDEST JUMPDEST DUP2 DUP2 LT ISZERO PUSH2 0x1309 JUMPI PUSH2 0x12FE PUSH0 DUP3 PUSH2 0x12D3 JUMP JUMPDEST PUSH1 0x1 DUP2 ADD SWAP1 POP PUSH2 0x12EC JUMP JUMPDEST POP POP JUMP JUMPDEST PUSH1 0x1F DUP3 GT ISZERO PUSH2 0x134E JUMPI PUSH2 0x131F DUP2 PUSH2 0x11F9 JUMP JUMPDEST PUSH2 0x1328 DUP5 PUSH2 0x120B JUMP JUMPDEST DUP2 ADD PUSH1 0x20 DUP6 LT ISZERO PUSH2 0x1337 JUMPI DUP2 SWAP1 POP JUMPDEST PUSH2 0x134B PUSH2 0x1343 DUP6 PUSH2 0x120B JUMP JUMPDEST DUP4 ADD DUP3 PUSH2 0x12EB JUMP JUMPDEST POP POP JUMPDEST POP POP POP JUMP JUMPDEST PUSH0 DUP3 DUP3 SHR SWAP1 POP SWAP3 SWAP2 POP POP JUMP JUMPDEST PUSH0 PUSH2 0x136E PUSH0 NOT DUP5 PUSH1 0x8 MUL PUSH2 0x1353 JUMP JUMPDEST NOT DUP1 DUP4 AND SWAP2 POP POP SWAP3 SWAP2 POP POP JUMP JUMPDEST PUSH0 PUSH2 0x1386 DUP4 DUP4 PUSH2 0x135F JUMP JUMPDEST SWAP2 POP DUP3 PUSH1 0x2 MUL DUP3 OR SWAP1 POP SWAP3 SWAP2 POP POP JUMP JUMPDEST PUSH2 0x139F DUP3 PUSH2 0xC38 JUMP JUMPDEST PUSH8 0xFFFFFFFFFFFFFFFF DUP2 GT ISZERO PUSH2 0x13B8 JUMPI PUSH2 0x13B7 PUSH2 0xA30 JUMP JUMPDEST JUMPDEST PUSH2 0x13C2 DUP3 SLOAD PUSH2 0x11C9 JUMP JUMPDEST PUSH2 0x13CD DUP3 DUP3 DUP6 PUSH2 0x130D JUMP JUMPDEST PUSH0 PUSH1 0x20 SWAP1 POP PUSH1 0x1F DUP4 GT PUSH1 0x1 DUP2 EQ PUSH2 0x13FE JUMPI PUSH0 DUP5 ISZERO PUSH2 0x13EC JUMPI DUP3 DUP8 ADD MLOAD SWAP1 POP JUMPDEST PUSH2 0x13F6 DUP6 DUP3 PUSH2 0x137B JUMP JUMPDEST DUP7 SSTORE POP PUSH2 0x145D JUMP JUMPDEST PUSH1 0x1F NOT DUP5 AND PUSH2 0x140C DUP7 PUSH2 0x11F9 JUMP JUMPDEST PUSH0 JUMPDEST DUP3 DUP2 LT ISZERO PUSH2 0x1433 JUMPI DUP5 DUP10 ADD MLOAD DUP3 SSTORE PUSH1 0x1 DUP3 ADD SWAP2 POP PUSH1 0x20 DUP6 ADD SWAP5 POP PUSH1 0x20 DUP2 ADD SWAP1 POP PUSH2 0x140E JUMP JUMPDEST DUP7 DUP4 LT ISZERO PUSH2 0x1450 JUMPI DUP5 DUP10 ADD MLOAD PUSH2 0x144C PUSH1 0x1F DUP10 AND DUP3 PUSH2 0x135F JUMP JUMPDEST DUP4 SSTORE POP JUMPDEST PUSH1 0x1 PUSH1 0x2 DUP9 MUL ADD DUP9 SSTORE POP POP POP JUMPDEST POP POP POP POP POP POP JUMP JUMPDEST PUSH0 PUSH1 0x60 DUP3 ADD SWAP1 POP DUP2 DUP2 SUB PUSH0 DUP4 ADD MSTORE PUSH2 0x147D DUP2 DUP7 PUSH2 0xEF7 JUMP JUMPDEST SWAP1 POP PUSH2 0x148C PUSH1 0x20 DUP4 ADD DUP6 PUSH2 0xE94 JUMP JUMPDEST DUP2 DUP2 SUB PUSH1 0x40 DUP4 ADD MSTORE PUSH2 0x149E DUP2 DUP5 PUSH2 0xEF7 JUMP JUMPDEST SWAP1 POP SWAP5 SWAP4 POP POP POP POP JUMP JUMPDEST PUSH32 0x4E487B7100000000000000000000000000000000000000000000000000000000 PUSH0 MSTORE PUSH1 0x11 PUSH1 0x4 MSTORE PUSH1 0x24 PUSH0 REVERT JUMPDEST PUSH0 PUSH2 0x14DF DUP3 PUSH2 0xB54 JUMP JUMPDEST SWAP2 POP PUSH32 0xFFFFFFFFFFFFFFFFFFFFFFFFFFFFFFFFFFFFFFFFFFFFFFFFFFFFFFFFFFFFFFFF DUP3 SUB PUSH2 0x1511 JUMPI PUSH2 0x1510 PUSH2 0x14A8 JUMP JUMPDEST JUMPDEST PUSH1 0x1 DUP3 ADD SWAP1 POP SWAP2 SWAP1 POP JUMP JUMPDEST PUSH32 0x4E487B7100000000000000000000000000000000000000000000000000000000 PUSH0 MSTORE PUSH1 0x32 PUSH1 0x4 MSTORE PUSH1 0x24 PUSH0 REVERT JUMPDEST PUSH32 0x4F6E6C7920746865206F776E65722063616E20706572666F726D207468697320 PUSH0 DUP3 ADD MSTORE PUSH32 0x616374696F6E0000000000000000000000000000000000000000000000000000 PUSH1 0x20 DUP3 ADD MSTORE POP JUMP JUMPDEST PUSH0 PUSH2 0x15A3 PUSH1 0x26 DUP4 PUSH2 0xEE7 JUMP JUMPDEST SWAP2 POP PUSH2 0x15AE DUP3 PUSH2 0x1549 JUMP JUMPDEST PUSH1 0x40 DUP3 ADD SWAP1 POP SWAP2 SWAP1 POP JUMP JUMPDEST PUSH0 PUSH1 0x20 DUP3 ADD SWAP1 POP DUP2 DUP2 SUB PUSH0 DUP4 ADD MSTORE PUSH2 0x15D0 DUP2 PUSH2 0x1597 JUMP JUMPDEST SWAP1 POP SWAP2 SWAP1 POP JUMP JUMPDEST PUSH32 0x4C616E6420494420697320696E76616C69640000000000000000000000000000 PUSH0 DUP3 ADD MSTORE POP JUMP JUMPDEST PUSH0 PUSH2 0x160B PUSH1 0x12 DUP4 PUSH2 0xEE7 JUMP JUMPDEST SWAP2 POP PUSH2 0x1616 DUP3 PUSH2 0x15D7 JUMP JUMPDEST PUSH1 0x20 DUP3 ADD SWAP1 POP SWAP2 SWAP1 POP JUMP JUMPDEST PUSH0 PUSH1 0x20 DUP3 ADD SWAP1 POP DUP2 DUP2 SUB PUSH0 DUP4 ADD MSTORE PUSH2 0x1638 DUP2 PUSH2 0x15FF JUMP JUMPDEST SWAP1 POP SWAP2 SWAP1 POP JUMP JUMPDEST PUSH32 0x4E6577206F776E65722061646472657373206973207265717569726564000000 PUSH0 DUP3 ADD MSTORE POP JUMP JUMPDEST PUSH0 PUSH2 0x1673 PUSH1 0x1D DUP4 PUSH2 0xEE7 JUMP JUMPDEST SWAP2 POP PUSH2 0x167E DUP3 PUSH2 0x163F JUMP JUMPDEST PUSH1 0x20 DUP3 ADD SWAP1 POP SWAP2 SWAP1 POP JUMP JUMPDEST PUSH0 PUSH1 0x20 DUP3 ADD SWAP1 POP DUP2 DUP2 SUB PUSH0 DUP4 ADD MSTORE PUSH2 0x16A0 DUP2 PUSH2 0x1667 JUMP JUMPDEST SWAP1 POP SWAP2 SWAP1 POP JUMP INVALID LOG2 PUSH5 0x6970667358 0x22 SLT KECCAK256 EXTCODEHASH 0xC0 0xE 0xBD 0xAE 0xD8 MUL 0x2C 0xE9 DUP3 PUSH6 0x554AD91F75F7 0xE9 0xBB DUP10 0xDB 0xB8 ADDRESS 0xE5 CALLDATASIZE PUSH2 0x1DCC LOG1 0xD8 0xBE GT PUSH5 0x736F6C6343 STOP ADDMOD BYTE STOP CALLER "
	},
	"abi": [
		{
			"anonymous": false,
			"inputs": [
				{
					"indexed": true,
					"internalType": "uint256",
					"name": "landId",
					"type": "uint256"
				},
				{
					"indexed": false,
					"internalType": "string",
					"name": "location",
					"type": "string"
				},
				{
					"indexed": false,
					"internalType": "uint256",
					"name": "size",
					"type": "uint256"
				},
				{
					"indexed": true,
					"internalType": "address",
					"name": "owner",
					"type": "address"
				},
				{
					"indexed": false,
					"internalType": "string",
					"name": "documentHash",
					"type": "string"
				}
			],
			"name": "LandRegistered",
			"type": "event"
		},
		{
			"anonymous": false,
			"inputs": [
				{
					"indexed": true,
					"internalType": "uint256",
					"name": "landId",
					"type": "uint256"
				},
				{
					"indexed": true,
					"internalType": "address",
					"name": "oldOwner",
					"type": "address"
				},
				{
					"indexed": true,
					"internalType": "address",
					"name": "newOwner",
					"type": "address"
				}
			],
			"name": "LandTransferred",
			"type": "event"
		},
		{
			"inputs": [
				{
					"internalType": "string",
					"name": "_location",
					"type": "string"
				},
				{
					"internalType": "uint256",
					"name": "_size",
					"type": "uint256"
				},
				{
					"internalType": "string",
					"name": "_documentHash",
					"type": "string"
				}
			],
			"name": "registerLand",
			"outputs": [],
			"stateMutability": "nonpayable",
			"type": "function"
		},
		{
			"inputs": [
				{
					"internalType": "uint256",
					"name": "_landId",
					"type": "uint256"
				},
				{
					"internalType": "address",
					"name": "_newOwner",
					"type": "address"
				}
			],
			"name": "transferLand",
			"outputs": [],
			"stateMutability": "nonpayable",
			"type": "function"
		},
		{
			"inputs": [],
			"name": "getAllLands",
			"outputs": [
				{
					"components": [
						{
							"internalType": "string",
							"name": "location",
							"type": "string"
						},
						{
							"internalType": "uint256",
							"name": "size",
							"type": "uint256"
						},
						{
							"internalType": "address",
							"name": "owner",
							"type": "address"
						},
						{
							"internalType": "string",
							"name": "documentHash",
							"type": "string"
						},
						{
							"internalType": "bool",
							"name": "exists",
							"type": "bool"
						}
					],
					"internalType": "struct LandRegistry.Land[]",
					"name": "",
					"type": "tuple[]"
				}
			],
			"stateMutability": "view",
			"type": "function"
		},
		{
			"inputs": [],
			"name": "landCount",
			"outputs": [
				{
					"internalType": "uint256",
					"name": "",
					"type": "uint256"
				}
			],
			"stateMutability": "view",
			"type": "function"
		},
		{
			"inputs": [
				{
					"internalType": "uint256",
					"name": "",
					"type": "uint256"
				}
			],
			"name": "lands",
			"outputs": [
				{
					"internalType": "string",
					"name": "location",
					"type": "string"
				},
				{
					"internalType": "uint256",
					"name": "size",
					"type": "uint256"
				},
				{
					"internalType": "address",
					"name": "owner",
					"type": "address"
				},
				{
					"internalType": "string",
					"name": "documentHash",
					"type": "string"
				},
				{
					"internalType": "bool",
					"name": "exists",
					"type": "bool"
				}
			],
			"stateMutability": "view",
			"type": "function"
		}
	],
	"storageLayout": {
		"storage": [
			{
				"astId": 17,
				"contract": "contracts/reg.sol:LandRegistry",
				"label": "lands",
				"offset": 0,
				"slot": "0",
				"type": "t_mapping(t_uint256,t_struct(Land)12_storage)"
			},
			{
				"astId": 21,
				"contract": "contracts/reg.sol:LandRegistry",
				"label": "registeredDocumentHashes",
				"offset": 0,
				"slot": "1",
				"type": "t_mapping(t_string_memory_ptr,t_bool)"
			},
			{
				"astId": 23,
				"contract": "contracts/reg.sol:LandRegistry",
				"label": "landCount",
				"offset": 0,
				"slot": "2",
				"type": "t_uint256"
			}
		],
		"types": {
			"t_address": {
				"encoding": "inplace",
				"label": "address",
				"numberOfBytes": "20"
			},
			"t_bool": {
				"encoding": "inplace",
				"label": "bool",
				"numberOfBytes": "1"
			},
			"t_mapping(t_string_memory_ptr,t_bool)": {
				"encoding": "mapping",
				"key": "t_string_memory_ptr",
				"label": "mapping(string => bool)",
				"numberOfBytes": "32",
				"value": "t_bool"
			},
			"t_mapping(t_uint256,t_struct(Land)12_storage)": {
				"encoding": "mapping",
				"key": "t_uint256",
				"label": "mapping(uint256 => struct LandRegistry.Land)",
				"numberOfBytes": "32",
				"value": "t_struct(Land)12_storage"
			},
			"t_string_memory_ptr": {
				"encoding": "bytes",
				"label": "string",
				"numberOfBytes": "32"
			},
			"t_string_storage": {
				"encoding": "bytes",
				"label": "string",
				"numberOfBytes": "32"
			},
			"t_struct(Land)12_storage": {
				"encoding": "inplace",
				"label": "struct LandRegistry.Land",
				"members": [
					{
						"astId": 3,
						"contract": "contracts/reg.sol:LandRegistry",
						"label": "location",
						"offset": 0,
						"slot": "0",
						"type": "t_string_storage"
					},
					{
						"astId": 5,
						"contract": "contracts/reg.sol:LandRegistry",
						"label": "size",
						"offset": 0,
						"slot": "1",
						"type": "t_uint256"
					},
					{
						"astId": 7,
						"contract": "contracts/reg.sol:LandRegistry",
						"label": "owner",
						"offset": 0,
						"slot": "2",
						"type": "t_address"
					},
					{
						"astId": 9,
						"contract": "contracts/reg.sol:LandRegistry",
						"label": "documentHash",
						"offset": 0,
						"slot": "3",
						"type": "t_string_storage"
					},
					{
						"astId": 11,
						"contract": "contracts/reg.sol:LandRegistry",
						"label": "exists",
						"offset": 0,
						"slot": "4",
						"type": "t_bool"
					}
				],
				"numberOfBytes": "160"
			},
			"t_uint256": {
				"encoding": "inplace",
				"label": "uint256",
				"numberOfBytes": "32"
			}
		}
	},
	"web3Deploy": "var landregistryContract = new web3.eth.Contract([{\"anonymous\":false,\"inputs\":[{\"indexed\":true,\"internalType\":\"uint256\",\"name\":\"landId\",\"type\":\"uint256\"},{\"indexed\":false,\"internalType\":\"string\",\"name\":\"location\",\"type\":\"string\"},{\"indexed\":false,\"internalType\":\"uint256\",\"name\":\"size\",\"type\":\"uint256\"},{\"indexed\":true,\"internalType\":\"address\",\"name\":\"owner\",\"type\":\"address\"},{\"indexed\":false,\"internalType\":\"string\",\"name\":\"documentHash\",\"type\":\"string\"}],\"name\":\"LandRegistered\",\"type\":\"event\"},{\"anonymous\":false,\"inputs\":[{\"indexed\":true,\"internalType\":\"uint256\",\"name\":\"landId\",\"type\":\"uint256\"},{\"indexed\":true,\"internalType\":\"address\",\"name\":\"oldOwner\",\"type\":\"address\"},{\"indexed\":true,\"internalType\":\"address\",\"name\":\"newOwner\",\"type\":\"address\"}],\"name\":\"LandTransferred\",\"type\":\"event\"},{\"inputs\":[],\"name\":\"getAllLands\",\"outputs\":[{\"components\":[{\"internalType\":\"string\",\"name\":\"location\",\"type\":\"string\"},{\"internalType\":\"uint256\",\"name\":\"size\",\"type\":\"uint256\"},{\"internalType\":\"address\",\"name\":\"owner\",\"type\":\"address\"},{\"internalType\":\"string\",\"name\":\"documentHash\",\"type\":\"string\"},{\"internalType\":\"bool\",\"name\":\"exists\",\"type\":\"bool\"}],\"internalType\":\"struct LandRegistry.Land[]\",\"name\":\"\",\"type\":\"tuple[]\"}],\"stateMutability\":\"view\",\"type\":\"function\"},{\"inputs\":[],\"name\":\"landCount\",\"outputs\":[{\"internalType\":\"uint256\",\"name\":\"\",\"type\":\"uint256\"}],\"stateMutability\":\"view\",\"type\":\"function\"},{\"inputs\":[{\"internalType\":\"uint256\",\"name\":\"\",\"type\":\"uint256\"}],\"name\":\"lands\",\"outputs\":[{\"internalType\":\"string\",\"name\":\"location\",\"type\":\"string\"},{\"internalType\":\"uint256\",\"name\":\"size\",\"type\":\"uint256\"},{\"internalType\":\"address\",\"name\":\"owner\",\"type\":\"address\"},{\"internalType\":\"string\",\"name\":\"documentHash\",\"type\":\"string\"},{\"internalType\":\"bool\",\"name\":\"exists\",\"type\":\"bool\"}],\"stateMutability\":\"view\",\"type\":\"function\"},{\"inputs\":[{\"internalType\":\"string\",\"name\":\"_location\",\"type\":\"string\"},{\"internalType\":\"uint256\",\"name\":\"_size\",\"type\":\"uint256\"},{\"internalType\":\"string\",\"name\":\"_documentHash\",\"type\":\"string\"}],\"name\":\"registerLand\",\"outputs\":[],\"stateMutability\":\"nonpayable\",\"type\":\"function\"},{\"inputs\":[{\"internalType\":\"uint256\",\"name\":\"_landId\",\"type\":\"uint256\"},{\"internalType\":\"address\",\"name\":\"_newOwner\",\"type\":\"address\"}],\"name\":\"transferLand\",\"outputs\":[],\"stateMutability\":\"nonpayable\",\"type\":\"function\"}]);\nvar landregistry = landregistryContract.deploy({\n     data: '0x6080604052348015600e575f80fd5b506116dd8061001c5f395ff3fe608060405234801561000f575f80fd5b5060043610610055575f3560e01c80637e6e448a14610059578063b7b6e54314610075578063c798ff7d14610093578063d7bce658146100af578063e261f1e5146100cd575b5f80fd5b610073600480360381019061006e9190610b87565b610101565b005b61007d6103c8565b60405161008a9190610e0c565b60405180910390f35b6100ad60048036038101906100a89190610e56565b61061a565b005b6100b7610855565b6040516100c49190610ea3565b60405180910390f35b6100e760048036038101906100e29190610ebc565b61085b565b6040516100f8959493929190610f4d565b60405180910390f35b5f835111610144576040517f08c379a000000000000000000000000000000000000000000000000000000000815260040161013b90610ff6565b60405180910390fd5b5f8211610186576040517f08c379a000000000000000000000000000000000000000000000000000000000815260040161017d9061105e565b60405180910390fd5b5f8151116101c9576040517f08c379a00000000000000000000000000000000000000000000000000000000081526004016101c0906110c6565b60405180910390fd5b6001816040516101d9919061111e565b90815260200160405180910390205f9054906101000a900460ff1615610234576040517f08c379a000000000000000000000000000000000000000000000000000000000815260040161022b9061117e565b60405180910390fd5b6040518060a001604052808481526020018381526020013373ffffffffffffffffffffffffffffffffffffffff168152602001828152602001600115158152505f8060025481526020019081526020015f205f820151815f0190816102999190611396565b50602082015181600101556040820151816002015f6101000a81548173ffffffffffffffffffffffffffffffffffffffff021916908373ffffffffffffffffffffffffffffffffffffffff16021790555060608201518160030190816102ff9190611396565b506080820151816004015f6101000a81548160ff02191690831515021790555090505060018082604051610333919061111e565b90815260200160405180910390205f6101000a81548160ff0219169083151502179055503373ffffffffffffffffffffffffffffffffffffffff166002547f339619fa84b087c7546a6105aeb2c85c0b4fba885879b3d76b498f3c181f3e878585856040516103a493929190611465565b60405180910390a360025f8154809291906103be906114d5565b9190505550505050565b60605f60025467ffffffffffffffff8111156103e7576103e6610a30565b5b60405190808252806020026020018201604052801561042057816020015b61040d6109c3565b8152602001906001900390816104055790505b5090505f5b600254811015610612575f805f8381526020019081526020015f209050806040518060a00160405290815f8201805461045d906111c9565b80601f0160208091040260200160405190810160405280929190818152602001828054610489906111c9565b80156104d45780601f106104ab576101008083540402835291602001916104d4565b820191905f5260205f20905b8154815290600101906020018083116104b757829003601f168201915b5050505050815260200160018201548152602001600282015f9054906101000a900473ffffffffffffffffffffffffffffffffffffffff1673ffffffffffffffffffffffffffffffffffffffff1673ffffffffffffffffffffffffffffffffffffffff16815260200160038201805461054c906111c9565b80601f0160208091040260200160405190810160405280929190818152602001828054610578906111c9565b80156105c35780601f1061059a576101008083540402835291602001916105c3565b820191905f5260205f20905b8154815290600101906020018083116105a657829003601f168201915b50505050508152602001600482015f9054906101000a900460ff1615151515815250508383815181106105f9576105f861151c565b5b6020026020010181905250508080600101915050610425565b508091505090565b815f808281526020019081526020015f206002015f9054906101000a900473ffffffffffffffffffffffffffffffffffffffff1673ffffffffffffffffffffffffffffffffffffffff163373ffffffffffffffffffffffffffffffffffffffff16146106bb576040517f08c379a00000000000000000000000000000000000000000000000000000000081526004016106b2906115b9565b60405180910390fd5b60025483106106ff576040517f08c379a00000000000000000000000000000000000000000000000000000000081526004016106f690611621565b60405180910390fd5b5f73ffffffffffffffffffffffffffffffffffffffff168273ffffffffffffffffffffffffffffffffffffffff160361076d576040517f08c379a000000000000000000000000000000000000000000000000000000000815260040161076490611689565b60405180910390fd5b5f805f8581526020019081526020015f206002015f9054906101000a900473ffffffffffffffffffffffffffffffffffffffff169050825f808681526020019081526020015f206002015f6101000a81548173ffffffffffffffffffffffffffffffffffffffff021916908373ffffffffffffffffffffffffffffffffffffffff1602179055508273ffffffffffffffffffffffffffffffffffffffff168173ffffffffffffffffffffffffffffffffffffffff16857f1080b2f211753e5090f26ef7ffdc6bb3e66a125c7290200d10b502160bb1f56660405160405180910390a450505050565b60025481565b5f602052805f5260405f205f91509050805f018054610879906111c9565b80601f01602080910402602001604051908101604052809291908181526020018280546108a5906111c9565b80156108f05780601f106108c7576101008083540402835291602001916108f0565b820191905f5260205f20905b8154815290600101906020018083116108d357829003601f168201915b505050505090806001015490806002015f9054906101000a900473ffffffffffffffffffffffffffffffffffffffff1690806003018054610930906111c9565b80601f016020809104026020016040519081016040528092919081815260200182805461095c906111c9565b80156109a75780601f1061097e576101008083540402835291602001916109a7565b820191905f5260205f20905b81548152906001019060200180831161098a57829003601f168201915b505050505090806004015f9054906101000a900460ff16905085565b6040518060a00160405280606081526020015f81526020015f73ffffffffffffffffffffffffffffffffffffffff168152602001606081526020015f151581525090565b5f604051905090565b5f80fd5b5f80fd5b5f80fd5b5f80fd5b5f601f19601f8301169050919050565b7f4e487b71000000000000000000000000000000000000000000000000000000005f52604160045260245ffd5b610a6682610a20565b810181811067ffffffffffffffff82111715610a8557610a84610a30565b5b80604052505050565b5f610a97610a07565b9050610aa38282610a5d565b919050565b5f67ffffffffffffffff821115610ac257610ac1610a30565b5b610acb82610a20565b9050602081019050919050565b828183375f83830152505050565b5f610af8610af384610aa8565b610a8e565b905082815260208101848484011115610b1457610b13610a1c565b5b610b1f848285610ad8565b509392505050565b5f82601f830112610b3b57610b3a610a18565b5b8135610b4b848260208601610ae6565b91505092915050565b5f819050919050565b610b6681610b54565b8114610b70575f80fd5b50565b5f81359050610b8181610b5d565b92915050565b5f805f60608486031215610b9e57610b9d610a10565b5b5f84013567ffffffffffffffff811115610bbb57610bba610a14565b5b610bc786828701610b27565b9350506020610bd886828701610b73565b925050604084013567ffffffffffffffff811115610bf957610bf8610a14565b5b610c0586828701610b27565b9150509250925092565b5f81519050919050565b5f82825260208201905092915050565b5f819050602082019050919050565b5f81519050919050565b5f82825260208201905092915050565b8281835e5f83830152505050565b5f610c6a82610c38565b610c748185610c42565b9350610c84818560208601610c52565b610c8d81610a20565b840191505092915050565b610ca181610b54565b82525050565b5f73ffffffffffffffffffffffffffffffffffffffff82169050919050565b5f610cd082610ca7565b9050919050565b610ce081610cc6565b82525050565b5f8115159050919050565b610cfa81610ce6565b82525050565b5f60a083015f8301518482035f860152610d1a8282610c60565b9150506020830151610d2f6020860182610c98565b506040830151610d426040860182610cd7565b5060608301518482036060860152610d5a8282610c60565b9150506080830151610d6f6080860182610cf1565b508091505092915050565b5f610d858383610d00565b905092915050565b5f602082019050919050565b5f610da382610c0f565b610dad8185610c19565b935083602082028501610dbf85610c29565b805f5b85811015610dfa5784840389528151610ddb8582610d7a565b9450610de683610d8d565b925060208a01995050600181019050610dc2565b50829750879550505050505092915050565b5f6020820190508181035f830152610e248184610d99565b905092915050565b610e3581610cc6565b8114610e3f575f80fd5b50565b5f81359050610e5081610e2c565b92915050565b5f8060408385031215610e6c57610e6b610a10565b5b5f610e7985828601610b73565b9250506020610e8a85828601610e42565b9150509250929050565b610e9d81610b54565b82525050565b5f602082019050610eb65f830184610e94565b92915050565b5f60208284031215610ed157610ed0610a10565b5b5f610ede84828501610b73565b91505092915050565b5f82825260208201905092915050565b5f610f0182610c38565b610f0b8185610ee7565b9350610f1b818560208601610c52565b610f2481610a20565b840191505092915050565b610f3881610cc6565b82525050565b610f4781610ce6565b82525050565b5f60a0820190508181035f830152610f658188610ef7565b9050610f746020830187610e94565b610f816040830186610f2f565b8181036060830152610f938185610ef7565b9050610fa26080830184610f3e565b9695505050505050565b7f4c6f636174696f6e2069732072657175697265640000000000000000000000005f82015250565b5f610fe0601483610ee7565b9150610feb82610fac565b602082019050919050565b5f6020820190508181035f83015261100d81610fd4565b9050919050565b7f53697a65206d7573742062652067726561746572207468616e207a65726f00005f82015250565b5f611048601e83610ee7565b915061105382611014565b602082019050919050565b5f6020820190508181035f8301526110758161103c565b9050919050565b7f446f63756d656e742068617368206973207265717569726564000000000000005f82015250565b5f6110b0601983610ee7565b91506110bb8261107c565b602082019050919050565b5f6020820190508181035f8301526110dd816110a4565b9050919050565b5f81905092915050565b5f6110f882610c38565b61110281856110e4565b9350611112818560208601610c52565b80840191505092915050565b5f61112982846110ee565b915081905092915050565b7f54686973206c616e6420697320616c72656164792072656769737465726564005f82015250565b5f611168601f83610ee7565b915061117382611134565b602082019050919050565b5f6020820190508181035f8301526111958161115c565b9050919050565b7f4e487b71000000000000000000000000000000000000000000000000000000005f52602260045260245ffd5b5f60028204905060018216806111e057607f821691505b6020821081036111f3576111f261119c565b5b50919050565b5f819050815f5260205f209050919050565b5f6020601f8301049050919050565b5f82821b905092915050565b5f600883026112557fffffffffffffffffffffffffffffffffffffffffffffffffffffffffffffffff8261121a565b61125f868361121a565b95508019841693508086168417925050509392505050565b5f819050919050565b5f61129a61129561129084610b54565b611277565b610b54565b9050919050565b5f819050919050565b6112b383611280565b6112c76112bf826112a1565b848454611226565b825550505050565b5f90565b6112db6112cf565b6112e68184846112aa565b505050565b5b81811015611309576112fe5f826112d3565b6001810190506112ec565b5050565b601f82111561134e5761131f816111f9565b6113288461120b565b81016020851015611337578190505b61134b6113438561120b565b8301826112eb565b50505b505050565b5f82821c905092915050565b5f61136e5f1984600802611353565b1980831691505092915050565b5f611386838361135f565b9150826002028217905092915050565b61139f82610c38565b67ffffffffffffffff8111156113b8576113b7610a30565b5b6113c282546111c9565b6113cd82828561130d565b5f60209050601f8311600181146113fe575f84156113ec578287015190505b6113f6858261137b565b86555061145d565b601f19841661140c866111f9565b5f5b828110156114335784890151825560018201915060208501945060208101905061140e565b86831015611450578489015161144c601f89168261135f565b8355505b6001600288020188555050505b505050505050565b5f6060820190508181035f83015261147d8186610ef7565b905061148c6020830185610e94565b818103604083015261149e8184610ef7565b9050949350505050565b7f4e487b71000000000000000000000000000000000000000000000000000000005f52601160045260245ffd5b5f6114df82610b54565b91507fffffffffffffffffffffffffffffffffffffffffffffffffffffffffffffffff8203611511576115106114a8565b5b600182019050919050565b7f4e487b71000000000000000000000000000000000000000000000000000000005f52603260045260245ffd5b7f4f6e6c7920746865206f776e65722063616e20706572666f726d2074686973205f8201527f616374696f6e0000000000000000000000000000000000000000000000000000602082015250565b5f6115a3602683610ee7565b91506115ae82611549565b604082019050919050565b5f6020820190508181035f8301526115d081611597565b9050919050565b7f4c616e6420494420697320696e76616c696400000000000000000000000000005f82015250565b5f61160b601283610ee7565b9150611616826115d7565b602082019050919050565b5f6020820190508181035f830152611638816115ff565b9050919050565b7f4e6577206f776e657220616464726573732069732072657175697265640000005f82015250565b5f611673601d83610ee7565b915061167e8261163f565b602082019050919050565b5f6020820190508181035f8301526116a081611667565b905091905056fea26469706673582212203fc00ebdaed8022ce98265554ad91f75f7e9bb89dbb830e536611dcca1d8be1164736f6c634300081a0033', \n     arguments: [\n     ]\n}).send({\n     from: web3.eth.accounts[0], \n     gas: '4700000'\n   }, function (e, contract){\n    console.log(e, contract);\n    if (typeof contract.address !== 'undefined') {\n         console.log('Contract mined! address: ' + contract.address + ' transactionHash: ' + contract.transactionHash);\n    }\n })",
	"functionHashes": {
		"b7b6e543": "getAllLands()",
		"d7bce658": "landCount()",
		"e261f1e5": "lands(uint256)",
		"7e6e448a": "registerLand(string,uint256,string)",
		"c798ff7d": "transferLand(uint256,address)"
	},
	"gasEstimates": {
		"Creation": {
			"codeDepositCost": "1170600",
			"executionCost": "1212",
			"totalCost": "1171812"
		},
		"External": {
			"getAllLands()": "infinite",
			"landCount()": "2469",
			"lands(uint256)": "infinite",
			"registerLand(string,uint256,string)": "infinite",
			"transferLand(uint256,address)": "33555"
		}
	},
	"devdoc": {
		"kind": "dev",
		"methods": {},
		"version": 1
	},
	"userdoc": {
		"kind": "user",
		"methods": {},
		"version": 1
	},
	"Runtime Bytecode": {
		"immutableReferences": {},
		"linkReferences": {},
		"object": "608060405234801561000f575f80fd5b5060043610610055575f3560e01c80637e6e448a14610059578063b7b6e54314610075578063c798ff7d14610093578063d7bce658146100af578063e261f1e5146100cd575b5f80fd5b610073600480360381019061006e9190610b87565b610101565b005b61007d6103c8565b60405161008a9190610e0c565b60405180910390f35b6100ad60048036038101906100a89190610e56565b61061a565b005b6100b7610855565b6040516100c49190610ea3565b60405180910390f35b6100e760048036038101906100e29190610ebc565b61085b565b6040516100f8959493929190610f4d565b60405180910390f35b5f835111610144576040517f08c379a000000000000000000000000000000000000000000000000000000000815260040161013b90610ff6565b60405180910390fd5b5f8211610186576040517f08c379a000000000000000000000000000000000000000000000000000000000815260040161017d9061105e565b60405180910390fd5b5f8151116101c9576040517f08c379a00000000000000000000000000000000000000000000000000000000081526004016101c0906110c6565b60405180910390fd5b6001816040516101d9919061111e565b90815260200160405180910390205f9054906101000a900460ff1615610234576040517f08c379a000000000000000000000000000000000000000000000000000000000815260040161022b9061117e565b60405180910390fd5b6040518060a001604052808481526020018381526020013373ffffffffffffffffffffffffffffffffffffffff168152602001828152602001600115158152505f8060025481526020019081526020015f205f820151815f0190816102999190611396565b50602082015181600101556040820151816002015f6101000a81548173ffffffffffffffffffffffffffffffffffffffff021916908373ffffffffffffffffffffffffffffffffffffffff16021790555060608201518160030190816102ff9190611396565b506080820151816004015f6101000a81548160ff02191690831515021790555090505060018082604051610333919061111e565b90815260200160405180910390205f6101000a81548160ff0219169083151502179055503373ffffffffffffffffffffffffffffffffffffffff166002547f339619fa84b087c7546a6105aeb2c85c0b4fba885879b3d76b498f3c181f3e878585856040516103a493929190611465565b60405180910390a360025f8154809291906103be906114d5565b9190505550505050565b60605f60025467ffffffffffffffff8111156103e7576103e6610a30565b5b60405190808252806020026020018201604052801561042057816020015b61040d6109c3565b8152602001906001900390816104055790505b5090505f5b600254811015610612575f805f8381526020019081526020015f209050806040518060a00160405290815f8201805461045d906111c9565b80601f0160208091040260200160405190810160405280929190818152602001828054610489906111c9565b80156104d45780601f106104ab576101008083540402835291602001916104d4565b820191905f5260205f20905b8154815290600101906020018083116104b757829003601f168201915b5050505050815260200160018201548152602001600282015f9054906101000a900473ffffffffffffffffffffffffffffffffffffffff1673ffffffffffffffffffffffffffffffffffffffff1673ffffffffffffffffffffffffffffffffffffffff16815260200160038201805461054c906111c9565b80601f0160208091040260200160405190810160405280929190818152602001828054610578906111c9565b80156105c35780601f1061059a576101008083540402835291602001916105c3565b820191905f5260205f20905b8154815290600101906020018083116105a657829003601f168201915b50505050508152602001600482015f9054906101000a900460ff1615151515815250508383815181106105f9576105f861151c565b5b6020026020010181905250508080600101915050610425565b508091505090565b815f808281526020019081526020015f206002015f9054906101000a900473ffffffffffffffffffffffffffffffffffffffff1673ffffffffffffffffffffffffffffffffffffffff163373ffffffffffffffffffffffffffffffffffffffff16146106bb576040517f08c379a00000000000000000000000000000000000000000000000000000000081526004016106b2906115b9565b60405180910390fd5b60025483106106ff576040517f08c379a00000000000000000000000000000000000000000000000000000000081526004016106f690611621565b60405180910390fd5b5f73ffffffffffffffffffffffffffffffffffffffff168273ffffffffffffffffffffffffffffffffffffffff160361076d576040517f08c379a000000000000000000000000000000000000000000000000000000000815260040161076490611689565b60405180910390fd5b5f805f8581526020019081526020015f206002015f9054906101000a900473ffffffffffffffffffffffffffffffffffffffff169050825f808681526020019081526020015f206002015f6101000a81548173ffffffffffffffffffffffffffffffffffffffff021916908373ffffffffffffffffffffffffffffffffffffffff1602179055508273ffffffffffffffffffffffffffffffffffffffff168173ffffffffffffffffffffffffffffffffffffffff16857f1080b2f211753e5090f26ef7ffdc6bb3e66a125c7290200d10b502160bb1f56660405160405180910390a450505050565b60025481565b5f602052805f5260405f205f91509050805f018054610879906111c9565b80601f01602080910402602001604051908101604052809291908181526020018280546108a5906111c9565b80156108f05780601f106108c7576101008083540402835291602001916108f0565b820191905f5260205f20905b8154815290600101906020018083116108d357829003601f168201915b505050505090806001015490806002015f9054906101000a900473ffffffffffffffffffffffffffffffffffffffff1690806003018054610930906111c9565b80601f016020809104026020016040519081016040528092919081815260200182805461095c906111c9565b80156109a75780601f1061097e576101008083540402835291602001916109a7565b820191905f5260205f20905b81548152906001019060200180831161098a57829003601f168201915b505050505090806004015f9054906101000a900460ff16905085565b6040518060a00160405280606081526020015f81526020015f73ffffffffffffffffffffffffffffffffffffffff168152602001606081526020015f151581525090565b5f604051905090565b5f80fd5b5f80fd5b5f80fd5b5f80fd5b5f601f19601f8301169050919050565b7f4e487b71000000000000000000000000000000000000000000000000000000005f52604160045260245ffd5b610a6682610a20565b810181811067ffffffffffffffff82111715610a8557610a84610a30565b5b80604052505050565b5f610a97610a07565b9050610aa38282610a5d565b919050565b5f67ffffffffffffffff821115610ac257610ac1610a30565b5b610acb82610a20565b9050602081019050919050565b828183375f83830152505050565b5f610af8610af384610aa8565b610a8e565b905082815260208101848484011115610b1457610b13610a1c565b5b610b1f848285610ad8565b509392505050565b5f82601f830112610b3b57610b3a610a18565b5b8135610b4b848260208601610ae6565b91505092915050565b5f819050919050565b610b6681610b54565b8114610b70575f80fd5b50565b5f81359050610b8181610b5d565b92915050565b5f805f60608486031215610b9e57610b9d610a10565b5b5f84013567ffffffffffffffff811115610bbb57610bba610a14565b5b610bc786828701610b27565b9350506020610bd886828701610b73565b925050604084013567ffffffffffffffff811115610bf957610bf8610a14565b5b610c0586828701610b27565b9150509250925092565b5f81519050919050565b5f82825260208201905092915050565b5f819050602082019050919050565b5f81519050919050565b5f82825260208201905092915050565b8281835e5f83830152505050565b5f610c6a82610c38565b610c748185610c42565b9350610c84818560208601610c52565b610c8d81610a20565b840191505092915050565b610ca181610b54565b82525050565b5f73ffffffffffffffffffffffffffffffffffffffff82169050919050565b5f610cd082610ca7565b9050919050565b610ce081610cc6565b82525050565b5f8115159050919050565b610cfa81610ce6565b82525050565b5f60a083015f8301518482035f860152610d1a8282610c60565b9150506020830151610d2f6020860182610c98565b506040830151610d426040860182610cd7565b5060608301518482036060860152610d5a8282610c60565b9150506080830151610d6f6080860182610cf1565b508091505092915050565b5f610d858383610d00565b905092915050565b5f602082019050919050565b5f610da382610c0f565b610dad8185610c19565b935083602082028501610dbf85610c29565b805f5b85811015610dfa5784840389528151610ddb8582610d7a565b9450610de683610d8d565b925060208a01995050600181019050610dc2565b50829750879550505050505092915050565b5f6020820190508181035f830152610e248184610d99565b905092915050565b610e3581610cc6565b8114610e3f575f80fd5b50565b5f81359050610e5081610e2c565b92915050565b5f8060408385031215610e6c57610e6b610a10565b5b5f610e7985828601610b73565b9250506020610e8a85828601610e42565b9150509250929050565b610e9d81610b54565b82525050565b5f602082019050610eb65f830184610e94565b92915050565b5f60208284031215610ed157610ed0610a10565b5b5f610ede84828501610b73565b91505092915050565b5f82825260208201905092915050565b5f610f0182610c38565b610f0b8185610ee7565b9350610f1b818560208601610c52565b610f2481610a20565b840191505092915050565b610f3881610cc6565b82525050565b610f4781610ce6565b82525050565b5f60a0820190508181035f830152610f658188610ef7565b9050610f746020830187610e94565b610f816040830186610f2f565b8181036060830152610f938185610ef7565b9050610fa26080830184610f3e565b9695505050505050565b7f4c6f636174696f6e2069732072657175697265640000000000000000000000005f82015250565b5f610fe0601483610ee7565b9150610feb82610fac565b602082019050919050565b5f6020820190508181035f83015261100d81610fd4565b9050919050565b7f53697a65206d7573742062652067726561746572207468616e207a65726f00005f82015250565b5f611048601e83610ee7565b915061105382611014565b602082019050919050565b5f6020820190508181035f8301526110758161103c565b9050919050565b7f446f63756d656e742068617368206973207265717569726564000000000000005f82015250565b5f6110b0601983610ee7565b91506110bb8261107c565b602082019050919050565b5f6020820190508181035f8301526110dd816110a4565b9050919050565b5f81905092915050565b5f6110f882610c38565b61110281856110e4565b9350611112818560208601610c52565b80840191505092915050565b5f61112982846110ee565b915081905092915050565b7f54686973206c616e6420697320616c72656164792072656769737465726564005f82015250565b5f611168601f83610ee7565b915061117382611134565b602082019050919050565b5f6020820190508181035f8301526111958161115c565b9050919050565b7f4e487b71000000000000000000000000000000000000000000000000000000005f52602260045260245ffd5b5f60028204905060018216806111e057607f821691505b6020821081036111f3576111f261119c565b5b50919050565b5f819050815f5260205f209050919050565b5f6020601f8301049050919050565b5f82821b905092915050565b5f600883026112557fffffffffffffffffffffffffffffffffffffffffffffffffffffffffffffffff8261121a565b61125f868361121a565b95508019841693508086168417925050509392505050565b5f819050919050565b5f61129a61129561129084610b54565b611277565b610b54565b9050919050565b5f819050919050565b6112b383611280565b6112c76112bf826112a1565b848454611226565b825550505050565b5f90565b6112db6112cf565b6112e68184846112aa565b505050565b5b81811015611309576112fe5f826112d3565b6001810190506112ec565b5050565b601f82111561134e5761131f816111f9565b6113288461120b565b81016020851015611337578190505b61134b6113438561120b565b8301826112eb565b50505b505050565b5f82821c905092915050565b5f61136e5f1984600802611353565b1980831691505092915050565b5f611386838361135f565b9150826002028217905092915050565b61139f82610c38565b67ffffffffffffffff8111156113b8576113b7610a30565b5b6113c282546111c9565b6113cd82828561130d565b5f60209050601f8311600181146113fe575f84156113ec578287015190505b6113f6858261137b565b86555061145d565b601f19841661140c866111f9565b5f5b828110156114335784890151825560018201915060208501945060208101905061140e565b86831015611450578489015161144c601f89168261135f565b8355505b6001600288020188555050505b505050505050565b5f6060820190508181035f83015261147d8186610ef7565b905061148c6020830185610e94565b818103604083015261149e8184610ef7565b9050949350505050565b7f4e487b71000000000000000000000000000000000000000000000000000000005f52601160045260245ffd5b5f6114df82610b54565b91507fffffffffffffffffffffffffffffffffffffffffffffffffffffffffffffffff8203611511576115106114a8565b5b600182019050919050565b7f4e487b71000000000000000000000000000000000000000000000000000000005f52603260045260245ffd5b7f4f6e6c7920746865206f776e65722063616e20706572666f726d2074686973205f8201527f616374696f6e0000000000000000000000000000000000000000000000000000602082015250565b5f6115a3602683610ee7565b91506115ae82611549565b604082019050919050565b5f6020820190508181035f8301526115d081611597565b9050919050565b7f4c616e6420494420697320696e76616c696400000000000000000000000000005f82015250565b5f61160b601283610ee7565b9150611616826115d7565b602082019050919050565b5f6020820190508181035f830152611638816115ff565b9050919050565b7f4e6577206f776e657220616464726573732069732072657175697265640000005f82015250565b5f611673601d83610ee7565b915061167e8261163f565b602082019050919050565b5f6020820190508181035f8301526116a081611667565b905091905056fea26469706673582212203fc00ebdaed8022ce98265554ad91f75f7e9bb89dbb830e536611dcca1d8be1164736f6c634300081a0033",
		"opcodes": "PUSH1 0x80 PUSH1 0x40 MSTORE CALLVALUE DUP1 ISZERO PUSH2 0xF JUMPI PUSH0 DUP1 REVERT JUMPDEST POP PUSH1 0x4 CALLDATASIZE LT PUSH2 0x55 JUMPI PUSH0 CALLDATALOAD PUSH1 0xE0 SHR DUP1 PUSH4 0x7E6E448A EQ PUSH2 0x59 JUMPI DUP1 PUSH4 0xB7B6E543 EQ PUSH2 0x75 JUMPI DUP1 PUSH4 0xC798FF7D EQ PUSH2 0x93 JUMPI DUP1 PUSH4 0xD7BCE658 EQ PUSH2 0xAF JUMPI DUP1 PUSH4 0xE261F1E5 EQ PUSH2 0xCD JUMPI JUMPDEST PUSH0 DUP1 REVERT JUMPDEST PUSH2 0x73 PUSH1 0x4 DUP1 CALLDATASIZE SUB DUP2 ADD SWAP1 PUSH2 0x6E SWAP2 SWAP1 PUSH2 0xB87 JUMP JUMPDEST PUSH2 0x101 JUMP JUMPDEST STOP JUMPDEST PUSH2 0x7D PUSH2 0x3C8 JUMP JUMPDEST PUSH1 0x40 MLOAD PUSH2 0x8A SWAP2 SWAP1 PUSH2 0xE0C JUMP JUMPDEST PUSH1 0x40 MLOAD DUP1 SWAP2 SUB SWAP1 RETURN JUMPDEST PUSH2 0xAD PUSH1 0x4 DUP1 CALLDATASIZE SUB DUP2 ADD SWAP1 PUSH2 0xA8 SWAP2 SWAP1 PUSH2 0xE56 JUMP JUMPDEST PUSH2 0x61A JUMP JUMPDEST STOP JUMPDEST PUSH2 0xB7 PUSH2 0x855 JUMP JUMPDEST PUSH1 0x40 MLOAD PUSH2 0xC4 SWAP2 SWAP1 PUSH2 0xEA3 JUMP JUMPDEST PUSH1 0x40 MLOAD DUP1 SWAP2 SUB SWAP1 RETURN JUMPDEST PUSH2 0xE7 PUSH1 0x4 DUP1 CALLDATASIZE SUB DUP2 ADD SWAP1 PUSH2 0xE2 SWAP2 SWAP1 PUSH2 0xEBC JUMP JUMPDEST PUSH2 0x85B JUMP JUMPDEST PUSH1 0x40 MLOAD PUSH2 0xF8 SWAP6 SWAP5 SWAP4 SWAP3 SWAP2 SWAP1 PUSH2 0xF4D JUMP JUMPDEST PUSH1 0x40 MLOAD DUP1 SWAP2 SUB SWAP1 RETURN JUMPDEST PUSH0 DUP4 MLOAD GT PUSH2 0x144 JUMPI PUSH1 0x40 MLOAD PUSH32 0x8C379A000000000000000000000000000000000000000000000000000000000 DUP2 MSTORE PUSH1 0x4 ADD PUSH2 0x13B SWAP1 PUSH2 0xFF6 JUMP JUMPDEST PUSH1 0x40 MLOAD DUP1 SWAP2 SUB SWAP1 REVERT JUMPDEST PUSH0 DUP3 GT PUSH2 0x186 JUMPI PUSH1 0x40 MLOAD PUSH32 0x8C379A000000000000000000000000000000000000000000000000000000000 DUP2 MSTORE PUSH1 0x4 ADD PUSH2 0x17D SWAP1 PUSH2 0x105E JUMP JUMPDEST PUSH1 0x40 MLOAD DUP1 SWAP2 SUB SWAP1 REVERT JUMPDEST PUSH0 DUP2 MLOAD GT PUSH2 0x1C9 JUMPI PUSH1 0x40 MLOAD PUSH32 0x8C379A000000000000000000000000000000000000000000000000000000000 DUP2 MSTORE PUSH1 0x4 ADD PUSH2 0x1C0 SWAP1 PUSH2 0x10C6 JUMP JUMPDEST PUSH1 0x40 MLOAD DUP1 SWAP2 SUB SWAP1 REVERT JUMPDEST PUSH1 0x1 DUP2 PUSH1 0x40 MLOAD PUSH2 0x1D9 SWAP2 SWAP1 PUSH2 0x111E JUMP JUMPDEST SWAP1 DUP2 MSTORE PUSH1 0x20 ADD PUSH1 0x40 MLOAD DUP1 SWAP2 SUB SWAP1 KECCAK256 PUSH0 SWAP1 SLOAD SWAP1 PUSH2 0x100 EXP SWAP1 DIV PUSH1 0xFF AND ISZERO PUSH2 0x234 JUMPI PUSH1 0x40 MLOAD PUSH32 0x8C379A000000000000000000000000000000000000000000000000000000000 DUP2 MSTORE PUSH1 0x4 ADD PUSH2 0x22B SWAP1 PUSH2 0x117E JUMP JUMPDEST PUSH1 0x40 MLOAD DUP1 SWAP2 SUB SWAP1 REVERT JUMPDEST PUSH1 0x40 MLOAD DUP1 PUSH1 0xA0 ADD PUSH1 0x40 MSTORE DUP1 DUP5 DUP2 MSTORE PUSH1 0x20 ADD DUP4 DUP2 MSTORE PUSH1 0x20 ADD CALLER PUSH20 0xFFFFFFFFFFFFFFFFFFFFFFFFFFFFFFFFFFFFFFFF AND DUP2 MSTORE PUSH1 0x20 ADD DUP3 DUP2 MSTORE PUSH1 0x20 ADD PUSH1 0x1 ISZERO ISZERO DUP2 MSTORE POP PUSH0 DUP1 PUSH1 0x2 SLOAD DUP2 MSTORE PUSH1 0x20 ADD SWAP1 DUP2 MSTORE PUSH1 0x20 ADD PUSH0 KECCAK256 PUSH0 DUP3 ADD MLOAD DUP2 PUSH0 ADD SWAP1 DUP2 PUSH2 0x299 SWAP2 SWAP1 PUSH2 0x1396 JUMP JUMPDEST POP PUSH1 0x20 DUP3 ADD MLOAD DUP2 PUSH1 0x1 ADD SSTORE PUSH1 0x40 DUP3 ADD MLOAD DUP2 PUSH1 0x2 ADD PUSH0 PUSH2 0x100 EXP DUP2 SLOAD DUP2 PUSH20 0xFFFFFFFFFFFFFFFFFFFFFFFFFFFFFFFFFFFFFFFF MUL NOT AND SWAP1 DUP4 PUSH20 0xFFFFFFFFFFFFFFFFFFFFFFFFFFFFFFFFFFFFFFFF AND MUL OR SWAP1 SSTORE POP PUSH1 0x60 DUP3 ADD MLOAD DUP2 PUSH1 0x3 ADD SWAP1 DUP2 PUSH2 0x2FF SWAP2 SWAP1 PUSH2 0x1396 JUMP JUMPDEST POP PUSH1 0x80 DUP3 ADD MLOAD DUP2 PUSH1 0x4 ADD PUSH0 PUSH2 0x100 EXP DUP2 SLOAD DUP2 PUSH1 0xFF MUL NOT AND SWAP1 DUP4 ISZERO ISZERO MUL OR SWAP1 SSTORE POP SWAP1 POP POP PUSH1 0x1 DUP1 DUP3 PUSH1 0x40 MLOAD PUSH2 0x333 SWAP2 SWAP1 PUSH2 0x111E JUMP JUMPDEST SWAP1 DUP2 MSTORE PUSH1 0x20 ADD PUSH1 0x40 MLOAD DUP1 SWAP2 SUB SWAP1 KECCAK256 PUSH0 PUSH2 0x100 EXP DUP2 SLOAD DUP2 PUSH1 0xFF MUL NOT AND SWAP1 DUP4 ISZERO ISZERO MUL OR SWAP1 SSTORE POP CALLER PUSH20 0xFFFFFFFFFFFFFFFFFFFFFFFFFFFFFFFFFFFFFFFF AND PUSH1 0x2 SLOAD PUSH32 0x339619FA84B087C7546A6105AEB2C85C0B4FBA885879B3D76B498F3C181F3E87 DUP6 DUP6 DUP6 PUSH1 0x40 MLOAD PUSH2 0x3A4 SWAP4 SWAP3 SWAP2 SWAP1 PUSH2 0x1465 JUMP JUMPDEST PUSH1 0x40 MLOAD DUP1 SWAP2 SUB SWAP1 LOG3 PUSH1 0x2 PUSH0 DUP2 SLOAD DUP1 SWAP3 SWAP2 SWAP1 PUSH2 0x3BE SWAP1 PUSH2 0x14D5 JUMP JUMPDEST SWAP2 SWAP1 POP SSTORE POP POP POP POP JUMP JUMPDEST PUSH1 0x60 PUSH0 PUSH1 0x2 SLOAD PUSH8 0xFFFFFFFFFFFFFFFF DUP2 GT ISZERO PUSH2 0x3E7 JUMPI PUSH2 0x3E6 PUSH2 0xA30 JUMP JUMPDEST JUMPDEST PUSH1 0x40 MLOAD SWAP1 DUP1 DUP3 MSTORE DUP1 PUSH1 0x20 MUL PUSH1 0x20 ADD DUP3 ADD PUSH1 0x40 MSTORE DUP1 ISZERO PUSH2 0x420 JUMPI DUP2 PUSH1 0x20 ADD JUMPDEST PUSH2 0x40D PUSH2 0x9C3 JUMP JUMPDEST DUP2 MSTORE PUSH1 0x20 ADD SWAP1 PUSH1 0x1 SWAP1 SUB SWAP1 DUP2 PUSH2 0x405 JUMPI SWAP1 POP JUMPDEST POP SWAP1 POP PUSH0 JUMPDEST PUSH1 0x2 SLOAD DUP2 LT ISZERO PUSH2 0x612 JUMPI PUSH0 DUP1 PUSH0 DUP4 DUP2 MSTORE PUSH1 0x20 ADD SWAP1 DUP2 MSTORE PUSH1 0x20 ADD PUSH0 KECCAK256 SWAP1 POP DUP1 PUSH1 0x40 MLOAD DUP1 PUSH1 0xA0 ADD PUSH1 0x40 MSTORE SWAP1 DUP2 PUSH0 DUP3 ADD DUP1 SLOAD PUSH2 0x45D SWAP1 PUSH2 0x11C9 JUMP JUMPDEST DUP1 PUSH1 0x1F ADD PUSH1 0x20 DUP1 SWAP2 DIV MUL PUSH1 0x20 ADD PUSH1 0x40 MLOAD SWAP1 DUP2 ADD PUSH1 0x40 MSTORE DUP1 SWAP3 SWAP2 SWAP1 DUP2 DUP2 MSTORE PUSH1 0x20 ADD DUP3 DUP1 SLOAD PUSH2 0x489 SWAP1 PUSH2 0x11C9 JUMP JUMPDEST DUP1 ISZERO PUSH2 0x4D4 JUMPI DUP1 PUSH1 0x1F LT PUSH2 0x4AB JUMPI PUSH2 0x100 DUP1 DUP4 SLOAD DIV MUL DUP4 MSTORE SWAP2 PUSH1 0x20 ADD SWAP2 PUSH2 0x4D4 JUMP JUMPDEST DUP3 ADD SWAP2 SWAP1 PUSH0 MSTORE PUSH1 0x20 PUSH0 KECCAK256 SWAP1 JUMPDEST DUP2 SLOAD DUP2 MSTORE SWAP1 PUSH1 0x1 ADD SWAP1 PUSH1 0x20 ADD DUP1 DUP4 GT PUSH2 0x4B7 JUMPI DUP3 SWAP1 SUB PUSH1 0x1F AND DUP3 ADD SWAP2 JUMPDEST POP POP POP POP POP DUP2 MSTORE PUSH1 0x20 ADD PUSH1 0x1 DUP3 ADD SLOAD DUP2 MSTORE PUSH1 0x20 ADD PUSH1 0x2 DUP3 ADD PUSH0 SWAP1 SLOAD SWAP1 PUSH2 0x100 EXP SWAP1 DIV PUSH20 0xFFFFFFFFFFFFFFFFFFFFFFFFFFFFFFFFFFFFFFFF AND PUSH20 0xFFFFFFFFFFFFFFFFFFFFFFFFFFFFFFFFFFFFFFFF AND PUSH20 0xFFFFFFFFFFFFFFFFFFFFFFFFFFFFFFFFFFFFFFFF AND DUP2 MSTORE PUSH1 0x20 ADD PUSH1 0x3 DUP3 ADD DUP1 SLOAD PUSH2 0x54C SWAP1 PUSH2 0x11C9 JUMP JUMPDEST DUP1 PUSH1 0x1F ADD PUSH1 0x20 DUP1 SWAP2 DIV MUL PUSH1 0x20 ADD PUSH1 0x40 MLOAD SWAP1 DUP2 ADD PUSH1 0x40 MSTORE DUP1 SWAP3 SWAP2 SWAP1 DUP2 DUP2 MSTORE PUSH1 0x20 ADD DUP3 DUP1 SLOAD PUSH2 0x578 SWAP1 PUSH2 0x11C9 JUMP JUMPDEST DUP1 ISZERO PUSH2 0x5C3 JUMPI DUP1 PUSH1 0x1F LT PUSH2 0x59A JUMPI PUSH2 0x100 DUP1 DUP4 SLOAD DIV MUL DUP4 MSTORE SWAP2 PUSH1 0x20 ADD SWAP2 PUSH2 0x5C3 JUMP JUMPDEST DUP3 ADD SWAP2 SWAP1 PUSH0 MSTORE PUSH1 0x20 PUSH0 KECCAK256 SWAP1 JUMPDEST DUP2 SLOAD DUP2 MSTORE SWAP1 PUSH1 0x1 ADD SWAP1 PUSH1 0x20 ADD DUP1 DUP4 GT PUSH2 0x5A6 JUMPI DUP3 SWAP1 SUB PUSH1 0x1F AND DUP3 ADD SWAP2 JUMPDEST POP POP POP POP POP DUP2 MSTORE PUSH1 0x20 ADD PUSH1 0x4 DUP3 ADD PUSH0 SWAP1 SLOAD SWAP1 PUSH2 0x100 EXP SWAP1 DIV PUSH1 0xFF AND ISZERO ISZERO ISZERO ISZERO DUP2 MSTORE POP POP DUP4 DUP4 DUP2 MLOAD DUP2 LT PUSH2 0x5F9 JUMPI PUSH2 0x5F8 PUSH2 0x151C JUMP JUMPDEST JUMPDEST PUSH1 0x20 MUL PUSH1 0x20 ADD ADD DUP2 SWAP1 MSTORE POP POP DUP1 DUP1 PUSH1 0x1 ADD SWAP2 POP POP PUSH2 0x425 JUMP JUMPDEST POP DUP1 SWAP2 POP POP SWAP1 JUMP JUMPDEST DUP2 PUSH0 DUP1 DUP3 DUP2 MSTORE PUSH1 0x20 ADD SWAP1 DUP2 MSTORE PUSH1 0x20 ADD PUSH0 KECCAK256 PUSH1 0x2 ADD PUSH0 SWAP1 SLOAD SWAP1 PUSH2 0x100 EXP SWAP1 DIV PUSH20 0xFFFFFFFFFFFFFFFFFFFFFFFFFFFFFFFFFFFFFFFF AND PUSH20 0xFFFFFFFFFFFFFFFFFFFFFFFFFFFFFFFFFFFFFFFF AND CALLER PUSH20 0xFFFFFFFFFFFFFFFFFFFFFFFFFFFFFFFFFFFFFFFF AND EQ PUSH2 0x6BB JUMPI PUSH1 0x40 MLOAD PUSH32 0x8C379A000000000000000000000000000000000000000000000000000000000 DUP2 MSTORE PUSH1 0x4 ADD PUSH2 0x6B2 SWAP1 PUSH2 0x15B9 JUMP JUMPDEST PUSH1 0x40 MLOAD DUP1 SWAP2 SUB SWAP1 REVERT JUMPDEST PUSH1 0x2 SLOAD DUP4 LT PUSH2 0x6FF JUMPI PUSH1 0x40 MLOAD PUSH32 0x8C379A000000000000000000000000000000000000000000000000000000000 DUP2 MSTORE PUSH1 0x4 ADD PUSH2 0x6F6 SWAP1 PUSH2 0x1621 JUMP JUMPDEST PUSH1 0x40 MLOAD DUP1 SWAP2 SUB SWAP1 REVERT JUMPDEST PUSH0 PUSH20 0xFFFFFFFFFFFFFFFFFFFFFFFFFFFFFFFFFFFFFFFF AND DUP3 PUSH20 0xFFFFFFFFFFFFFFFFFFFFFFFFFFFFFFFFFFFFFFFF AND SUB PUSH2 0x76D JUMPI PUSH1 0x40 MLOAD PUSH32 0x8C379A000000000000000000000000000000000000000000000000000000000 DUP2 MSTORE PUSH1 0x4 ADD PUSH2 0x764 SWAP1 PUSH2 0x1689 JUMP JUMPDEST PUSH1 0x40 MLOAD DUP1 SWAP2 SUB SWAP1 REVERT JUMPDEST PUSH0 DUP1 PUSH0 DUP6 DUP2 MSTORE PUSH1 0x20 ADD SWAP1 DUP2 MSTORE PUSH1 0x20 ADD PUSH0 KECCAK256 PUSH1 0x2 ADD PUSH0 SWAP1 SLOAD SWAP1 PUSH2 0x100 EXP SWAP1 DIV PUSH20 0xFFFFFFFFFFFFFFFFFFFFFFFFFFFFFFFFFFFFFFFF AND SWAP1 POP DUP3 PUSH0 DUP1 DUP7 DUP2 MSTORE PUSH1 0x20 ADD SWAP1 DUP2 MSTORE PUSH1 0x20 ADD PUSH0 KECCAK256 PUSH1 0x2 ADD PUSH0 PUSH2 0x100 EXP DUP2 SLOAD DUP2 PUSH20 0xFFFFFFFFFFFFFFFFFFFFFFFFFFFFFFFFFFFFFFFF MUL NOT AND SWAP1 DUP4 PUSH20 0xFFFFFFFFFFFFFFFFFFFFFFFFFFFFFFFFFFFFFFFF AND MUL OR SWAP1 SSTORE POP DUP3 PUSH20 0xFFFFFFFFFFFFFFFFFFFFFFFFFFFFFFFFFFFFFFFF AND DUP2 PUSH20 0xFFFFFFFFFFFFFFFFFFFFFFFFFFFFFFFFFFFFFFFF AND DUP6 PUSH32 0x1080B2F211753E5090F26EF7FFDC6BB3E66A125C7290200D10B502160BB1F566 PUSH1 0x40 MLOAD PUSH1 0x40 MLOAD DUP1 SWAP2 SUB SWAP1 LOG4 POP POP POP POP JUMP JUMPDEST PUSH1 0x2 SLOAD DUP2 JUMP JUMPDEST PUSH0 PUSH1 0x20 MSTORE DUP1 PUSH0 MSTORE PUSH1 0x40 PUSH0 KECCAK256 PUSH0 SWAP2 POP SWAP1 POP DUP1 PUSH0 ADD DUP1 SLOAD PUSH2 0x879 SWAP1 PUSH2 0x11C9 JUMP JUMPDEST DUP1 PUSH1 0x1F ADD PUSH1 0x20 DUP1 SWAP2 DIV MUL PUSH1 0x20 ADD PUSH1 0x40 MLOAD SWAP1 DUP2 ADD PUSH1 0x40 MSTORE DUP1 SWAP3 SWAP2 SWAP1 DUP2 DUP2 MSTORE PUSH1 0x20 ADD DUP3 DUP1 SLOAD PUSH2 0x8A5 SWAP1 PUSH2 0x11C9 JUMP JUMPDEST DUP1 ISZERO PUSH2 0x8F0 JUMPI DUP1 PUSH1 0x1F LT PUSH2 0x8C7 JUMPI PUSH2 0x100 DUP1 DUP4 SLOAD DIV MUL DUP4 MSTORE SWAP2 PUSH1 0x20 ADD SWAP2 PUSH2 0x8F0 JUMP JUMPDEST DUP3 ADD SWAP2 SWAP1 PUSH0 MSTORE PUSH1 0x20 PUSH0 KECCAK256 SWAP1 JUMPDEST DUP2 SLOAD DUP2 MSTORE SWAP1 PUSH1 0x1 ADD SWAP1 PUSH1 0x20 ADD DUP1 DUP4 GT PUSH2 0x8D3 JUMPI DUP3 SWAP1 SUB PUSH1 0x1F AND DUP3 ADD SWAP2 JUMPDEST POP POP POP POP POP SWAP1 DUP1 PUSH1 0x1 ADD SLOAD SWAP1 DUP1 PUSH1 0x2 ADD PUSH0 SWAP1 SLOAD SWAP1 PUSH2 0x100 EXP SWAP1 DIV PUSH20 0xFFFFFFFFFFFFFFFFFFFFFFFFFFFFFFFFFFFFFFFF AND SWAP1 DUP1 PUSH1 0x3 ADD DUP1 SLOAD PUSH2 0x930 SWAP1 PUSH2 0x11C9 JUMP JUMPDEST DUP1 PUSH1 0x1F ADD PUSH1 0x20 DUP1 SWAP2 DIV MUL PUSH1 0x20 ADD PUSH1 0x40 MLOAD SWAP1 DUP2 ADD PUSH1 0x40 MSTORE DUP1 SWAP3 SWAP2 SWAP1 DUP2 DUP2 MSTORE PUSH1 0x20 ADD DUP3 DUP1 SLOAD PUSH2 0x95C SWAP1 PUSH2 0x11C9 JUMP JUMPDEST DUP1 ISZERO PUSH2 0x9A7 JUMPI DUP1 PUSH1 0x1F LT PUSH2 0x97E JUMPI PUSH2 0x100 DUP1 DUP4 SLOAD DIV MUL DUP4 MSTORE SWAP2 PUSH1 0x20 ADD SWAP2 PUSH2 0x9A7 JUMP JUMPDEST DUP3 ADD SWAP2 SWAP1 PUSH0 MSTORE PUSH1 0x20 PUSH0 KECCAK256 SWAP1 JUMPDEST DUP2 SLOAD DUP2 MSTORE SWAP1 PUSH1 0x1 ADD SWAP1 PUSH1 0x20 ADD DUP1 DUP4 GT PUSH2 0x98A JUMPI DUP3 SWAP1 SUB PUSH1 0x1F AND DUP3 ADD SWAP2 JUMPDEST POP POP POP POP POP SWAP1 DUP1 PUSH1 0x4 ADD PUSH0 SWAP1 SLOAD SWAP1 PUSH2 0x100 EXP SWAP1 DIV PUSH1 0xFF AND SWAP1 POP DUP6 JUMP JUMPDEST PUSH1 0x40 MLOAD DUP1 PUSH1 0xA0 ADD PUSH1 0x40 MSTORE DUP1 PUSH1 0x60 DUP2 MSTORE PUSH1 0x20 ADD PUSH0 DUP2 MSTORE PUSH1 0x20 ADD PUSH0 PUSH20 0xFFFFFFFFFFFFFFFFFFFFFFFFFFFFFFFFFFFFFFFF AND DUP2 MSTORE PUSH1 0x20 ADD PUSH1 0x60 DUP2 MSTORE PUSH1 0x20 ADD PUSH0 ISZERO ISZERO DUP2 MSTORE POP SWAP1 JUMP JUMPDEST PUSH0 PUSH1 0x40 MLOAD SWAP1 POP SWAP1 JUMP JUMPDEST PUSH0 DUP1 REVERT JUMPDEST PUSH0 DUP1 REVERT JUMPDEST PUSH0 DUP1 REVERT JUMPDEST PUSH0 DUP1 REVERT JUMPDEST PUSH0 PUSH1 0x1F NOT PUSH1 0x1F DUP4 ADD AND SWAP1 POP SWAP2 SWAP1 POP JUMP JUMPDEST PUSH32 0x4E487B7100000000000000000000000000000000000000000000000000000000 PUSH0 MSTORE PUSH1 0x41 PUSH1 0x4 MSTORE PUSH1 0x24 PUSH0 REVERT JUMPDEST PUSH2 0xA66 DUP3 PUSH2 0xA20 JUMP JUMPDEST DUP2 ADD DUP2 DUP2 LT PUSH8 0xFFFFFFFFFFFFFFFF DUP3 GT OR ISZERO PUSH2 0xA85 JUMPI PUSH2 0xA84 PUSH2 0xA30 JUMP JUMPDEST JUMPDEST DUP1 PUSH1 0x40 MSTORE POP POP POP JUMP JUMPDEST PUSH0 PUSH2 0xA97 PUSH2 0xA07 JUMP JUMPDEST SWAP1 POP PUSH2 0xAA3 DUP3 DUP3 PUSH2 0xA5D JUMP JUMPDEST SWAP2 SWAP1 POP JUMP JUMPDEST PUSH0 PUSH8 0xFFFFFFFFFFFFFFFF DUP3 GT ISZERO PUSH2 0xAC2 JUMPI PUSH2 0xAC1 PUSH2 0xA30 JUMP JUMPDEST JUMPDEST PUSH2 0xACB DUP3 PUSH2 0xA20 JUMP JUMPDEST SWAP1 POP PUSH1 0x20 DUP2 ADD SWAP1 POP SWAP2 SWAP1 POP JUMP JUMPDEST DUP3 DUP2 DUP4 CALLDATACOPY PUSH0 DUP4 DUP4 ADD MSTORE POP POP POP JUMP JUMPDEST PUSH0 PUSH2 0xAF8 PUSH2 0xAF3 DUP5 PUSH2 0xAA8 JUMP JUMPDEST PUSH2 0xA8E JUMP JUMPDEST SWAP1 POP DUP3 DUP2 MSTORE PUSH1 0x20 DUP2 ADD DUP5 DUP5 DUP5 ADD GT ISZERO PUSH2 0xB14 JUMPI PUSH2 0xB13 PUSH2 0xA1C JUMP JUMPDEST JUMPDEST PUSH2 0xB1F DUP5 DUP3 DUP6 PUSH2 0xAD8 JUMP JUMPDEST POP SWAP4 SWAP3 POP POP POP JUMP JUMPDEST PUSH0 DUP3 PUSH1 0x1F DUP4 ADD SLT PUSH2 0xB3B JUMPI PUSH2 0xB3A PUSH2 0xA18 JUMP JUMPDEST JUMPDEST DUP2 CALLDATALOAD PUSH2 0xB4B DUP5 DUP3 PUSH1 0x20 DUP7 ADD PUSH2 0xAE6 JUMP JUMPDEST SWAP2 POP POP SWAP3 SWAP2 POP POP JUMP JUMPDEST PUSH0 DUP2 SWAP1 POP SWAP2 SWAP1 POP JUMP JUMPDEST PUSH2 0xB66 DUP2 PUSH2 0xB54 JUMP JUMPDEST DUP2 EQ PUSH2 0xB70 JUMPI PUSH0 DUP1 REVERT JUMPDEST POP JUMP JUMPDEST PUSH0 DUP2 CALLDATALOAD SWAP1 POP PUSH2 0xB81 DUP2 PUSH2 0xB5D JUMP JUMPDEST SWAP3 SWAP2 POP POP JUMP JUMPDEST PUSH0 DUP1 PUSH0 PUSH1 0x60 DUP5 DUP7 SUB SLT ISZERO PUSH2 0xB9E JUMPI PUSH2 0xB9D PUSH2 0xA10 JUMP JUMPDEST JUMPDEST PUSH0 DUP5 ADD CALLDATALOAD PUSH8 0xFFFFFFFFFFFFFFFF DUP2 GT ISZERO PUSH2 0xBBB JUMPI PUSH2 0xBBA PUSH2 0xA14 JUMP JUMPDEST JUMPDEST PUSH2 0xBC7 DUP7 DUP3 DUP8 ADD PUSH2 0xB27 JUMP JUMPDEST SWAP4 POP POP PUSH1 0x20 PUSH2 0xBD8 DUP7 DUP3 DUP8 ADD PUSH2 0xB73 JUMP JUMPDEST SWAP3 POP POP PUSH1 0x40 DUP5 ADD CALLDATALOAD PUSH8 0xFFFFFFFFFFFFFFFF DUP2 GT ISZERO PUSH2 0xBF9 JUMPI PUSH2 0xBF8 PUSH2 0xA14 JUMP JUMPDEST JUMPDEST PUSH2 0xC05 DUP7 DUP3 DUP8 ADD PUSH2 0xB27 JUMP JUMPDEST SWAP2 POP POP SWAP3 POP SWAP3 POP SWAP3 JUMP JUMPDEST PUSH0 DUP2 MLOAD SWAP1 POP SWAP2 SWAP1 POP JUMP JUMPDEST PUSH0 DUP3 DUP3 MSTORE PUSH1 0x20 DUP3 ADD SWAP1 POP SWAP3 SWAP2 POP POP JUMP JUMPDEST PUSH0 DUP2 SWAP1 POP PUSH1 0x20 DUP3 ADD SWAP1 POP SWAP2 SWAP1 POP JUMP JUMPDEST PUSH0 DUP2 MLOAD SWAP1 POP SWAP2 SWAP1 POP JUMP JUMPDEST PUSH0 DUP3 DUP3 MSTORE PUSH1 0x20 DUP3 ADD SWAP1 POP SWAP3 SWAP2 POP POP JUMP JUMPDEST DUP3 DUP2 DUP4 MCOPY PUSH0 DUP4 DUP4 ADD MSTORE POP POP POP JUMP JUMPDEST PUSH0 PUSH2 0xC6A DUP3 PUSH2 0xC38 JUMP JUMPDEST PUSH2 0xC74 DUP2 DUP6 PUSH2 0xC42 JUMP JUMPDEST SWAP4 POP PUSH2 0xC84 DUP2 DUP6 PUSH1 0x20 DUP7 ADD PUSH2 0xC52 JUMP JUMPDEST PUSH2 0xC8D DUP2 PUSH2 0xA20 JUMP JUMPDEST DUP5 ADD SWAP2 POP POP SWAP3 SWAP2 POP POP JUMP JUMPDEST PUSH2 0xCA1 DUP2 PUSH2 0xB54 JUMP JUMPDEST DUP3 MSTORE POP POP JUMP JUMPDEST PUSH0 PUSH20 0xFFFFFFFFFFFFFFFFFFFFFFFFFFFFFFFFFFFFFFFF DUP3 AND SWAP1 POP SWAP2 SWAP1 POP JUMP JUMPDEST PUSH0 PUSH2 0xCD0 DUP3 PUSH2 0xCA7 JUMP JUMPDEST SWAP1 POP SWAP2 SWAP1 POP JUMP JUMPDEST PUSH2 0xCE0 DUP2 PUSH2 0xCC6 JUMP JUMPDEST DUP3 MSTORE POP POP JUMP JUMPDEST PUSH0 DUP2 ISZERO ISZERO SWAP1 POP SWAP2 SWAP1 POP JUMP JUMPDEST PUSH2 0xCFA DUP2 PUSH2 0xCE6 JUMP JUMPDEST DUP3 MSTORE POP POP JUMP JUMPDEST PUSH0 PUSH1 0xA0 DUP4 ADD PUSH0 DUP4 ADD MLOAD DUP5 DUP3 SUB PUSH0 DUP7 ADD MSTORE PUSH2 0xD1A DUP3 DUP3 PUSH2 0xC60 JUMP JUMPDEST SWAP2 POP POP PUSH1 0x20 DUP4 ADD MLOAD PUSH2 0xD2F PUSH1 0x20 DUP7 ADD DUP3 PUSH2 0xC98 JUMP JUMPDEST POP PUSH1 0x40 DUP4 ADD MLOAD PUSH2 0xD42 PUSH1 0x40 DUP7 ADD DUP3 PUSH2 0xCD7 JUMP JUMPDEST POP PUSH1 0x60 DUP4 ADD MLOAD DUP5 DUP3 SUB PUSH1 0x60 DUP7 ADD MSTORE PUSH2 0xD5A DUP3 DUP3 PUSH2 0xC60 JUMP JUMPDEST SWAP2 POP POP PUSH1 0x80 DUP4 ADD MLOAD PUSH2 0xD6F PUSH1 0x80 DUP7 ADD DUP3 PUSH2 0xCF1 JUMP JUMPDEST POP DUP1 SWAP2 POP POP SWAP3 SWAP2 POP POP JUMP JUMPDEST PUSH0 PUSH2 0xD85 DUP4 DUP4 PUSH2 0xD00 JUMP JUMPDEST SWAP1 POP SWAP3 SWAP2 POP POP JUMP JUMPDEST PUSH0 PUSH1 0x20 DUP3 ADD SWAP1 POP SWAP2 SWAP1 POP JUMP JUMPDEST PUSH0 PUSH2 0xDA3 DUP3 PUSH2 0xC0F JUMP JUMPDEST PUSH2 0xDAD DUP2 DUP6 PUSH2 0xC19 JUMP JUMPDEST SWAP4 POP DUP4 PUSH1 0x20 DUP3 MUL DUP6 ADD PUSH2 0xDBF DUP6 PUSH2 0xC29 JUMP JUMPDEST DUP1 PUSH0 JUMPDEST DUP6 DUP2 LT ISZERO PUSH2 0xDFA JUMPI DUP5 DUP5 SUB DUP10 MSTORE DUP2 MLOAD PUSH2 0xDDB DUP6 DUP3 PUSH2 0xD7A JUMP JUMPDEST SWAP5 POP PUSH2 0xDE6 DUP4 PUSH2 0xD8D JUMP JUMPDEST SWAP3 POP PUSH1 0x20 DUP11 ADD SWAP10 POP POP PUSH1 0x1 DUP2 ADD SWAP1 POP PUSH2 0xDC2 JUMP JUMPDEST POP DUP3 SWAP8 POP DUP8 SWAP6 POP POP POP POP POP POP SWAP3 SWAP2 POP POP JUMP JUMPDEST PUSH0 PUSH1 0x20 DUP3 ADD SWAP1 POP DUP2 DUP2 SUB PUSH0 DUP4 ADD MSTORE PUSH2 0xE24 DUP2 DUP5 PUSH2 0xD99 JUMP JUMPDEST SWAP1 POP SWAP3 SWAP2 POP POP JUMP JUMPDEST PUSH2 0xE35 DUP2 PUSH2 0xCC6 JUMP JUMPDEST DUP2 EQ PUSH2 0xE3F JUMPI PUSH0 DUP1 REVERT JUMPDEST POP JUMP JUMPDEST PUSH0 DUP2 CALLDATALOAD SWAP1 POP PUSH2 0xE50 DUP2 PUSH2 0xE2C JUMP JUMPDEST SWAP3 SWAP2 POP POP JUMP JUMPDEST PUSH0 DUP1 PUSH1 0x40 DUP4 DUP6 SUB SLT ISZERO PUSH2 0xE6C JUMPI PUSH2 0xE6B PUSH2 0xA10 JUMP JUMPDEST JUMPDEST PUSH0 PUSH2 0xE79 DUP6 DUP3 DUP7 ADD PUSH2 0xB73 JUMP JUMPDEST SWAP3 POP POP PUSH1 0x20 PUSH2 0xE8A DUP6 DUP3 DUP7 ADD PUSH2 0xE42 JUMP JUMPDEST SWAP2 POP POP SWAP3 POP SWAP3 SWAP1 POP JUMP JUMPDEST PUSH2 0xE9D DUP2 PUSH2 0xB54 JUMP JUMPDEST DUP3 MSTORE POP POP JUMP JUMPDEST PUSH0 PUSH1 0x20 DUP3 ADD SWAP1 POP PUSH2 0xEB6 PUSH0 DUP4 ADD DUP5 PUSH2 0xE94 JUMP JUMPDEST SWAP3 SWAP2 POP POP JUMP JUMPDEST PUSH0 PUSH1 0x20 DUP3 DUP5 SUB SLT ISZERO PUSH2 0xED1 JUMPI PUSH2 0xED0 PUSH2 0xA10 JUMP JUMPDEST JUMPDEST PUSH0 PUSH2 0xEDE DUP5 DUP3 DUP6 ADD PUSH2 0xB73 JUMP JUMPDEST SWAP2 POP POP SWAP3 SWAP2 POP POP JUMP JUMPDEST PUSH0 DUP3 DUP3 MSTORE PUSH1 0x20 DUP3 ADD SWAP1 POP SWAP3 SWAP2 POP POP JUMP JUMPDEST PUSH0 PUSH2 0xF01 DUP3 PUSH2 0xC38 JUMP JUMPDEST PUSH2 0xF0B DUP2 DUP6 PUSH2 0xEE7 JUMP JUMPDEST SWAP4 POP PUSH2 0xF1B DUP2 DUP6 PUSH1 0x20 DUP7 ADD PUSH2 0xC52 JUMP JUMPDEST PUSH2 0xF24 DUP2 PUSH2 0xA20 JUMP JUMPDEST DUP5 ADD SWAP2 POP POP SWAP3 SWAP2 POP POP JUMP JUMPDEST PUSH2 0xF38 DUP2 PUSH2 0xCC6 JUMP JUMPDEST DUP3 MSTORE POP POP JUMP JUMPDEST PUSH2 0xF47 DUP2 PUSH2 0xCE6 JUMP JUMPDEST DUP3 MSTORE POP POP JUMP JUMPDEST PUSH0 PUSH1 0xA0 DUP3 ADD SWAP1 POP DUP2 DUP2 SUB PUSH0 DUP4 ADD MSTORE PUSH2 0xF65 DUP2 DUP9 PUSH2 0xEF7 JUMP JUMPDEST SWAP1 POP PUSH2 0xF74 PUSH1 0x20 DUP4 ADD DUP8 PUSH2 0xE94 JUMP JUMPDEST PUSH2 0xF81 PUSH1 0x40 DUP4 ADD DUP7 PUSH2 0xF2F JUMP JUMPDEST DUP2 DUP2 SUB PUSH1 0x60 DUP4 ADD MSTORE PUSH2 0xF93 DUP2 DUP6 PUSH2 0xEF7 JUMP JUMPDEST SWAP1 POP PUSH2 0xFA2 PUSH1 0x80 DUP4 ADD DUP5 PUSH2 0xF3E JUMP JUMPDEST SWAP7 SWAP6 POP POP POP POP POP POP JUMP JUMPDEST PUSH32 0x4C6F636174696F6E206973207265717569726564000000000000000000000000 PUSH0 DUP3 ADD MSTORE POP JUMP JUMPDEST PUSH0 PUSH2 0xFE0 PUSH1 0x14 DUP4 PUSH2 0xEE7 JUMP JUMPDEST SWAP2 POP PUSH2 0xFEB DUP3 PUSH2 0xFAC JUMP JUMPDEST PUSH1 0x20 DUP3 ADD SWAP1 POP SWAP2 SWAP1 POP JUMP JUMPDEST PUSH0 PUSH1 0x20 DUP3 ADD SWAP1 POP DUP2 DUP2 SUB PUSH0 DUP4 ADD MSTORE PUSH2 0x100D DUP2 PUSH2 0xFD4 JUMP JUMPDEST SWAP1 POP SWAP2 SWAP1 POP JUMP JUMPDEST PUSH32 0x53697A65206D7573742062652067726561746572207468616E207A65726F0000 PUSH0 DUP3 ADD MSTORE POP JUMP JUMPDEST PUSH0 PUSH2 0x1048 PUSH1 0x1E DUP4 PUSH2 0xEE7 JUMP JUMPDEST SWAP2 POP PUSH2 0x1053 DUP3 PUSH2 0x1014 JUMP JUMPDEST PUSH1 0x20 DUP3 ADD SWAP1 POP SWAP2 SWAP1 POP JUMP JUMPDEST PUSH0 PUSH1 0x20 DUP3 ADD SWAP1 POP DUP2 DUP2 SUB PUSH0 DUP4 ADD MSTORE PUSH2 0x1075 DUP2 PUSH2 0x103C JUMP JUMPDEST SWAP1 POP SWAP2 SWAP1 POP JUMP JUMPDEST PUSH32 0x446F63756D656E74206861736820697320726571756972656400000000000000 PUSH0 DUP3 ADD MSTORE POP JUMP JUMPDEST PUSH0 PUSH2 0x10B0 PUSH1 0x19 DUP4 PUSH2 0xEE7 JUMP JUMPDEST SWAP2 POP PUSH2 0x10BB DUP3 PUSH2 0x107C JUMP JUMPDEST PUSH1 0x20 DUP3 ADD SWAP1 POP SWAP2 SWAP1 POP JUMP JUMPDEST PUSH0 PUSH1 0x20 DUP3 ADD SWAP1 POP DUP2 DUP2 SUB PUSH0 DUP4 ADD MSTORE PUSH2 0x10DD DUP2 PUSH2 0x10A4 JUMP JUMPDEST SWAP1 POP SWAP2 SWAP1 POP JUMP JUMPDEST PUSH0 DUP2 SWAP1 POP SWAP3 SWAP2 POP POP JUMP JUMPDEST PUSH0 PUSH2 0x10F8 DUP3 PUSH2 0xC38 JUMP JUMPDEST PUSH2 0x1102 DUP2 DUP6 PUSH2 0x10E4 JUMP JUMPDEST SWAP4 POP PUSH2 0x1112 DUP2 DUP6 PUSH1 0x20 DUP7 ADD PUSH2 0xC52 JUMP JUMPDEST DUP1 DUP5 ADD SWAP2 POP POP SWAP3 SWAP2 POP POP JUMP JUMPDEST PUSH0 PUSH2 0x1129 DUP3 DUP5 PUSH2 0x10EE JUMP JUMPDEST SWAP2 POP DUP2 SWAP1 POP SWAP3 SWAP2 POP POP JUMP JUMPDEST PUSH32 0x54686973206C616E6420697320616C7265616479207265676973746572656400 PUSH0 DUP3 ADD MSTORE POP JUMP JUMPDEST PUSH0 PUSH2 0x1168 PUSH1 0x1F DUP4 PUSH2 0xEE7 JUMP JUMPDEST SWAP2 POP PUSH2 0x1173 DUP3 PUSH2 0x1134 JUMP JUMPDEST PUSH1 0x20 DUP3 ADD SWAP1 POP SWAP2 SWAP1 POP JUMP JUMPDEST PUSH0 PUSH1 0x20 DUP3 ADD SWAP1 POP DUP2 DUP2 SUB PUSH0 DUP4 ADD MSTORE PUSH2 0x1195 DUP2 PUSH2 0x115C JUMP JUMPDEST SWAP1 POP SWAP2 SWAP1 POP JUMP JUMPDEST PUSH32 0x4E487B7100000000000000000000000000000000000000000000000000000000 PUSH0 MSTORE PUSH1 0x22 PUSH1 0x4 MSTORE PUSH1 0x24 PUSH0 REVERT JUMPDEST PUSH0 PUSH1 0x2 DUP3 DIV SWAP1 POP PUSH1 0x1 DUP3 AND DUP1 PUSH2 0x11E0 JUMPI PUSH1 0x7F DUP3 AND SWAP2 POP JUMPDEST PUSH1 0x20 DUP3 LT DUP2 SUB PUSH2 0x11F3 JUMPI PUSH2 0x11F2 PUSH2 0x119C JUMP JUMPDEST JUMPDEST POP SWAP2 SWAP1 POP JUMP JUMPDEST PUSH0 DUP2 SWAP1 POP DUP2 PUSH0 MSTORE PUSH1 0x20 PUSH0 KECCAK256 SWAP1 POP SWAP2 SWAP1 POP JUMP JUMPDEST PUSH0 PUSH1 0x20 PUSH1 0x1F DUP4 ADD DIV SWAP1 POP SWAP2 SWAP1 POP JUMP JUMPDEST PUSH0 DUP3 DUP3 SHL SWAP1 POP SWAP3 SWAP2 POP POP JUMP JUMPDEST PUSH0 PUSH1 0x8 DUP4 MUL PUSH2 0x1255 PUSH32 0xFFFFFFFFFFFFFFFFFFFFFFFFFFFFFFFFFFFFFFFFFFFFFFFFFFFFFFFFFFFFFFFF DUP3 PUSH2 0x121A JUMP JUMPDEST PUSH2 0x125F DUP7 DUP4 PUSH2 0x121A JUMP JUMPDEST SWAP6 POP DUP1 NOT DUP5 AND SWAP4 POP DUP1 DUP7 AND DUP5 OR SWAP3 POP POP POP SWAP4 SWAP3 POP POP POP JUMP JUMPDEST PUSH0 DUP2 SWAP1 POP SWAP2 SWAP1 POP JUMP JUMPDEST PUSH0 PUSH2 0x129A PUSH2 0x1295 PUSH2 0x1290 DUP5 PUSH2 0xB54 JUMP JUMPDEST PUSH2 0x1277 JUMP JUMPDEST PUSH2 0xB54 JUMP JUMPDEST SWAP1 POP SWAP2 SWAP1 POP JUMP JUMPDEST PUSH0 DUP2 SWAP1 POP SWAP2 SWAP1 POP JUMP JUMPDEST PUSH2 0x12B3 DUP4 PUSH2 0x1280 JUMP JUMPDEST PUSH2 0x12C7 PUSH2 0x12BF DUP3 PUSH2 0x12A1 JUMP JUMPDEST DUP5 DUP5 SLOAD PUSH2 0x1226 JUMP JUMPDEST DUP3 SSTORE POP POP POP POP JUMP JUMPDEST PUSH0 SWAP1 JUMP JUMPDEST PUSH2 0x12DB PUSH2 0x12CF JUMP JUMPDEST PUSH2 0x12E6 DUP2 DUP5 DUP5 PUSH2 0x12AA JUMP JUMPDEST POP POP POP JUMP JUMPDEST JUMPDEST DUP2 DUP2 LT ISZERO PUSH2 0x1309 JUMPI PUSH2 0x12FE PUSH0 DUP3 PUSH2 0x12D3 JUMP JUMPDEST PUSH1 0x1 DUP2 ADD SWAP1 POP PUSH2 0x12EC JUMP JUMPDEST POP POP JUMP JUMPDEST PUSH1 0x1F DUP3 GT ISZERO PUSH2 0x134E JUMPI PUSH2 0x131F DUP2 PUSH2 0x11F9 JUMP JUMPDEST PUSH2 0x1328 DUP5 PUSH2 0x120B JUMP JUMPDEST DUP2 ADD PUSH1 0x20 DUP6 LT ISZERO PUSH2 0x1337 JUMPI DUP2 SWAP1 POP JUMPDEST PUSH2 0x134B PUSH2 0x1343 DUP6 PUSH2 0x120B JUMP JUMPDEST DUP4 ADD DUP3 PUSH2 0x12EB JUMP JUMPDEST POP POP JUMPDEST POP POP POP JUMP JUMPDEST PUSH0 DUP3 DUP3 SHR SWAP1 POP SWAP3 SWAP2 POP POP JUMP JUMPDEST PUSH0 PUSH2 0x136E PUSH0 NOT DUP5 PUSH1 0x8 MUL PUSH2 0x1353 JUMP JUMPDEST NOT DUP1 DUP4 AND SWAP2 POP POP SWAP3 SWAP2 POP POP JUMP JUMPDEST PUSH0 PUSH2 0x1386 DUP4 DUP4 PUSH2 0x135F JUMP JUMPDEST SWAP2 POP DUP3 PUSH1 0x2 MUL DUP3 OR SWAP1 POP SWAP3 SWAP2 POP POP JUMP JUMPDEST PUSH2 0x139F DUP3 PUSH2 0xC38 JUMP JUMPDEST PUSH8 0xFFFFFFFFFFFFFFFF DUP2 GT ISZERO PUSH2 0x13B8 JUMPI PUSH2 0x13B7 PUSH2 0xA30 JUMP JUMPDEST JUMPDEST PUSH2 0x13C2 DUP3 SLOAD PUSH2 0x11C9 JUMP JUMPDEST PUSH2 0x13CD DUP3 DUP3 DUP6 PUSH2 0x130D JUMP JUMPDEST PUSH0 PUSH1 0x20 SWAP1 POP PUSH1 0x1F DUP4 GT PUSH1 0x1 DUP2 EQ PUSH2 0x13FE JUMPI PUSH0 DUP5 ISZERO PUSH2 0x13EC JUMPI DUP3 DUP8 ADD MLOAD SWAP1 POP JUMPDEST PUSH2 0x13F6 DUP6 DUP3 PUSH2 0x137B JUMP JUMPDEST DUP7 SSTORE POP PUSH2 0x145D JUMP JUMPDEST PUSH1 0x1F NOT DUP5 AND PUSH2 0x140C DUP7 PUSH2 0x11F9 JUMP JUMPDEST PUSH0 JUMPDEST DUP3 DUP2 LT ISZERO PUSH2 0x1433 JUMPI DUP5 DUP10 ADD MLOAD DUP3 SSTORE PUSH1 0x1 DUP3 ADD SWAP2 POP PUSH1 0x20 DUP6 ADD SWAP5 POP PUSH1 0x20 DUP2 ADD SWAP1 POP PUSH2 0x140E JUMP JUMPDEST DUP7 DUP4 LT ISZERO PUSH2 0x1450 JUMPI DUP5 DUP10 ADD MLOAD PUSH2 0x144C PUSH1 0x1F DUP10 AND DUP3 PUSH2 0x135F JUMP JUMPDEST DUP4 SSTORE POP JUMPDEST PUSH1 0x1 PUSH1 0x2 DUP9 MUL ADD DUP9 SSTORE POP POP POP JUMPDEST POP POP POP POP POP POP JUMP JUMPDEST PUSH0 PUSH1 0x60 DUP3 ADD SWAP1 POP DUP2 DUP2 SUB PUSH0 DUP4 ADD MSTORE PUSH2 0x147D DUP2 DUP7 PUSH2 0xEF7 JUMP JUMPDEST SWAP1 POP PUSH2 0x148C PUSH1 0x20 DUP4 ADD DUP6 PUSH2 0xE94 JUMP JUMPDEST DUP2 DUP2 SUB PUSH1 0x40 DUP4 ADD MSTORE PUSH2 0x149E DUP2 DUP5 PUSH2 0xEF7 JUMP JUMPDEST SWAP1 POP SWAP5 SWAP4 POP POP POP POP JUMP JUMPDEST PUSH32 0x4E487B7100000000000000000000000000000000000000000000000000000000 PUSH0 MSTORE PUSH1 0x11 PUSH1 0x4 MSTORE PUSH1 0x24 PUSH0 REVERT JUMPDEST PUSH0 PUSH2 0x14DF DUP3 PUSH2 0xB54 JUMP JUMPDEST SWAP2 POP PUSH32 0xFFFFFFFFFFFFFFFFFFFFFFFFFFFFFFFFFFFFFFFFFFFFFFFFFFFFFFFFFFFFFFFF DUP3 SUB PUSH2 0x1511 JUMPI PUSH2 0x1510 PUSH2 0x14A8 JUMP JUMPDEST JUMPDEST PUSH1 0x1 DUP3 ADD SWAP1 POP SWAP2 SWAP1 POP JUMP JUMPDEST PUSH32 0x4E487B7100000000000000000000000000000000000000000000000000000000 PUSH0 MSTORE PUSH1 0x32 PUSH1 0x4 MSTORE PUSH1 0x24 PUSH0 REVERT JUMPDEST PUSH32 0x4F6E6C7920746865206F776E65722063616E20706572666F726D207468697320 PUSH0 DUP3 ADD MSTORE PUSH32 0x616374696F6E0000000000000000000000000000000000000000000000000000 PUSH1 0x20 DUP3 ADD MSTORE POP JUMP JUMPDEST PUSH0 PUSH2 0x15A3 PUSH1 0x26 DUP4 PUSH2 0xEE7 JUMP JUMPDEST SWAP2 POP PUSH2 0x15AE DUP3 PUSH2 0x1549 JUMP JUMPDEST PUSH1 0x40 DUP3 ADD SWAP1 POP SWAP2 SWAP1 POP JUMP JUMPDEST PUSH0 PUSH1 0x20 DUP3 ADD SWAP1 POP DUP2 DUP2 SUB PUSH0 DUP4 ADD MSTORE PUSH2 0x15D0 DUP2 PUSH2 0x1597 JUMP JUMPDEST SWAP1 POP SWAP2 SWAP1 POP JUMP JUMPDEST PUSH32 0x4C616E6420494420697320696E76616C69640000000000000000000000000000 PUSH0 DUP3 ADD MSTORE POP JUMP JUMPDEST PUSH0 PUSH2 0x160B PUSH1 0x12 DUP4 PUSH2 0xEE7 JUMP JUMPDEST SWAP2 POP PUSH2 0x1616 DUP3 PUSH2 0x15D7 JUMP JUMPDEST PUSH1 0x20 DUP3 ADD SWAP1 POP SWAP2 SWAP1 POP JUMP JUMPDEST PUSH0 PUSH1 0x20 DUP3 ADD SWAP1 POP DUP2 DUP2 SUB PUSH0 DUP4 ADD MSTORE PUSH2 0x1638 DUP2 PUSH2 0x15FF JUMP JUMPDEST SWAP1 POP SWAP2 SWAP1 POP JUMP JUMPDEST PUSH32 0x4E6577206F776E65722061646472657373206973207265717569726564000000 PUSH0 DUP3 ADD MSTORE POP JUMP JUMPDEST PUSH0 PUSH2 0x1673 PUSH1 0x1D DUP4 PUSH2 0xEE7 JUMP JUMPDEST SWAP2 POP PUSH2 0x167E DUP3 PUSH2 0x163F JUMP JUMPDEST PUSH1 0x20 DUP3 ADD SWAP1 POP SWAP2 SWAP1 POP JUMP JUMPDEST PUSH0 PUSH1 0x20 DUP3 ADD SWAP1 POP DUP2 DUP2 SUB PUSH0 DUP4 ADD MSTORE PUSH2 0x16A0 DUP2 PUSH2 0x1667 JUMP JUMPDEST SWAP1 POP SWAP2 SWAP1 POP JUMP INVALID LOG2 PUSH5 0x6970667358 0x22 SLT KECCAK256 EXTCODEHASH 0xC0 0xE 0xBD 0xAE 0xD8 MUL 0x2C 0xE9 DUP3 PUSH6 0x554AD91F75F7 0xE9 0xBB DUP10 0xDB 0xB8 ADDRESS 0xE5 CALLDATASIZE PUSH2 0x1DCC LOG1 0xD8 0xBE GT PUSH5 0x736F6C6343 STOP ADDMOD BYTE STOP CALLER "
	},
	"Assembly": ".code\n  PUSH 80\t\t\tcontract LandRegistry {\\r\\n   ...\n  PUSH 40\t\t\tcontract LandRegistry {\\r\\n   ...\n  MSTORE \t\t\tcontract LandRegistry {\\r\\n   ...\n  CALLVALUE \t\t\tcontract LandRegistry {\\r\\n   ...\n  DUP1 \t\t\tcontract LandRegistry {\\r\\n   ...\n  ISZERO \t\t\tcontract LandRegistry {\\r\\n   ...\n  PUSH [tag] 1\t\t\tcontract LandRegistry {\\r\\n   ...\n  JUMPI \t\t\tcontract LandRegistry {\\r\\n   ...\n  PUSH 0\t\t\tcontract LandRegistry {\\r\\n   ...\n  DUP1 \t\t\tcontract LandRegistry {\\r\\n   ...\n  REVERT \t\t\tcontract LandRegistry {\\r\\n   ...\ntag 1\t\t\tcontract LandRegistry {\\r\\n   ...\n  JUMPDEST \t\t\tcontract LandRegistry {\\r\\n   ...\n  POP \t\t\tcontract LandRegistry {\\r\\n   ...\n  PUSH #[$] 0000000000000000000000000000000000000000000000000000000000000000\t\t\tcontract LandRegistry {\\r\\n   ...\n  DUP1 \t\t\tcontract LandRegistry {\\r\\n   ...\n  PUSH [$] 0000000000000000000000000000000000000000000000000000000000000000\t\t\tcontract LandRegistry {\\r\\n   ...\n  PUSH 0\t\t\tcontract LandRegistry {\\r\\n   ...\n  CODECOPY \t\t\tcontract LandRegistry {\\r\\n   ...\n  PUSH 0\t\t\tcontract LandRegistry {\\r\\n   ...\n  RETURN \t\t\tcontract LandRegistry {\\r\\n   ...\n.data\n  0:\n    .code\n      PUSH 80\t\t\tcontract LandRegistry {\\r\\n   ...\n      PUSH 40\t\t\tcontract LandRegistry {\\r\\n   ...\n      MSTORE \t\t\tcontract LandRegistry {\\r\\n   ...\n      CALLVALUE \t\t\tcontract LandRegistry {\\r\\n   ...\n      DUP1 \t\t\tcontract LandRegistry {\\r\\n   ...\n      ISZERO \t\t\tcontract LandRegistry {\\r\\n   ...\n      PUSH [tag] 1\t\t\tcontract LandRegistry {\\r\\n   ...\n      JUMPI \t\t\tcontract LandRegistry {\\r\\n   ...\n      PUSH 0\t\t\tcontract LandRegistry {\\r\\n   ...\n      DUP1 \t\t\tcontract LandRegistry {\\r\\n   ...\n      REVERT \t\t\tcontract LandRegistry {\\r\\n   ...\n    tag 1\t\t\tcontract LandRegistry {\\r\\n   ...\n      JUMPDEST \t\t\tcontract LandRegistry {\\r\\n   ...\n      POP \t\t\tcontract LandRegistry {\\r\\n   ...\n      PUSH 4\t\t\tcontract LandRegistry {\\r\\n   ...\n      CALLDATASIZE \t\t\tcontract LandRegistry {\\r\\n   ...\n      LT \t\t\tcontract LandRegistry {\\r\\n   ...\n      PUSH [tag] 2\t\t\tcontract LandRegistry {\\r\\n   ...\n      JUMPI \t\t\tcontract LandRegistry {\\r\\n   ...\n      PUSH 0\t\t\tcontract LandRegistry {\\r\\n   ...\n      CALLDATALOAD \t\t\tcontract LandRegistry {\\r\\n   ...\n      PUSH E0\t\t\tcontract LandRegistry {\\r\\n   ...\n      SHR \t\t\tcontract LandRegistry {\\r\\n   ...\n      DUP1 \t\t\tcontract LandRegistry {\\r\\n   ...\n      PUSH 7E6E448A\t\t\tcontract LandRegistry {\\r\\n   ...\n      EQ \t\t\tcontract LandRegistry {\\r\\n   ...\n      PUSH [tag] 3\t\t\tcontract LandRegistry {\\r\\n   ...\n      JUMPI \t\t\tcontract LandRegistry {\\r\\n   ...\n      DUP1 \t\t\tcontract LandRegistry {\\r\\n   ...\n      PUSH B7B6E543\t\t\tcontract LandRegistry {\\r\\n   ...\n      EQ \t\t\tcontract LandRegistry {\\r\\n   ...\n      PUSH [tag] 4\t\t\tcontract LandRegistry {\\r\\n   ...\n      JUMPI \t\t\tcontract LandRegistry {\\r\\n   ...\n      DUP1 \t\t\tcontract LandRegistry {\\r\\n   ...\n      PUSH C798FF7D\t\t\tcontract LandRegistry {\\r\\n   ...\n      EQ \t\t\tcontract LandRegistry {\\r\\n   ...\n      PUSH [tag] 5\t\t\tcontract LandRegistry {\\r\\n   ...\n      JUMPI \t\t\tcontract LandRegistry {\\r\\n   ...\n      DUP1 \t\t\tcontract LandRegistry {\\r\\n   ...\n      PUSH D7BCE658\t\t\tcontract LandRegistry {\\r\\n   ...\n      EQ \t\t\tcontract LandRegistry {\\r\\n   ...\n      PUSH [tag] 6\t\t\tcontract LandRegistry {\\r\\n   ...\n      JUMPI \t\t\tcontract LandRegistry {\\r\\n   ...\n      DUP1 \t\t\tcontract LandRegistry {\\r\\n   ...\n      PUSH E261F1E5\t\t\tcontract LandRegistry {\\r\\n   ...\n      EQ \t\t\tcontract LandRegistry {\\r\\n   ...\n      PUSH [tag] 7\t\t\tcontract LandRegistry {\\r\\n   ...\n      JUMPI \t\t\tcontract LandRegistry {\\r\\n   ...\n    tag 2\t\t\tcontract LandRegistry {\\r\\n   ...\n      JUMPDEST \t\t\tcontract LandRegistry {\\r\\n   ...\n      PUSH 0\t\t\tcontract LandRegistry {\\r\\n   ...\n      DUP1 \t\t\tcontract LandRegistry {\\r\\n   ...\n      REVERT \t\t\tcontract LandRegistry {\\r\\n   ...\n    tag 3\t\t\tfunction registerLand(string m...\n      JUMPDEST \t\t\tfunction registerLand(string m...\n      PUSH [tag] 8\t\t\tfunction registerLand(string m...\n      PUSH 4\t\t\tfunction registerLand(string m...\n      DUP1 \t\t\tfunction registerLand(string m...\n      CALLDATASIZE \t\t\tfunction registerLand(string m...\n      SUB \t\t\tfunction registerLand(string m...\n      DUP2 \t\t\tfunction registerLand(string m...\n      ADD \t\t\tfunction registerLand(string m...\n      SWAP1 \t\t\tfunction registerLand(string m...\n      PUSH [tag] 9\t\t\tfunction registerLand(string m...\n      SWAP2 \t\t\tfunction registerLand(string m...\n      SWAP1 \t\t\tfunction registerLand(string m...\n      PUSH [tag] 10\t\t\tfunction registerLand(string m...\n      JUMP \t\t\tfunction registerLand(string m...\n    tag 9\t\t\tfunction registerLand(string m...\n      JUMPDEST \t\t\tfunction registerLand(string m...\n      PUSH [tag] 11\t\t\tfunction registerLand(string m...\n      JUMP \t\t\tfunction registerLand(string m...\n    tag 8\t\t\tfunction registerLand(string m...\n      JUMPDEST \t\t\tfunction registerLand(string m...\n      STOP \t\t\tfunction registerLand(string m...\n    tag 4\t\t\tfunction getAllLands() public ...\n      JUMPDEST \t\t\tfunction getAllLands() public ...\n      PUSH [tag] 12\t\t\tfunction getAllLands() public ...\n      PUSH [tag] 13\t\t\tfunction getAllLands() public ...\n      JUMP \t\t\tfunction getAllLands() public ...\n    tag 12\t\t\tfunction getAllLands() public ...\n      JUMPDEST \t\t\tfunction getAllLands() public ...\n      PUSH 40\t\t\tfunction getAllLands() public ...\n      MLOAD \t\t\tfunction getAllLands() public ...\n      PUSH [tag] 14\t\t\tfunction getAllLands() public ...\n      SWAP2 \t\t\tfunction getAllLands() public ...\n      SWAP1 \t\t\tfunction getAllLands() public ...\n      PUSH [tag] 15\t\t\tfunction getAllLands() public ...\n      JUMP \t\t\tfunction getAllLands() public ...\n    tag 14\t\t\tfunction getAllLands() public ...\n      JUMPDEST \t\t\tfunction getAllLands() public ...\n      PUSH 40\t\t\tfunction getAllLands() public ...\n      MLOAD \t\t\tfunction getAllLands() public ...\n      DUP1 \t\t\tfunction getAllLands() public ...\n      SWAP2 \t\t\tfunction getAllLands() public ...\n      SUB \t\t\tfunction getAllLands() public ...\n      SWAP1 \t\t\tfunction getAllLands() public ...\n      RETURN \t\t\tfunction getAllLands() public ...\n    tag 5\t\t\tfunction transferLand(uint256 ...\n      JUMPDEST \t\t\tfunction transferLand(uint256 ...\n      PUSH [tag] 16\t\t\tfunction transferLand(uint256 ...\n      PUSH 4\t\t\tfunction transferLand(uint256 ...\n      DUP1 \t\t\tfunction transferLand(uint256 ...\n      CALLDATASIZE \t\t\tfunction transferLand(uint256 ...\n      SUB \t\t\tfunction transferLand(uint256 ...\n      DUP2 \t\t\tfunction transferLand(uint256 ...\n      ADD \t\t\tfunction transferLand(uint256 ...\n      SWAP1 \t\t\tfunction transferLand(uint256 ...\n      PUSH [tag] 17\t\t\tfunction transferLand(uint256 ...\n      SWAP2 \t\t\tfunction transferLand(uint256 ...\n      SWAP1 \t\t\tfunction transferLand(uint256 ...\n      PUSH [tag] 18\t\t\tfunction transferLand(uint256 ...\n      JUMP \t\t\tfunction transferLand(uint256 ...\n    tag 17\t\t\tfunction transferLand(uint256 ...\n      JUMPDEST \t\t\tfunction transferLand(uint256 ...\n      PUSH [tag] 19\t\t\tfunction transferLand(uint256 ...\n      JUMP \t\t\tfunction transferLand(uint256 ...\n    tag 16\t\t\tfunction transferLand(uint256 ...\n      JUMPDEST \t\t\tfunction transferLand(uint256 ...\n      STOP \t\t\tfunction transferLand(uint256 ...\n    tag 6\t\t\tuint256 public landCount\n      JUMPDEST \t\t\tuint256 public landCount\n      PUSH [tag] 20\t\t\tuint256 public landCount\n      PUSH [tag] 21\t\t\tuint256 public landCount\n      JUMP \t\t\tuint256 public landCount\n    tag 20\t\t\tuint256 public landCount\n      JUMPDEST \t\t\tuint256 public landCount\n      PUSH 40\t\t\tuint256 public landCount\n      MLOAD \t\t\tuint256 public landCount\n      PUSH [tag] 22\t\t\tuint256 public landCount\n      SWAP2 \t\t\tuint256 public landCount\n      SWAP1 \t\t\tuint256 public landCount\n      PUSH [tag] 23\t\t\tuint256 public landCount\n      JUMP \t\t\tuint256 public landCount\n    tag 22\t\t\tuint256 public landCount\n      JUMPDEST \t\t\tuint256 public landCount\n      PUSH 40\t\t\tuint256 public landCount\n      MLOAD \t\t\tuint256 public landCount\n      DUP1 \t\t\tuint256 public landCount\n      SWAP2 \t\t\tuint256 public landCount\n      SUB \t\t\tuint256 public landCount\n      SWAP1 \t\t\tuint256 public landCount\n      RETURN \t\t\tuint256 public landCount\n    tag 7\t\t\tmapping(uint256 => Land) publi...\n      JUMPDEST \t\t\tmapping(uint256 => Land) publi...\n      PUSH [tag] 24\t\t\tmapping(uint256 => Land) publi...\n      PUSH 4\t\t\tmapping(uint256 => Land) publi...\n      DUP1 \t\t\tmapping(uint256 => Land) publi...\n      CALLDATASIZE \t\t\tmapping(uint256 => Land) publi...\n      SUB \t\t\tmapping(uint256 => Land) publi...\n      DUP2 \t\t\tmapping(uint256 => Land) publi...\n      ADD \t\t\tmapping(uint256 => Land) publi...\n      SWAP1 \t\t\tmapping(uint256 => Land) publi...\n      PUSH [tag] 25\t\t\tmapping(uint256 => Land) publi...\n      SWAP2 \t\t\tmapping(uint256 => Land) publi...\n      SWAP1 \t\t\tmapping(uint256 => Land) publi...\n      PUSH [tag] 26\t\t\tmapping(uint256 => Land) publi...\n      JUMP \t\t\tmapping(uint256 => Land) publi...\n    tag 25\t\t\tmapping(uint256 => Land) publi...\n      JUMPDEST \t\t\tmapping(uint256 => Land) publi...\n      PUSH [tag] 27\t\t\tmapping(uint256 => Land) publi...\n      JUMP \t\t\tmapping(uint256 => Land) publi...\n    tag 24\t\t\tmapping(uint256 => Land) publi...\n      JUMPDEST \t\t\tmapping(uint256 => Land) publi...\n      PUSH 40\t\t\tmapping(uint256 => Land) publi...\n      MLOAD \t\t\tmapping(uint256 => Land) publi...\n      PUSH [tag] 28\t\t\tmapping(uint256 => Land) publi...\n      SWAP6 \t\t\tmapping(uint256 => Land) publi...\n      SWAP5 \t\t\tmapping(uint256 => Land) publi...\n      SWAP4 \t\t\tmapping(uint256 => Land) publi...\n      SWAP3 \t\t\tmapping(uint256 => Land) publi...\n      SWAP2 \t\t\tmapping(uint256 => Land) publi...\n      SWAP1 \t\t\tmapping(uint256 => Land) publi...\n      PUSH [tag] 29\t\t\tmapping(uint256 => Land) publi...\n      JUMP \t\t\tmapping(uint256 => Land) publi...\n    tag 28\t\t\tmapping(uint256 => Land) publi...\n      JUMPDEST \t\t\tmapping(uint256 => Land) publi...\n      PUSH 40\t\t\tmapping(uint256 => Land) publi...\n      MLOAD \t\t\tmapping(uint256 => Land) publi...\n      DUP1 \t\t\tmapping(uint256 => Land) publi...\n      SWAP2 \t\t\tmapping(uint256 => Land) publi...\n      SUB \t\t\tmapping(uint256 => Land) publi...\n      SWAP1 \t\t\tmapping(uint256 => Land) publi...\n      RETURN \t\t\tmapping(uint256 => Land) publi...\n    tag 11\t\t\tfunction registerLand(string m...\n      JUMPDEST \t\t\tfunction registerLand(string m...\n      PUSH 0\t\t\t0\n      DUP4 \t\t\t_location\n      MLOAD \t\t\tbytes(_location).length\n      GT \t\t\tbytes(_location).length > 0\n      PUSH [tag] 31\t\t\trequire(bytes(_location).lengt...\n      JUMPI \t\t\trequire(bytes(_location).lengt...\n      PUSH 40\t\t\trequire(bytes(_location).lengt...\n      MLOAD \t\t\trequire(bytes(_location).lengt...\n      PUSH 8C379A000000000000000000000000000000000000000000000000000000000\t\t\trequire(bytes(_location).lengt...\n      DUP2 \t\t\trequire(bytes(_location).lengt...\n      MSTORE \t\t\trequire(bytes(_location).lengt...\n      PUSH 4\t\t\trequire(bytes(_location).lengt...\n      ADD \t\t\trequire(bytes(_location).lengt...\n      PUSH [tag] 32\t\t\trequire(bytes(_location).lengt...\n      SWAP1 \t\t\trequire(bytes(_location).lengt...\n      PUSH [tag] 33\t\t\trequire(bytes(_location).lengt...\n      JUMP \t\t\trequire(bytes(_location).lengt...\n    tag 32\t\t\trequire(bytes(_location).lengt...\n      JUMPDEST \t\t\trequire(bytes(_location).lengt...\n      PUSH 40\t\t\trequire(bytes(_location).lengt...\n      MLOAD \t\t\trequire(bytes(_location).lengt...\n      DUP1 \t\t\trequire(bytes(_location).lengt...\n      SWAP2 \t\t\trequire(bytes(_location).lengt...\n      SUB \t\t\trequire(bytes(_location).lengt...\n      SWAP1 \t\t\trequire(bytes(_location).lengt...\n      REVERT \t\t\trequire(bytes(_location).lengt...\n    tag 31\t\t\trequire(bytes(_location).lengt...\n      JUMPDEST \t\t\trequire(bytes(_location).lengt...\n      PUSH 0\t\t\t0\n      DUP3 \t\t\t_size\n      GT \t\t\t_size > 0\n      PUSH [tag] 34\t\t\trequire(_size > 0, \"Size must ...\n      JUMPI \t\t\trequire(_size > 0, \"Size must ...\n      PUSH 40\t\t\trequire(_size > 0, \"Size must ...\n      MLOAD \t\t\trequire(_size > 0, \"Size must ...\n      PUSH 8C379A000000000000000000000000000000000000000000000000000000000\t\t\trequire(_size > 0, \"Size must ...\n      DUP2 \t\t\trequire(_size > 0, \"Size must ...\n      MSTORE \t\t\trequire(_size > 0, \"Size must ...\n      PUSH 4\t\t\trequire(_size > 0, \"Size must ...\n      ADD \t\t\trequire(_size > 0, \"Size must ...\n      PUSH [tag] 35\t\t\trequire(_size > 0, \"Size must ...\n      SWAP1 \t\t\trequire(_size > 0, \"Size must ...\n      PUSH [tag] 36\t\t\trequire(_size > 0, \"Size must ...\n      JUMP \t\t\trequire(_size > 0, \"Size must ...\n    tag 35\t\t\trequire(_size > 0, \"Size must ...\n      JUMPDEST \t\t\trequire(_size > 0, \"Size must ...\n      PUSH 40\t\t\trequire(_size > 0, \"Size must ...\n      MLOAD \t\t\trequire(_size > 0, \"Size must ...\n      DUP1 \t\t\trequire(_size > 0, \"Size must ...\n      SWAP2 \t\t\trequire(_size > 0, \"Size must ...\n      SUB \t\t\trequire(_size > 0, \"Size must ...\n      SWAP1 \t\t\trequire(_size > 0, \"Size must ...\n      REVERT \t\t\trequire(_size > 0, \"Size must ...\n    tag 34\t\t\trequire(_size > 0, \"Size must ...\n      JUMPDEST \t\t\trequire(_size > 0, \"Size must ...\n      PUSH 0\t\t\t0\n      DUP2 \t\t\t_documentHash\n      MLOAD \t\t\tbytes(_documentHash).length\n      GT \t\t\tbytes(_documentHash).length > ...\n      PUSH [tag] 37\t\t\trequire(bytes(_documentHash).l...\n      JUMPI \t\t\trequire(bytes(_documentHash).l...\n      PUSH 40\t\t\trequire(bytes(_documentHash).l...\n      MLOAD \t\t\trequire(bytes(_documentHash).l...\n      PUSH 8C379A000000000000000000000000000000000000000000000000000000000\t\t\trequire(bytes(_documentHash).l...\n      DUP2 \t\t\trequire(bytes(_documentHash).l...\n      MSTORE \t\t\trequire(bytes(_documentHash).l...\n      PUSH 4\t\t\trequire(bytes(_documentHash).l...\n      ADD \t\t\trequire(bytes(_documentHash).l...\n      PUSH [tag] 38\t\t\trequire(bytes(_documentHash).l...\n      SWAP1 \t\t\trequire(bytes(_documentHash).l...\n      PUSH [tag] 39\t\t\trequire(bytes(_documentHash).l...\n      JUMP \t\t\trequire(bytes(_documentHash).l...\n    tag 38\t\t\trequire(bytes(_documentHash).l...\n      JUMPDEST \t\t\trequire(bytes(_documentHash).l...\n      PUSH 40\t\t\trequire(bytes(_documentHash).l...\n      MLOAD \t\t\trequire(bytes(_documentHash).l...\n      DUP1 \t\t\trequire(bytes(_documentHash).l...\n      SWAP2 \t\t\trequire(bytes(_documentHash).l...\n      SUB \t\t\trequire(bytes(_documentHash).l...\n      SWAP1 \t\t\trequire(bytes(_documentHash).l...\n      REVERT \t\t\trequire(bytes(_documentHash).l...\n    tag 37\t\t\trequire(bytes(_documentHash).l...\n      JUMPDEST \t\t\trequire(bytes(_documentHash).l...\n      PUSH 1\t\t\tregisteredDocumentHashes\n      DUP2 \t\t\t_documentHash\n      PUSH 40\t\t\tregisteredDocumentHashes[_docu...\n      MLOAD \t\t\tregisteredDocumentHashes[_docu...\n      PUSH [tag] 40\t\t\tregisteredDocumentHashes[_docu...\n      SWAP2 \t\t\tregisteredDocumentHashes[_docu...\n      SWAP1 \t\t\tregisteredDocumentHashes[_docu...\n      PUSH [tag] 41\t\t\tregisteredDocumentHashes[_docu...\n      JUMP \t\t\tregisteredDocumentHashes[_docu...\n    tag 40\t\t\tregisteredDocumentHashes[_docu...\n      JUMPDEST \t\t\tregisteredDocumentHashes[_docu...\n      SWAP1 \t\t\tregisteredDocumentHashes[_docu...\n      DUP2 \t\t\tregisteredDocumentHashes[_docu...\n      MSTORE \t\t\tregisteredDocumentHashes[_docu...\n      PUSH 20\t\t\tregisteredDocumentHashes[_docu...\n      ADD \t\t\tregisteredDocumentHashes[_docu...\n      PUSH 40\t\t\tregisteredDocumentHashes[_docu...\n      MLOAD \t\t\tregisteredDocumentHashes[_docu...\n      DUP1 \t\t\tregisteredDocumentHashes[_docu...\n      SWAP2 \t\t\tregisteredDocumentHashes[_docu...\n      SUB \t\t\tregisteredDocumentHashes[_docu...\n      SWAP1 \t\t\tregisteredDocumentHashes[_docu...\n      KECCAK256 \t\t\tregisteredDocumentHashes[_docu...\n      PUSH 0\t\t\tregisteredDocumentHashes[_docu...\n      SWAP1 \t\t\tregisteredDocumentHashes[_docu...\n      SLOAD \t\t\tregisteredDocumentHashes[_docu...\n      SWAP1 \t\t\tregisteredDocumentHashes[_docu...\n      PUSH 100\t\t\tregisteredDocumentHashes[_docu...\n      EXP \t\t\tregisteredDocumentHashes[_docu...\n      SWAP1 \t\t\tregisteredDocumentHashes[_docu...\n      DIV \t\t\tregisteredDocumentHashes[_docu...\n      PUSH FF\t\t\tregisteredDocumentHashes[_docu...\n      AND \t\t\tregisteredDocumentHashes[_docu...\n      ISZERO \t\t\t!registeredDocumentHashes[_doc...\n      PUSH [tag] 42\t\t\trequire(!registeredDocumentHas...\n      JUMPI \t\t\trequire(!registeredDocumentHas...\n      PUSH 40\t\t\trequire(!registeredDocumentHas...\n      MLOAD \t\t\trequire(!registeredDocumentHas...\n      PUSH 8C379A000000000000000000000000000000000000000000000000000000000\t\t\trequire(!registeredDocumentHas...\n      DUP2 \t\t\trequire(!registeredDocumentHas...\n      MSTORE \t\t\trequire(!registeredDocumentHas...\n      PUSH 4\t\t\trequire(!registeredDocumentHas...\n      ADD \t\t\trequire(!registeredDocumentHas...\n      PUSH [tag] 43\t\t\trequire(!registeredDocumentHas...\n      SWAP1 \t\t\trequire(!registeredDocumentHas...\n      PUSH [tag] 44\t\t\trequire(!registeredDocumentHas...\n      JUMP \t\t\trequire(!registeredDocumentHas...\n    tag 43\t\t\trequire(!registeredDocumentHas...\n      JUMPDEST \t\t\trequire(!registeredDocumentHas...\n      PUSH 40\t\t\trequire(!registeredDocumentHas...\n      MLOAD \t\t\trequire(!registeredDocumentHas...\n      DUP1 \t\t\trequire(!registeredDocumentHas...\n      SWAP2 \t\t\trequire(!registeredDocumentHas...\n      SUB \t\t\trequire(!registeredDocumentHas...\n      SWAP1 \t\t\trequire(!registeredDocumentHas...\n      REVERT \t\t\trequire(!registeredDocumentHas...\n    tag 42\t\t\trequire(!registeredDocumentHas...\n      JUMPDEST \t\t\trequire(!registeredDocumentHas...\n      PUSH 40\t\t\tLand(_location, _size, msg.sen...\n      MLOAD \t\t\tLand(_location, _size, msg.sen...\n      DUP1 \t\t\tLand(_location, _size, msg.sen...\n      PUSH A0\t\t\tLand(_location, _size, msg.sen...\n      ADD \t\t\tLand(_location, _size, msg.sen...\n      PUSH 40\t\t\tLand(_location, _size, msg.sen...\n      MSTORE \t\t\tLand(_location, _size, msg.sen...\n      DUP1 \t\t\tLand(_location, _size, msg.sen...\n      DUP5 \t\t\t_location\n      DUP2 \t\t\tLand(_location, _size, msg.sen...\n      MSTORE \t\t\tLand(_location, _size, msg.sen...\n      PUSH 20\t\t\tLand(_location, _size, msg.sen...\n      ADD \t\t\tLand(_location, _size, msg.sen...\n      DUP4 \t\t\t_size\n      DUP2 \t\t\tLand(_location, _size, msg.sen...\n      MSTORE \t\t\tLand(_location, _size, msg.sen...\n      PUSH 20\t\t\tLand(_location, _size, msg.sen...\n      ADD \t\t\tLand(_location, _size, msg.sen...\n      CALLER \t\t\tmsg.sender\n      PUSH FFFFFFFFFFFFFFFFFFFFFFFFFFFFFFFFFFFFFFFF\t\t\tLand(_location, _size, msg.sen...\n      AND \t\t\tLand(_location, _size, msg.sen...\n      DUP2 \t\t\tLand(_location, _size, msg.sen...\n      MSTORE \t\t\tLand(_location, _size, msg.sen...\n      PUSH 20\t\t\tLand(_location, _size, msg.sen...\n      ADD \t\t\tLand(_location, _size, msg.sen...\n      DUP3 \t\t\t_documentHash\n      DUP2 \t\t\tLand(_location, _size, msg.sen...\n      MSTORE \t\t\tLand(_location, _size, msg.sen...\n      PUSH 20\t\t\tLand(_location, _size, msg.sen...\n      ADD \t\t\tLand(_location, _size, msg.sen...\n      PUSH 1\t\t\ttrue\n      ISZERO \t\t\tLand(_location, _size, msg.sen...\n      ISZERO \t\t\tLand(_location, _size, msg.sen...\n      DUP2 \t\t\tLand(_location, _size, msg.sen...\n      MSTORE \t\t\tLand(_location, _size, msg.sen...\n      POP \t\t\tLand(_location, _size, msg.sen...\n      PUSH 0\t\t\tlands\n      DUP1 \t\t\tlands[landCount]\n      PUSH 2\t\t\tlandCount\n      SLOAD \t\t\tlandCount\n      DUP2 \t\t\tlands[landCount]\n      MSTORE \t\t\tlands[landCount]\n      PUSH 20\t\t\tlands[landCount]\n      ADD \t\t\tlands[landCount]\n      SWAP1 \t\t\tlands[landCount]\n      DUP2 \t\t\tlands[landCount]\n      MSTORE \t\t\tlands[landCount]\n      PUSH 20\t\t\tlands[landCount]\n      ADD \t\t\tlands[landCount]\n      PUSH 0\t\t\tlands[landCount]\n      KECCAK256 \t\t\tlands[landCount]\n      PUSH 0\t\t\tlands[landCount] = Land(_locat...\n      DUP3 \t\t\tlands[landCount] = Land(_locat...\n      ADD \t\t\tlands[landCount] = Land(_locat...\n      MLOAD \t\t\tlands[landCount] = Land(_locat...\n      DUP2 \t\t\tlands[landCount] = Land(_locat...\n      PUSH 0\t\t\tlands[landCount] = Land(_locat...\n      ADD \t\t\tlands[landCount] = Land(_locat...\n      SWAP1 \t\t\tlands[landCount] = Land(_locat...\n      DUP2 \t\t\tlands[landCount] = Land(_locat...\n      PUSH [tag] 45\t\t\tlands[landCount] = Land(_locat...\n      SWAP2 \t\t\tlands[landCount] = Land(_locat...\n      SWAP1 \t\t\tlands[landCount] = Land(_locat...\n      PUSH [tag] 46\t\t\tlands[landCount] = Land(_locat...\n      JUMP \t\t\tlands[landCount] = Land(_locat...\n    tag 45\t\t\tlands[landCount] = Land(_locat...\n      JUMPDEST \t\t\tlands[landCount] = Land(_locat...\n      POP \t\t\tlands[landCount] = Land(_locat...\n      PUSH 20\t\t\tlands[landCount] = Land(_locat...\n      DUP3 \t\t\tlands[landCount] = Land(_locat...\n      ADD \t\t\tlands[landCount] = Land(_locat...\n      MLOAD \t\t\tlands[landCount] = Land(_locat...\n      DUP2 \t\t\tlands[landCount] = Land(_locat...\n      PUSH 1\t\t\tlands[landCount] = Land(_locat...\n      ADD \t\t\tlands[landCount] = Land(_locat...\n      SSTORE \t\t\tlands[landCount] = Land(_locat...\n      PUSH 40\t\t\tlands[landCount] = Land(_locat...\n      DUP3 \t\t\tlands[landCount] = Land(_locat...\n      ADD \t\t\tlands[landCount] = Land(_locat...\n      MLOAD \t\t\tlands[landCount] = Land(_locat...\n      DUP2 \t\t\tlands[landCount] = Land(_locat...\n      PUSH 2\t\t\tlands[landCount] = Land(_locat...\n      ADD \t\t\tlands[landCount] = Land(_locat...\n      PUSH 0\t\t\tlands[landCount] = Land(_locat...\n      PUSH 100\t\t\tlands[landCount] = Land(_locat...\n      EXP \t\t\tlands[landCount] = Land(_locat...\n      DUP2 \t\t\tlands[landCount] = Land(_locat...\n      SLOAD \t\t\tlands[landCount] = Land(_locat...\n      DUP2 \t\t\tlands[landCount] = Land(_locat...\n      PUSH FFFFFFFFFFFFFFFFFFFFFFFFFFFFFFFFFFFFFFFF\t\t\tlands[landCount] = Land(_locat...\n      MUL \t\t\tlands[landCount] = Land(_locat...\n      NOT \t\t\tlands[landCount] = Land(_locat...\n      AND \t\t\tlands[landCount] = Land(_locat...\n      SWAP1 \t\t\tlands[landCount] = Land(_locat...\n      DUP4 \t\t\tlands[landCount] = Land(_locat...\n      PUSH FFFFFFFFFFFFFFFFFFFFFFFFFFFFFFFFFFFFFFFF\t\t\tlands[landCount] = Land(_locat...\n      AND \t\t\tlands[landCount] = Land(_locat...\n      MUL \t\t\tlands[landCount] = Land(_locat...\n      OR \t\t\tlands[landCount] = Land(_locat...\n      SWAP1 \t\t\tlands[landCount] = Land(_locat...\n      SSTORE \t\t\tlands[landCount] = Land(_locat...\n      POP \t\t\tlands[landCount] = Land(_locat...\n      PUSH 60\t\t\tlands[landCount] = Land(_locat...\n      DUP3 \t\t\tlands[landCount] = Land(_locat...\n      ADD \t\t\tlands[landCount] = Land(_locat...\n      MLOAD \t\t\tlands[landCount] = Land(_locat...\n      DUP2 \t\t\tlands[landCount] = Land(_locat...\n      PUSH 3\t\t\tlands[landCount] = Land(_locat...\n      ADD \t\t\tlands[landCount] = Land(_locat...\n      SWAP1 \t\t\tlands[landCount] = Land(_locat...\n      DUP2 \t\t\tlands[landCount] = Land(_locat...\n      PUSH [tag] 47\t\t\tlands[landCount] = Land(_locat...\n      SWAP2 \t\t\tlands[landCount] = Land(_locat...\n      SWAP1 \t\t\tlands[landCount] = Land(_locat...\n      PUSH [tag] 46\t\t\tlands[landCount] = Land(_locat...\n      JUMP \t\t\tlands[landCount] = Land(_locat...\n    tag 47\t\t\tlands[landCount] = Land(_locat...\n      JUMPDEST \t\t\tlands[landCount] = Land(_locat...\n      POP \t\t\tlands[landCount] = Land(_locat...\n      PUSH 80\t\t\tlands[landCount] = Land(_locat...\n      DUP3 \t\t\tlands[landCount] = Land(_locat...\n      ADD \t\t\tlands[landCount] = Land(_locat...\n      MLOAD \t\t\tlands[landCount] = Land(_locat...\n      DUP2 \t\t\tlands[landCount] = Land(_locat...\n      PUSH 4\t\t\tlands[landCount] = Land(_locat...\n      ADD \t\t\tlands[landCount] = Land(_locat...\n      PUSH 0\t\t\tlands[landCount] = Land(_locat...\n      PUSH 100\t\t\tlands[landCount] = Land(_locat...\n      EXP \t\t\tlands[landCount] = Land(_locat...\n      DUP2 \t\t\tlands[landCount] = Land(_locat...\n      SLOAD \t\t\tlands[landCount] = Land(_locat...\n      DUP2 \t\t\tlands[landCount] = Land(_locat...\n      PUSH FF\t\t\tlands[landCount] = Land(_locat...\n      MUL \t\t\tlands[landCount] = Land(_locat...\n      NOT \t\t\tlands[landCount] = Land(_locat...\n      AND \t\t\tlands[landCount] = Land(_locat...\n      SWAP1 \t\t\tlands[landCount] = Land(_locat...\n      DUP4 \t\t\tlands[landCount] = Land(_locat...\n      ISZERO \t\t\tlands[landCount] = Land(_locat...\n      ISZERO \t\t\tlands[landCount] = Land(_locat...\n      MUL \t\t\tlands[landCount] = Land(_locat...\n      OR \t\t\tlands[landCount] = Land(_locat...\n      SWAP1 \t\t\tlands[landCount] = Land(_locat...\n      SSTORE \t\t\tlands[landCount] = Land(_locat...\n      POP \t\t\tlands[landCount] = Land(_locat...\n      SWAP1 \t\t\tlands[landCount] = Land(_locat...\n      POP \t\t\tlands[landCount] = Land(_locat...\n      POP \t\t\tlands[landCount] = Land(_locat...\n      PUSH 1\t\t\ttrue\n      DUP1 \t\t\tregisteredDocumentHashes\n      DUP3 \t\t\t_documentHash\n      PUSH 40\t\t\tregisteredDocumentHashes[_docu...\n      MLOAD \t\t\tregisteredDocumentHashes[_docu...\n      PUSH [tag] 48\t\t\tregisteredDocumentHashes[_docu...\n      SWAP2 \t\t\tregisteredDocumentHashes[_docu...\n      SWAP1 \t\t\tregisteredDocumentHashes[_docu...\n      PUSH [tag] 41\t\t\tregisteredDocumentHashes[_docu...\n      JUMP \t\t\tregisteredDocumentHashes[_docu...\n    tag 48\t\t\tregisteredDocumentHashes[_docu...\n      JUMPDEST \t\t\tregisteredDocumentHashes[_docu...\n      SWAP1 \t\t\tregisteredDocumentHashes[_docu...\n      DUP2 \t\t\tregisteredDocumentHashes[_docu...\n      MSTORE \t\t\tregisteredDocumentHashes[_docu...\n      PUSH 20\t\t\tregisteredDocumentHashes[_docu...\n      ADD \t\t\tregisteredDocumentHashes[_docu...\n      PUSH 40\t\t\tregisteredDocumentHashes[_docu...\n      MLOAD \t\t\tregisteredDocumentHashes[_docu...\n      DUP1 \t\t\tregisteredDocumentHashes[_docu...\n      SWAP2 \t\t\tregisteredDocumentHashes[_docu...\n      SUB \t\t\tregisteredDocumentHashes[_docu...\n      SWAP1 \t\t\tregisteredDocumentHashes[_docu...\n      KECCAK256 \t\t\tregisteredDocumentHashes[_docu...\n      PUSH 0\t\t\tregisteredDocumentHashes[_docu...\n      PUSH 100\t\t\tregisteredDocumentHashes[_docu...\n      EXP \t\t\tregisteredDocumentHashes[_docu...\n      DUP2 \t\t\tregisteredDocumentHashes[_docu...\n      SLOAD \t\t\tregisteredDocumentHashes[_docu...\n      DUP2 \t\t\tregisteredDocumentHashes[_docu...\n      PUSH FF\t\t\tregisteredDocumentHashes[_docu...\n      MUL \t\t\tregisteredDocumentHashes[_docu...\n      NOT \t\t\tregisteredDocumentHashes[_docu...\n      AND \t\t\tregisteredDocumentHashes[_docu...\n      SWAP1 \t\t\tregisteredDocumentHashes[_docu...\n      DUP4 \t\t\tregisteredDocumentHashes[_docu...\n      ISZERO \t\t\tregisteredDocumentHashes[_docu...\n      ISZERO \t\t\tregisteredDocumentHashes[_docu...\n      MUL \t\t\tregisteredDocumentHashes[_docu...\n      OR \t\t\tregisteredDocumentHashes[_docu...\n      SWAP1 \t\t\tregisteredDocumentHashes[_docu...\n      SSTORE \t\t\tregisteredDocumentHashes[_docu...\n      POP \t\t\tregisteredDocumentHashes[_docu...\n      CALLER \t\t\tmsg.sender\n      PUSH FFFFFFFFFFFFFFFFFFFFFFFFFFFFFFFFFFFFFFFF\t\t\tLandRegistered(landCount, _loc...\n      AND \t\t\tLandRegistered(landCount, _loc...\n      PUSH 2\t\t\tlandCount\n      SLOAD \t\t\tlandCount\n      PUSH 339619FA84B087C7546A6105AEB2C85C0B4FBA885879B3D76B498F3C181F3E87\t\t\tLandRegistered(landCount, _loc...\n      DUP6 \t\t\t_location\n      DUP6 \t\t\t_size\n      DUP6 \t\t\t_documentHash\n      PUSH 40\t\t\tLandRegistered(landCount, _loc...\n      MLOAD \t\t\tLandRegistered(landCount, _loc...\n      PUSH [tag] 49\t\t\tLandRegistered(landCount, _loc...\n      SWAP4 \t\t\tLandRegistered(landCount, _loc...\n      SWAP3 \t\t\tLandRegistered(landCount, _loc...\n      SWAP2 \t\t\tLandRegistered(landCount, _loc...\n      SWAP1 \t\t\tLandRegistered(landCount, _loc...\n      PUSH [tag] 50\t\t\tLandRegistered(landCount, _loc...\n      JUMP \t\t\tLandRegistered(landCount, _loc...\n    tag 49\t\t\tLandRegistered(landCount, _loc...\n      JUMPDEST \t\t\tLandRegistered(landCount, _loc...\n      PUSH 40\t\t\tLandRegistered(landCount, _loc...\n      MLOAD \t\t\tLandRegistered(landCount, _loc...\n      DUP1 \t\t\tLandRegistered(landCount, _loc...\n      SWAP2 \t\t\tLandRegistered(landCount, _loc...\n      SUB \t\t\tLandRegistered(landCount, _loc...\n      SWAP1 \t\t\tLandRegistered(landCount, _loc...\n      LOG3 \t\t\tLandRegistered(landCount, _loc...\n      PUSH 2\t\t\tlandCount\n      PUSH 0\t\t\tlandCount\n      DUP2 \t\t\tlandCount++\n      SLOAD \t\t\tlandCount++\n      DUP1 \t\t\tlandCount++\n      SWAP3 \t\t\tlandCount++\n      SWAP2 \t\t\tlandCount++\n      SWAP1 \t\t\tlandCount++\n      PUSH [tag] 51\t\t\tlandCount++\n      SWAP1 \t\t\tlandCount++\n      PUSH [tag] 52\t\t\tlandCount++\n      JUMP \t\t\tlandCount++\n    tag 51\t\t\tlandCount++\n      JUMPDEST \t\t\tlandCount++\n      SWAP2 \t\t\tlandCount++\n      SWAP1 \t\t\tlandCount++\n      POP \t\t\tlandCount++\n      SSTORE \t\t\tlandCount++\n      POP \t\t\tlandCount++\n      POP \t\t\tfunction registerLand(string m...\n      POP \t\t\tfunction registerLand(string m...\n      POP \t\t\tfunction registerLand(string m...\n      JUMP \t\t\tfunction registerLand(string m...\n    tag 13\t\t\tfunction getAllLands() public ...\n      JUMPDEST \t\t\tfunction getAllLands() public ...\n      PUSH 60\t\t\tLand[] memory\n      PUSH 0\t\t\tLand[] memory allLands\n      PUSH 2\t\t\tlandCount\n      SLOAD \t\t\tlandCount\n      PUSH FFFFFFFFFFFFFFFF\t\t\tnew Land[](landCount)\n      DUP2 \t\t\tnew Land[](landCount)\n      GT \t\t\tnew Land[](landCount)\n      ISZERO \t\t\tnew Land[](landCount)\n      PUSH [tag] 54\t\t\tnew Land[](landCount)\n      JUMPI \t\t\tnew Land[](landCount)\n      PUSH [tag] 55\t\t\tnew Land[](landCount)\n      PUSH [tag] 56\t\t\tnew Land[](landCount)\n      JUMP \t\t\tnew Land[](landCount)\n    tag 55\t\t\tnew Land[](landCount)\n      JUMPDEST \t\t\tnew Land[](landCount)\n    tag 54\t\t\tnew Land[](landCount)\n      JUMPDEST \t\t\tnew Land[](landCount)\n      PUSH 40\t\t\tnew Land[](landCount)\n      MLOAD \t\t\tnew Land[](landCount)\n      SWAP1 \t\t\tnew Land[](landCount)\n      DUP1 \t\t\tnew Land[](landCount)\n      DUP3 \t\t\tnew Land[](landCount)\n      MSTORE \t\t\tnew Land[](landCount)\n      DUP1 \t\t\tnew Land[](landCount)\n      PUSH 20\t\t\tnew Land[](landCount)\n      MUL \t\t\tnew Land[](landCount)\n      PUSH 20\t\t\tnew Land[](landCount)\n      ADD \t\t\tnew Land[](landCount)\n      DUP3 \t\t\tnew Land[](landCount)\n      ADD \t\t\tnew Land[](landCount)\n      PUSH 40\t\t\tnew Land[](landCount)\n      MSTORE \t\t\tnew Land[](landCount)\n      DUP1 \t\t\tnew Land[](landCount)\n      ISZERO \t\t\tnew Land[](landCount)\n      PUSH [tag] 57\t\t\tnew Land[](landCount)\n      JUMPI \t\t\tnew Land[](landCount)\n      DUP2 \t\t\tnew Land[](landCount)\n      PUSH 20\t\t\tnew Land[](landCount)\n      ADD \t\t\tnew Land[](landCount)\n    tag 58\t\t\tnew Land[](landCount)\n      JUMPDEST \t\t\tnew Land[](landCount)\n      PUSH [tag] 59\t\t\tnew Land[](landCount)\n      PUSH [tag] 60\t\t\tnew Land[](landCount)\n      JUMP \t\t\tnew Land[](landCount)\n    tag 59\t\t\tnew Land[](landCount)\n      JUMPDEST \t\t\tnew Land[](landCount)\n      DUP2 \t\t\tnew Land[](landCount)\n      MSTORE \t\t\tnew Land[](landCount)\n      PUSH 20\t\t\tnew Land[](landCount)\n      ADD \t\t\tnew Land[](landCount)\n      SWAP1 \t\t\tnew Land[](landCount)\n      PUSH 1\t\t\tnew Land[](landCount)\n      SWAP1 \t\t\tnew Land[](landCount)\n      SUB \t\t\tnew Land[](landCount)\n      SWAP1 \t\t\tnew Land[](landCount)\n      DUP2 \t\t\tnew Land[](landCount)\n      PUSH [tag] 58\t\t\tnew Land[](landCount)\n      JUMPI \t\t\tnew Land[](landCount)\n      SWAP1 \t\t\tnew Land[](landCount)\n      POP \t\t\tnew Land[](landCount)\n    tag 57\t\t\tnew Land[](landCount)\n      JUMPDEST \t\t\tnew Land[](landCount)\n      POP \t\t\tnew Land[](landCount)\n      SWAP1 \t\t\tLand[] memory allLands = new L...\n      POP \t\t\tLand[] memory allLands = new L...\n      PUSH 0\t\t\tuint256 i\n    tag 61\t\t\tfor (uint256 i = 0; i < landCo...\n      JUMPDEST \t\t\tfor (uint256 i = 0; i < landCo...\n      PUSH 2\t\t\tlandCount\n      SLOAD \t\t\tlandCount\n      DUP2 \t\t\ti\n      LT \t\t\ti < landCount\n      ISZERO \t\t\tfor (uint256 i = 0; i < landCo...\n      PUSH [tag] 62\t\t\tfor (uint256 i = 0; i < landCo...\n      JUMPI \t\t\tfor (uint256 i = 0; i < landCo...\n      PUSH 0\t\t\tLand storage land\n      DUP1 \t\t\tlands\n      PUSH 0\t\t\tlands[i]\n      DUP4 \t\t\ti\n      DUP2 \t\t\tlands[i]\n      MSTORE \t\t\tlands[i]\n      PUSH 20\t\t\tlands[i]\n      ADD \t\t\tlands[i]\n      SWAP1 \t\t\tlands[i]\n      DUP2 \t\t\tlands[i]\n      MSTORE \t\t\tlands[i]\n      PUSH 20\t\t\tlands[i]\n      ADD \t\t\tlands[i]\n      PUSH 0\t\t\tlands[i]\n      KECCAK256 \t\t\tlands[i]\n      SWAP1 \t\t\tLand storage land = lands[i]\n      POP \t\t\tLand storage land = lands[i]\n      DUP1 \t\t\tland\n      PUSH 40\t\t\tallLands[i] = land\n      MLOAD \t\t\tallLands[i] = land\n      DUP1 \t\t\tallLands[i] = land\n      PUSH A0\t\t\tallLands[i] = land\n      ADD \t\t\tallLands[i] = land\n      PUSH 40\t\t\tallLands[i] = land\n      MSTORE \t\t\tallLands[i] = land\n      SWAP1 \t\t\tallLands[i] = land\n      DUP2 \t\t\tallLands[i] = land\n      PUSH 0\t\t\tallLands[i] = land\n      DUP3 \t\t\tallLands[i] = land\n      ADD \t\t\tallLands[i] = land\n      DUP1 \t\t\tallLands[i] = land\n      SLOAD \t\t\tallLands[i] = land\n      PUSH [tag] 64\t\t\tallLands[i] = land\n      SWAP1 \t\t\tallLands[i] = land\n      PUSH [tag] 65\t\t\tallLands[i] = land\n      JUMP \t\t\tallLands[i] = land\n    tag 64\t\t\tallLands[i] = land\n      JUMPDEST \t\t\tallLands[i] = land\n      DUP1 \t\t\tallLands[i] = land\n      PUSH 1F\t\t\tallLands[i] = land\n      ADD \t\t\tallLands[i] = land\n      PUSH 20\t\t\tallLands[i] = land\n      DUP1 \t\t\tallLands[i] = land\n      SWAP2 \t\t\tallLands[i] = land\n      DIV \t\t\tallLands[i] = land\n      MUL \t\t\tallLands[i] = land\n      PUSH 20\t\t\tallLands[i] = land\n      ADD \t\t\tallLands[i] = land\n      PUSH 40\t\t\tallLands[i] = land\n      MLOAD \t\t\tallLands[i] = land\n      SWAP1 \t\t\tallLands[i] = land\n      DUP2 \t\t\tallLands[i] = land\n      ADD \t\t\tallLands[i] = land\n      PUSH 40\t\t\tallLands[i] = land\n      MSTORE \t\t\tallLands[i] = land\n      DUP1 \t\t\tallLands[i] = land\n      SWAP3 \t\t\tallLands[i] = land\n      SWAP2 \t\t\tallLands[i] = land\n      SWAP1 \t\t\tallLands[i] = land\n      DUP2 \t\t\tallLands[i] = land\n      DUP2 \t\t\tallLands[i] = land\n      MSTORE \t\t\tallLands[i] = land\n      PUSH 20\t\t\tallLands[i] = land\n      ADD \t\t\tallLands[i] = land\n      DUP3 \t\t\tallLands[i] = land\n      DUP1 \t\t\tallLands[i] = land\n      SLOAD \t\t\tallLands[i] = land\n      PUSH [tag] 66\t\t\tallLands[i] = land\n      SWAP1 \t\t\tallLands[i] = land\n      PUSH [tag] 65\t\t\tallLands[i] = land\n      JUMP \t\t\tallLands[i] = land\n    tag 66\t\t\tallLands[i] = land\n      JUMPDEST \t\t\tallLands[i] = land\n      DUP1 \t\t\tallLands[i] = land\n      ISZERO \t\t\tallLands[i] = land\n      PUSH [tag] 67\t\t\tallLands[i] = land\n      JUMPI \t\t\tallLands[i] = land\n      DUP1 \t\t\tallLands[i] = land\n      PUSH 1F\t\t\tallLands[i] = land\n      LT \t\t\tallLands[i] = land\n      PUSH [tag] 68\t\t\tallLands[i] = land\n      JUMPI \t\t\tallLands[i] = land\n      PUSH 100\t\t\tallLands[i] = land\n      DUP1 \t\t\tallLands[i] = land\n      DUP4 \t\t\tallLands[i] = land\n      SLOAD \t\t\tallLands[i] = land\n      DIV \t\t\tallLands[i] = land\n      MUL \t\t\tallLands[i] = land\n      DUP4 \t\t\tallLands[i] = land\n      MSTORE \t\t\tallLands[i] = land\n      SWAP2 \t\t\tallLands[i] = land\n      PUSH 20\t\t\tallLands[i] = land\n      ADD \t\t\tallLands[i] = land\n      SWAP2 \t\t\tallLands[i] = land\n      PUSH [tag] 67\t\t\tallLands[i] = land\n      JUMP \t\t\tallLands[i] = land\n    tag 68\t\t\tallLands[i] = land\n      JUMPDEST \t\t\tallLands[i] = land\n      DUP3 \t\t\tallLands[i] = land\n      ADD \t\t\tallLands[i] = land\n      SWAP2 \t\t\tallLands[i] = land\n      SWAP1 \t\t\tallLands[i] = land\n      PUSH 0\t\t\tallLands[i] = land\n      MSTORE \t\t\tallLands[i] = land\n      PUSH 20\t\t\tallLands[i] = land\n      PUSH 0\t\t\tallLands[i] = land\n      KECCAK256 \t\t\tallLands[i] = land\n      SWAP1 \t\t\tallLands[i] = land\n    tag 69\t\t\tallLands[i] = land\n      JUMPDEST \t\t\tallLands[i] = land\n      DUP2 \t\t\tallLands[i] = land\n      SLOAD \t\t\tallLands[i] = land\n      DUP2 \t\t\tallLands[i] = land\n      MSTORE \t\t\tallLands[i] = land\n      SWAP1 \t\t\tallLands[i] = land\n      PUSH 1\t\t\tallLands[i] = land\n      ADD \t\t\tallLands[i] = land\n      SWAP1 \t\t\tallLands[i] = land\n      PUSH 20\t\t\tallLands[i] = land\n      ADD \t\t\tallLands[i] = land\n      DUP1 \t\t\tallLands[i] = land\n      DUP4 \t\t\tallLands[i] = land\n      GT \t\t\tallLands[i] = land\n      PUSH [tag] 69\t\t\tallLands[i] = land\n      JUMPI \t\t\tallLands[i] = land\n      DUP3 \t\t\tallLands[i] = land\n      SWAP1 \t\t\tallLands[i] = land\n      SUB \t\t\tallLands[i] = land\n      PUSH 1F\t\t\tallLands[i] = land\n      AND \t\t\tallLands[i] = land\n      DUP3 \t\t\tallLands[i] = land\n      ADD \t\t\tallLands[i] = land\n      SWAP2 \t\t\tallLands[i] = land\n    tag 67\t\t\tallLands[i] = land\n      JUMPDEST \t\t\tallLands[i] = land\n      POP \t\t\tallLands[i] = land\n      POP \t\t\tallLands[i] = land\n      POP \t\t\tallLands[i] = land\n      POP \t\t\tallLands[i] = land\n      POP \t\t\tallLands[i] = land\n      DUP2 \t\t\tallLands[i] = land\n      MSTORE \t\t\tallLands[i] = land\n      PUSH 20\t\t\tallLands[i] = land\n      ADD \t\t\tallLands[i] = land\n      PUSH 1\t\t\tallLands[i] = land\n      DUP3 \t\t\tallLands[i] = land\n      ADD \t\t\tallLands[i] = land\n      SLOAD \t\t\tallLands[i] = land\n      DUP2 \t\t\tallLands[i] = land\n      MSTORE \t\t\tallLands[i] = land\n      PUSH 20\t\t\tallLands[i] = land\n      ADD \t\t\tallLands[i] = land\n      PUSH 2\t\t\tallLands[i] = land\n      DUP3 \t\t\tallLands[i] = land\n      ADD \t\t\tallLands[i] = land\n      PUSH 0\t\t\tallLands[i] = land\n      SWAP1 \t\t\tallLands[i] = land\n      SLOAD \t\t\tallLands[i] = land\n      SWAP1 \t\t\tallLands[i] = land\n      PUSH 100\t\t\tallLands[i] = land\n      EXP \t\t\tallLands[i] = land\n      SWAP1 \t\t\tallLands[i] = land\n      DIV \t\t\tallLands[i] = land\n      PUSH FFFFFFFFFFFFFFFFFFFFFFFFFFFFFFFFFFFFFFFF\t\t\tallLands[i] = land\n      AND \t\t\tallLands[i] = land\n      PUSH FFFFFFFFFFFFFFFFFFFFFFFFFFFFFFFFFFFFFFFF\t\t\tallLands[i] = land\n      AND \t\t\tallLands[i] = land\n      PUSH FFFFFFFFFFFFFFFFFFFFFFFFFFFFFFFFFFFFFFFF\t\t\tallLands[i] = land\n      AND \t\t\tallLands[i] = land\n      DUP2 \t\t\tallLands[i] = land\n      MSTORE \t\t\tallLands[i] = land\n      PUSH 20\t\t\tallLands[i] = land\n      ADD \t\t\tallLands[i] = land\n      PUSH 3\t\t\tallLands[i] = land\n      DUP3 \t\t\tallLands[i] = land\n      ADD \t\t\tallLands[i] = land\n      DUP1 \t\t\tallLands[i] = land\n      SLOAD \t\t\tallLands[i] = land\n      PUSH [tag] 70\t\t\tallLands[i] = land\n      SWAP1 \t\t\tallLands[i] = land\n      PUSH [tag] 65\t\t\tallLands[i] = land\n      JUMP \t\t\tallLands[i] = land\n    tag 70\t\t\tallLands[i] = land\n      JUMPDEST \t\t\tallLands[i] = land\n      DUP1 \t\t\tallLands[i] = land\n      PUSH 1F\t\t\tallLands[i] = land\n      ADD \t\t\tallLands[i] = land\n      PUSH 20\t\t\tallLands[i] = land\n      DUP1 \t\t\tallLands[i] = land\n      SWAP2 \t\t\tallLands[i] = land\n      DIV \t\t\tallLands[i] = land\n      MUL \t\t\tallLands[i] = land\n      PUSH 20\t\t\tallLands[i] = land\n      ADD \t\t\tallLands[i] = land\n      PUSH 40\t\t\tallLands[i] = land\n      MLOAD \t\t\tallLands[i] = land\n      SWAP1 \t\t\tallLands[i] = land\n      DUP2 \t\t\tallLands[i] = land\n      ADD \t\t\tallLands[i] = land\n      PUSH 40\t\t\tallLands[i] = land\n      MSTORE \t\t\tallLands[i] = land\n      DUP1 \t\t\tallLands[i] = land\n      SWAP3 \t\t\tallLands[i] = land\n      SWAP2 \t\t\tallLands[i] = land\n      SWAP1 \t\t\tallLands[i] = land\n      DUP2 \t\t\tallLands[i] = land\n      DUP2 \t\t\tallLands[i] = land\n      MSTORE \t\t\tallLands[i] = land\n      PUSH 20\t\t\tallLands[i] = land\n      ADD \t\t\tallLands[i] = land\n      DUP3 \t\t\tallLands[i] = land\n      DUP1 \t\t\tallLands[i] = land\n      SLOAD \t\t\tallLands[i] = land\n      PUSH [tag] 71\t\t\tallLands[i] = land\n      SWAP1 \t\t\tallLands[i] = land\n      PUSH [tag] 65\t\t\tallLands[i] = land\n      JUMP \t\t\tallLands[i] = land\n    tag 71\t\t\tallLands[i] = land\n      JUMPDEST \t\t\tallLands[i] = land\n      DUP1 \t\t\tallLands[i] = land\n      ISZERO \t\t\tallLands[i] = land\n      PUSH [tag] 72\t\t\tallLands[i] = land\n      JUMPI \t\t\tallLands[i] = land\n      DUP1 \t\t\tallLands[i] = land\n      PUSH 1F\t\t\tallLands[i] = land\n      LT \t\t\tallLands[i] = land\n      PUSH [tag] 73\t\t\tallLands[i] = land\n      JUMPI \t\t\tallLands[i] = land\n      PUSH 100\t\t\tallLands[i] = land\n      DUP1 \t\t\tallLands[i] = land\n      DUP4 \t\t\tallLands[i] = land\n      SLOAD \t\t\tallLands[i] = land\n      DIV \t\t\tallLands[i] = land\n      MUL \t\t\tallLands[i] = land\n      DUP4 \t\t\tallLands[i] = land\n      MSTORE \t\t\tallLands[i] = land\n      SWAP2 \t\t\tallLands[i] = land\n      PUSH 20\t\t\tallLands[i] = land\n      ADD \t\t\tallLands[i] = land\n      SWAP2 \t\t\tallLands[i] = land\n      PUSH [tag] 72\t\t\tallLands[i] = land\n      JUMP \t\t\tallLands[i] = land\n    tag 73\t\t\tallLands[i] = land\n      JUMPDEST \t\t\tallLands[i] = land\n      DUP3 \t\t\tallLands[i] = land\n      ADD \t\t\tallLands[i] = land\n      SWAP2 \t\t\tallLands[i] = land\n      SWAP1 \t\t\tallLands[i] = land\n      PUSH 0\t\t\tallLands[i] = land\n      MSTORE \t\t\tallLands[i] = land\n      PUSH 20\t\t\tallLands[i] = land\n      PUSH 0\t\t\tallLands[i] = land\n      KECCAK256 \t\t\tallLands[i] = land\n      SWAP1 \t\t\tallLands[i] = land\n    tag 74\t\t\tallLands[i] = land\n      JUMPDEST \t\t\tallLands[i] = land\n      DUP2 \t\t\tallLands[i] = land\n      SLOAD \t\t\tallLands[i] = land\n      DUP2 \t\t\tallLands[i] = land\n      MSTORE \t\t\tallLands[i] = land\n      SWAP1 \t\t\tallLands[i] = land\n      PUSH 1\t\t\tallLands[i] = land\n      ADD \t\t\tallLands[i] = land\n      SWAP1 \t\t\tallLands[i] = land\n      PUSH 20\t\t\tallLands[i] = land\n      ADD \t\t\tallLands[i] = land\n      DUP1 \t\t\tallLands[i] = land\n      DUP4 \t\t\tallLands[i] = land\n      GT \t\t\tallLands[i] = land\n      PUSH [tag] 74\t\t\tallLands[i] = land\n      JUMPI \t\t\tallLands[i] = land\n      DUP3 \t\t\tallLands[i] = land\n      SWAP1 \t\t\tallLands[i] = land\n      SUB \t\t\tallLands[i] = land\n      PUSH 1F\t\t\tallLands[i] = land\n      AND \t\t\tallLands[i] = land\n      DUP3 \t\t\tallLands[i] = land\n      ADD \t\t\tallLands[i] = land\n      SWAP2 \t\t\tallLands[i] = land\n    tag 72\t\t\tallLands[i] = land\n      JUMPDEST \t\t\tallLands[i] = land\n      POP \t\t\tallLands[i] = land\n      POP \t\t\tallLands[i] = land\n      POP \t\t\tallLands[i] = land\n      POP \t\t\tallLands[i] = land\n      POP \t\t\tallLands[i] = land\n      DUP2 \t\t\tallLands[i] = land\n      MSTORE \t\t\tallLands[i] = land\n      PUSH 20\t\t\tallLands[i] = land\n      ADD \t\t\tallLands[i] = land\n      PUSH 4\t\t\tallLands[i] = land\n      DUP3 \t\t\tallLands[i] = land\n      ADD \t\t\tallLands[i] = land\n      PUSH 0\t\t\tallLands[i] = land\n      SWAP1 \t\t\tallLands[i] = land\n      SLOAD \t\t\tallLands[i] = land\n      SWAP1 \t\t\tallLands[i] = land\n      PUSH 100\t\t\tallLands[i] = land\n      EXP \t\t\tallLands[i] = land\n      SWAP1 \t\t\tallLands[i] = land\n      DIV \t\t\tallLands[i] = land\n      PUSH FF\t\t\tallLands[i] = land\n      AND \t\t\tallLands[i] = land\n      ISZERO \t\t\tallLands[i] = land\n      ISZERO \t\t\tallLands[i] = land\n      ISZERO \t\t\tallLands[i] = land\n      ISZERO \t\t\tallLands[i] = land\n      DUP2 \t\t\tallLands[i] = land\n      MSTORE \t\t\tallLands[i] = land\n      POP \t\t\tallLands[i] = land\n      POP \t\t\tallLands[i] = land\n      DUP4 \t\t\tallLands\n      DUP4 \t\t\ti\n      DUP2 \t\t\tallLands[i]\n      MLOAD \t\t\tallLands[i]\n      DUP2 \t\t\tallLands[i]\n      LT \t\t\tallLands[i]\n      PUSH [tag] 75\t\t\tallLands[i]\n      JUMPI \t\t\tallLands[i]\n      PUSH [tag] 76\t\t\tallLands[i]\n      PUSH [tag] 77\t\t\tallLands[i]\n      JUMP \t\t\tallLands[i]\n    tag 76\t\t\tallLands[i]\n      JUMPDEST \t\t\tallLands[i]\n    tag 75\t\t\tallLands[i]\n      JUMPDEST \t\t\tallLands[i]\n      PUSH 20\t\t\tallLands[i]\n      MUL \t\t\tallLands[i]\n      PUSH 20\t\t\tallLands[i]\n      ADD \t\t\tallLands[i]\n      ADD \t\t\tallLands[i]\n      DUP2 \t\t\tallLands[i] = land\n      SWAP1 \t\t\tallLands[i] = land\n      MSTORE \t\t\tallLands[i] = land\n      POP \t\t\tallLands[i] = land\n      POP \t\t\t{\\r\\n            Land storage ...\n      DUP1 \t\t\ti++\n      DUP1 \t\t\ti++\n      PUSH 1\t\t\ti++\n      ADD \t\t\ti++\n      SWAP2 \t\t\ti++\n      POP \t\t\ti++\n      POP \t\t\ti++\n      PUSH [tag] 61\t\t\tfor (uint256 i = 0; i < landCo...\n      JUMP \t\t\tfor (uint256 i = 0; i < landCo...\n    tag 62\t\t\tfor (uint256 i = 0; i < landCo...\n      JUMPDEST \t\t\tfor (uint256 i = 0; i < landCo...\n      POP \t\t\tfor (uint256 i = 0; i < landCo...\n      DUP1 \t\t\tallLands\n      SWAP2 \t\t\treturn allLands\n      POP \t\t\treturn allLands\n      POP \t\t\treturn allLands\n      SWAP1 \t\t\tfunction getAllLands() public ...\n      JUMP \t\t\tfunction getAllLands() public ...\n    tag 19\t\t\tfunction transferLand(uint256 ...\n      JUMPDEST \t\t\tfunction transferLand(uint256 ...\n      DUP2 \t\t\t_landId\n      PUSH 0\t\t\tlands\n      DUP1 \t\t\tlands[_landId]\n      DUP3 \t\t\t_landId\n      DUP2 \t\t\tlands[_landId]\n      MSTORE \t\t\tlands[_landId]\n      PUSH 20\t\t\tlands[_landId]\n      ADD \t\t\tlands[_landId]\n      SWAP1 \t\t\tlands[_landId]\n      DUP2 \t\t\tlands[_landId]\n      MSTORE \t\t\tlands[_landId]\n      PUSH 20\t\t\tlands[_landId]\n      ADD \t\t\tlands[_landId]\n      PUSH 0\t\t\tlands[_landId]\n      KECCAK256 \t\t\tlands[_landId]\n      PUSH 2\t\t\tlands[_landId].owner\n      ADD \t\t\tlands[_landId].owner\n      PUSH 0\t\t\tlands[_landId].owner\n      SWAP1 \t\t\tlands[_landId].owner\n      SLOAD \t\t\tlands[_landId].owner\n      SWAP1 \t\t\tlands[_landId].owner\n      PUSH 100\t\t\tlands[_landId].owner\n      EXP \t\t\tlands[_landId].owner\n      SWAP1 \t\t\tlands[_landId].owner\n      DIV \t\t\tlands[_landId].owner\n      PUSH FFFFFFFFFFFFFFFFFFFFFFFFFFFFFFFFFFFFFFFF\t\t\tlands[_landId].owner\n      AND \t\t\tlands[_landId].owner\n      PUSH FFFFFFFFFFFFFFFFFFFFFFFFFFFFFFFFFFFFFFFF\t\t\tmsg.sender == lands[_landId].o...\n      AND \t\t\tmsg.sender == lands[_landId].o...\n      CALLER \t\t\tmsg.sender\n      PUSH FFFFFFFFFFFFFFFFFFFFFFFFFFFFFFFFFFFFFFFF\t\t\tmsg.sender == lands[_landId].o...\n      AND \t\t\tmsg.sender == lands[_landId].o...\n      EQ \t\t\tmsg.sender == lands[_landId].o...\n      PUSH [tag] 79\t\t\trequire(msg.sender == lands[_l...\n      JUMPI \t\t\trequire(msg.sender == lands[_l...\n      PUSH 40\t\t\trequire(msg.sender == lands[_l...\n      MLOAD \t\t\trequire(msg.sender == lands[_l...\n      PUSH 8C379A000000000000000000000000000000000000000000000000000000000\t\t\trequire(msg.sender == lands[_l...\n      DUP2 \t\t\trequire(msg.sender == lands[_l...\n      MSTORE \t\t\trequire(msg.sender == lands[_l...\n      PUSH 4\t\t\trequire(msg.sender == lands[_l...\n      ADD \t\t\trequire(msg.sender == lands[_l...\n      PUSH [tag] 80\t\t\trequire(msg.sender == lands[_l...\n      SWAP1 \t\t\trequire(msg.sender == lands[_l...\n      PUSH [tag] 81\t\t\trequire(msg.sender == lands[_l...\n      JUMP \t\t\trequire(msg.sender == lands[_l...\n    tag 80\t\t\trequire(msg.sender == lands[_l...\n      JUMPDEST \t\t\trequire(msg.sender == lands[_l...\n      PUSH 40\t\t\trequire(msg.sender == lands[_l...\n      MLOAD \t\t\trequire(msg.sender == lands[_l...\n      DUP1 \t\t\trequire(msg.sender == lands[_l...\n      SWAP2 \t\t\trequire(msg.sender == lands[_l...\n      SUB \t\t\trequire(msg.sender == lands[_l...\n      SWAP1 \t\t\trequire(msg.sender == lands[_l...\n      REVERT \t\t\trequire(msg.sender == lands[_l...\n    tag 79\t\t\trequire(msg.sender == lands[_l...\n      JUMPDEST \t\t\trequire(msg.sender == lands[_l...\n      PUSH 2\t\t\tlandCount\n      SLOAD \t\t\tlandCount\n      DUP4 \t\t\t_landId\n      LT \t\t\t_landId < landCount\n      PUSH [tag] 83\t\t\trequire(_landId < landCount, \"...\n      JUMPI \t\t\trequire(_landId < landCount, \"...\n      PUSH 40\t\t\trequire(_landId < landCount, \"...\n      MLOAD \t\t\trequire(_landId < landCount, \"...\n      PUSH 8C379A000000000000000000000000000000000000000000000000000000000\t\t\trequire(_landId < landCount, \"...\n      DUP2 \t\t\trequire(_landId < landCount, \"...\n      MSTORE \t\t\trequire(_landId < landCount, \"...\n      PUSH 4\t\t\trequire(_landId < landCount, \"...\n      ADD \t\t\trequire(_landId < landCount, \"...\n      PUSH [tag] 84\t\t\trequire(_landId < landCount, \"...\n      SWAP1 \t\t\trequire(_landId < landCount, \"...\n      PUSH [tag] 85\t\t\trequire(_landId < landCount, \"...\n      JUMP \t\t\trequire(_landId < landCount, \"...\n    tag 84\t\t\trequire(_landId < landCount, \"...\n      JUMPDEST \t\t\trequire(_landId < landCount, \"...\n      PUSH 40\t\t\trequire(_landId < landCount, \"...\n      MLOAD \t\t\trequire(_landId < landCount, \"...\n      DUP1 \t\t\trequire(_landId < landCount, \"...\n      SWAP2 \t\t\trequire(_landId < landCount, \"...\n      SUB \t\t\trequire(_landId < landCount, \"...\n      SWAP1 \t\t\trequire(_landId < landCount, \"...\n      REVERT \t\t\trequire(_landId < landCount, \"...\n    tag 83\t\t\trequire(_landId < landCount, \"...\n      JUMPDEST \t\t\trequire(_landId < landCount, \"...\n      PUSH 0\t\t\t0\n      PUSH FFFFFFFFFFFFFFFFFFFFFFFFFFFFFFFFFFFFFFFF\t\t\t_newOwner != address(0)\n      AND \t\t\t_newOwner != address(0)\n      DUP3 \t\t\t_newOwner\n      PUSH FFFFFFFFFFFFFFFFFFFFFFFFFFFFFFFFFFFFFFFF\t\t\t_newOwner != address(0)\n      AND \t\t\t_newOwner != address(0)\n      SUB \t\t\t_newOwner != address(0)\n      PUSH [tag] 86\t\t\trequire(_newOwner != address(0...\n      JUMPI \t\t\trequire(_newOwner != address(0...\n      PUSH 40\t\t\trequire(_newOwner != address(0...\n      MLOAD \t\t\trequire(_newOwner != address(0...\n      PUSH 8C379A000000000000000000000000000000000000000000000000000000000\t\t\trequire(_newOwner != address(0...\n      DUP2 \t\t\trequire(_newOwner != address(0...\n      MSTORE \t\t\trequire(_newOwner != address(0...\n      PUSH 4\t\t\trequire(_newOwner != address(0...\n      ADD \t\t\trequire(_newOwner != address(0...\n      PUSH [tag] 87\t\t\trequire(_newOwner != address(0...\n      SWAP1 \t\t\trequire(_newOwner != address(0...\n      PUSH [tag] 88\t\t\trequire(_newOwner != address(0...\n      JUMP \t\t\trequire(_newOwner != address(0...\n    tag 87\t\t\trequire(_newOwner != address(0...\n      JUMPDEST \t\t\trequire(_newOwner != address(0...\n      PUSH 40\t\t\trequire(_newOwner != address(0...\n      MLOAD \t\t\trequire(_newOwner != address(0...\n      DUP1 \t\t\trequire(_newOwner != address(0...\n      SWAP2 \t\t\trequire(_newOwner != address(0...\n      SUB \t\t\trequire(_newOwner != address(0...\n      SWAP1 \t\t\trequire(_newOwner != address(0...\n      REVERT \t\t\trequire(_newOwner != address(0...\n    tag 86\t\t\trequire(_newOwner != address(0...\n      JUMPDEST \t\t\trequire(_newOwner != address(0...\n      PUSH 0\t\t\taddress oldOwner\n      DUP1 \t\t\tlands\n      PUSH 0\t\t\tlands[_landId]\n      DUP6 \t\t\t_landId\n      DUP2 \t\t\tlands[_landId]\n      MSTORE \t\t\tlands[_landId]\n      PUSH 20\t\t\tlands[_landId]\n      ADD \t\t\tlands[_landId]\n      SWAP1 \t\t\tlands[_landId]\n      DUP2 \t\t\tlands[_landId]\n      MSTORE \t\t\tlands[_landId]\n      PUSH 20\t\t\tlands[_landId]\n      ADD \t\t\tlands[_landId]\n      PUSH 0\t\t\tlands[_landId]\n      KECCAK256 \t\t\tlands[_landId]\n      PUSH 2\t\t\tlands[_landId].owner\n      ADD \t\t\tlands[_landId].owner\n      PUSH 0\t\t\tlands[_landId].owner\n      SWAP1 \t\t\tlands[_landId].owner\n      SLOAD \t\t\tlands[_landId].owner\n      SWAP1 \t\t\tlands[_landId].owner\n      PUSH 100\t\t\tlands[_landId].owner\n      EXP \t\t\tlands[_landId].owner\n      SWAP1 \t\t\tlands[_landId].owner\n      DIV \t\t\tlands[_landId].owner\n      PUSH FFFFFFFFFFFFFFFFFFFFFFFFFFFFFFFFFFFFFFFF\t\t\tlands[_landId].owner\n      AND \t\t\tlands[_landId].owner\n      SWAP1 \t\t\taddress oldOwner = lands[_land...\n      POP \t\t\taddress oldOwner = lands[_land...\n      DUP3 \t\t\t_newOwner\n      PUSH 0\t\t\tlands\n      DUP1 \t\t\tlands[_landId]\n      DUP7 \t\t\t_landId\n      DUP2 \t\t\tlands[_landId]\n      MSTORE \t\t\tlands[_landId]\n      PUSH 20\t\t\tlands[_landId]\n      ADD \t\t\tlands[_landId]\n      SWAP1 \t\t\tlands[_landId]\n      DUP2 \t\t\tlands[_landId]\n      MSTORE \t\t\tlands[_landId]\n      PUSH 20\t\t\tlands[_landId]\n      ADD \t\t\tlands[_landId]\n      PUSH 0\t\t\tlands[_landId]\n      KECCAK256 \t\t\tlands[_landId]\n      PUSH 2\t\t\tlands[_landId].owner\n      ADD \t\t\tlands[_landId].owner\n      PUSH 0\t\t\tlands[_landId].owner\n      PUSH 100\t\t\tlands[_landId].owner = _newOwn...\n      EXP \t\t\tlands[_landId].owner = _newOwn...\n      DUP2 \t\t\tlands[_landId].owner = _newOwn...\n      SLOAD \t\t\tlands[_landId].owner = _newOwn...\n      DUP2 \t\t\tlands[_landId].owner = _newOwn...\n      PUSH FFFFFFFFFFFFFFFFFFFFFFFFFFFFFFFFFFFFFFFF\t\t\tlands[_landId].owner = _newOwn...\n      MUL \t\t\tlands[_landId].owner = _newOwn...\n      NOT \t\t\tlands[_landId].owner = _newOwn...\n      AND \t\t\tlands[_landId].owner = _newOwn...\n      SWAP1 \t\t\tlands[_landId].owner = _newOwn...\n      DUP4 \t\t\tlands[_landId].owner = _newOwn...\n      PUSH FFFFFFFFFFFFFFFFFFFFFFFFFFFFFFFFFFFFFFFF\t\t\tlands[_landId].owner = _newOwn...\n      AND \t\t\tlands[_landId].owner = _newOwn...\n      MUL \t\t\tlands[_landId].owner = _newOwn...\n      OR \t\t\tlands[_landId].owner = _newOwn...\n      SWAP1 \t\t\tlands[_landId].owner = _newOwn...\n      SSTORE \t\t\tlands[_landId].owner = _newOwn...\n      POP \t\t\tlands[_landId].owner = _newOwn...\n      DUP3 \t\t\t_newOwner\n      PUSH FFFFFFFFFFFFFFFFFFFFFFFFFFFFFFFFFFFFFFFF\t\t\tLandTransferred(_landId, oldOw...\n      AND \t\t\tLandTransferred(_landId, oldOw...\n      DUP2 \t\t\toldOwner\n      PUSH FFFFFFFFFFFFFFFFFFFFFFFFFFFFFFFFFFFFFFFF\t\t\tLandTransferred(_landId, oldOw...\n      AND \t\t\tLandTransferred(_landId, oldOw...\n      DUP6 \t\t\t_landId\n      PUSH 1080B2F211753E5090F26EF7FFDC6BB3E66A125C7290200D10B502160BB1F566\t\t\tLandTransferred(_landId, oldOw...\n      PUSH 40\t\t\tLandTransferred(_landId, oldOw...\n      MLOAD \t\t\tLandTransferred(_landId, oldOw...\n      PUSH 40\t\t\tLandTransferred(_landId, oldOw...\n      MLOAD \t\t\tLandTransferred(_landId, oldOw...\n      DUP1 \t\t\tLandTransferred(_landId, oldOw...\n      SWAP2 \t\t\tLandTransferred(_landId, oldOw...\n      SUB \t\t\tLandTransferred(_landId, oldOw...\n      SWAP1 \t\t\tLandTransferred(_landId, oldOw...\n      LOG4 \t\t\tLandTransferred(_landId, oldOw...\n      POP \t\t\t{\\r\\n        require(_landId <...\n      POP \t\t\tfunction transferLand(uint256 ...\n      POP \t\t\tfunction transferLand(uint256 ...\n      POP \t\t\tfunction transferLand(uint256 ...\n      JUMP \t\t\tfunction transferLand(uint256 ...\n    tag 21\t\t\tuint256 public landCount\n      JUMPDEST \t\t\tuint256 public landCount\n      PUSH 2\t\t\tuint256 public landCount\n      SLOAD \t\t\tuint256 public landCount\n      DUP2 \t\t\tuint256 public landCount\n      JUMP \t\t\tuint256 public landCount\n    tag 27\t\t\tmapping(uint256 => Land) publi...\n      JUMPDEST \t\t\tmapping(uint256 => Land) publi...\n      PUSH 0\t\t\tmapping(uint256 => Land) publi...\n      PUSH 20\t\t\tmapping(uint256 => Land) publi...\n      MSTORE \t\t\tmapping(uint256 => Land) publi...\n      DUP1 \t\t\tmapping(uint256 => Land) publi...\n      PUSH 0\t\t\tmapping(uint256 => Land) publi...\n      MSTORE \t\t\tmapping(uint256 => Land) publi...\n      PUSH 40\t\t\tmapping(uint256 => Land) publi...\n      PUSH 0\t\t\tmapping(uint256 => Land) publi...\n      KECCAK256 \t\t\tmapping(uint256 => Land) publi...\n      PUSH 0\t\t\tmapping(uint256 => Land) publi...\n      SWAP2 \t\t\tmapping(uint256 => Land) publi...\n      POP \t\t\tmapping(uint256 => Land) publi...\n      SWAP1 \t\t\tmapping(uint256 => Land) publi...\n      POP \t\t\tmapping(uint256 => Land) publi...\n      DUP1 \t\t\tmapping(uint256 => Land) publi...\n      PUSH 0\t\t\tmapping(uint256 => Land) publi...\n      ADD \t\t\tmapping(uint256 => Land) publi...\n      DUP1 \t\t\tmapping(uint256 => Land) publi...\n      SLOAD \t\t\tmapping(uint256 => Land) publi...\n      PUSH [tag] 89\t\t\tmapping(uint256 => Land) publi...\n      SWAP1 \t\t\tmapping(uint256 => Land) publi...\n      PUSH [tag] 65\t\t\tmapping(uint256 => Land) publi...\n      JUMP \t\t\tmapping(uint256 => Land) publi...\n    tag 89\t\t\tmapping(uint256 => Land) publi...\n      JUMPDEST \t\t\tmapping(uint256 => Land) publi...\n      DUP1 \t\t\tmapping(uint256 => Land) publi...\n      PUSH 1F\t\t\tmapping(uint256 => Land) publi...\n      ADD \t\t\tmapping(uint256 => Land) publi...\n      PUSH 20\t\t\tmapping(uint256 => Land) publi...\n      DUP1 \t\t\tmapping(uint256 => Land) publi...\n      SWAP2 \t\t\tmapping(uint256 => Land) publi...\n      DIV \t\t\tmapping(uint256 => Land) publi...\n      MUL \t\t\tmapping(uint256 => Land) publi...\n      PUSH 20\t\t\tmapping(uint256 => Land) publi...\n      ADD \t\t\tmapping(uint256 => Land) publi...\n      PUSH 40\t\t\tmapping(uint256 => Land) publi...\n      MLOAD \t\t\tmapping(uint256 => Land) publi...\n      SWAP1 \t\t\tmapping(uint256 => Land) publi...\n      DUP2 \t\t\tmapping(uint256 => Land) publi...\n      ADD \t\t\tmapping(uint256 => Land) publi...\n      PUSH 40\t\t\tmapping(uint256 => Land) publi...\n      MSTORE \t\t\tmapping(uint256 => Land) publi...\n      DUP1 \t\t\tmapping(uint256 => Land) publi...\n      SWAP3 \t\t\tmapping(uint256 => Land) publi...\n      SWAP2 \t\t\tmapping(uint256 => Land) publi...\n      SWAP1 \t\t\tmapping(uint256 => Land) publi...\n      DUP2 \t\t\tmapping(uint256 => Land) publi...\n      DUP2 \t\t\tmapping(uint256 => Land) publi...\n      MSTORE \t\t\tmapping(uint256 => Land) publi...\n      PUSH 20\t\t\tmapping(uint256 => Land) publi...\n      ADD \t\t\tmapping(uint256 => Land) publi...\n      DUP3 \t\t\tmapping(uint256 => Land) publi...\n      DUP1 \t\t\tmapping(uint256 => Land) publi...\n      SLOAD \t\t\tmapping(uint256 => Land) publi...\n      PUSH [tag] 90\t\t\tmapping(uint256 => Land) publi...\n      SWAP1 \t\t\tmapping(uint256 => Land) publi...\n      PUSH [tag] 65\t\t\tmapping(uint256 => Land) publi...\n      JUMP \t\t\tmapping(uint256 => Land) publi...\n    tag 90\t\t\tmapping(uint256 => Land) publi...\n      JUMPDEST \t\t\tmapping(uint256 => Land) publi...\n      DUP1 \t\t\tmapping(uint256 => Land) publi...\n      ISZERO \t\t\tmapping(uint256 => Land) publi...\n      PUSH [tag] 91\t\t\tmapping(uint256 => Land) publi...\n      JUMPI \t\t\tmapping(uint256 => Land) publi...\n      DUP1 \t\t\tmapping(uint256 => Land) publi...\n      PUSH 1F\t\t\tmapping(uint256 => Land) publi...\n      LT \t\t\tmapping(uint256 => Land) publi...\n      PUSH [tag] 92\t\t\tmapping(uint256 => Land) publi...\n      JUMPI \t\t\tmapping(uint256 => Land) publi...\n      PUSH 100\t\t\tmapping(uint256 => Land) publi...\n      DUP1 \t\t\tmapping(uint256 => Land) publi...\n      DUP4 \t\t\tmapping(uint256 => Land) publi...\n      SLOAD \t\t\tmapping(uint256 => Land) publi...\n      DIV \t\t\tmapping(uint256 => Land) publi...\n      MUL \t\t\tmapping(uint256 => Land) publi...\n      DUP4 \t\t\tmapping(uint256 => Land) publi...\n      MSTORE \t\t\tmapping(uint256 => Land) publi...\n      SWAP2 \t\t\tmapping(uint256 => Land) publi...\n      PUSH 20\t\t\tmapping(uint256 => Land) publi...\n      ADD \t\t\tmapping(uint256 => Land) publi...\n      SWAP2 \t\t\tmapping(uint256 => Land) publi...\n      PUSH [tag] 91\t\t\tmapping(uint256 => Land) publi...\n      JUMP \t\t\tmapping(uint256 => Land) publi...\n    tag 92\t\t\tmapping(uint256 => Land) publi...\n      JUMPDEST \t\t\tmapping(uint256 => Land) publi...\n      DUP3 \t\t\tmapping(uint256 => Land) publi...\n      ADD \t\t\tmapping(uint256 => Land) publi...\n      SWAP2 \t\t\tmapping(uint256 => Land) publi...\n      SWAP1 \t\t\tmapping(uint256 => Land) publi...\n      PUSH 0\t\t\tmapping(uint256 => Land) publi...\n      MSTORE \t\t\tmapping(uint256 => Land) publi...\n      PUSH 20\t\t\tmapping(uint256 => Land) publi...\n      PUSH 0\t\t\tmapping(uint256 => Land) publi...\n      KECCAK256 \t\t\tmapping(uint256 => Land) publi...\n      SWAP1 \t\t\tmapping(uint256 => Land) publi...\n    tag 93\t\t\tmapping(uint256 => Land) publi...\n      JUMPDEST \t\t\tmapping(uint256 => Land) publi...\n      DUP2 \t\t\tmapping(uint256 => Land) publi...\n      SLOAD \t\t\tmapping(uint256 => Land) publi...\n      DUP2 \t\t\tmapping(uint256 => Land) publi...\n      MSTORE \t\t\tmapping(uint256 => Land) publi...\n      SWAP1 \t\t\tmapping(uint256 => Land) publi...\n      PUSH 1\t\t\tmapping(uint256 => Land) publi...\n      ADD \t\t\tmapping(uint256 => Land) publi...\n      SWAP1 \t\t\tmapping(uint256 => Land) publi...\n      PUSH 20\t\t\tmapping(uint256 => Land) publi...\n      ADD \t\t\tmapping(uint256 => Land) publi...\n      DUP1 \t\t\tmapping(uint256 => Land) publi...\n      DUP4 \t\t\tmapping(uint256 => Land) publi...\n      GT \t\t\tmapping(uint256 => Land) publi...\n      PUSH [tag] 93\t\t\tmapping(uint256 => Land) publi...\n      JUMPI \t\t\tmapping(uint256 => Land) publi...\n      DUP3 \t\t\tmapping(uint256 => Land) publi...\n      SWAP1 \t\t\tmapping(uint256 => Land) publi...\n      SUB \t\t\tmapping(uint256 => Land) publi...\n      PUSH 1F\t\t\tmapping(uint256 => Land) publi...\n      AND \t\t\tmapping(uint256 => Land) publi...\n      DUP3 \t\t\tmapping(uint256 => Land) publi...\n      ADD \t\t\tmapping(uint256 => Land) publi...\n      SWAP2 \t\t\tmapping(uint256 => Land) publi...\n    tag 91\t\t\tmapping(uint256 => Land) publi...\n      JUMPDEST \t\t\tmapping(uint256 => Land) publi...\n      POP \t\t\tmapping(uint256 => Land) publi...\n      POP \t\t\tmapping(uint256 => Land) publi...\n      POP \t\t\tmapping(uint256 => Land) publi...\n      POP \t\t\tmapping(uint256 => Land) publi...\n      POP \t\t\tmapping(uint256 => Land) publi...\n      SWAP1 \t\t\tmapping(uint256 => Land) publi...\n      DUP1 \t\t\tmapping(uint256 => Land) publi...\n      PUSH 1\t\t\tmapping(uint256 => Land) publi...\n      ADD \t\t\tmapping(uint256 => Land) publi...\n      SLOAD \t\t\tmapping(uint256 => Land) publi...\n      SWAP1 \t\t\tmapping(uint256 => Land) publi...\n      DUP1 \t\t\tmapping(uint256 => Land) publi...\n      PUSH 2\t\t\tmapping(uint256 => Land) publi...\n      ADD \t\t\tmapping(uint256 => Land) publi...\n      PUSH 0\t\t\tmapping(uint256 => Land) publi...\n      SWAP1 \t\t\tmapping(uint256 => Land) publi...\n      SLOAD \t\t\tmapping(uint256 => Land) publi...\n      SWAP1 \t\t\tmapping(uint256 => Land) publi...\n      PUSH 100\t\t\tmapping(uint256 => Land) publi...\n      EXP \t\t\tmapping(uint256 => Land) publi...\n      SWAP1 \t\t\tmapping(uint256 => Land) publi...\n      DIV \t\t\tmapping(uint256 => Land) publi...\n      PUSH FFFFFFFFFFFFFFFFFFFFFFFFFFFFFFFFFFFFFFFF\t\t\tmapping(uint256 => Land) publi...\n      AND \t\t\tmapping(uint256 => Land) publi...\n      SWAP1 \t\t\tmapping(uint256 => Land) publi...\n      DUP1 \t\t\tmapping(uint256 => Land) publi...\n      PUSH 3\t\t\tmapping(uint256 => Land) publi...\n      ADD \t\t\tmapping(uint256 => Land) publi...\n      DUP1 \t\t\tmapping(uint256 => Land) publi...\n      SLOAD \t\t\tmapping(uint256 => Land) publi...\n      PUSH [tag] 94\t\t\tmapping(uint256 => Land) publi...\n      SWAP1 \t\t\tmapping(uint256 => Land) publi...\n      PUSH [tag] 65\t\t\tmapping(uint256 => Land) publi...\n      JUMP \t\t\tmapping(uint256 => Land) publi...\n    tag 94\t\t\tmapping(uint256 => Land) publi...\n      JUMPDEST \t\t\tmapping(uint256 => Land) publi...\n      DUP1 \t\t\tmapping(uint256 => Land) publi...\n      PUSH 1F\t\t\tmapping(uint256 => Land) publi...\n      ADD \t\t\tmapping(uint256 => Land) publi...\n      PUSH 20\t\t\tmapping(uint256 => Land) publi...\n      DUP1 \t\t\tmapping(uint256 => Land) publi...\n      SWAP2 \t\t\tmapping(uint256 => Land) publi...\n      DIV \t\t\tmapping(uint256 => Land) publi...\n      MUL \t\t\tmapping(uint256 => Land) publi...\n      PUSH 20\t\t\tmapping(uint256 => Land) publi...\n      ADD \t\t\tmapping(uint256 => Land) publi...\n      PUSH 40\t\t\tmapping(uint256 => Land) publi...\n      MLOAD \t\t\tmapping(uint256 => Land) publi...\n      SWAP1 \t\t\tmapping(uint256 => Land) publi...\n      DUP2 \t\t\tmapping(uint256 => Land) publi...\n      ADD \t\t\tmapping(uint256 => Land) publi...\n      PUSH 40\t\t\tmapping(uint256 => Land) publi...\n      MSTORE \t\t\tmapping(uint256 => Land) publi...\n      DUP1 \t\t\tmapping(uint256 => Land) publi...\n      SWAP3 \t\t\tmapping(uint256 => Land) publi...\n      SWAP2 \t\t\tmapping(uint256 => Land) publi...\n      SWAP1 \t\t\tmapping(uint256 => Land) publi...\n      DUP2 \t\t\tmapping(uint256 => Land) publi...\n      DUP2 \t\t\tmapping(uint256 => Land) publi...\n      MSTORE \t\t\tmapping(uint256 => Land) publi...\n      PUSH 20\t\t\tmapping(uint256 => Land) publi...\n      ADD \t\t\tmapping(uint256 => Land) publi...\n      DUP3 \t\t\tmapping(uint256 => Land) publi...\n      DUP1 \t\t\tmapping(uint256 => Land) publi...\n      SLOAD \t\t\tmapping(uint256 => Land) publi...\n      PUSH [tag] 95\t\t\tmapping(uint256 => Land) publi...\n      SWAP1 \t\t\tmapping(uint256 => Land) publi...\n      PUSH [tag] 65\t\t\tmapping(uint256 => Land) publi...\n      JUMP \t\t\tmapping(uint256 => Land) publi...\n    tag 95\t\t\tmapping(uint256 => Land) publi...\n      JUMPDEST \t\t\tmapping(uint256 => Land) publi...\n      DUP1 \t\t\tmapping(uint256 => Land) publi...\n      ISZERO \t\t\tmapping(uint256 => Land) publi...\n      PUSH [tag] 96\t\t\tmapping(uint256 => Land) publi...\n      JUMPI \t\t\tmapping(uint256 => Land) publi...\n      DUP1 \t\t\tmapping(uint256 => Land) publi...\n      PUSH 1F\t\t\tmapping(uint256 => Land) publi...\n      LT \t\t\tmapping(uint256 => Land) publi...\n      PUSH [tag] 97\t\t\tmapping(uint256 => Land) publi...\n      JUMPI \t\t\tmapping(uint256 => Land) publi...\n      PUSH 100\t\t\tmapping(uint256 => Land) publi...\n      DUP1 \t\t\tmapping(uint256 => Land) publi...\n      DUP4 \t\t\tmapping(uint256 => Land) publi...\n      SLOAD \t\t\tmapping(uint256 => Land) publi...\n      DIV \t\t\tmapping(uint256 => Land) publi...\n      MUL \t\t\tmapping(uint256 => Land) publi...\n      DUP4 \t\t\tmapping(uint256 => Land) publi...\n      MSTORE \t\t\tmapping(uint256 => Land) publi...\n      SWAP2 \t\t\tmapping(uint256 => Land) publi...\n      PUSH 20\t\t\tmapping(uint256 => Land) publi...\n      ADD \t\t\tmapping(uint256 => Land) publi...\n      SWAP2 \t\t\tmapping(uint256 => Land) publi...\n      PUSH [tag] 96\t\t\tmapping(uint256 => Land) publi...\n      JUMP \t\t\tmapping(uint256 => Land) publi...\n    tag 97\t\t\tmapping(uint256 => Land) publi...\n      JUMPDEST \t\t\tmapping(uint256 => Land) publi...\n      DUP3 \t\t\tmapping(uint256 => Land) publi...\n      ADD \t\t\tmapping(uint256 => Land) publi...\n      SWAP2 \t\t\tmapping(uint256 => Land) publi...\n      SWAP1 \t\t\tmapping(uint256 => Land) publi...\n      PUSH 0\t\t\tmapping(uint256 => Land) publi...\n      MSTORE \t\t\tmapping(uint256 => Land) publi...\n      PUSH 20\t\t\tmapping(uint256 => Land) publi...\n      PUSH 0\t\t\tmapping(uint256 => Land) publi...\n      KECCAK256 \t\t\tmapping(uint256 => Land) publi...\n      SWAP1 \t\t\tmapping(uint256 => Land) publi...\n    tag 98\t\t\tmapping(uint256 => Land) publi...\n      JUMPDEST \t\t\tmapping(uint256 => Land) publi...\n      DUP2 \t\t\tmapping(uint256 => Land) publi...\n      SLOAD \t\t\tmapping(uint256 => Land) publi...\n      DUP2 \t\t\tmapping(uint256 => Land) publi...\n      MSTORE \t\t\tmapping(uint256 => Land) publi...\n      SWAP1 \t\t\tmapping(uint256 => Land) publi...\n      PUSH 1\t\t\tmapping(uint256 => Land) publi...\n      ADD \t\t\tmapping(uint256 => Land) publi...\n      SWAP1 \t\t\tmapping(uint256 => Land) publi...\n      PUSH 20\t\t\tmapping(uint256 => Land) publi...\n      ADD \t\t\tmapping(uint256 => Land) publi...\n      DUP1 \t\t\tmapping(uint256 => Land) publi...\n      DUP4 \t\t\tmapping(uint256 => Land) publi...\n      GT \t\t\tmapping(uint256 => Land) publi...\n      PUSH [tag] 98\t\t\tmapping(uint256 => Land) publi...\n      JUMPI \t\t\tmapping(uint256 => Land) publi...\n      DUP3 \t\t\tmapping(uint256 => Land) publi...\n      SWAP1 \t\t\tmapping(uint256 => Land) publi...\n      SUB \t\t\tmapping(uint256 => Land) publi...\n      PUSH 1F\t\t\tmapping(uint256 => Land) publi...\n      AND \t\t\tmapping(uint256 => Land) publi...\n      DUP3 \t\t\tmapping(uint256 => Land) publi...\n      ADD \t\t\tmapping(uint256 => Land) publi...\n      SWAP2 \t\t\tmapping(uint256 => Land) publi...\n    tag 96\t\t\tmapping(uint256 => Land) publi...\n      JUMPDEST \t\t\tmapping(uint256 => Land) publi...\n      POP \t\t\tmapping(uint256 => Land) publi...\n      POP \t\t\tmapping(uint256 => Land) publi...\n      POP \t\t\tmapping(uint256 => Land) publi...\n      POP \t\t\tmapping(uint256 => Land) publi...\n      POP \t\t\tmapping(uint256 => Land) publi...\n      SWAP1 \t\t\tmapping(uint256 => Land) publi...\n      DUP1 \t\t\tmapping(uint256 => Land) publi...\n      PUSH 4\t\t\tmapping(uint256 => Land) publi...\n      ADD \t\t\tmapping(uint256 => Land) publi...\n      PUSH 0\t\t\tmapping(uint256 => Land) publi...\n      SWAP1 \t\t\tmapping(uint256 => Land) publi...\n      SLOAD \t\t\tmapping(uint256 => Land) publi...\n      SWAP1 \t\t\tmapping(uint256 => Land) publi...\n      PUSH 100\t\t\tmapping(uint256 => Land) publi...\n      EXP \t\t\tmapping(uint256 => Land) publi...\n      SWAP1 \t\t\tmapping(uint256 => Land) publi...\n      DIV \t\t\tmapping(uint256 => Land) publi...\n      PUSH FF\t\t\tmapping(uint256 => Land) publi...\n      AND \t\t\tmapping(uint256 => Land) publi...\n      SWAP1 \t\t\tmapping(uint256 => Land) publi...\n      POP \t\t\tmapping(uint256 => Land) publi...\n      DUP6 \t\t\tmapping(uint256 => Land) publi...\n      JUMP \t\t\tmapping(uint256 => Land) publi...\n    tag 60\t\t\t\n      JUMPDEST \t\t\t\n      PUSH 40\t\t\t\n      MLOAD \t\t\t\n      DUP1 \t\t\t\n      PUSH A0\t\t\t\n      ADD \t\t\t\n      PUSH 40\t\t\t\n      MSTORE \t\t\t\n      DUP1 \t\t\t\n      PUSH 60\t\t\t\n      DUP2 \t\t\t\n      MSTORE \t\t\t\n      PUSH 20\t\t\t\n      ADD \t\t\t\n      PUSH 0\t\t\t\n      DUP2 \t\t\t\n      MSTORE \t\t\t\n      PUSH 20\t\t\t\n      ADD \t\t\t\n      PUSH 0\t\t\t\n      PUSH FFFFFFFFFFFFFFFFFFFFFFFFFFFFFFFFFFFFFFFF\t\t\t\n      AND \t\t\t\n      DUP2 \t\t\t\n      MSTORE \t\t\t\n      PUSH 20\t\t\t\n      ADD \t\t\t\n      PUSH 60\t\t\t\n      DUP2 \t\t\t\n      MSTORE \t\t\t\n      PUSH 20\t\t\t\n      ADD \t\t\t\n      PUSH 0\t\t\t\n      ISZERO \t\t\t\n      ISZERO \t\t\t\n      DUP2 \t\t\t\n      MSTORE \t\t\t\n      POP \t\t\t\n      SWAP1 \t\t\t\n      JUMP \t\t\t\n    tag 99\t\t\t-License-Identifier: MIT\\r\\npr...\n      JUMPDEST \t\t\t-License-Identifier: MIT\\r\\npr...\n      PUSH 0\t\t\tsolidi\n      PUSH 40\t\t\tRe\n      MLOAD \t\t\tt LandReg\n      SWAP1 \t\t\t\\n\\r\\ncontract LandReg\n      POP \t\t\t\\n\\r\\ncontract LandReg\n      SWAP1 \t\t\t-License-Identifier: MIT\\r\\npr...\n      JUMP \t\t\t-License-Identifier: MIT\\r\\npr...\n    tag 100\t\t\t struct Land {\\r\\n        stri...\n      JUMPDEST \t\t\t struct Land {\\r\\n        stri...\n      PUSH 0\t\t\te\n      DUP1 \t\t\tc\n      REVERT \t\t\tring documen\n    tag 101\t\t\t    bool exists; // Track if t...\n      JUMPDEST \t\t\t    bool exists; // Track if t...\n      PUSH 0\t\t\td\n      DUP1 \t\t\tl\n      REVERT \t\t\tpublic lands\n    tag 102\t\t\tng(string => bool) private reg...\n      JUMPDEST \t\t\tng(string => bool) private reg...\n      PUSH 0\t\t\t2\n      DUP1 \t\t\ti\n      REVERT \t\t\t\\r\\n    uint25\n    tag 103\t\t\tdCount;\\r\\n\\r\\n    event LandR...\n      JUMPDEST \t\t\tdCount;\\r\\n\\r\\n    event LandR...\n      PUSH 0\t\t\tn\n      DUP1 \t\t\t \n      REVERT \t\t\tindexed owne\n    tag 104\t\t\tcumentHash);\\r\\n    event Land...\n      JUMPDEST \t\t\tcumentHash);\\r\\n    event Land...\n      PUSH 0\t\t\tint256\n      PUSH 1F\t\t\tdr\n      NOT \t\t\t, addre\n      PUSH 1F\t\t\tOw\n      DUP4 \t\t\txed o\n      ADD \t\t\tindexed oldOwn\n      AND \t\t\tess indexed oldOwner, addres\n      SWAP1 \t\t\tndId, address indexed oldOwner...\n      POP \t\t\tndId, address indexed oldOwner...\n      SWAP2 \t\t\tcumentHash);\\r\\n    event Land...\n      SWAP1 \t\t\tcumentHash);\\r\\n    event Land...\n      POP \t\t\tcumentHash);\\r\\n    event Land...\n      JUMP \t\t\tcumentHash);\\r\\n    event Land...\n    tag 56\t\t\twOwner);\\r\\n\\r\\n    // Modifie...\n      JUMPDEST \t\t\twOwner);\\r\\n\\r\\n    // Modifie...\n      PUSH 4E487B7100000000000000000000000000000000000000000000000000000000\t\t\ter is the owner of the land\\r\\...\n      PUSH 0\t\t\ta\n      MSTORE \t\t\tf the caller is the owner of t...\n      PUSH 41\t\t\tr ==\n      PUSH 4\t\t\tn\n      MSTORE \t\t\t(msg.sender == \n      PUSH 24\t\t\tr, \"\n      PUSH 0\t\t\tw\n      REVERT \t\t\tndId].owner, \"O\n    tag 105\t\t\tr can perform this action\");\\r...\n      JUMPDEST \t\t\tr can perform this action\");\\r...\n      PUSH [tag] 180\t\t\te system\\r\\n    function regi\n      DUP3 \t\t\t reg\n      PUSH [tag] 104\t\t\te system\\r\\n    function regi\n      JUMP \t\t\te system\\r\\n    function regi\n    tag 180\t\t\te system\\r\\n    function regi\n      JUMPDEST \t\t\te system\\r\\n    function regi\n      DUP2 \t\t\tnd in \n      ADD \t\t\tw land in the system\\r\\n    fu...\n      DUP2 \t\t\t(bytes\n      DUP2 \t\t\t     requi\n      LT \t\t\t        require(bytes(\n      PUSH FFFFFFFFFFFFFFFF\t\t\tumentHash) public \n      DUP3 \t\t\t memory _d\n      GT \t\t\ting memory _documentHash) publ...\n      OR \t\t\tstring memory _documentHash) p...\n      ISZERO \t\t\te, string memory _documentHash...\n      PUSH [tag] 181\t\t\te, string memory _documentHash...\n      JUMPI \t\t\te, string memory _documentHash...\n      PUSH [tag] 182\t\t\tation).length > 0,\n      PUSH [tag] 56\t\t\tation).length > 0,\n      JUMP \t\t\tation).length > 0,\n    tag 182\t\t\tation).length > 0,\n      JUMPDEST \t\t\tation).length > 0,\n    tag 181\t\t\te, string memory _documentHash...\n      JUMPDEST \t\t\te, string memory _documentHash...\n      DUP1 \t\t\t\");\\r\\n     \n      PUSH 40\t\t\tir\n      MSTORE \t\t\tis required\");\\r\\n      \n      POP \t\t\t   }\\r\\n\\r\\n    // Register a ...\n      POP \t\t\tr can perform this action\");\\r...\n      POP \t\t\tr can perform this action\");\\r...\n      JUMP \t\t\tr can perform this action\");\\r...\n    tag 106\t\t\tize > 0, \"Size must be greater...\n      JUMPDEST \t\t\tize > 0, \"Size must be greater...\n      PUSH 0\t\t\tn zero\n      PUSH [tag] 184\t\t\tbytes(_documentHash)\n      PUSH [tag] 99\t\t\tbytes(_documentHash)\n      JUMP \t\t\tbytes(_documentHash)\n    tag 184\t\t\tbytes(_documentHash)\n      JUMPDEST \t\t\tbytes(_documentHash)\n      SWAP1 \t\t\t  require(bytes(_documentHash)\n      POP \t\t\t  require(bytes(_documentHash)\n      PUSH [tag] 185\t\t\t 0, \"Document hash is required...\n      DUP3 \t\t\ted\")\n      DUP3 \t\t\ts requ\n      PUSH [tag] 105\t\t\t 0, \"Document hash is required...\n      JUMP \t\t\t 0, \"Document hash is required...\n    tag 185\t\t\t 0, \"Document hash is required...\n      JUMPDEST \t\t\t 0, \"Document hash is required...\n      SWAP2 \t\t\tize > 0, \"Size must be greater...\n      SWAP1 \t\t\tize > 0, \"Size must be greater...\n      POP \t\t\tize > 0, \"Size must be greater...\n      JUMP \t\t\tize > 0, \"Size must be greater...\n    tag 107\t\t\t        // Check for duplicate...\n      JUMPDEST \t\t\t        // Check for duplicate...\n      PUSH 0\t\t\t\\r\\n  \n      PUSH FFFFFFFFFFFFFFFF\t\t\ted\");\\r\\n\\r\\n        l\n      DUP3 \t\t\tregist\n      GT \t\t\tdy registered\");\\r\\n\\r\\n      ...\n      ISZERO \t\t\tready registered\");\\r\\n\\r\\n   ...\n      PUSH [tag] 187\t\t\tready registered\");\\r\\n\\r\\n   ...\n      JUMPI \t\t\tready registered\");\\r\\n\\r\\n   ...\n      PUSH [tag] 188\t\t\t[landCount] = Land\n      PUSH [tag] 56\t\t\t[landCount] = Land\n      JUMP \t\t\t[landCount] = Land\n    tag 188\t\t\t[landCount] = Land\n      JUMPDEST \t\t\t[landCount] = Land\n    tag 187\t\t\tready registered\");\\r\\n\\r\\n   ...\n      JUMPDEST \t\t\tready registered\");\\r\\n\\r\\n   ...\n      PUSH [tag] 189\t\t\tsg.sender, _documentHash, tru\n      DUP3 \t\t\tsh, tr\n      PUSH [tag] 104\t\t\tsg.sender, _documentHash, tru\n      JUMP \t\t\tsg.sender, _documentHash, tru\n    tag 189\t\t\tsg.sender, _documentHash, tru\n      JUMPDEST \t\t\tsg.sender, _documentHash, tru\n      SWAP1 \t\t\t_size, msg.sender, _documentHa...\n      POP \t\t\t_size, msg.sender, _documentHa...\n      PUSH 20\t\t\ttrue\n      DUP2 \t\t\tsh] \n      ADD \t\t\tntHash] = true;\n      SWAP1 \t\t\t[_documentHash] = true;\n      POP \t\t\t[_documentHash] = true;\n      SWAP2 \t\t\t        // Check for duplicate...\n      SWAP1 \t\t\t        // Check for duplicate...\n      POP \t\t\t        // Check for duplicate...\n      JUMP \t\t\t        // Check for duplicate...\n    tag 108\t\t\tdocument hash as registered\\r\\...\n      JUMPDEST \t\t\tdocument hash as registered\\r\\...\n      DUP3 \t\t\t, _doc\n      DUP2 \t\t\tend\n      DUP4 \t\t\tmsg\n      CALLDATACOPY \t\t\ttion, _size, msg.sender, _docu\n      PUSH 0\t\t\t \n      DUP4 \t\t\tount++\n      DUP4 \t\t\tlan\n      ADD \t\t\t    landCount++;\n      MSTORE \t\t\t;\\r\\n        landCount++;\\r\\n ...\n      POP \t\t\tdocument hash as registered\\r\\...\n      POP \t\t\tdocument hash as registered\\r\\...\n      POP \t\t\tdocument hash as registered\\r\\...\n      JUMP \t\t\tdocument hash as registered\\r\\...\n    tag 109\t\t\t Transfer land ownership to a ...\n      JUMPDEST \t\t\t Transfer land ownership to a ...\n      PUSH 0\t\t\tndId,\n      PUSH [tag] 192\t\t\tpublic onlyOwner(_landId) {\\r\\...\n      PUSH [tag] 193\t\t\t(_landId) {\\r\\n        require...\n      DUP5 \t\t\tdCount\n      PUSH [tag] 107\t\t\t(_landId) {\\r\\n        require...\n      JUMP \t\t\t(_landId) {\\r\\n        require...\n    tag 193\t\t\t(_landId) {\\r\\n        require...\n      JUMPDEST \t\t\t(_landId) {\\r\\n        require...\n      PUSH [tag] 106\t\t\tpublic onlyOwner(_landId) {\\r\\...\n      JUMP \t\t\tpublic onlyOwner(_landId) {\\r\\...\n    tag 192\t\t\tpublic onlyOwner(_landId) {\\r\\...\n      JUMPDEST \t\t\tpublic onlyOwner(_landId) {\\r\\...\n      SWAP1 \t\t\tewOwner) public onlyOwner(_lan...\n      POP \t\t\tewOwner) public onlyOwner(_lan...\n      DUP3 \t\t\t\\n     \n      DUP2 \t\t\tlid\")\n      MSTORE \t\t\tis invalid\");\\r\\n      \n      PUSH 20\t\t\t0), \n      DUP2 \t\t\tddres\n      ADD \t\t\t!= address(0), \"\n      DUP5 \t\t\t\\n\\r\\n\n      DUP5 \t\t\tuired\"\n      DUP5 \t\t\ts r\n      ADD \t\t\tss is required\")\n      GT \t\t\tdress is required\");\\r\\n\\r\\n \n      ISZERO \t\t\t address is required\");\\r\\n\\r\\...\n      PUSH [tag] 194\t\t\t address is required\");\\r\\n\\r\\...\n      JUMPI \t\t\t address is required\");\\r\\n\\r\\...\n      PUSH [tag] 195\t\t\t    address oldOwner = lands[_...\n      PUSH [tag] 103\t\t\t    address oldOwner = lands[_...\n      JUMP \t\t\t    address oldOwner = lands[_...\n    tag 195\t\t\t    address oldOwner = lands[_...\n      JUMPDEST \t\t\t    address oldOwner = lands[_...\n    tag 194\t\t\t address is required\");\\r\\n\\r\\...\n      JUMPDEST \t\t\t address is required\");\\r\\n\\r\\...\n      PUSH [tag] 196\t\t\t\\n        emit LandTransferred...\n      DUP5 \t\t\t, _new\n      DUP3 \t\t\tOwn\n      DUP6 \t\t\t, o\n      PUSH [tag] 108\t\t\t\\n        emit LandTransferred...\n      JUMP \t\t\t\\n        emit LandTransferred...\n    tag 196\t\t\t\\n        emit LandTransferred...\n      JUMPDEST \t\t\t\\n        emit LandTransferred...\n      POP \t\t\taddress _newOwner) public only...\n      SWAP4 \t\t\t Transfer land ownership to a ...\n      SWAP3 \t\t\t Transfer land ownership to a ...\n      POP \t\t\t Transfer land ownership to a ...\n      POP \t\t\t Transfer land ownership to a ...\n      POP \t\t\t Transfer land ownership to a ...\n      JUMP \t\t\t Transfer land ownership to a ...\n    tag 110\t\t\tew all registered lands\\r\\n   ...\n      JUMPDEST \t\t\tew all registered lands\\r\\n   ...\n      PUSH 0\t\t\tic vi\n      DUP3 \t\t\t me\n      PUSH 1F\t\t\t Lan\n      DUP4 \t\t\t\\n     \n      ADD \t\t\t) {\\r\\n        Land\n      SLT \t\t\tmory) {\\r\\n        Land[] mem\n      PUSH [tag] 198\t\t\t(Land[] memory) {\\r\\n        L...\n      JUMPI \t\t\t(Land[] memory) {\\r\\n        L...\n      PUSH [tag] 199\t\t\tallLands = new Land[](landCoun...\n      PUSH [tag] 102\t\t\tallLands = new Land[](landCoun...\n      JUMP \t\t\tallLands = new Land[](landCoun...\n    tag 199\t\t\tallLands = new Land[](landCoun...\n      JUMPDEST \t\t\tallLands = new Land[](landCoun...\n    tag 198\t\t\t(Land[] memory) {\\r\\n        L...\n      JUMPDEST \t\t\t(Land[] memory) {\\r\\n        L...\n      DUP2 \t\t\t = lan\n      CALLDATALOAD \t\t\t storage land = land\n      PUSH [tag] 200\t\t\t allLands[i] = land;\\r\\n      ...\n      DUP5 \t\t\t\n      DUP3 \t\t\t\\n}\\r\\n\n      PUSH 20\t\t\t\\n   \n      DUP7 \t\t\tlLands\n      ADD \t\t\tn allLands;\\r\\n    \n      PUSH [tag] 109\t\t\t allLands[i] = land;\\r\\n      ...\n      JUMP \t\t\t allLands[i] = land;\\r\\n      ...\n    tag 200\t\t\t allLands[i] = land;\\r\\n      ...\n      JUMPDEST \t\t\t allLands[i] = land;\\r\\n      ...\n      SWAP2 \t\t\t          allLands[i] = land;\\...\n      POP \t\t\t          allLands[i] = land;\\...\n      POP \t\t\tw returns (Land[] memory) {\\r\\...\n      SWAP3 \t\t\tew all registered lands\\r\\n   ...\n      SWAP2 \t\t\tew all registered lands\\r\\n   ...\n      POP \t\t\tew all registered lands\\r\\n   ...\n      POP \t\t\tew all registered lands\\r\\n   ...\n      JUMP \t\t\tew all registered lands\\r\\n   ...\n    tag 111\t\t\t\n      JUMPDEST \t\t\t\n      PUSH 0\t\t\t\n      DUP2 \t\t\t\n      SWAP1 \t\t\t\n      POP \t\t\t\n      SWAP2 \t\t\t\n      SWAP1 \t\t\t\n      POP \t\t\t\n      JUMP \t\t\t\n    tag 112\t\t\t\n      JUMPDEST \t\t\t\n      PUSH [tag] 203\t\t\t\n      DUP2 \t\t\t\n      PUSH [tag] 111\t\t\t\n      JUMP \t\t\t\n    tag 203\t\t\t\n      JUMPDEST \t\t\t\n      DUP2 \t\t\t\n      EQ \t\t\t\n      PUSH [tag] 204\t\t\t\n      JUMPI \t\t\t\n      PUSH 0\t\t\t\n      DUP1 \t\t\t\n      REVERT \t\t\t\n    tag 204\t\t\t\n      JUMPDEST \t\t\t\n      POP \t\t\t\n      JUMP \t\t\t\n    tag 113\t\t\t\n      JUMPDEST \t\t\t\n      PUSH 0\t\t\t\n      DUP2 \t\t\t\n      CALLDATALOAD \t\t\t\n      SWAP1 \t\t\t\n      POP \t\t\t\n      PUSH [tag] 206\t\t\t\n      DUP2 \t\t\t\n      PUSH [tag] 112\t\t\t\n      JUMP \t\t\t\n    tag 206\t\t\t\n      JUMPDEST \t\t\t\n      SWAP3 \t\t\t\n      SWAP2 \t\t\t\n      POP \t\t\t\n      POP \t\t\t\n      JUMP \t\t\t\n    tag 10\t\t\t\n      JUMPDEST \t\t\t\n      PUSH 0\t\t\t\n      DUP1 \t\t\t\n      PUSH 0\t\t\t\n      PUSH 60\t\t\t\n      DUP5 \t\t\t\n      DUP7 \t\t\t\n      SUB \t\t\t\n      SLT \t\t\t\n      ISZERO \t\t\t\n      PUSH [tag] 208\t\t\t\n      JUMPI \t\t\t\n      PUSH [tag] 209\t\t\t\n      PUSH [tag] 100\t\t\t\n      JUMP \t\t\t\n    tag 209\t\t\t\n      JUMPDEST \t\t\t\n    tag 208\t\t\t\n      JUMPDEST \t\t\t\n      PUSH 0\t\t\t\n      DUP5 \t\t\t\n      ADD \t\t\t\n      CALLDATALOAD \t\t\t\n      PUSH FFFFFFFFFFFFFFFF\t\t\t\n      DUP2 \t\t\t\n      GT \t\t\t\n      ISZERO \t\t\t\n      PUSH [tag] 210\t\t\t\n      JUMPI \t\t\t\n      PUSH [tag] 211\t\t\t\n      PUSH [tag] 101\t\t\t\n      JUMP \t\t\t\n    tag 211\t\t\t\n      JUMPDEST \t\t\t\n    tag 210\t\t\t\n      JUMPDEST \t\t\t\n      PUSH [tag] 212\t\t\t\n      DUP7 \t\t\t\n      DUP3 \t\t\t\n      DUP8 \t\t\t\n      ADD \t\t\t\n      PUSH [tag] 110\t\t\t\n      JUMP \t\t\t\n    tag 212\t\t\t\n      JUMPDEST \t\t\t\n      SWAP4 \t\t\t\n      POP \t\t\t\n      POP \t\t\t\n      PUSH 20\t\t\t\n      PUSH [tag] 213\t\t\t\n      DUP7 \t\t\t\n      DUP3 \t\t\t\n      DUP8 \t\t\t\n      ADD \t\t\t\n      PUSH [tag] 113\t\t\t\n      JUMP \t\t\t\n    tag 213\t\t\t\n      JUMPDEST \t\t\t\n      SWAP3 \t\t\t\n      POP \t\t\t\n      POP \t\t\t\n      PUSH 40\t\t\t\n      DUP5 \t\t\t\n      ADD \t\t\t\n      CALLDATALOAD \t\t\t\n      PUSH FFFFFFFFFFFFFFFF\t\t\t\n      DUP2 \t\t\t\n      GT \t\t\t\n      ISZERO \t\t\t\n      PUSH [tag] 214\t\t\t\n      JUMPI \t\t\t\n      PUSH [tag] 215\t\t\t\n      PUSH [tag] 101\t\t\t\n      JUMP \t\t\t\n    tag 215\t\t\t\n      JUMPDEST \t\t\t\n    tag 214\t\t\t\n      JUMPDEST \t\t\t\n      PUSH [tag] 216\t\t\t\n      DUP7 \t\t\t\n      DUP3 \t\t\t\n      DUP8 \t\t\t\n      ADD \t\t\t\n      PUSH [tag] 110\t\t\t\n      JUMP \t\t\t\n    tag 216\t\t\t\n      JUMPDEST \t\t\t\n      SWAP2 \t\t\t\n      POP \t\t\t\n      POP \t\t\t\n      SWAP3 \t\t\t\n      POP \t\t\t\n      SWAP3 \t\t\t\n      POP \t\t\t\n      SWAP3 \t\t\t\n      JUMP \t\t\t\n    tag 114\t\t\t\n      JUMPDEST \t\t\t\n      PUSH 0\t\t\t\n      DUP2 \t\t\t\n      MLOAD \t\t\t\n      SWAP1 \t\t\t\n      POP \t\t\t\n      SWAP2 \t\t\t\n      SWAP1 \t\t\t\n      POP \t\t\t\n      JUMP \t\t\t\n    tag 115\t\t\t\n      JUMPDEST \t\t\t\n      PUSH 0\t\t\t\n      DUP3 \t\t\t\n      DUP3 \t\t\t\n      MSTORE \t\t\t\n      PUSH 20\t\t\t\n      DUP3 \t\t\t\n      ADD \t\t\t\n      SWAP1 \t\t\t\n      POP \t\t\t\n      SWAP3 \t\t\t\n      SWAP2 \t\t\t\n      POP \t\t\t\n      POP \t\t\t\n      JUMP \t\t\t\n    tag 116\t\t\t\n      JUMPDEST \t\t\t\n      PUSH 0\t\t\t\n      DUP2 \t\t\t\n      SWAP1 \t\t\t\n      POP \t\t\t\n      PUSH 20\t\t\t\n      DUP3 \t\t\t\n      ADD \t\t\t\n      SWAP1 \t\t\t\n      POP \t\t\t\n      SWAP2 \t\t\t\n      SWAP1 \t\t\t\n      POP \t\t\t\n      JUMP \t\t\t\n    tag 117\t\t\t\n      JUMPDEST \t\t\t\n      PUSH 0\t\t\t\n      DUP2 \t\t\t\n      MLOAD \t\t\t\n      SWAP1 \t\t\t\n      POP \t\t\t\n      SWAP2 \t\t\t\n      SWAP1 \t\t\t\n      POP \t\t\t\n      JUMP \t\t\t\n    tag 118\t\t\t\n      JUMPDEST \t\t\t\n      PUSH 0\t\t\t\n      DUP3 \t\t\t\n      DUP3 \t\t\t\n      MSTORE \t\t\t\n      PUSH 20\t\t\t\n      DUP3 \t\t\t\n      ADD \t\t\t\n      SWAP1 \t\t\t\n      POP \t\t\t\n      SWAP3 \t\t\t\n      SWAP2 \t\t\t\n      POP \t\t\t\n      POP \t\t\t\n      JUMP \t\t\t\n    tag 119\t\t\t\n      JUMPDEST \t\t\t\n      DUP3 \t\t\t\n      DUP2 \t\t\t\n      DUP4 \t\t\t\n      MCOPY \t\t\t\n      PUSH 0\t\t\t\n      DUP4 \t\t\t\n      DUP4 \t\t\t\n      ADD \t\t\t\n      MSTORE \t\t\t\n      POP \t\t\t\n      POP \t\t\t\n      POP \t\t\t\n      JUMP \t\t\t\n    tag 120\t\t\t\n      JUMPDEST \t\t\t\n      PUSH 0\t\t\t\n      PUSH [tag] 224\t\t\t\n      DUP3 \t\t\t\n      PUSH [tag] 117\t\t\t\n      JUMP \t\t\t\n    tag 224\t\t\t\n      JUMPDEST \t\t\t\n      PUSH [tag] 225\t\t\t\n      DUP2 \t\t\t\n      DUP6 \t\t\t\n      PUSH [tag] 118\t\t\t\n      JUMP \t\t\t\n    tag 225\t\t\t\n      JUMPDEST \t\t\t\n      SWAP4 \t\t\t\n      POP \t\t\t\n      PUSH [tag] 226\t\t\t\n      DUP2 \t\t\t\n      DUP6 \t\t\t\n      PUSH 20\t\t\t\n      DUP7 \t\t\t\n      ADD \t\t\t\n      PUSH [tag] 119\t\t\t\n      JUMP \t\t\t\n    tag 226\t\t\t\n      JUMPDEST \t\t\t\n      PUSH [tag] 227\t\t\t\n      DUP2 \t\t\t\n      PUSH [tag] 104\t\t\t\n      JUMP \t\t\t\n    tag 227\t\t\t\n      JUMPDEST \t\t\t\n      DUP5 \t\t\t\n      ADD \t\t\t\n      SWAP2 \t\t\t\n      POP \t\t\t\n      POP \t\t\t\n      SWAP3 \t\t\t\n      SWAP2 \t\t\t\n      POP \t\t\t\n      POP \t\t\t\n      JUMP \t\t\t\n    tag 121\t\t\t\n      JUMPDEST \t\t\t\n      PUSH [tag] 229\t\t\t\n      DUP2 \t\t\t\n      PUSH [tag] 111\t\t\t\n      JUMP \t\t\t\n    tag 229\t\t\t\n      JUMPDEST \t\t\t\n      DUP3 \t\t\t\n      MSTORE \t\t\t\n      POP \t\t\t\n      POP \t\t\t\n      JUMP \t\t\t\n    tag 122\t\t\t\n      JUMPDEST \t\t\t\n      PUSH 0\t\t\t\n      PUSH FFFFFFFFFFFFFFFFFFFFFFFFFFFFFFFFFFFFFFFF\t\t\t\n      DUP3 \t\t\t\n      AND \t\t\t\n      SWAP1 \t\t\t\n      POP \t\t\t\n      SWAP2 \t\t\t\n      SWAP1 \t\t\t\n      POP \t\t\t\n      JUMP \t\t\t\n    tag 123\t\t\t\n      JUMPDEST \t\t\t\n      PUSH 0\t\t\t\n      PUSH [tag] 232\t\t\t\n      DUP3 \t\t\t\n      PUSH [tag] 122\t\t\t\n      JUMP \t\t\t\n    tag 232\t\t\t\n      JUMPDEST \t\t\t\n      SWAP1 \t\t\t\n      POP \t\t\t\n      SWAP2 \t\t\t\n      SWAP1 \t\t\t\n      POP \t\t\t\n      JUMP \t\t\t\n    tag 124\t\t\t\n      JUMPDEST \t\t\t\n      PUSH [tag] 234\t\t\t\n      DUP2 \t\t\t\n      PUSH [tag] 123\t\t\t\n      JUMP \t\t\t\n    tag 234\t\t\t\n      JUMPDEST \t\t\t\n      DUP3 \t\t\t\n      MSTORE \t\t\t\n      POP \t\t\t\n      POP \t\t\t\n      JUMP \t\t\t\n    tag 125\t\t\t\n      JUMPDEST \t\t\t\n      PUSH 0\t\t\t\n      DUP2 \t\t\t\n      ISZERO \t\t\t\n      ISZERO \t\t\t\n      SWAP1 \t\t\t\n      POP \t\t\t\n      SWAP2 \t\t\t\n      SWAP1 \t\t\t\n      POP \t\t\t\n      JUMP \t\t\t\n    tag 126\t\t\t\n      JUMPDEST \t\t\t\n      PUSH [tag] 237\t\t\t\n      DUP2 \t\t\t\n      PUSH [tag] 125\t\t\t\n      JUMP \t\t\t\n    tag 237\t\t\t\n      JUMPDEST \t\t\t\n      DUP3 \t\t\t\n      MSTORE \t\t\t\n      POP \t\t\t\n      POP \t\t\t\n      JUMP \t\t\t\n    tag 127\t\t\t\n      JUMPDEST \t\t\t\n      PUSH 0\t\t\t\n      PUSH A0\t\t\t\n      DUP4 \t\t\t\n      ADD \t\t\t\n      PUSH 0\t\t\t\n      DUP4 \t\t\t\n      ADD \t\t\t\n      MLOAD \t\t\t\n      DUP5 \t\t\t\n      DUP3 \t\t\t\n      SUB \t\t\t\n      PUSH 0\t\t\t\n      DUP7 \t\t\t\n      ADD \t\t\t\n      MSTORE \t\t\t\n      PUSH [tag] 239\t\t\t\n      DUP3 \t\t\t\n      DUP3 \t\t\t\n      PUSH [tag] 120\t\t\t\n      JUMP \t\t\t\n    tag 239\t\t\t\n      JUMPDEST \t\t\t\n      SWAP2 \t\t\t\n      POP \t\t\t\n      POP \t\t\t\n      PUSH 20\t\t\t\n      DUP4 \t\t\t\n      ADD \t\t\t\n      MLOAD \t\t\t\n      PUSH [tag] 240\t\t\t\n      PUSH 20\t\t\t\n      DUP7 \t\t\t\n      ADD \t\t\t\n      DUP3 \t\t\t\n      PUSH [tag] 121\t\t\t\n      JUMP \t\t\t\n    tag 240\t\t\t\n      JUMPDEST \t\t\t\n      POP \t\t\t\n      PUSH 40\t\t\t\n      DUP4 \t\t\t\n      ADD \t\t\t\n      MLOAD \t\t\t\n      PUSH [tag] 241\t\t\t\n      PUSH 40\t\t\t\n      DUP7 \t\t\t\n      ADD \t\t\t\n      DUP3 \t\t\t\n      PUSH [tag] 124\t\t\t\n      JUMP \t\t\t\n    tag 241\t\t\t\n      JUMPDEST \t\t\t\n      POP \t\t\t\n      PUSH 60\t\t\t\n      DUP4 \t\t\t\n      ADD \t\t\t\n      MLOAD \t\t\t\n      DUP5 \t\t\t\n      DUP3 \t\t\t\n      SUB \t\t\t\n      PUSH 60\t\t\t\n      DUP7 \t\t\t\n      ADD \t\t\t\n      MSTORE \t\t\t\n      PUSH [tag] 242\t\t\t\n      DUP3 \t\t\t\n      DUP3 \t\t\t\n      PUSH [tag] 120\t\t\t\n      JUMP \t\t\t\n    tag 242\t\t\t\n      JUMPDEST \t\t\t\n      SWAP2 \t\t\t\n      POP \t\t\t\n      POP \t\t\t\n      PUSH 80\t\t\t\n      DUP4 \t\t\t\n      ADD \t\t\t\n      MLOAD \t\t\t\n      PUSH [tag] 243\t\t\t\n      PUSH 80\t\t\t\n      DUP7 \t\t\t\n      ADD \t\t\t\n      DUP3 \t\t\t\n      PUSH [tag] 126\t\t\t\n      JUMP \t\t\t\n    tag 243\t\t\t\n      JUMPDEST \t\t\t\n      POP \t\t\t\n      DUP1 \t\t\t\n      SWAP2 \t\t\t\n      POP \t\t\t\n      POP \t\t\t\n      SWAP3 \t\t\t\n      SWAP2 \t\t\t\n      POP \t\t\t\n      POP \t\t\t\n      JUMP \t\t\t\n    tag 128\t\t\t\n      JUMPDEST \t\t\t\n      PUSH 0\t\t\t\n      PUSH [tag] 245\t\t\t\n      DUP4 \t\t\t\n      DUP4 \t\t\t\n      PUSH [tag] 127\t\t\t\n      JUMP \t\t\t\n    tag 245\t\t\t\n      JUMPDEST \t\t\t\n      SWAP1 \t\t\t\n      POP \t\t\t\n      SWAP3 \t\t\t\n      SWAP2 \t\t\t\n      POP \t\t\t\n      POP \t\t\t\n      JUMP \t\t\t\n    tag 129\t\t\t\n      JUMPDEST \t\t\t\n      PUSH 0\t\t\t\n      PUSH 20\t\t\t\n      DUP3 \t\t\t\n      ADD \t\t\t\n      SWAP1 \t\t\t\n      POP \t\t\t\n      SWAP2 \t\t\t\n      SWAP1 \t\t\t\n      POP \t\t\t\n      JUMP \t\t\t\n    tag 130\t\t\t\n      JUMPDEST \t\t\t\n      PUSH 0\t\t\t\n      PUSH [tag] 248\t\t\t\n      DUP3 \t\t\t\n      PUSH [tag] 114\t\t\t\n      JUMP \t\t\t\n    tag 248\t\t\t\n      JUMPDEST \t\t\t\n      PUSH [tag] 249\t\t\t\n      DUP2 \t\t\t\n      DUP6 \t\t\t\n      PUSH [tag] 115\t\t\t\n      JUMP \t\t\t\n    tag 249\t\t\t\n      JUMPDEST \t\t\t\n      SWAP4 \t\t\t\n      POP \t\t\t\n      DUP4 \t\t\t\n      PUSH 20\t\t\t\n      DUP3 \t\t\t\n      MUL \t\t\t\n      DUP6 \t\t\t\n      ADD \t\t\t\n      PUSH [tag] 250\t\t\t\n      DUP6 \t\t\t\n      PUSH [tag] 116\t\t\t\n      JUMP \t\t\t\n    tag 250\t\t\t\n      JUMPDEST \t\t\t\n      DUP1 \t\t\t\n      PUSH 0\t\t\t\n    tag 251\t\t\t\n      JUMPDEST \t\t\t\n      DUP6 \t\t\t\n      DUP2 \t\t\t\n      LT \t\t\t\n      ISZERO \t\t\t\n      PUSH [tag] 253\t\t\t\n      JUMPI \t\t\t\n      DUP5 \t\t\t\n      DUP5 \t\t\t\n      SUB \t\t\t\n      DUP10 \t\t\t\n      MSTORE \t\t\t\n      DUP2 \t\t\t\n      MLOAD \t\t\t\n      PUSH [tag] 254\t\t\t\n      DUP6 \t\t\t\n      DUP3 \t\t\t\n      PUSH [tag] 128\t\t\t\n      JUMP \t\t\t\n    tag 254\t\t\t\n      JUMPDEST \t\t\t\n      SWAP5 \t\t\t\n      POP \t\t\t\n      PUSH [tag] 255\t\t\t\n      DUP4 \t\t\t\n      PUSH [tag] 129\t\t\t\n      JUMP \t\t\t\n    tag 255\t\t\t\n      JUMPDEST \t\t\t\n      SWAP3 \t\t\t\n      POP \t\t\t\n      PUSH 20\t\t\t\n      DUP11 \t\t\t\n      ADD \t\t\t\n      SWAP10 \t\t\t\n      POP \t\t\t\n      POP \t\t\t\n      PUSH 1\t\t\t\n      DUP2 \t\t\t\n      ADD \t\t\t\n      SWAP1 \t\t\t\n      POP \t\t\t\n      PUSH [tag] 251\t\t\t\n      JUMP \t\t\t\n    tag 253\t\t\t\n      JUMPDEST \t\t\t\n      POP \t\t\t\n      DUP3 \t\t\t\n      SWAP8 \t\t\t\n      POP \t\t\t\n      DUP8 \t\t\t\n      SWAP6 \t\t\t\n      POP \t\t\t\n      POP \t\t\t\n      POP \t\t\t\n      POP \t\t\t\n      POP \t\t\t\n      POP \t\t\t\n      SWAP3 \t\t\t\n      SWAP2 \t\t\t\n      POP \t\t\t\n      POP \t\t\t\n      JUMP \t\t\t\n    tag 15\t\t\t\n      JUMPDEST \t\t\t\n      PUSH 0\t\t\t\n      PUSH 20\t\t\t\n      DUP3 \t\t\t\n      ADD \t\t\t\n      SWAP1 \t\t\t\n      POP \t\t\t\n      DUP2 \t\t\t\n      DUP2 \t\t\t\n      SUB \t\t\t\n      PUSH 0\t\t\t\n      DUP4 \t\t\t\n      ADD \t\t\t\n      MSTORE \t\t\t\n      PUSH [tag] 257\t\t\t\n      DUP2 \t\t\t\n      DUP5 \t\t\t\n      PUSH [tag] 130\t\t\t\n      JUMP \t\t\t\n    tag 257\t\t\t\n      JUMPDEST \t\t\t\n      SWAP1 \t\t\t\n      POP \t\t\t\n      SWAP3 \t\t\t\n      SWAP2 \t\t\t\n      POP \t\t\t\n      POP \t\t\t\n      JUMP \t\t\t\n    tag 131\t\t\t\n      JUMPDEST \t\t\t\n      PUSH [tag] 259\t\t\t\n      DUP2 \t\t\t\n      PUSH [tag] 123\t\t\t\n      JUMP \t\t\t\n    tag 259\t\t\t\n      JUMPDEST \t\t\t\n      DUP2 \t\t\t\n      EQ \t\t\t\n      PUSH [tag] 260\t\t\t\n      JUMPI \t\t\t\n      PUSH 0\t\t\t\n      DUP1 \t\t\t\n      REVERT \t\t\t\n    tag 260\t\t\t\n      JUMPDEST \t\t\t\n      POP \t\t\t\n      JUMP \t\t\t\n    tag 132\t\t\t\n      JUMPDEST \t\t\t\n      PUSH 0\t\t\t\n      DUP2 \t\t\t\n      CALLDATALOAD \t\t\t\n      SWAP1 \t\t\t\n      POP \t\t\t\n      PUSH [tag] 262\t\t\t\n      DUP2 \t\t\t\n      PUSH [tag] 131\t\t\t\n      JUMP \t\t\t\n    tag 262\t\t\t\n      JUMPDEST \t\t\t\n      SWAP3 \t\t\t\n      SWAP2 \t\t\t\n      POP \t\t\t\n      POP \t\t\t\n      JUMP \t\t\t\n    tag 18\t\t\t\n      JUMPDEST \t\t\t\n      PUSH 0\t\t\t\n      DUP1 \t\t\t\n      PUSH 40\t\t\t\n      DUP4 \t\t\t\n      DUP6 \t\t\t\n      SUB \t\t\t\n      SLT \t\t\t\n      ISZERO \t\t\t\n      PUSH [tag] 264\t\t\t\n      JUMPI \t\t\t\n      PUSH [tag] 265\t\t\t\n      PUSH [tag] 100\t\t\t\n      JUMP \t\t\t\n    tag 265\t\t\t\n      JUMPDEST \t\t\t\n    tag 264\t\t\t\n      JUMPDEST \t\t\t\n      PUSH 0\t\t\t\n      PUSH [tag] 266\t\t\t\n      DUP6 \t\t\t\n      DUP3 \t\t\t\n      DUP7 \t\t\t\n      ADD \t\t\t\n      PUSH [tag] 113\t\t\t\n      JUMP \t\t\t\n    tag 266\t\t\t\n      JUMPDEST \t\t\t\n      SWAP3 \t\t\t\n      POP \t\t\t\n      POP \t\t\t\n      PUSH 20\t\t\t\n      PUSH [tag] 267\t\t\t\n      DUP6 \t\t\t\n      DUP3 \t\t\t\n      DUP7 \t\t\t\n      ADD \t\t\t\n      PUSH [tag] 132\t\t\t\n      JUMP \t\t\t\n    tag 267\t\t\t\n      JUMPDEST \t\t\t\n      SWAP2 \t\t\t\n      POP \t\t\t\n      POP \t\t\t\n      SWAP3 \t\t\t\n      POP \t\t\t\n      SWAP3 \t\t\t\n      SWAP1 \t\t\t\n      POP \t\t\t\n      JUMP \t\t\t\n    tag 133\t\t\t\n      JUMPDEST \t\t\t\n      PUSH [tag] 269\t\t\t\n      DUP2 \t\t\t\n      PUSH [tag] 111\t\t\t\n      JUMP \t\t\t\n    tag 269\t\t\t\n      JUMPDEST \t\t\t\n      DUP3 \t\t\t\n      MSTORE \t\t\t\n      POP \t\t\t\n      POP \t\t\t\n      JUMP \t\t\t\n    tag 23\t\t\t\n      JUMPDEST \t\t\t\n      PUSH 0\t\t\t\n      PUSH 20\t\t\t\n      DUP3 \t\t\t\n      ADD \t\t\t\n      SWAP1 \t\t\t\n      POP \t\t\t\n      PUSH [tag] 271\t\t\t\n      PUSH 0\t\t\t\n      DUP4 \t\t\t\n      ADD \t\t\t\n      DUP5 \t\t\t\n      PUSH [tag] 133\t\t\t\n      JUMP \t\t\t\n    tag 271\t\t\t\n      JUMPDEST \t\t\t\n      SWAP3 \t\t\t\n      SWAP2 \t\t\t\n      POP \t\t\t\n      POP \t\t\t\n      JUMP \t\t\t\n    tag 26\t\t\t\n      JUMPDEST \t\t\t\n      PUSH 0\t\t\t\n      PUSH 20\t\t\t\n      DUP3 \t\t\t\n      DUP5 \t\t\t\n      SUB \t\t\t\n      SLT \t\t\t\n      ISZERO \t\t\t\n      PUSH [tag] 273\t\t\t\n      JUMPI \t\t\t\n      PUSH [tag] 274\t\t\t\n      PUSH [tag] 100\t\t\t\n      JUMP \t\t\t\n    tag 274\t\t\t\n      JUMPDEST \t\t\t\n    tag 273\t\t\t\n      JUMPDEST \t\t\t\n      PUSH 0\t\t\t\n      PUSH [tag] 275\t\t\t\n      DUP5 \t\t\t\n      DUP3 \t\t\t\n      DUP6 \t\t\t\n      ADD \t\t\t\n      PUSH [tag] 113\t\t\t\n      JUMP \t\t\t\n    tag 275\t\t\t\n      JUMPDEST \t\t\t\n      SWAP2 \t\t\t\n      POP \t\t\t\n      POP \t\t\t\n      SWAP3 \t\t\t\n      SWAP2 \t\t\t\n      POP \t\t\t\n      POP \t\t\t\n      JUMP \t\t\t\n    tag 134\t\t\t\n      JUMPDEST \t\t\t\n      PUSH 0\t\t\t\n      DUP3 \t\t\t\n      DUP3 \t\t\t\n      MSTORE \t\t\t\n      PUSH 20\t\t\t\n      DUP3 \t\t\t\n      ADD \t\t\t\n      SWAP1 \t\t\t\n      POP \t\t\t\n      SWAP3 \t\t\t\n      SWAP2 \t\t\t\n      POP \t\t\t\n      POP \t\t\t\n      JUMP \t\t\t\n    tag 135\t\t\t\n      JUMPDEST \t\t\t\n      PUSH 0\t\t\t\n      PUSH [tag] 278\t\t\t\n      DUP3 \t\t\t\n      PUSH [tag] 117\t\t\t\n      JUMP \t\t\t\n    tag 278\t\t\t\n      JUMPDEST \t\t\t\n      PUSH [tag] 279\t\t\t\n      DUP2 \t\t\t\n      DUP6 \t\t\t\n      PUSH [tag] 134\t\t\t\n      JUMP \t\t\t\n    tag 279\t\t\t\n      JUMPDEST \t\t\t\n      SWAP4 \t\t\t\n      POP \t\t\t\n      PUSH [tag] 280\t\t\t\n      DUP2 \t\t\t\n      DUP6 \t\t\t\n      PUSH 20\t\t\t\n      DUP7 \t\t\t\n      ADD \t\t\t\n      PUSH [tag] 119\t\t\t\n      JUMP \t\t\t\n    tag 280\t\t\t\n      JUMPDEST \t\t\t\n      PUSH [tag] 281\t\t\t\n      DUP2 \t\t\t\n      PUSH [tag] 104\t\t\t\n      JUMP \t\t\t\n    tag 281\t\t\t\n      JUMPDEST \t\t\t\n      DUP5 \t\t\t\n      ADD \t\t\t\n      SWAP2 \t\t\t\n      POP \t\t\t\n      POP \t\t\t\n      SWAP3 \t\t\t\n      SWAP2 \t\t\t\n      POP \t\t\t\n      POP \t\t\t\n      JUMP \t\t\t\n    tag 136\t\t\t\n      JUMPDEST \t\t\t\n      PUSH [tag] 283\t\t\t\n      DUP2 \t\t\t\n      PUSH [tag] 123\t\t\t\n      JUMP \t\t\t\n    tag 283\t\t\t\n      JUMPDEST \t\t\t\n      DUP3 \t\t\t\n      MSTORE \t\t\t\n      POP \t\t\t\n      POP \t\t\t\n      JUMP \t\t\t\n    tag 137\t\t\t\n      JUMPDEST \t\t\t\n      PUSH [tag] 285\t\t\t\n      DUP2 \t\t\t\n      PUSH [tag] 125\t\t\t\n      JUMP \t\t\t\n    tag 285\t\t\t\n      JUMPDEST \t\t\t\n      DUP3 \t\t\t\n      MSTORE \t\t\t\n      POP \t\t\t\n      POP \t\t\t\n      JUMP \t\t\t\n    tag 29\t\t\t\n      JUMPDEST \t\t\t\n      PUSH 0\t\t\t\n      PUSH A0\t\t\t\n      DUP3 \t\t\t\n      ADD \t\t\t\n      SWAP1 \t\t\t\n      POP \t\t\t\n      DUP2 \t\t\t\n      DUP2 \t\t\t\n      SUB \t\t\t\n      PUSH 0\t\t\t\n      DUP4 \t\t\t\n      ADD \t\t\t\n      MSTORE \t\t\t\n      PUSH [tag] 287\t\t\t\n      DUP2 \t\t\t\n      DUP9 \t\t\t\n      PUSH [tag] 135\t\t\t\n      JUMP \t\t\t\n    tag 287\t\t\t\n      JUMPDEST \t\t\t\n      SWAP1 \t\t\t\n      POP \t\t\t\n      PUSH [tag] 288\t\t\t\n      PUSH 20\t\t\t\n      DUP4 \t\t\t\n      ADD \t\t\t\n      DUP8 \t\t\t\n      PUSH [tag] 133\t\t\t\n      JUMP \t\t\t\n    tag 288\t\t\t\n      JUMPDEST \t\t\t\n      PUSH [tag] 289\t\t\t\n      PUSH 40\t\t\t\n      DUP4 \t\t\t\n      ADD \t\t\t\n      DUP7 \t\t\t\n      PUSH [tag] 136\t\t\t\n      JUMP \t\t\t\n    tag 289\t\t\t\n      JUMPDEST \t\t\t\n      DUP2 \t\t\t\n      DUP2 \t\t\t\n      SUB \t\t\t\n      PUSH 60\t\t\t\n      DUP4 \t\t\t\n      ADD \t\t\t\n      MSTORE \t\t\t\n      PUSH [tag] 290\t\t\t\n      DUP2 \t\t\t\n      DUP6 \t\t\t\n      PUSH [tag] 135\t\t\t\n      JUMP \t\t\t\n    tag 290\t\t\t\n      JUMPDEST \t\t\t\n      SWAP1 \t\t\t\n      POP \t\t\t\n      PUSH [tag] 291\t\t\t\n      PUSH 80\t\t\t\n      DUP4 \t\t\t\n      ADD \t\t\t\n      DUP5 \t\t\t\n      PUSH [tag] 137\t\t\t\n      JUMP \t\t\t\n    tag 291\t\t\t\n      JUMPDEST \t\t\t\n      SWAP7 \t\t\t\n      SWAP6 \t\t\t\n      POP \t\t\t\n      POP \t\t\t\n      POP \t\t\t\n      POP \t\t\t\n      POP \t\t\t\n      POP \t\t\t\n      JUMP \t\t\t\n    tag 138\t\t\t\n      JUMPDEST \t\t\t\n      PUSH 4C6F636174696F6E206973207265717569726564000000000000000000000000\t\t\t\n      PUSH 0\t\t\t\n      DUP3 \t\t\t\n      ADD \t\t\t\n      MSTORE \t\t\t\n      POP \t\t\t\n      JUMP \t\t\t\n    tag 139\t\t\t\n      JUMPDEST \t\t\t\n      PUSH 0\t\t\t\n      PUSH [tag] 294\t\t\t\n      PUSH 14\t\t\t\n      DUP4 \t\t\t\n      PUSH [tag] 134\t\t\t\n      JUMP \t\t\t\n    tag 294\t\t\t\n      JUMPDEST \t\t\t\n      SWAP2 \t\t\t\n      POP \t\t\t\n      PUSH [tag] 295\t\t\t\n      DUP3 \t\t\t\n      PUSH [tag] 138\t\t\t\n      JUMP \t\t\t\n    tag 295\t\t\t\n      JUMPDEST \t\t\t\n      PUSH 20\t\t\t\n      DUP3 \t\t\t\n      ADD \t\t\t\n      SWAP1 \t\t\t\n      POP \t\t\t\n      SWAP2 \t\t\t\n      SWAP1 \t\t\t\n      POP \t\t\t\n      JUMP \t\t\t\n    tag 33\t\t\t\n      JUMPDEST \t\t\t\n      PUSH 0\t\t\t\n      PUSH 20\t\t\t\n      DUP3 \t\t\t\n      ADD \t\t\t\n      SWAP1 \t\t\t\n      POP \t\t\t\n      DUP2 \t\t\t\n      DUP2 \t\t\t\n      SUB \t\t\t\n      PUSH 0\t\t\t\n      DUP4 \t\t\t\n      ADD \t\t\t\n      MSTORE \t\t\t\n      PUSH [tag] 297\t\t\t\n      DUP2 \t\t\t\n      PUSH [tag] 139\t\t\t\n      JUMP \t\t\t\n    tag 297\t\t\t\n      JUMPDEST \t\t\t\n      SWAP1 \t\t\t\n      POP \t\t\t\n      SWAP2 \t\t\t\n      SWAP1 \t\t\t\n      POP \t\t\t\n      JUMP \t\t\t\n    tag 140\t\t\t\n      JUMPDEST \t\t\t\n      PUSH 53697A65206D7573742062652067726561746572207468616E207A65726F0000\t\t\t\n      PUSH 0\t\t\t\n      DUP3 \t\t\t\n      ADD \t\t\t\n      MSTORE \t\t\t\n      POP \t\t\t\n      JUMP \t\t\t\n    tag 141\t\t\t\n      JUMPDEST \t\t\t\n      PUSH 0\t\t\t\n      PUSH [tag] 300\t\t\t\n      PUSH 1E\t\t\t\n      DUP4 \t\t\t\n      PUSH [tag] 134\t\t\t\n      JUMP \t\t\t\n    tag 300\t\t\t\n      JUMPDEST \t\t\t\n      SWAP2 \t\t\t\n      POP \t\t\t\n      PUSH [tag] 301\t\t\t\n      DUP3 \t\t\t\n      PUSH [tag] 140\t\t\t\n      JUMP \t\t\t\n    tag 301\t\t\t\n      JUMPDEST \t\t\t\n      PUSH 20\t\t\t\n      DUP3 \t\t\t\n      ADD \t\t\t\n      SWAP1 \t\t\t\n      POP \t\t\t\n      SWAP2 \t\t\t\n      SWAP1 \t\t\t\n      POP \t\t\t\n      JUMP \t\t\t\n    tag 36\t\t\t\n      JUMPDEST \t\t\t\n      PUSH 0\t\t\t\n      PUSH 20\t\t\t\n      DUP3 \t\t\t\n      ADD \t\t\t\n      SWAP1 \t\t\t\n      POP \t\t\t\n      DUP2 \t\t\t\n      DUP2 \t\t\t\n      SUB \t\t\t\n      PUSH 0\t\t\t\n      DUP4 \t\t\t\n      ADD \t\t\t\n      MSTORE \t\t\t\n      PUSH [tag] 303\t\t\t\n      DUP2 \t\t\t\n      PUSH [tag] 141\t\t\t\n      JUMP \t\t\t\n    tag 303\t\t\t\n      JUMPDEST \t\t\t\n      SWAP1 \t\t\t\n      POP \t\t\t\n      SWAP2 \t\t\t\n      SWAP1 \t\t\t\n      POP \t\t\t\n      JUMP \t\t\t\n    tag 142\t\t\t\n      JUMPDEST \t\t\t\n      PUSH 446F63756D656E74206861736820697320726571756972656400000000000000\t\t\t\n      PUSH 0\t\t\t\n      DUP3 \t\t\t\n      ADD \t\t\t\n      MSTORE \t\t\t\n      POP \t\t\t\n      JUMP \t\t\t\n    tag 143\t\t\t\n      JUMPDEST \t\t\t\n      PUSH 0\t\t\t\n      PUSH [tag] 306\t\t\t\n      PUSH 19\t\t\t\n      DUP4 \t\t\t\n      PUSH [tag] 134\t\t\t\n      JUMP \t\t\t\n    tag 306\t\t\t\n      JUMPDEST \t\t\t\n      SWAP2 \t\t\t\n      POP \t\t\t\n      PUSH [tag] 307\t\t\t\n      DUP3 \t\t\t\n      PUSH [tag] 142\t\t\t\n      JUMP \t\t\t\n    tag 307\t\t\t\n      JUMPDEST \t\t\t\n      PUSH 20\t\t\t\n      DUP3 \t\t\t\n      ADD \t\t\t\n      SWAP1 \t\t\t\n      POP \t\t\t\n      SWAP2 \t\t\t\n      SWAP1 \t\t\t\n      POP \t\t\t\n      JUMP \t\t\t\n    tag 39\t\t\t\n      JUMPDEST \t\t\t\n      PUSH 0\t\t\t\n      PUSH 20\t\t\t\n      DUP3 \t\t\t\n      ADD \t\t\t\n      SWAP1 \t\t\t\n      POP \t\t\t\n      DUP2 \t\t\t\n      DUP2 \t\t\t\n      SUB \t\t\t\n      PUSH 0\t\t\t\n      DUP4 \t\t\t\n      ADD \t\t\t\n      MSTORE \t\t\t\n      PUSH [tag] 309\t\t\t\n      DUP2 \t\t\t\n      PUSH [tag] 143\t\t\t\n      JUMP \t\t\t\n    tag 309\t\t\t\n      JUMPDEST \t\t\t\n      SWAP1 \t\t\t\n      POP \t\t\t\n      SWAP2 \t\t\t\n      SWAP1 \t\t\t\n      POP \t\t\t\n      JUMP \t\t\t\n    tag 144\t\t\t\n      JUMPDEST \t\t\t\n      PUSH 0\t\t\t\n      DUP2 \t\t\t\n      SWAP1 \t\t\t\n      POP \t\t\t\n      SWAP3 \t\t\t\n      SWAP2 \t\t\t\n      POP \t\t\t\n      POP \t\t\t\n      JUMP \t\t\t\n    tag 145\t\t\t\n      JUMPDEST \t\t\t\n      PUSH 0\t\t\t\n      PUSH [tag] 312\t\t\t\n      DUP3 \t\t\t\n      PUSH [tag] 117\t\t\t\n      JUMP \t\t\t\n    tag 312\t\t\t\n      JUMPDEST \t\t\t\n      PUSH [tag] 313\t\t\t\n      DUP2 \t\t\t\n      DUP6 \t\t\t\n      PUSH [tag] 144\t\t\t\n      JUMP \t\t\t\n    tag 313\t\t\t\n      JUMPDEST \t\t\t\n      SWAP4 \t\t\t\n      POP \t\t\t\n      PUSH [tag] 314\t\t\t\n      DUP2 \t\t\t\n      DUP6 \t\t\t\n      PUSH 20\t\t\t\n      DUP7 \t\t\t\n      ADD \t\t\t\n      PUSH [tag] 119\t\t\t\n      JUMP \t\t\t\n    tag 314\t\t\t\n      JUMPDEST \t\t\t\n      DUP1 \t\t\t\n      DUP5 \t\t\t\n      ADD \t\t\t\n      SWAP2 \t\t\t\n      POP \t\t\t\n      POP \t\t\t\n      SWAP3 \t\t\t\n      SWAP2 \t\t\t\n      POP \t\t\t\n      POP \t\t\t\n      JUMP \t\t\t\n    tag 41\t\t\t\n      JUMPDEST \t\t\t\n      PUSH 0\t\t\t\n      PUSH [tag] 316\t\t\t\n      DUP3 \t\t\t\n      DUP5 \t\t\t\n      PUSH [tag] 145\t\t\t\n      JUMP \t\t\t\n    tag 316\t\t\t\n      JUMPDEST \t\t\t\n      SWAP2 \t\t\t\n      POP \t\t\t\n      DUP2 \t\t\t\n      SWAP1 \t\t\t\n      POP \t\t\t\n      SWAP3 \t\t\t\n      SWAP2 \t\t\t\n      POP \t\t\t\n      POP \t\t\t\n      JUMP \t\t\t\n    tag 146\t\t\t\n      JUMPDEST \t\t\t\n      PUSH 54686973206C616E6420697320616C7265616479207265676973746572656400\t\t\t\n      PUSH 0\t\t\t\n      DUP3 \t\t\t\n      ADD \t\t\t\n      MSTORE \t\t\t\n      POP \t\t\t\n      JUMP \t\t\t\n    tag 147\t\t\t\n      JUMPDEST \t\t\t\n      PUSH 0\t\t\t\n      PUSH [tag] 319\t\t\t\n      PUSH 1F\t\t\t\n      DUP4 \t\t\t\n      PUSH [tag] 134\t\t\t\n      JUMP \t\t\t\n    tag 319\t\t\t\n      JUMPDEST \t\t\t\n      SWAP2 \t\t\t\n      POP \t\t\t\n      PUSH [tag] 320\t\t\t\n      DUP3 \t\t\t\n      PUSH [tag] 146\t\t\t\n      JUMP \t\t\t\n    tag 320\t\t\t\n      JUMPDEST \t\t\t\n      PUSH 20\t\t\t\n      DUP3 \t\t\t\n      ADD \t\t\t\n      SWAP1 \t\t\t\n      POP \t\t\t\n      SWAP2 \t\t\t\n      SWAP1 \t\t\t\n      POP \t\t\t\n      JUMP \t\t\t\n    tag 44\t\t\t\n      JUMPDEST \t\t\t\n      PUSH 0\t\t\t\n      PUSH 20\t\t\t\n      DUP3 \t\t\t\n      ADD \t\t\t\n      SWAP1 \t\t\t\n      POP \t\t\t\n      DUP2 \t\t\t\n      DUP2 \t\t\t\n      SUB \t\t\t\n      PUSH 0\t\t\t\n      DUP4 \t\t\t\n      ADD \t\t\t\n      MSTORE \t\t\t\n      PUSH [tag] 322\t\t\t\n      DUP2 \t\t\t\n      PUSH [tag] 147\t\t\t\n      JUMP \t\t\t\n    tag 322\t\t\t\n      JUMPDEST \t\t\t\n      SWAP1 \t\t\t\n      POP \t\t\t\n      SWAP2 \t\t\t\n      SWAP1 \t\t\t\n      POP \t\t\t\n      JUMP \t\t\t\n    tag 148\t\t\t\n      JUMPDEST \t\t\t\n      PUSH 4E487B7100000000000000000000000000000000000000000000000000000000\t\t\t\n      PUSH 0\t\t\t\n      MSTORE \t\t\t\n      PUSH 22\t\t\t\n      PUSH 4\t\t\t\n      MSTORE \t\t\t\n      PUSH 24\t\t\t\n      PUSH 0\t\t\t\n      REVERT \t\t\t\n    tag 65\t\t\t\n      JUMPDEST \t\t\t\n      PUSH 0\t\t\t\n      PUSH 2\t\t\t\n      DUP3 \t\t\t\n      DIV \t\t\t\n      SWAP1 \t\t\t\n      POP \t\t\t\n      PUSH 1\t\t\t\n      DUP3 \t\t\t\n      AND \t\t\t\n      DUP1 \t\t\t\n      PUSH [tag] 325\t\t\t\n      JUMPI \t\t\t\n      PUSH 7F\t\t\t\n      DUP3 \t\t\t\n      AND \t\t\t\n      SWAP2 \t\t\t\n      POP \t\t\t\n    tag 325\t\t\t\n      JUMPDEST \t\t\t\n      PUSH 20\t\t\t\n      DUP3 \t\t\t\n      LT \t\t\t\n      DUP2 \t\t\t\n      SUB \t\t\t\n      PUSH [tag] 326\t\t\t\n      JUMPI \t\t\t\n      PUSH [tag] 327\t\t\t\n      PUSH [tag] 148\t\t\t\n      JUMP \t\t\t\n    tag 327\t\t\t\n      JUMPDEST \t\t\t\n    tag 326\t\t\t\n      JUMPDEST \t\t\t\n      POP \t\t\t\n      SWAP2 \t\t\t\n      SWAP1 \t\t\t\n      POP \t\t\t\n      JUMP \t\t\t\n    tag 149\t\t\t\n      JUMPDEST \t\t\t\n      PUSH 0\t\t\t\n      DUP2 \t\t\t\n      SWAP1 \t\t\t\n      POP \t\t\t\n      DUP2 \t\t\t\n      PUSH 0\t\t\t\n      MSTORE \t\t\t\n      PUSH 20\t\t\t\n      PUSH 0\t\t\t\n      KECCAK256 \t\t\t\n      SWAP1 \t\t\t\n      POP \t\t\t\n      SWAP2 \t\t\t\n      SWAP1 \t\t\t\n      POP \t\t\t\n      JUMP \t\t\t\n    tag 150\t\t\t\n      JUMPDEST \t\t\t\n      PUSH 0\t\t\t\n      PUSH 20\t\t\t\n      PUSH 1F\t\t\t\n      DUP4 \t\t\t\n      ADD \t\t\t\n      DIV \t\t\t\n      SWAP1 \t\t\t\n      POP \t\t\t\n      SWAP2 \t\t\t\n      SWAP1 \t\t\t\n      POP \t\t\t\n      JUMP \t\t\t\n    tag 151\t\t\t\n      JUMPDEST \t\t\t\n      PUSH 0\t\t\t\n      DUP3 \t\t\t\n      DUP3 \t\t\t\n      SHL \t\t\t\n      SWAP1 \t\t\t\n      POP \t\t\t\n      SWAP3 \t\t\t\n      SWAP2 \t\t\t\n      POP \t\t\t\n      POP \t\t\t\n      JUMP \t\t\t\n    tag 152\t\t\t\n      JUMPDEST \t\t\t\n      PUSH 0\t\t\t\n      PUSH 8\t\t\t\n      DUP4 \t\t\t\n      MUL \t\t\t\n      PUSH [tag] 332\t\t\t\n      PUSH FFFFFFFFFFFFFFFFFFFFFFFFFFFFFFFFFFFFFFFFFFFFFFFFFFFFFFFFFFFFFFFF\t\t\t\n      DUP3 \t\t\t\n      PUSH [tag] 151\t\t\t\n      JUMP \t\t\t\n    tag 332\t\t\t\n      JUMPDEST \t\t\t\n      PUSH [tag] 333\t\t\t\n      DUP7 \t\t\t\n      DUP4 \t\t\t\n      PUSH [tag] 151\t\t\t\n      JUMP \t\t\t\n    tag 333\t\t\t\n      JUMPDEST \t\t\t\n      SWAP6 \t\t\t\n      POP \t\t\t\n      DUP1 \t\t\t\n      NOT \t\t\t\n      DUP5 \t\t\t\n      AND \t\t\t\n      SWAP4 \t\t\t\n      POP \t\t\t\n      DUP1 \t\t\t\n      DUP7 \t\t\t\n      AND \t\t\t\n      DUP5 \t\t\t\n      OR \t\t\t\n      SWAP3 \t\t\t\n      POP \t\t\t\n      POP \t\t\t\n      POP \t\t\t\n      SWAP4 \t\t\t\n      SWAP3 \t\t\t\n      POP \t\t\t\n      POP \t\t\t\n      POP \t\t\t\n      JUMP \t\t\t\n    tag 153\t\t\t\n      JUMPDEST \t\t\t\n      PUSH 0\t\t\t\n      DUP2 \t\t\t\n      SWAP1 \t\t\t\n      POP \t\t\t\n      SWAP2 \t\t\t\n      SWAP1 \t\t\t\n      POP \t\t\t\n      JUMP \t\t\t\n    tag 154\t\t\t\n      JUMPDEST \t\t\t\n      PUSH 0\t\t\t\n      PUSH [tag] 336\t\t\t\n      PUSH [tag] 337\t\t\t\n      PUSH [tag] 338\t\t\t\n      DUP5 \t\t\t\n      PUSH [tag] 111\t\t\t\n      JUMP \t\t\t\n    tag 338\t\t\t\n      JUMPDEST \t\t\t\n      PUSH [tag] 153\t\t\t\n      JUMP \t\t\t\n    tag 337\t\t\t\n      JUMPDEST \t\t\t\n      PUSH [tag] 111\t\t\t\n      JUMP \t\t\t\n    tag 336\t\t\t\n      JUMPDEST \t\t\t\n      SWAP1 \t\t\t\n      POP \t\t\t\n      SWAP2 \t\t\t\n      SWAP1 \t\t\t\n      POP \t\t\t\n      JUMP \t\t\t\n    tag 155\t\t\t\n      JUMPDEST \t\t\t\n      PUSH 0\t\t\t\n      DUP2 \t\t\t\n      SWAP1 \t\t\t\n      POP \t\t\t\n      SWAP2 \t\t\t\n      SWAP1 \t\t\t\n      POP \t\t\t\n      JUMP \t\t\t\n    tag 156\t\t\t\n      JUMPDEST \t\t\t\n      PUSH [tag] 341\t\t\t\n      DUP4 \t\t\t\n      PUSH [tag] 154\t\t\t\n      JUMP \t\t\t\n    tag 341\t\t\t\n      JUMPDEST \t\t\t\n      PUSH [tag] 342\t\t\t\n      PUSH [tag] 343\t\t\t\n      DUP3 \t\t\t\n      PUSH [tag] 155\t\t\t\n      JUMP \t\t\t\n    tag 343\t\t\t\n      JUMPDEST \t\t\t\n      DUP5 \t\t\t\n      DUP5 \t\t\t\n      SLOAD \t\t\t\n      PUSH [tag] 152\t\t\t\n      JUMP \t\t\t\n    tag 342\t\t\t\n      JUMPDEST \t\t\t\n      DUP3 \t\t\t\n      SSTORE \t\t\t\n      POP \t\t\t\n      POP \t\t\t\n      POP \t\t\t\n      POP \t\t\t\n      JUMP \t\t\t\n    tag 157\t\t\t\n      JUMPDEST \t\t\t\n      PUSH 0\t\t\t\n      SWAP1 \t\t\t\n      JUMP \t\t\t\n    tag 158\t\t\t\n      JUMPDEST \t\t\t\n      PUSH [tag] 346\t\t\t\n      PUSH [tag] 157\t\t\t\n      JUMP \t\t\t\n    tag 346\t\t\t\n      JUMPDEST \t\t\t\n      PUSH [tag] 347\t\t\t\n      DUP2 \t\t\t\n      DUP5 \t\t\t\n      DUP5 \t\t\t\n      PUSH [tag] 156\t\t\t\n      JUMP \t\t\t\n    tag 347\t\t\t\n      JUMPDEST \t\t\t\n      POP \t\t\t\n      POP \t\t\t\n      POP \t\t\t\n      JUMP \t\t\t\n    tag 159\t\t\t\n      JUMPDEST \t\t\t\n    tag 349\t\t\t\n      JUMPDEST \t\t\t\n      DUP2 \t\t\t\n      DUP2 \t\t\t\n      LT \t\t\t\n      ISZERO \t\t\t\n      PUSH [tag] 351\t\t\t\n      JUMPI \t\t\t\n      PUSH [tag] 352\t\t\t\n      PUSH 0\t\t\t\n      DUP3 \t\t\t\n      PUSH [tag] 158\t\t\t\n      JUMP \t\t\t\n    tag 352\t\t\t\n      JUMPDEST \t\t\t\n      PUSH 1\t\t\t\n      DUP2 \t\t\t\n      ADD \t\t\t\n      SWAP1 \t\t\t\n      POP \t\t\t\n      PUSH [tag] 349\t\t\t\n      JUMP \t\t\t\n    tag 351\t\t\t\n      JUMPDEST \t\t\t\n      POP \t\t\t\n      POP \t\t\t\n      JUMP \t\t\t\n    tag 160\t\t\t\n      JUMPDEST \t\t\t\n      PUSH 1F\t\t\t\n      DUP3 \t\t\t\n      GT \t\t\t\n      ISZERO \t\t\t\n      PUSH [tag] 354\t\t\t\n      JUMPI \t\t\t\n      PUSH [tag] 355\t\t\t\n      DUP2 \t\t\t\n      PUSH [tag] 149\t\t\t\n      JUMP \t\t\t\n    tag 355\t\t\t\n      JUMPDEST \t\t\t\n      PUSH [tag] 356\t\t\t\n      DUP5 \t\t\t\n      PUSH [tag] 150\t\t\t\n      JUMP \t\t\t\n    tag 356\t\t\t\n      JUMPDEST \t\t\t\n      DUP2 \t\t\t\n      ADD \t\t\t\n      PUSH 20\t\t\t\n      DUP6 \t\t\t\n      LT \t\t\t\n      ISZERO \t\t\t\n      PUSH [tag] 357\t\t\t\n      JUMPI \t\t\t\n      DUP2 \t\t\t\n      SWAP1 \t\t\t\n      POP \t\t\t\n    tag 357\t\t\t\n      JUMPDEST \t\t\t\n      PUSH [tag] 358\t\t\t\n      PUSH [tag] 359\t\t\t\n      DUP6 \t\t\t\n      PUSH [tag] 150\t\t\t\n      JUMP \t\t\t\n    tag 359\t\t\t\n      JUMPDEST \t\t\t\n      DUP4 \t\t\t\n      ADD \t\t\t\n      DUP3 \t\t\t\n      PUSH [tag] 159\t\t\t\n      JUMP \t\t\t\n    tag 358\t\t\t\n      JUMPDEST \t\t\t\n      POP \t\t\t\n      POP \t\t\t\n    tag 354\t\t\t\n      JUMPDEST \t\t\t\n      POP \t\t\t\n      POP \t\t\t\n      POP \t\t\t\n      JUMP \t\t\t\n    tag 161\t\t\t\n      JUMPDEST \t\t\t\n      PUSH 0\t\t\t\n      DUP3 \t\t\t\n      DUP3 \t\t\t\n      SHR \t\t\t\n      SWAP1 \t\t\t\n      POP \t\t\t\n      SWAP3 \t\t\t\n      SWAP2 \t\t\t\n      POP \t\t\t\n      POP \t\t\t\n      JUMP \t\t\t\n    tag 162\t\t\t\n      JUMPDEST \t\t\t\n      PUSH 0\t\t\t\n      PUSH [tag] 362\t\t\t\n      PUSH 0\t\t\t\n      NOT \t\t\t\n      DUP5 \t\t\t\n      PUSH 8\t\t\t\n      MUL \t\t\t\n      PUSH [tag] 161\t\t\t\n      JUMP \t\t\t\n    tag 362\t\t\t\n      JUMPDEST \t\t\t\n      NOT \t\t\t\n      DUP1 \t\t\t\n      DUP4 \t\t\t\n      AND \t\t\t\n      SWAP2 \t\t\t\n      POP \t\t\t\n      POP \t\t\t\n      SWAP3 \t\t\t\n      SWAP2 \t\t\t\n      POP \t\t\t\n      POP \t\t\t\n      JUMP \t\t\t\n    tag 163\t\t\t\n      JUMPDEST \t\t\t\n      PUSH 0\t\t\t\n      PUSH [tag] 364\t\t\t\n      DUP4 \t\t\t\n      DUP4 \t\t\t\n      PUSH [tag] 162\t\t\t\n      JUMP \t\t\t\n    tag 364\t\t\t\n      JUMPDEST \t\t\t\n      SWAP2 \t\t\t\n      POP \t\t\t\n      DUP3 \t\t\t\n      PUSH 2\t\t\t\n      MUL \t\t\t\n      DUP3 \t\t\t\n      OR \t\t\t\n      SWAP1 \t\t\t\n      POP \t\t\t\n      SWAP3 \t\t\t\n      SWAP2 \t\t\t\n      POP \t\t\t\n      POP \t\t\t\n      JUMP \t\t\t\n    tag 46\t\t\t\n      JUMPDEST \t\t\t\n      PUSH [tag] 366\t\t\t\n      DUP3 \t\t\t\n      PUSH [tag] 117\t\t\t\n      JUMP \t\t\t\n    tag 366\t\t\t\n      JUMPDEST \t\t\t\n      PUSH FFFFFFFFFFFFFFFF\t\t\t\n      DUP2 \t\t\t\n      GT \t\t\t\n      ISZERO \t\t\t\n      PUSH [tag] 367\t\t\t\n      JUMPI \t\t\t\n      PUSH [tag] 368\t\t\t\n      PUSH [tag] 56\t\t\t\n      JUMP \t\t\t\n    tag 368\t\t\t\n      JUMPDEST \t\t\t\n    tag 367\t\t\t\n      JUMPDEST \t\t\t\n      PUSH [tag] 369\t\t\t\n      DUP3 \t\t\t\n      SLOAD \t\t\t\n      PUSH [tag] 65\t\t\t\n      JUMP \t\t\t\n    tag 369\t\t\t\n      JUMPDEST \t\t\t\n      PUSH [tag] 370\t\t\t\n      DUP3 \t\t\t\n      DUP3 \t\t\t\n      DUP6 \t\t\t\n      PUSH [tag] 160\t\t\t\n      JUMP \t\t\t\n    tag 370\t\t\t\n      JUMPDEST \t\t\t\n      PUSH 0\t\t\t\n      PUSH 20\t\t\t\n      SWAP1 \t\t\t\n      POP \t\t\t\n      PUSH 1F\t\t\t\n      DUP4 \t\t\t\n      GT \t\t\t\n      PUSH 1\t\t\t\n      DUP2 \t\t\t\n      EQ \t\t\t\n      PUSH [tag] 372\t\t\t\n      JUMPI \t\t\t\n      PUSH 0\t\t\t\n      DUP5 \t\t\t\n      ISZERO \t\t\t\n      PUSH [tag] 373\t\t\t\n      JUMPI \t\t\t\n      DUP3 \t\t\t\n      DUP8 \t\t\t\n      ADD \t\t\t\n      MLOAD \t\t\t\n      SWAP1 \t\t\t\n      POP \t\t\t\n    tag 373\t\t\t\n      JUMPDEST \t\t\t\n      PUSH [tag] 374\t\t\t\n      DUP6 \t\t\t\n      DUP3 \t\t\t\n      PUSH [tag] 163\t\t\t\n      JUMP \t\t\t\n    tag 374\t\t\t\n      JUMPDEST \t\t\t\n      DUP7 \t\t\t\n      SSTORE \t\t\t\n      POP \t\t\t\n      PUSH [tag] 371\t\t\t\n      JUMP \t\t\t\n    tag 372\t\t\t\n      JUMPDEST \t\t\t\n      PUSH 1F\t\t\t\n      NOT \t\t\t\n      DUP5 \t\t\t\n      AND \t\t\t\n      PUSH [tag] 375\t\t\t\n      DUP7 \t\t\t\n      PUSH [tag] 149\t\t\t\n      JUMP \t\t\t\n    tag 375\t\t\t\n      JUMPDEST \t\t\t\n      PUSH 0\t\t\t\n    tag 376\t\t\t\n      JUMPDEST \t\t\t\n      DUP3 \t\t\t\n      DUP2 \t\t\t\n      LT \t\t\t\n      ISZERO \t\t\t\n      PUSH [tag] 378\t\t\t\n      JUMPI \t\t\t\n      DUP5 \t\t\t\n      DUP10 \t\t\t\n      ADD \t\t\t\n      MLOAD \t\t\t\n      DUP3 \t\t\t\n      SSTORE \t\t\t\n      PUSH 1\t\t\t\n      DUP3 \t\t\t\n      ADD \t\t\t\n      SWAP2 \t\t\t\n      POP \t\t\t\n      PUSH 20\t\t\t\n      DUP6 \t\t\t\n      ADD \t\t\t\n      SWAP5 \t\t\t\n      POP \t\t\t\n      PUSH 20\t\t\t\n      DUP2 \t\t\t\n      ADD \t\t\t\n      SWAP1 \t\t\t\n      POP \t\t\t\n      PUSH [tag] 376\t\t\t\n      JUMP \t\t\t\n    tag 378\t\t\t\n      JUMPDEST \t\t\t\n      DUP7 \t\t\t\n      DUP4 \t\t\t\n      LT \t\t\t\n      ISZERO \t\t\t\n      PUSH [tag] 379\t\t\t\n      JUMPI \t\t\t\n      DUP5 \t\t\t\n      DUP10 \t\t\t\n      ADD \t\t\t\n      MLOAD \t\t\t\n      PUSH [tag] 380\t\t\t\n      PUSH 1F\t\t\t\n      DUP10 \t\t\t\n      AND \t\t\t\n      DUP3 \t\t\t\n      PUSH [tag] 162\t\t\t\n      JUMP \t\t\t\n    tag 380\t\t\t\n      JUMPDEST \t\t\t\n      DUP4 \t\t\t\n      SSTORE \t\t\t\n      POP \t\t\t\n    tag 379\t\t\t\n      JUMPDEST \t\t\t\n      PUSH 1\t\t\t\n      PUSH 2\t\t\t\n      DUP9 \t\t\t\n      MUL \t\t\t\n      ADD \t\t\t\n      DUP9 \t\t\t\n      SSTORE \t\t\t\n      POP \t\t\t\n      POP \t\t\t\n      POP \t\t\t\n    tag 371\t\t\t\n      JUMPDEST \t\t\t\n      POP \t\t\t\n      POP \t\t\t\n      POP \t\t\t\n      POP \t\t\t\n      POP \t\t\t\n      POP \t\t\t\n      JUMP \t\t\t\n    tag 50\t\t\t\n      JUMPDEST \t\t\t\n      PUSH 0\t\t\t\n      PUSH 60\t\t\t\n      DUP3 \t\t\t\n      ADD \t\t\t\n      SWAP1 \t\t\t\n      POP \t\t\t\n      DUP2 \t\t\t\n      DUP2 \t\t\t\n      SUB \t\t\t\n      PUSH 0\t\t\t\n      DUP4 \t\t\t\n      ADD \t\t\t\n      MSTORE \t\t\t\n      PUSH [tag] 382\t\t\t\n      DUP2 \t\t\t\n      DUP7 \t\t\t\n      PUSH [tag] 135\t\t\t\n      JUMP \t\t\t\n    tag 382\t\t\t\n      JUMPDEST \t\t\t\n      SWAP1 \t\t\t\n      POP \t\t\t\n      PUSH [tag] 383\t\t\t\n      PUSH 20\t\t\t\n      DUP4 \t\t\t\n      ADD \t\t\t\n      DUP6 \t\t\t\n      PUSH [tag] 133\t\t\t\n      JUMP \t\t\t\n    tag 383\t\t\t\n      JUMPDEST \t\t\t\n      DUP2 \t\t\t\n      DUP2 \t\t\t\n      SUB \t\t\t\n      PUSH 40\t\t\t\n      DUP4 \t\t\t\n      ADD \t\t\t\n      MSTORE \t\t\t\n      PUSH [tag] 384\t\t\t\n      DUP2 \t\t\t\n      DUP5 \t\t\t\n      PUSH [tag] 135\t\t\t\n      JUMP \t\t\t\n    tag 384\t\t\t\n      JUMPDEST \t\t\t\n      SWAP1 \t\t\t\n      POP \t\t\t\n      SWAP5 \t\t\t\n      SWAP4 \t\t\t\n      POP \t\t\t\n      POP \t\t\t\n      POP \t\t\t\n      POP \t\t\t\n      JUMP \t\t\t\n    tag 164\t\t\t\n      JUMPDEST \t\t\t\n      PUSH 4E487B7100000000000000000000000000000000000000000000000000000000\t\t\t\n      PUSH 0\t\t\t\n      MSTORE \t\t\t\n      PUSH 11\t\t\t\n      PUSH 4\t\t\t\n      MSTORE \t\t\t\n      PUSH 24\t\t\t\n      PUSH 0\t\t\t\n      REVERT \t\t\t\n    tag 52\t\t\t\n      JUMPDEST \t\t\t\n      PUSH 0\t\t\t\n      PUSH [tag] 387\t\t\t\n      DUP3 \t\t\t\n      PUSH [tag] 111\t\t\t\n      JUMP \t\t\t\n    tag 387\t\t\t\n      JUMPDEST \t\t\t\n      SWAP2 \t\t\t\n      POP \t\t\t\n      PUSH FFFFFFFFFFFFFFFFFFFFFFFFFFFFFFFFFFFFFFFFFFFFFFFFFFFFFFFFFFFFFFFF\t\t\t\n      DUP3 \t\t\t\n      SUB \t\t\t\n      PUSH [tag] 388\t\t\t\n      JUMPI \t\t\t\n      PUSH [tag] 389\t\t\t\n      PUSH [tag] 164\t\t\t\n      JUMP \t\t\t\n    tag 389\t\t\t\n      JUMPDEST \t\t\t\n    tag 388\t\t\t\n      JUMPDEST \t\t\t\n      PUSH 1\t\t\t\n      DUP3 \t\t\t\n      ADD \t\t\t\n      SWAP1 \t\t\t\n      POP \t\t\t\n      SWAP2 \t\t\t\n      SWAP1 \t\t\t\n      POP \t\t\t\n      JUMP \t\t\t\n    tag 77\t\t\t\n      JUMPDEST \t\t\t\n      PUSH 4E487B7100000000000000000000000000000000000000000000000000000000\t\t\t\n      PUSH 0\t\t\t\n      MSTORE \t\t\t\n      PUSH 32\t\t\t\n      PUSH 4\t\t\t\n      MSTORE \t\t\t\n      PUSH 24\t\t\t\n      PUSH 0\t\t\t\n      REVERT \t\t\t\n    tag 165\t\t\t\n      JUMPDEST \t\t\t\n      PUSH 4F6E6C7920746865206F776E65722063616E20706572666F726D207468697320\t\t\t\n      PUSH 0\t\t\t\n      DUP3 \t\t\t\n      ADD \t\t\t\n      MSTORE \t\t\t\n      PUSH 616374696F6E0000000000000000000000000000000000000000000000000000\t\t\t\n      PUSH 20\t\t\t\n      DUP3 \t\t\t\n      ADD \t\t\t\n      MSTORE \t\t\t\n      POP \t\t\t\n      JUMP \t\t\t\n    tag 166\t\t\t\n      JUMPDEST \t\t\t\n      PUSH 0\t\t\t\n      PUSH [tag] 393\t\t\t\n      PUSH 26\t\t\t\n      DUP4 \t\t\t\n      PUSH [tag] 134\t\t\t\n      JUMP \t\t\t\n    tag 393\t\t\t\n      JUMPDEST \t\t\t\n      SWAP2 \t\t\t\n      POP \t\t\t\n      PUSH [tag] 394\t\t\t\n      DUP3 \t\t\t\n      PUSH [tag] 165\t\t\t\n      JUMP \t\t\t\n    tag 394\t\t\t\n      JUMPDEST \t\t\t\n      PUSH 40\t\t\t\n      DUP3 \t\t\t\n      ADD \t\t\t\n      SWAP1 \t\t\t\n      POP \t\t\t\n      SWAP2 \t\t\t\n      SWAP1 \t\t\t\n      POP \t\t\t\n      JUMP \t\t\t\n    tag 81\t\t\t\n      JUMPDEST \t\t\t\n      PUSH 0\t\t\t\n      PUSH 20\t\t\t\n      DUP3 \t\t\t\n      ADD \t\t\t\n      SWAP1 \t\t\t\n      POP \t\t\t\n      DUP2 \t\t\t\n      DUP2 \t\t\t\n      SUB \t\t\t\n      PUSH 0\t\t\t\n      DUP4 \t\t\t\n      ADD \t\t\t\n      MSTORE \t\t\t\n      PUSH [tag] 396\t\t\t\n      DUP2 \t\t\t\n      PUSH [tag] 166\t\t\t\n      JUMP \t\t\t\n    tag 396\t\t\t\n      JUMPDEST \t\t\t\n      SWAP1 \t\t\t\n      POP \t\t\t\n      SWAP2 \t\t\t\n      SWAP1 \t\t\t\n      POP \t\t\t\n      JUMP \t\t\t\n    tag 167\t\t\t\n      JUMPDEST \t\t\t\n      PUSH 4C616E6420494420697320696E76616C69640000000000000000000000000000\t\t\t\n      PUSH 0\t\t\t\n      DUP3 \t\t\t\n      ADD \t\t\t\n      MSTORE \t\t\t\n      POP \t\t\t\n      JUMP \t\t\t\n    tag 168\t\t\t\n      JUMPDEST \t\t\t\n      PUSH 0\t\t\t\n      PUSH [tag] 399\t\t\t\n      PUSH 12\t\t\t\n      DUP4 \t\t\t\n      PUSH [tag] 134\t\t\t\n      JUMP \t\t\t\n    tag 399\t\t\t\n      JUMPDEST \t\t\t\n      SWAP2 \t\t\t\n      POP \t\t\t\n      PUSH [tag] 400\t\t\t\n      DUP3 \t\t\t\n      PUSH [tag] 167\t\t\t\n      JUMP \t\t\t\n    tag 400\t\t\t\n      JUMPDEST \t\t\t\n      PUSH 20\t\t\t\n      DUP3 \t\t\t\n      ADD \t\t\t\n      SWAP1 \t\t\t\n      POP \t\t\t\n      SWAP2 \t\t\t\n      SWAP1 \t\t\t\n      POP \t\t\t\n      JUMP \t\t\t\n    tag 85\t\t\t\n      JUMPDEST \t\t\t\n      PUSH 0\t\t\t\n      PUSH 20\t\t\t\n      DUP3 \t\t\t\n      ADD \t\t\t\n      SWAP1 \t\t\t\n      POP \t\t\t\n      DUP2 \t\t\t\n      DUP2 \t\t\t\n      SUB \t\t\t\n      PUSH 0\t\t\t\n      DUP4 \t\t\t\n      ADD \t\t\t\n      MSTORE \t\t\t\n      PUSH [tag] 402\t\t\t\n      DUP2 \t\t\t\n      PUSH [tag] 168\t\t\t\n      JUMP \t\t\t\n    tag 402\t\t\t\n      JUMPDEST \t\t\t\n      SWAP1 \t\t\t\n      POP \t\t\t\n      SWAP2 \t\t\t\n      SWAP1 \t\t\t\n      POP \t\t\t\n      JUMP \t\t\t\n    tag 169\t\t\t\n      JUMPDEST \t\t\t\n      PUSH 4E6577206F776E65722061646472657373206973207265717569726564000000\t\t\t\n      PUSH 0\t\t\t\n      DUP3 \t\t\t\n      ADD \t\t\t\n      MSTORE \t\t\t\n      POP \t\t\t\n      JUMP \t\t\t\n    tag 170\t\t\t\n      JUMPDEST \t\t\t\n      PUSH 0\t\t\t\n      PUSH [tag] 405\t\t\t\n      PUSH 1D\t\t\t\n      DUP4 \t\t\t\n      PUSH [tag] 134\t\t\t\n      JUMP \t\t\t\n    tag 405\t\t\t\n      JUMPDEST \t\t\t\n      SWAP2 \t\t\t\n      POP \t\t\t\n      PUSH [tag] 406\t\t\t\n      DUP3 \t\t\t\n      PUSH [tag] 169\t\t\t\n      JUMP \t\t\t\n    tag 406\t\t\t\n      JUMPDEST \t\t\t\n      PUSH 20\t\t\t\n      DUP3 \t\t\t\n      ADD \t\t\t\n      SWAP1 \t\t\t\n      POP \t\t\t\n      SWAP2 \t\t\t\n      SWAP1 \t\t\t\n      POP \t\t\t\n      JUMP \t\t\t\n    tag 88\t\t\t\n      JUMPDEST \t\t\t\n      PUSH 0\t\t\t\n      PUSH 20\t\t\t\n      DUP3 \t\t\t\n      ADD \t\t\t\n      SWAP1 \t\t\t\n      POP \t\t\t\n      DUP2 \t\t\t\n      DUP2 \t\t\t\n      SUB \t\t\t\n      PUSH 0\t\t\t\n      DUP4 \t\t\t\n      ADD \t\t\t\n      MSTORE \t\t\t\n      PUSH [tag] 408\t\t\t\n      DUP2 \t\t\t\n      PUSH [tag] 170\t\t\t\n      JUMP \t\t\t\n    tag 408\t\t\t\n      JUMPDEST \t\t\t\n      SWAP1 \t\t\t\n      POP \t\t\t\n      SWAP2 \t\t\t\n      SWAP1 \t\t\t\n      POP \t\t\t\n      JUMP \t\t\t\n    .data\n"
}