{
	"compilerInput": "{\"language\":\"Solidity\",\"sources\":{\"contracts/reg.sol\":{\"content\":\"// SPDX-License-Identifier: MIT\\r\\npragma solidity ^0.8.0;\\r\\n\\r\\ncontract LandRegistry {\\r\\n    struct Land {\\r\\n        string location;\\r\\n        uint256 size;\\r\\n        address owner;\\r\\n        string documentHash;\\r\\n        string latitude; // New property for latitude\\r\\n        string longitude; // New property for longitude\\r\\n        bool exists; // Track if the land is already registered\\r\\n    }\\r\\n\\r\\n    mapping(uint256 => Land) public lands;\\r\\n    mapping(string => bool) private registeredDocumentHashes; // Mapping to track registered document hashes\\r\\n    uint256 public landCount;\\r\\n\\r\\n    event LandRegistered(uint256 indexed landId, string location, uint256 size, address indexed owner, string documentHash, string latitude, string longitude);\\r\\n    event LandTransferred(uint256 indexed landId, address indexed oldOwner, address indexed newOwner);\\r\\n\\r\\n    // Modifier to check if the caller is the owner of the land\\r\\n    modifier onlyOwner(uint256 _landId) {\\r\\n        require(msg.sender == lands[_landId].owner, \\\"Only the owner can perform this action\\\");\\r\\n        _;\\r\\n    }\\r\\n\\r\\n    // Register a new land in the system\\r\\n    function registerLand(\\r\\n        string memory _location,\\r\\n        uint256 _size,\\r\\n        string memory _documentHash,\\r\\n        string memory _latitude, // New parameter for latitude\\r\\n        string memory _longitude // New parameter for longitude\\r\\n    ) public {\\r\\n        require(bytes(_location).length > 0, \\\"Location is required\\\");\\r\\n        require(_size > 0, \\\"Size must be greater than zero\\\");\\r\\n        require(bytes(_documentHash).length > 0, \\\"Document hash is required\\\");\\r\\n        require(bytes(_latitude).length > 0, \\\"Latitude is required\\\"); // Validate latitude\\r\\n        require(bytes(_longitude).length > 0, \\\"Longitude is required\\\"); // Validate longitude\\r\\n\\r\\n        // Check for duplicate document hash using the mapping\\r\\n        require(!registeredDocumentHashes[_documentHash], \\\"This land is already registered\\\");\\r\\n\\r\\n        lands[landCount] = Land(_location, _size, msg.sender, _documentHash, _latitude, _longitude, true);\\r\\n        registeredDocumentHashes[_documentHash] = true; // Mark the document hash as registered\\r\\n\\r\\n        emit LandRegistered(landCount, _location, _size, msg.sender, _documentHash, _latitude, _longitude);\\r\\n        landCount++;\\r\\n    }\\r\\n\\r\\n    // Transfer land ownership to a new owner\\r\\n    function transferLand(uint256 _landId, address _newOwner) public onlyOwner(_landId) {\\r\\n        require(_landId < landCount, \\\"Land ID is invalid\\\");\\r\\n        require(_newOwner != address(0), \\\"New owner address is required\\\");\\r\\n\\r\\n        address oldOwner = lands[_landId].owner;\\r\\n        lands[_landId].owner = _newOwner;\\r\\n\\r\\n        emit LandTransferred(_landId, oldOwner, _newOwner);\\r\\n    }\\r\\n\\r\\n    // View all registered lands\\r\\n    function getAllLands() public view returns (Land[] memory) {\\r\\n        Land[] memory allLands = new Land[](landCount);\\r\\n\\r\\n        for (uint256 i = 0; i < landCount; i++) {\\r\\n            Land storage land = lands[i];\\r\\n            allLands[i] = land;\\r\\n        }\\r\\n\\r\\n        return allLands;\\r\\n    }\\r\\n}\\r\\n\"}},\"settings\":{\"optimizer\":{\"enabled\":false,\"runs\":200},\"outputSelection\":{\"*\":{\"\":[\"ast\"],\"*\":[\"abi\",\"metadata\",\"devdoc\",\"userdoc\",\"storageLayout\",\"evm.legacyAssembly\",\"evm.bytecode\",\"evm.deployedBytecode\",\"evm.methodIdentifiers\",\"evm.gasEstimates\",\"evm.assembly\"]}},\"remappings\":[]}}",
	"name": "LandRegistry",
	"bytecode": {
		"linkReferences": {},
		"object": "608060405234801561001057600080fd5b50611c75806100206000396000f3fe608060405234801561001057600080fd5b50600436106100575760003560e01c80632e7d68401461005c578063b7b6e54314610078578063c798ff7d14610096578063d7bce658146100b2578063e261f1e5146100d0575b600080fd5b61007660048036038101906100719190610ee7565b610106565b005b61008061049f565b60405161008d919061122f565b60405180910390f35b6100b060048036038101906100ab919061127d565b610827565b005b6100ba610a6d565b6040516100c791906112cc565b60405180910390f35b6100ea60048036038101906100e591906112e7565b610a73565b6040516100fd979695949392919061137c565b60405180910390f35b600085511161014a576040517f08c379a000000000000000000000000000000000000000000000000000000000815260040161014190611453565b60405180910390fd5b6000841161018d576040517f08c379a0000000000000000000000000000000000000000000000000000000008152600401610184906114bf565b60405180910390fd5b60008351116101d1576040517f08c379a00000000000000000000000000000000000000000000000000000000081526004016101c89061152b565b60405180910390fd5b6000825111610215576040517f08c379a000000000000000000000000000000000000000000000000000000000815260040161020c90611597565b60405180910390fd5b6000815111610259576040517f08c379a000000000000000000000000000000000000000000000000000000000815260040161025090611603565b60405180910390fd5b600183604051610269919061165f565b908152602001604051809103902060009054906101000a900460ff16156102c5576040517f08c379a00000000000000000000000000000000000000000000000000000000081526004016102bc906116c2565b60405180910390fd5b6040518060e001604052808681526020018581526020013373ffffffffffffffffffffffffffffffffffffffff168152602001848152602001838152602001828152602001600115158152506000806002548152602001908152602001600020600082015181600001908161033a91906118ee565b506020820151816001015560408201518160020160006101000a81548173ffffffffffffffffffffffffffffffffffffffff021916908373ffffffffffffffffffffffffffffffffffffffff16021790555060608201518160030190816103a191906118ee565b5060808201518160040190816103b791906118ee565b5060a08201518160050190816103cd91906118ee565b5060c08201518160060160006101000a81548160ff02191690831515021790555090505060018084604051610402919061165f565b908152602001604051809103902060006101000a81548160ff0219169083151502179055503373ffffffffffffffffffffffffffffffffffffffff166002547f291cc4d7438d72c7ac86127a5aee9737efa86872da9d572a94bc53cfe4a11dc487878787876040516104789594939291906119c0565b60405180910390a36002600081548092919061049390611a5e565b91905055505050505050565b6060600060025467ffffffffffffffff8111156104bf576104be610d86565b5b6040519080825280602002602001820160405280156104f857816020015b6104e5610d02565b8152602001906001900390816104dd5790505b50905060005b60025481101561081f5760008060008381526020019081526020016000209050806040518060e001604052908160008201805461053a90611711565b80601f016020809104026020016040519081016040528092919081815260200182805461056690611711565b80156105b35780601f10610588576101008083540402835291602001916105b3565b820191906000526020600020905b81548152906001019060200180831161059657829003601f168201915b50505050508152602001600182015481526020016002820160009054906101000a900473ffffffffffffffffffffffffffffffffffffffff1673ffffffffffffffffffffffffffffffffffffffff1673ffffffffffffffffffffffffffffffffffffffff16815260200160038201805461062c90611711565b80601f016020809104026020016040519081016040528092919081815260200182805461065890611711565b80156106a55780601f1061067a576101008083540402835291602001916106a5565b820191906000526020600020905b81548152906001019060200180831161068857829003601f168201915b505050505081526020016004820180546106be90611711565b80601f01602080910402602001604051908101604052809291908181526020018280546106ea90611711565b80156107375780601f1061070c57610100808354040283529160200191610737565b820191906000526020600020905b81548152906001019060200180831161071a57829003601f168201915b5050505050815260200160058201805461075090611711565b80601f016020809104026020016040519081016040528092919081815260200182805461077c90611711565b80156107c95780601f1061079e576101008083540402835291602001916107c9565b820191906000526020600020905b8154815290600101906020018083116107ac57829003601f168201915b505050505081526020016006820160009054906101000a900460ff161515151581525050838381518110610800576107ff611aa6565b5b602002602001018190525050808061081790611a5e565b9150506104fe565b508091505090565b8160008082815260200190815260200160002060020160009054906101000a900473ffffffffffffffffffffffffffffffffffffffff1673ffffffffffffffffffffffffffffffffffffffff163373ffffffffffffffffffffffffffffffffffffffff16146108cb576040517f08c379a00000000000000000000000000000000000000000000000000000000081526004016108c290611b47565b60405180910390fd5b600254831061090f576040517f08c379a000000000000000000000000000000000000000000000000000000000815260040161090690611bb3565b60405180910390fd5b600073ffffffffffffffffffffffffffffffffffffffff168273ffffffffffffffffffffffffffffffffffffffff160361097e576040517f08c379a000000000000000000000000000000000000000000000000000000000815260040161097590611c1f565b60405180910390fd5b600080600085815260200190815260200160002060020160009054906101000a900473ffffffffffffffffffffffffffffffffffffffff1690508260008086815260200190815260200160002060020160006101000a81548173ffffffffffffffffffffffffffffffffffffffff021916908373ffffffffffffffffffffffffffffffffffffffff1602179055508273ffffffffffffffffffffffffffffffffffffffff168173ffffffffffffffffffffffffffffffffffffffff16857f1080b2f211753e5090f26ef7ffdc6bb3e66a125c7290200d10b502160bb1f56660405160405180910390a450505050565b60025481565b6000602052806000526040600020600091509050806000018054610a9690611711565b80601f0160208091040260200160405190810160405280929190818152602001828054610ac290611711565b8015610b0f5780601f10610ae457610100808354040283529160200191610b0f565b820191906000526020600020905b815481529060010190602001808311610af257829003601f168201915b5050505050908060010154908060020160009054906101000a900473ffffffffffffffffffffffffffffffffffffffff1690806003018054610b5090611711565b80601f0160208091040260200160405190810160405280929190818152602001828054610b7c90611711565b8015610bc95780601f10610b9e57610100808354040283529160200191610bc9565b820191906000526020600020905b815481529060010190602001808311610bac57829003601f168201915b505050505090806004018054610bde90611711565b80601f0160208091040260200160405190810160405280929190818152602001828054610c0a90611711565b8015610c575780601f10610c2c57610100808354040283529160200191610c57565b820191906000526020600020905b815481529060010190602001808311610c3a57829003601f168201915b505050505090806005018054610c6c90611711565b80601f0160208091040260200160405190810160405280929190818152602001828054610c9890611711565b8015610ce55780601f10610cba57610100808354040283529160200191610ce5565b820191906000526020600020905b815481529060010190602001808311610cc857829003601f168201915b5050505050908060060160009054906101000a900460ff16905087565b6040518060e001604052806060815260200160008152602001600073ffffffffffffffffffffffffffffffffffffffff1681526020016060815260200160608152602001606081526020016000151581525090565b6000604051905090565b600080fd5b600080fd5b600080fd5b600080fd5b6000601f19601f8301169050919050565b7f4e487b7100000000000000000000000000000000000000000000000000000000600052604160045260246000fd5b610dbe82610d75565b810181811067ffffffffffffffff82111715610ddd57610ddc610d86565b5b80604052505050565b6000610df0610d57565b9050610dfc8282610db5565b919050565b600067ffffffffffffffff821115610e1c57610e1b610d86565b5b610e2582610d75565b9050602081019050919050565b82818337600083830152505050565b6000610e54610e4f84610e01565b610de6565b905082815260208101848484011115610e7057610e6f610d70565b5b610e7b848285610e32565b509392505050565b600082601f830112610e9857610e97610d6b565b5b8135610ea8848260208601610e41565b91505092915050565b6000819050919050565b610ec481610eb1565b8114610ecf57600080fd5b50565b600081359050610ee181610ebb565b92915050565b600080600080600060a08688031215610f0357610f02610d61565b5b600086013567ffffffffffffffff811115610f2157610f20610d66565b5b610f2d88828901610e83565b9550506020610f3e88828901610ed2565b945050604086013567ffffffffffffffff811115610f5f57610f5e610d66565b5b610f6b88828901610e83565b935050606086013567ffffffffffffffff811115610f8c57610f8b610d66565b5b610f9888828901610e83565b925050608086013567ffffffffffffffff811115610fb957610fb8610d66565b5b610fc588828901610e83565b9150509295509295909350565b600081519050919050565b600082825260208201905092915050565b6000819050602082019050919050565b600081519050919050565b600082825260208201905092915050565b60005b8381101561103857808201518184015260208101905061101d565b60008484015250505050565b600061104f82610ffe565b6110598185611009565b935061106981856020860161101a565b61107281610d75565b840191505092915050565b61108681610eb1565b82525050565b600073ffffffffffffffffffffffffffffffffffffffff82169050919050565b60006110b78261108c565b9050919050565b6110c7816110ac565b82525050565b60008115159050919050565b6110e2816110cd565b82525050565b600060e08301600083015184820360008601526111058282611044565b915050602083015161111a602086018261107d565b50604083015161112d60408601826110be565b50606083015184820360608601526111458282611044565b9150506080830151848203608086015261115f8282611044565b91505060a083015184820360a08601526111798282611044565b91505060c083015161118e60c08601826110d9565b508091505092915050565b60006111a583836110e8565b905092915050565b6000602082019050919050565b60006111c582610fd2565b6111cf8185610fdd565b9350836020820285016111e185610fee565b8060005b8581101561121d57848403895281516111fe8582611199565b9450611209836111ad565b925060208a019950506001810190506111e5565b50829750879550505050505092915050565b6000602082019050818103600083015261124981846111ba565b905092915050565b61125a816110ac565b811461126557600080fd5b50565b60008135905061127781611251565b92915050565b6000806040838503121561129457611293610d61565b5b60006112a285828601610ed2565b92505060206112b385828601611268565b9150509250929050565b6112c681610eb1565b82525050565b60006020820190506112e160008301846112bd565b92915050565b6000602082840312156112fd576112fc610d61565b5b600061130b84828501610ed2565b91505092915050565b600082825260208201905092915050565b600061133082610ffe565b61133a8185611314565b935061134a81856020860161101a565b61135381610d75565b840191505092915050565b611367816110ac565b82525050565b611376816110cd565b82525050565b600060e0820190508181036000830152611396818a611325565b90506113a560208301896112bd565b6113b2604083018861135e565b81810360608301526113c48187611325565b905081810360808301526113d88186611325565b905081810360a08301526113ec8185611325565b90506113fb60c083018461136d565b98975050505050505050565b7f4c6f636174696f6e206973207265717569726564000000000000000000000000600082015250565b600061143d601483611314565b915061144882611407565b602082019050919050565b6000602082019050818103600083015261146c81611430565b9050919050565b7f53697a65206d7573742062652067726561746572207468616e207a65726f0000600082015250565b60006114a9601e83611314565b91506114b482611473565b602082019050919050565b600060208201905081810360008301526114d88161149c565b9050919050565b7f446f63756d656e74206861736820697320726571756972656400000000000000600082015250565b6000611515601983611314565b9150611520826114df565b602082019050919050565b6000602082019050818103600083015261154481611508565b9050919050565b7f4c61746974756465206973207265717569726564000000000000000000000000600082015250565b6000611581601483611314565b915061158c8261154b565b602082019050919050565b600060208201905081810360008301526115b081611574565b9050919050565b7f4c6f6e6769747564652069732072657175697265640000000000000000000000600082015250565b60006115ed601583611314565b91506115f8826115b7565b602082019050919050565b6000602082019050818103600083015261161c816115e0565b9050919050565b600081905092915050565b600061163982610ffe565b6116438185611623565b935061165381856020860161101a565b80840191505092915050565b600061166b828461162e565b915081905092915050565b7f54686973206c616e6420697320616c7265616479207265676973746572656400600082015250565b60006116ac601f83611314565b91506116b782611676565b602082019050919050565b600060208201905081810360008301526116db8161169f565b9050919050565b7f4e487b7100000000000000000000000000000000000000000000000000000000600052602260045260246000fd5b6000600282049050600182168061172957607f821691505b60208210810361173c5761173b6116e2565b5b50919050565b60008190508160005260206000209050919050565b60006020601f8301049050919050565b600082821b905092915050565b6000600883026117a47fffffffffffffffffffffffffffffffffffffffffffffffffffffffffffffffff82611767565b6117ae8683611767565b95508019841693508086168417925050509392505050565b6000819050919050565b60006117eb6117e66117e184610eb1565b6117c6565b610eb1565b9050919050565b6000819050919050565b611805836117d0565b611819611811826117f2565b848454611774565b825550505050565b600090565b61182e611821565b6118398184846117fc565b505050565b5b8181101561185d57611852600082611826565b60018101905061183f565b5050565b601f8211156118a25761187381611742565b61187c84611757565b8101602085101561188b578190505b61189f61189785611757565b83018261183e565b50505b505050565b600082821c905092915050565b60006118c5600019846008026118a7565b1980831691505092915050565b60006118de83836118b4565b9150826002028217905092915050565b6118f782610ffe565b67ffffffffffffffff8111156119105761190f610d86565b5b61191a8254611711565b611925828285611861565b600060209050601f8311600181146119585760008415611946578287015190505b61195085826118d2565b8655506119b8565b601f19841661196686611742565b60005b8281101561198e57848901518255600182019150602085019450602081019050611969565b868310156119ab57848901516119a7601f8916826118b4565b8355505b6001600288020188555050505b505050505050565b600060a08201905081810360008301526119da8188611325565b90506119e960208301876112bd565b81810360408301526119fb8186611325565b90508181036060830152611a0f8185611325565b90508181036080830152611a238184611325565b90509695505050505050565b7f4e487b7100000000000000000000000000000000000000000000000000000000600052601160045260246000fd5b6000611a6982610eb1565b91507fffffffffffffffffffffffffffffffffffffffffffffffffffffffffffffffff8203611a9b57611a9a611a2f565b5b600182019050919050565b7f4e487b7100000000000000000000000000000000000000000000000000000000600052603260045260246000fd5b7f4f6e6c7920746865206f776e65722063616e20706572666f726d20746869732060008201527f616374696f6e0000000000000000000000000000000000000000000000000000602082015250565b6000611b31602683611314565b9150611b3c82611ad5565b604082019050919050565b60006020820190508181036000830152611b6081611b24565b9050919050565b7f4c616e6420494420697320696e76616c69640000000000000000000000000000600082015250565b6000611b9d601283611314565b9150611ba882611b67565b602082019050919050565b60006020820190508181036000830152611bcc81611b90565b9050919050565b7f4e6577206f776e65722061646472657373206973207265717569726564000000600082015250565b6000611c09601d83611314565b9150611c1482611bd3565b602082019050919050565b60006020820190508181036000830152611c3881611bfc565b905091905056fea26469706673582212208505534f8e71dcdb3d608c7bfd5b79a9e6db5d40e2e2d1c7fe12f442a50d3c3264736f6c63430008100033",
		"opcodes": "PUSH1 0x80 PUSH1 0x40 MSTORE CALLVALUE DUP1 ISZERO PUSH2 0x10 JUMPI PUSH1 0x0 DUP1 REVERT JUMPDEST POP PUSH2 0x1C75 DUP1 PUSH2 0x20 PUSH1 0x0 CODECOPY PUSH1 0x0 RETURN INVALID PUSH1 0x80 PUSH1 0x40 MSTORE CALLVALUE DUP1 ISZERO PUSH2 0x10 JUMPI PUSH1 0x0 DUP1 REVERT JUMPDEST POP PUSH1 0x4 CALLDATASIZE LT PUSH2 0x57 JUMPI PUSH1 0x0 CALLDATALOAD PUSH1 0xE0 SHR DUP1 PUSH4 0x2E7D6840 EQ PUSH2 0x5C JUMPI DUP1 PUSH4 0xB7B6E543 EQ PUSH2 0x78 JUMPI DUP1 PUSH4 0xC798FF7D EQ PUSH2 0x96 JUMPI DUP1 PUSH4 0xD7BCE658 EQ PUSH2 0xB2 JUMPI DUP1 PUSH4 0xE261F1E5 EQ PUSH2 0xD0 JUMPI JUMPDEST PUSH1 0x0 DUP1 REVERT JUMPDEST PUSH2 0x76 PUSH1 0x4 DUP1 CALLDATASIZE SUB DUP2 ADD SWAP1 PUSH2 0x71 SWAP2 SWAP1 PUSH2 0xEE7 JUMP JUMPDEST PUSH2 0x106 JUMP JUMPDEST STOP JUMPDEST PUSH2 0x80 PUSH2 0x49F JUMP JUMPDEST PUSH1 0x40 MLOAD PUSH2 0x8D SWAP2 SWAP1 PUSH2 0x122F JUMP JUMPDEST PUSH1 0x40 MLOAD DUP1 SWAP2 SUB SWAP1 RETURN JUMPDEST PUSH2 0xB0 PUSH1 0x4 DUP1 CALLDATASIZE SUB DUP2 ADD SWAP1 PUSH2 0xAB SWAP2 SWAP1 PUSH2 0x127D JUMP JUMPDEST PUSH2 0x827 JUMP JUMPDEST STOP JUMPDEST PUSH2 0xBA PUSH2 0xA6D JUMP JUMPDEST PUSH1 0x40 MLOAD PUSH2 0xC7 SWAP2 SWAP1 PUSH2 0x12CC JUMP JUMPDEST PUSH1 0x40 MLOAD DUP1 SWAP2 SUB SWAP1 RETURN JUMPDEST PUSH2 0xEA PUSH1 0x4 DUP1 CALLDATASIZE SUB DUP2 ADD SWAP1 PUSH2 0xE5 SWAP2 SWAP1 PUSH2 0x12E7 JUMP JUMPDEST PUSH2 0xA73 JUMP JUMPDEST PUSH1 0x40 MLOAD PUSH2 0xFD SWAP8 SWAP7 SWAP6 SWAP5 SWAP4 SWAP3 SWAP2 SWAP1 PUSH2 0x137C JUMP JUMPDEST PUSH1 0x40 MLOAD DUP1 SWAP2 SUB SWAP1 RETURN JUMPDEST PUSH1 0x0 DUP6 MLOAD GT PUSH2 0x14A JUMPI PUSH1 0x40 MLOAD PUSH32 0x8C379A000000000000000000000000000000000000000000000000000000000 DUP2 MSTORE PUSH1 0x4 ADD PUSH2 0x141 SWAP1 PUSH2 0x1453 JUMP JUMPDEST PUSH1 0x40 MLOAD DUP1 SWAP2 SUB SWAP1 REVERT JUMPDEST PUSH1 0x0 DUP5 GT PUSH2 0x18D JUMPI PUSH1 0x40 MLOAD PUSH32 0x8C379A000000000000000000000000000000000000000000000000000000000 DUP2 MSTORE PUSH1 0x4 ADD PUSH2 0x184 SWAP1 PUSH2 0x14BF JUMP JUMPDEST PUSH1 0x40 MLOAD DUP1 SWAP2 SUB SWAP1 REVERT JUMPDEST PUSH1 0x0 DUP4 MLOAD GT PUSH2 0x1D1 JUMPI PUSH1 0x40 MLOAD PUSH32 0x8C379A000000000000000000000000000000000000000000000000000000000 DUP2 MSTORE PUSH1 0x4 ADD PUSH2 0x1C8 SWAP1 PUSH2 0x152B JUMP JUMPDEST PUSH1 0x40 MLOAD DUP1 SWAP2 SUB SWAP1 REVERT JUMPDEST PUSH1 0x0 DUP3 MLOAD GT PUSH2 0x215 JUMPI PUSH1 0x40 MLOAD PUSH32 0x8C379A000000000000000000000000000000000000000000000000000000000 DUP2 MSTORE PUSH1 0x4 ADD PUSH2 0x20C SWAP1 PUSH2 0x1597 JUMP JUMPDEST PUSH1 0x40 MLOAD DUP1 SWAP2 SUB SWAP1 REVERT JUMPDEST PUSH1 0x0 DUP2 MLOAD GT PUSH2 0x259 JUMPI PUSH1 0x40 MLOAD PUSH32 0x8C379A000000000000000000000000000000000000000000000000000000000 DUP2 MSTORE PUSH1 0x4 ADD PUSH2 0x250 SWAP1 PUSH2 0x1603 JUMP JUMPDEST PUSH1 0x40 MLOAD DUP1 SWAP2 SUB SWAP1 REVERT JUMPDEST PUSH1 0x1 DUP4 PUSH1 0x40 MLOAD PUSH2 0x269 SWAP2 SWAP1 PUSH2 0x165F JUMP JUMPDEST SWAP1 DUP2 MSTORE PUSH1 0x20 ADD PUSH1 0x40 MLOAD DUP1 SWAP2 SUB SWAP1 KECCAK256 PUSH1 0x0 SWAP1 SLOAD SWAP1 PUSH2 0x100 EXP SWAP1 DIV PUSH1 0xFF AND ISZERO PUSH2 0x2C5 JUMPI PUSH1 0x40 MLOAD PUSH32 0x8C379A000000000000000000000000000000000000000000000000000000000 DUP2 MSTORE PUSH1 0x4 ADD PUSH2 0x2BC SWAP1 PUSH2 0x16C2 JUMP JUMPDEST PUSH1 0x40 MLOAD DUP1 SWAP2 SUB SWAP1 REVERT JUMPDEST PUSH1 0x40 MLOAD DUP1 PUSH1 0xE0 ADD PUSH1 0x40 MSTORE DUP1 DUP7 DUP2 MSTORE PUSH1 0x20 ADD DUP6 DUP2 MSTORE PUSH1 0x20 ADD CALLER PUSH20 0xFFFFFFFFFFFFFFFFFFFFFFFFFFFFFFFFFFFFFFFF AND DUP2 MSTORE PUSH1 0x20 ADD DUP5 DUP2 MSTORE PUSH1 0x20 ADD DUP4 DUP2 MSTORE PUSH1 0x20 ADD DUP3 DUP2 MSTORE PUSH1 0x20 ADD PUSH1 0x1 ISZERO ISZERO DUP2 MSTORE POP PUSH1 0x0 DUP1 PUSH1 0x2 SLOAD DUP2 MSTORE PUSH1 0x20 ADD SWAP1 DUP2 MSTORE PUSH1 0x20 ADD PUSH1 0x0 KECCAK256 PUSH1 0x0 DUP3 ADD MLOAD DUP2 PUSH1 0x0 ADD SWAP1 DUP2 PUSH2 0x33A SWAP2 SWAP1 PUSH2 0x18EE JUMP JUMPDEST POP PUSH1 0x20 DUP3 ADD MLOAD DUP2 PUSH1 0x1 ADD SSTORE PUSH1 0x40 DUP3 ADD MLOAD DUP2 PUSH1 0x2 ADD PUSH1 0x0 PUSH2 0x100 EXP DUP2 SLOAD DUP2 PUSH20 0xFFFFFFFFFFFFFFFFFFFFFFFFFFFFFFFFFFFFFFFF MUL NOT AND SWAP1 DUP4 PUSH20 0xFFFFFFFFFFFFFFFFFFFFFFFFFFFFFFFFFFFFFFFF AND MUL OR SWAP1 SSTORE POP PUSH1 0x60 DUP3 ADD MLOAD DUP2 PUSH1 0x3 ADD SWAP1 DUP2 PUSH2 0x3A1 SWAP2 SWAP1 PUSH2 0x18EE JUMP JUMPDEST POP PUSH1 0x80 DUP3 ADD MLOAD DUP2 PUSH1 0x4 ADD SWAP1 DUP2 PUSH2 0x3B7 SWAP2 SWAP1 PUSH2 0x18EE JUMP JUMPDEST POP PUSH1 0xA0 DUP3 ADD MLOAD DUP2 PUSH1 0x5 ADD SWAP1 DUP2 PUSH2 0x3CD SWAP2 SWAP1 PUSH2 0x18EE JUMP JUMPDEST POP PUSH1 0xC0 DUP3 ADD MLOAD DUP2 PUSH1 0x6 ADD PUSH1 0x0 PUSH2 0x100 EXP DUP2 SLOAD DUP2 PUSH1 0xFF MUL NOT AND SWAP1 DUP4 ISZERO ISZERO MUL OR SWAP1 SSTORE POP SWAP1 POP POP PUSH1 0x1 DUP1 DUP5 PUSH1 0x40 MLOAD PUSH2 0x402 SWAP2 SWAP1 PUSH2 0x165F JUMP JUMPDEST SWAP1 DUP2 MSTORE PUSH1 0x20 ADD PUSH1 0x40 MLOAD DUP1 SWAP2 SUB SWAP1 KECCAK256 PUSH1 0x0 PUSH2 0x100 EXP DUP2 SLOAD DUP2 PUSH1 0xFF MUL NOT AND SWAP1 DUP4 ISZERO ISZERO MUL OR SWAP1 SSTORE POP CALLER PUSH20 0xFFFFFFFFFFFFFFFFFFFFFFFFFFFFFFFFFFFFFFFF AND PUSH1 0x2 SLOAD PUSH32 0x291CC4D7438D72C7AC86127A5AEE9737EFA86872DA9D572A94BC53CFE4A11DC4 DUP8 DUP8 DUP8 DUP8 DUP8 PUSH1 0x40 MLOAD PUSH2 0x478 SWAP6 SWAP5 SWAP4 SWAP3 SWAP2 SWAP1 PUSH2 0x19C0 JUMP JUMPDEST PUSH1 0x40 MLOAD DUP1 SWAP2 SUB SWAP1 LOG3 PUSH1 0x2 PUSH1 0x0 DUP2 SLOAD DUP1 SWAP3 SWAP2 SWAP1 PUSH2 0x493 SWAP1 PUSH2 0x1A5E JUMP JUMPDEST SWAP2 SWAP1 POP SSTORE POP POP POP POP POP POP JUMP JUMPDEST PUSH1 0x60 PUSH1 0x0 PUSH1 0x2 SLOAD PUSH8 0xFFFFFFFFFFFFFFFF DUP2 GT ISZERO PUSH2 0x4BF JUMPI PUSH2 0x4BE PUSH2 0xD86 JUMP JUMPDEST JUMPDEST PUSH1 0x40 MLOAD SWAP1 DUP1 DUP3 MSTORE DUP1 PUSH1 0x20 MUL PUSH1 0x20 ADD DUP3 ADD PUSH1 0x40 MSTORE DUP1 ISZERO PUSH2 0x4F8 JUMPI DUP2 PUSH1 0x20 ADD JUMPDEST PUSH2 0x4E5 PUSH2 0xD02 JUMP JUMPDEST DUP2 MSTORE PUSH1 0x20 ADD SWAP1 PUSH1 0x1 SWAP1 SUB SWAP1 DUP2 PUSH2 0x4DD JUMPI SWAP1 POP JUMPDEST POP SWAP1 POP PUSH1 0x0 JUMPDEST PUSH1 0x2 SLOAD DUP2 LT ISZERO PUSH2 0x81F JUMPI PUSH1 0x0 DUP1 PUSH1 0x0 DUP4 DUP2 MSTORE PUSH1 0x20 ADD SWAP1 DUP2 MSTORE PUSH1 0x20 ADD PUSH1 0x0 KECCAK256 SWAP1 POP DUP1 PUSH1 0x40 MLOAD DUP1 PUSH1 0xE0 ADD PUSH1 0x40 MSTORE SWAP1 DUP2 PUSH1 0x0 DUP3 ADD DUP1 SLOAD PUSH2 0x53A SWAP1 PUSH2 0x1711 JUMP JUMPDEST DUP1 PUSH1 0x1F ADD PUSH1 0x20 DUP1 SWAP2 DIV MUL PUSH1 0x20 ADD PUSH1 0x40 MLOAD SWAP1 DUP2 ADD PUSH1 0x40 MSTORE DUP1 SWAP3 SWAP2 SWAP1 DUP2 DUP2 MSTORE PUSH1 0x20 ADD DUP3 DUP1 SLOAD PUSH2 0x566 SWAP1 PUSH2 0x1711 JUMP JUMPDEST DUP1 ISZERO PUSH2 0x5B3 JUMPI DUP1 PUSH1 0x1F LT PUSH2 0x588 JUMPI PUSH2 0x100 DUP1 DUP4 SLOAD DIV MUL DUP4 MSTORE SWAP2 PUSH1 0x20 ADD SWAP2 PUSH2 0x5B3 JUMP JUMPDEST DUP3 ADD SWAP2 SWAP1 PUSH1 0x0 MSTORE PUSH1 0x20 PUSH1 0x0 KECCAK256 SWAP1 JUMPDEST DUP2 SLOAD DUP2 MSTORE SWAP1 PUSH1 0x1 ADD SWAP1 PUSH1 0x20 ADD DUP1 DUP4 GT PUSH2 0x596 JUMPI DUP3 SWAP1 SUB PUSH1 0x1F AND DUP3 ADD SWAP2 JUMPDEST POP POP POP POP POP DUP2 MSTORE PUSH1 0x20 ADD PUSH1 0x1 DUP3 ADD SLOAD DUP2 MSTORE PUSH1 0x20 ADD PUSH1 0x2 DUP3 ADD PUSH1 0x0 SWAP1 SLOAD SWAP1 PUSH2 0x100 EXP SWAP1 DIV PUSH20 0xFFFFFFFFFFFFFFFFFFFFFFFFFFFFFFFFFFFFFFFF AND PUSH20 0xFFFFFFFFFFFFFFFFFFFFFFFFFFFFFFFFFFFFFFFF AND PUSH20 0xFFFFFFFFFFFFFFFFFFFFFFFFFFFFFFFFFFFFFFFF AND DUP2 MSTORE PUSH1 0x20 ADD PUSH1 0x3 DUP3 ADD DUP1 SLOAD PUSH2 0x62C SWAP1 PUSH2 0x1711 JUMP JUMPDEST DUP1 PUSH1 0x1F ADD PUSH1 0x20 DUP1 SWAP2 DIV MUL PUSH1 0x20 ADD PUSH1 0x40 MLOAD SWAP1 DUP2 ADD PUSH1 0x40 MSTORE DUP1 SWAP3 SWAP2 SWAP1 DUP2 DUP2 MSTORE PUSH1 0x20 ADD DUP3 DUP1 SLOAD PUSH2 0x658 SWAP1 PUSH2 0x1711 JUMP JUMPDEST DUP1 ISZERO PUSH2 0x6A5 JUMPI DUP1 PUSH1 0x1F LT PUSH2 0x67A JUMPI PUSH2 0x100 DUP1 DUP4 SLOAD DIV MUL DUP4 MSTORE SWAP2 PUSH1 0x20 ADD SWAP2 PUSH2 0x6A5 JUMP JUMPDEST DUP3 ADD SWAP2 SWAP1 PUSH1 0x0 MSTORE PUSH1 0x20 PUSH1 0x0 KECCAK256 SWAP1 JUMPDEST DUP2 SLOAD DUP2 MSTORE SWAP1 PUSH1 0x1 ADD SWAP1 PUSH1 0x20 ADD DUP1 DUP4 GT PUSH2 0x688 JUMPI DUP3 SWAP1 SUB PUSH1 0x1F AND DUP3 ADD SWAP2 JUMPDEST POP POP POP POP POP DUP2 MSTORE PUSH1 0x20 ADD PUSH1 0x4 DUP3 ADD DUP1 SLOAD PUSH2 0x6BE SWAP1 PUSH2 0x1711 JUMP JUMPDEST DUP1 PUSH1 0x1F ADD PUSH1 0x20 DUP1 SWAP2 DIV MUL PUSH1 0x20 ADD PUSH1 0x40 MLOAD SWAP1 DUP2 ADD PUSH1 0x40 MSTORE DUP1 SWAP3 SWAP2 SWAP1 DUP2 DUP2 MSTORE PUSH1 0x20 ADD DUP3 DUP1 SLOAD PUSH2 0x6EA SWAP1 PUSH2 0x1711 JUMP JUMPDEST DUP1 ISZERO PUSH2 0x737 JUMPI DUP1 PUSH1 0x1F LT PUSH2 0x70C JUMPI PUSH2 0x100 DUP1 DUP4 SLOAD DIV MUL DUP4 MSTORE SWAP2 PUSH1 0x20 ADD SWAP2 PUSH2 0x737 JUMP JUMPDEST DUP3 ADD SWAP2 SWAP1 PUSH1 0x0 MSTORE PUSH1 0x20 PUSH1 0x0 KECCAK256 SWAP1 JUMPDEST DUP2 SLOAD DUP2 MSTORE SWAP1 PUSH1 0x1 ADD SWAP1 PUSH1 0x20 ADD DUP1 DUP4 GT PUSH2 0x71A JUMPI DUP3 SWAP1 SUB PUSH1 0x1F AND DUP3 ADD SWAP2 JUMPDEST POP POP POP POP POP DUP2 MSTORE PUSH1 0x20 ADD PUSH1 0x5 DUP3 ADD DUP1 SLOAD PUSH2 0x750 SWAP1 PUSH2 0x1711 JUMP JUMPDEST DUP1 PUSH1 0x1F ADD PUSH1 0x20 DUP1 SWAP2 DIV MUL PUSH1 0x20 ADD PUSH1 0x40 MLOAD SWAP1 DUP2 ADD PUSH1 0x40 MSTORE DUP1 SWAP3 SWAP2 SWAP1 DUP2 DUP2 MSTORE PUSH1 0x20 ADD DUP3 DUP1 SLOAD PUSH2 0x77C SWAP1 PUSH2 0x1711 JUMP JUMPDEST DUP1 ISZERO PUSH2 0x7C9 JUMPI DUP1 PUSH1 0x1F LT PUSH2 0x79E JUMPI PUSH2 0x100 DUP1 DUP4 SLOAD DIV MUL DUP4 MSTORE SWAP2 PUSH1 0x20 ADD SWAP2 PUSH2 0x7C9 JUMP JUMPDEST DUP3 ADD SWAP2 SWAP1 PUSH1 0x0 MSTORE PUSH1 0x20 PUSH1 0x0 KECCAK256 SWAP1 JUMPDEST DUP2 SLOAD DUP2 MSTORE SWAP1 PUSH1 0x1 ADD SWAP1 PUSH1 0x20 ADD DUP1 DUP4 GT PUSH2 0x7AC JUMPI DUP3 SWAP1 SUB PUSH1 0x1F AND DUP3 ADD SWAP2 JUMPDEST POP POP POP POP POP DUP2 MSTORE PUSH1 0x20 ADD PUSH1 0x6 DUP3 ADD PUSH1 0x0 SWAP1 SLOAD SWAP1 PUSH2 0x100 EXP SWAP1 DIV PUSH1 0xFF AND ISZERO ISZERO ISZERO ISZERO DUP2 MSTORE POP POP DUP4 DUP4 DUP2 MLOAD DUP2 LT PUSH2 0x800 JUMPI PUSH2 0x7FF PUSH2 0x1AA6 JUMP JUMPDEST JUMPDEST PUSH1 0x20 MUL PUSH1 0x20 ADD ADD DUP2 SWAP1 MSTORE POP POP DUP1 DUP1 PUSH2 0x817 SWAP1 PUSH2 0x1A5E JUMP JUMPDEST SWAP2 POP POP PUSH2 0x4FE JUMP JUMPDEST POP DUP1 SWAP2 POP POP SWAP1 JUMP JUMPDEST DUP2 PUSH1 0x0 DUP1 DUP3 DUP2 MSTORE PUSH1 0x20 ADD SWAP1 DUP2 MSTORE PUSH1 0x20 ADD PUSH1 0x0 KECCAK256 PUSH1 0x2 ADD PUSH1 0x0 SWAP1 SLOAD SWAP1 PUSH2 0x100 EXP SWAP1 DIV PUSH20 0xFFFFFFFFFFFFFFFFFFFFFFFFFFFFFFFFFFFFFFFF AND PUSH20 0xFFFFFFFFFFFFFFFFFFFFFFFFFFFFFFFFFFFFFFFF AND CALLER PUSH20 0xFFFFFFFFFFFFFFFFFFFFFFFFFFFFFFFFFFFFFFFF AND EQ PUSH2 0x8CB JUMPI PUSH1 0x40 MLOAD PUSH32 0x8C379A000000000000000000000000000000000000000000000000000000000 DUP2 MSTORE PUSH1 0x4 ADD PUSH2 0x8C2 SWAP1 PUSH2 0x1B47 JUMP JUMPDEST PUSH1 0x40 MLOAD DUP1 SWAP2 SUB SWAP1 REVERT JUMPDEST PUSH1 0x2 SLOAD DUP4 LT PUSH2 0x90F JUMPI PUSH1 0x40 MLOAD PUSH32 0x8C379A000000000000000000000000000000000000000000000000000000000 DUP2 MSTORE PUSH1 0x4 ADD PUSH2 0x906 SWAP1 PUSH2 0x1BB3 JUMP JUMPDEST PUSH1 0x40 MLOAD DUP1 SWAP2 SUB SWAP1 REVERT JUMPDEST PUSH1 0x0 PUSH20 0xFFFFFFFFFFFFFFFFFFFFFFFFFFFFFFFFFFFFFFFF AND DUP3 PUSH20 0xFFFFFFFFFFFFFFFFFFFFFFFFFFFFFFFFFFFFFFFF AND SUB PUSH2 0x97E JUMPI PUSH1 0x40 MLOAD PUSH32 0x8C379A000000000000000000000000000000000000000000000000000000000 DUP2 MSTORE PUSH1 0x4 ADD PUSH2 0x975 SWAP1 PUSH2 0x1C1F JUMP JUMPDEST PUSH1 0x40 MLOAD DUP1 SWAP2 SUB SWAP1 REVERT JUMPDEST PUSH1 0x0 DUP1 PUSH1 0x0 DUP6 DUP2 MSTORE PUSH1 0x20 ADD SWAP1 DUP2 MSTORE PUSH1 0x20 ADD PUSH1 0x0 KECCAK256 PUSH1 0x2 ADD PUSH1 0x0 SWAP1 SLOAD SWAP1 PUSH2 0x100 EXP SWAP1 DIV PUSH20 0xFFFFFFFFFFFFFFFFFFFFFFFFFFFFFFFFFFFFFFFF AND SWAP1 POP DUP3 PUSH1 0x0 DUP1 DUP7 DUP2 MSTORE PUSH1 0x20 ADD SWAP1 DUP2 MSTORE PUSH1 0x20 ADD PUSH1 0x0 KECCAK256 PUSH1 0x2 ADD PUSH1 0x0 PUSH2 0x100 EXP DUP2 SLOAD DUP2 PUSH20 0xFFFFFFFFFFFFFFFFFFFFFFFFFFFFFFFFFFFFFFFF MUL NOT AND SWAP1 DUP4 PUSH20 0xFFFFFFFFFFFFFFFFFFFFFFFFFFFFFFFFFFFFFFFF AND MUL OR SWAP1 SSTORE POP DUP3 PUSH20 0xFFFFFFFFFFFFFFFFFFFFFFFFFFFFFFFFFFFFFFFF AND DUP2 PUSH20 0xFFFFFFFFFFFFFFFFFFFFFFFFFFFFFFFFFFFFFFFF AND DUP6 PUSH32 0x1080B2F211753E5090F26EF7FFDC6BB3E66A125C7290200D10B502160BB1F566 PUSH1 0x40 MLOAD PUSH1 0x40 MLOAD DUP1 SWAP2 SUB SWAP1 LOG4 POP POP POP POP JUMP JUMPDEST PUSH1 0x2 SLOAD DUP2 JUMP JUMPDEST PUSH1 0x0 PUSH1 0x20 MSTORE DUP1 PUSH1 0x0 MSTORE PUSH1 0x40 PUSH1 0x0 KECCAK256 PUSH1 0x0 SWAP2 POP SWAP1 POP DUP1 PUSH1 0x0 ADD DUP1 SLOAD PUSH2 0xA96 SWAP1 PUSH2 0x1711 JUMP JUMPDEST DUP1 PUSH1 0x1F ADD PUSH1 0x20 DUP1 SWAP2 DIV MUL PUSH1 0x20 ADD PUSH1 0x40 MLOAD SWAP1 DUP2 ADD PUSH1 0x40 MSTORE DUP1 SWAP3 SWAP2 SWAP1 DUP2 DUP2 MSTORE PUSH1 0x20 ADD DUP3 DUP1 SLOAD PUSH2 0xAC2 SWAP1 PUSH2 0x1711 JUMP JUMPDEST DUP1 ISZERO PUSH2 0xB0F JUMPI DUP1 PUSH1 0x1F LT PUSH2 0xAE4 JUMPI PUSH2 0x100 DUP1 DUP4 SLOAD DIV MUL DUP4 MSTORE SWAP2 PUSH1 0x20 ADD SWAP2 PUSH2 0xB0F JUMP JUMPDEST DUP3 ADD SWAP2 SWAP1 PUSH1 0x0 MSTORE PUSH1 0x20 PUSH1 0x0 KECCAK256 SWAP1 JUMPDEST DUP2 SLOAD DUP2 MSTORE SWAP1 PUSH1 0x1 ADD SWAP1 PUSH1 0x20 ADD DUP1 DUP4 GT PUSH2 0xAF2 JUMPI DUP3 SWAP1 SUB PUSH1 0x1F AND DUP3 ADD SWAP2 JUMPDEST POP POP POP POP POP SWAP1 DUP1 PUSH1 0x1 ADD SLOAD SWAP1 DUP1 PUSH1 0x2 ADD PUSH1 0x0 SWAP1 SLOAD SWAP1 PUSH2 0x100 EXP SWAP1 DIV PUSH20 0xFFFFFFFFFFFFFFFFFFFFFFFFFFFFFFFFFFFFFFFF AND SWAP1 DUP1 PUSH1 0x3 ADD DUP1 SLOAD PUSH2 0xB50 SWAP1 PUSH2 0x1711 JUMP JUMPDEST DUP1 PUSH1 0x1F ADD PUSH1 0x20 DUP1 SWAP2 DIV MUL PUSH1 0x20 ADD PUSH1 0x40 MLOAD SWAP1 DUP2 ADD PUSH1 0x40 MSTORE DUP1 SWAP3 SWAP2 SWAP1 DUP2 DUP2 MSTORE PUSH1 0x20 ADD DUP3 DUP1 SLOAD PUSH2 0xB7C SWAP1 PUSH2 0x1711 JUMP JUMPDEST DUP1 ISZERO PUSH2 0xBC9 JUMPI DUP1 PUSH1 0x1F LT PUSH2 0xB9E JUMPI PUSH2 0x100 DUP1 DUP4 SLOAD DIV MUL DUP4 MSTORE SWAP2 PUSH1 0x20 ADD SWAP2 PUSH2 0xBC9 JUMP JUMPDEST DUP3 ADD SWAP2 SWAP1 PUSH1 0x0 MSTORE PUSH1 0x20 PUSH1 0x0 KECCAK256 SWAP1 JUMPDEST DUP2 SLOAD DUP2 MSTORE SWAP1 PUSH1 0x1 ADD SWAP1 PUSH1 0x20 ADD DUP1 DUP4 GT PUSH2 0xBAC JUMPI DUP3 SWAP1 SUB PUSH1 0x1F AND DUP3 ADD SWAP2 JUMPDEST POP POP POP POP POP SWAP1 DUP1 PUSH1 0x4 ADD DUP1 SLOAD PUSH2 0xBDE SWAP1 PUSH2 0x1711 JUMP JUMPDEST DUP1 PUSH1 0x1F ADD PUSH1 0x20 DUP1 SWAP2 DIV MUL PUSH1 0x20 ADD PUSH1 0x40 MLOAD SWAP1 DUP2 ADD PUSH1 0x40 MSTORE DUP1 SWAP3 SWAP2 SWAP1 DUP2 DUP2 MSTORE PUSH1 0x20 ADD DUP3 DUP1 SLOAD PUSH2 0xC0A SWAP1 PUSH2 0x1711 JUMP JUMPDEST DUP1 ISZERO PUSH2 0xC57 JUMPI DUP1 PUSH1 0x1F LT PUSH2 0xC2C JUMPI PUSH2 0x100 DUP1 DUP4 SLOAD DIV MUL DUP4 MSTORE SWAP2 PUSH1 0x20 ADD SWAP2 PUSH2 0xC57 JUMP JUMPDEST DUP3 ADD SWAP2 SWAP1 PUSH1 0x0 MSTORE PUSH1 0x20 PUSH1 0x0 KECCAK256 SWAP1 JUMPDEST DUP2 SLOAD DUP2 MSTORE SWAP1 PUSH1 0x1 ADD SWAP1 PUSH1 0x20 ADD DUP1 DUP4 GT PUSH2 0xC3A JUMPI DUP3 SWAP1 SUB PUSH1 0x1F AND DUP3 ADD SWAP2 JUMPDEST POP POP POP POP POP SWAP1 DUP1 PUSH1 0x5 ADD DUP1 SLOAD PUSH2 0xC6C SWAP1 PUSH2 0x1711 JUMP JUMPDEST DUP1 PUSH1 0x1F ADD PUSH1 0x20 DUP1 SWAP2 DIV MUL PUSH1 0x20 ADD PUSH1 0x40 MLOAD SWAP1 DUP2 ADD PUSH1 0x40 MSTORE DUP1 SWAP3 SWAP2 SWAP1 DUP2 DUP2 MSTORE PUSH1 0x20 ADD DUP3 DUP1 SLOAD PUSH2 0xC98 SWAP1 PUSH2 0x1711 JUMP JUMPDEST DUP1 ISZERO PUSH2 0xCE5 JUMPI DUP1 PUSH1 0x1F LT PUSH2 0xCBA JUMPI PUSH2 0x100 DUP1 DUP4 SLOAD DIV MUL DUP4 MSTORE SWAP2 PUSH1 0x20 ADD SWAP2 PUSH2 0xCE5 JUMP JUMPDEST DUP3 ADD SWAP2 SWAP1 PUSH1 0x0 MSTORE PUSH1 0x20 PUSH1 0x0 KECCAK256 SWAP1 JUMPDEST DUP2 SLOAD DUP2 MSTORE SWAP1 PUSH1 0x1 ADD SWAP1 PUSH1 0x20 ADD DUP1 DUP4 GT PUSH2 0xCC8 JUMPI DUP3 SWAP1 SUB PUSH1 0x1F AND DUP3 ADD SWAP2 JUMPDEST POP POP POP POP POP SWAP1 DUP1 PUSH1 0x6 ADD PUSH1 0x0 SWAP1 SLOAD SWAP1 PUSH2 0x100 EXP SWAP1 DIV PUSH1 0xFF AND SWAP1 POP DUP8 JUMP JUMPDEST PUSH1 0x40 MLOAD DUP1 PUSH1 0xE0 ADD PUSH1 0x40 MSTORE DUP1 PUSH1 0x60 DUP2 MSTORE PUSH1 0x20 ADD PUSH1 0x0 DUP2 MSTORE PUSH1 0x20 ADD PUSH1 0x0 PUSH20 0xFFFFFFFFFFFFFFFFFFFFFFFFFFFFFFFFFFFFFFFF AND DUP2 MSTORE PUSH1 0x20 ADD PUSH1 0x60 DUP2 MSTORE PUSH1 0x20 ADD PUSH1 0x60 DUP2 MSTORE PUSH1 0x20 ADD PUSH1 0x60 DUP2 MSTORE PUSH1 0x20 ADD PUSH1 0x0 ISZERO ISZERO DUP2 MSTORE POP SWAP1 JUMP JUMPDEST PUSH1 0x0 PUSH1 0x40 MLOAD SWAP1 POP SWAP1 JUMP JUMPDEST PUSH1 0x0 DUP1 REVERT JUMPDEST PUSH1 0x0 DUP1 REVERT JUMPDEST PUSH1 0x0 DUP1 REVERT JUMPDEST PUSH1 0x0 DUP1 REVERT JUMPDEST PUSH1 0x0 PUSH1 0x1F NOT PUSH1 0x1F DUP4 ADD AND SWAP1 POP SWAP2 SWAP1 POP JUMP JUMPDEST PUSH32 0x4E487B7100000000000000000000000000000000000000000000000000000000 PUSH1 0x0 MSTORE PUSH1 0x41 PUSH1 0x4 MSTORE PUSH1 0x24 PUSH1 0x0 REVERT JUMPDEST PUSH2 0xDBE DUP3 PUSH2 0xD75 JUMP JUMPDEST DUP2 ADD DUP2 DUP2 LT PUSH8 0xFFFFFFFFFFFFFFFF DUP3 GT OR ISZERO PUSH2 0xDDD JUMPI PUSH2 0xDDC PUSH2 0xD86 JUMP JUMPDEST JUMPDEST DUP1 PUSH1 0x40 MSTORE POP POP POP JUMP JUMPDEST PUSH1 0x0 PUSH2 0xDF0 PUSH2 0xD57 JUMP JUMPDEST SWAP1 POP PUSH2 0xDFC DUP3 DUP3 PUSH2 0xDB5 JUMP JUMPDEST SWAP2 SWAP1 POP JUMP JUMPDEST PUSH1 0x0 PUSH8 0xFFFFFFFFFFFFFFFF DUP3 GT ISZERO PUSH2 0xE1C JUMPI PUSH2 0xE1B PUSH2 0xD86 JUMP JUMPDEST JUMPDEST PUSH2 0xE25 DUP3 PUSH2 0xD75 JUMP JUMPDEST SWAP1 POP PUSH1 0x20 DUP2 ADD SWAP1 POP SWAP2 SWAP1 POP JUMP JUMPDEST DUP3 DUP2 DUP4 CALLDATACOPY PUSH1 0x0 DUP4 DUP4 ADD MSTORE POP POP POP JUMP JUMPDEST PUSH1 0x0 PUSH2 0xE54 PUSH2 0xE4F DUP5 PUSH2 0xE01 JUMP JUMPDEST PUSH2 0xDE6 JUMP JUMPDEST SWAP1 POP DUP3 DUP2 MSTORE PUSH1 0x20 DUP2 ADD DUP5 DUP5 DUP5 ADD GT ISZERO PUSH2 0xE70 JUMPI PUSH2 0xE6F PUSH2 0xD70 JUMP JUMPDEST JUMPDEST PUSH2 0xE7B DUP5 DUP3 DUP6 PUSH2 0xE32 JUMP JUMPDEST POP SWAP4 SWAP3 POP POP POP JUMP JUMPDEST PUSH1 0x0 DUP3 PUSH1 0x1F DUP4 ADD SLT PUSH2 0xE98 JUMPI PUSH2 0xE97 PUSH2 0xD6B JUMP JUMPDEST JUMPDEST DUP2 CALLDATALOAD PUSH2 0xEA8 DUP5 DUP3 PUSH1 0x20 DUP7 ADD PUSH2 0xE41 JUMP JUMPDEST SWAP2 POP POP SWAP3 SWAP2 POP POP JUMP JUMPDEST PUSH1 0x0 DUP2 SWAP1 POP SWAP2 SWAP1 POP JUMP JUMPDEST PUSH2 0xEC4 DUP2 PUSH2 0xEB1 JUMP JUMPDEST DUP2 EQ PUSH2 0xECF JUMPI PUSH1 0x0 DUP1 REVERT JUMPDEST POP JUMP JUMPDEST PUSH1 0x0 DUP2 CALLDATALOAD SWAP1 POP PUSH2 0xEE1 DUP2 PUSH2 0xEBB JUMP JUMPDEST SWAP3 SWAP2 POP POP JUMP JUMPDEST PUSH1 0x0 DUP1 PUSH1 0x0 DUP1 PUSH1 0x0 PUSH1 0xA0 DUP7 DUP9 SUB SLT ISZERO PUSH2 0xF03 JUMPI PUSH2 0xF02 PUSH2 0xD61 JUMP JUMPDEST JUMPDEST PUSH1 0x0 DUP7 ADD CALLDATALOAD PUSH8 0xFFFFFFFFFFFFFFFF DUP2 GT ISZERO PUSH2 0xF21 JUMPI PUSH2 0xF20 PUSH2 0xD66 JUMP JUMPDEST JUMPDEST PUSH2 0xF2D DUP9 DUP3 DUP10 ADD PUSH2 0xE83 JUMP JUMPDEST SWAP6 POP POP PUSH1 0x20 PUSH2 0xF3E DUP9 DUP3 DUP10 ADD PUSH2 0xED2 JUMP JUMPDEST SWAP5 POP POP PUSH1 0x40 DUP7 ADD CALLDATALOAD PUSH8 0xFFFFFFFFFFFFFFFF DUP2 GT ISZERO PUSH2 0xF5F JUMPI PUSH2 0xF5E PUSH2 0xD66 JUMP JUMPDEST JUMPDEST PUSH2 0xF6B DUP9 DUP3 DUP10 ADD PUSH2 0xE83 JUMP JUMPDEST SWAP4 POP POP PUSH1 0x60 DUP7 ADD CALLDATALOAD PUSH8 0xFFFFFFFFFFFFFFFF DUP2 GT ISZERO PUSH2 0xF8C JUMPI PUSH2 0xF8B PUSH2 0xD66 JUMP JUMPDEST JUMPDEST PUSH2 0xF98 DUP9 DUP3 DUP10 ADD PUSH2 0xE83 JUMP JUMPDEST SWAP3 POP POP PUSH1 0x80 DUP7 ADD CALLDATALOAD PUSH8 0xFFFFFFFFFFFFFFFF DUP2 GT ISZERO PUSH2 0xFB9 JUMPI PUSH2 0xFB8 PUSH2 0xD66 JUMP JUMPDEST JUMPDEST PUSH2 0xFC5 DUP9 DUP3 DUP10 ADD PUSH2 0xE83 JUMP JUMPDEST SWAP2 POP POP SWAP3 SWAP6 POP SWAP3 SWAP6 SWAP1 SWAP4 POP JUMP JUMPDEST PUSH1 0x0 DUP2 MLOAD SWAP1 POP SWAP2 SWAP1 POP JUMP JUMPDEST PUSH1 0x0 DUP3 DUP3 MSTORE PUSH1 0x20 DUP3 ADD SWAP1 POP SWAP3 SWAP2 POP POP JUMP JUMPDEST PUSH1 0x0 DUP2 SWAP1 POP PUSH1 0x20 DUP3 ADD SWAP1 POP SWAP2 SWAP1 POP JUMP JUMPDEST PUSH1 0x0 DUP2 MLOAD SWAP1 POP SWAP2 SWAP1 POP JUMP JUMPDEST PUSH1 0x0 DUP3 DUP3 MSTORE PUSH1 0x20 DUP3 ADD SWAP1 POP SWAP3 SWAP2 POP POP JUMP JUMPDEST PUSH1 0x0 JUMPDEST DUP4 DUP2 LT ISZERO PUSH2 0x1038 JUMPI DUP1 DUP3 ADD MLOAD DUP2 DUP5 ADD MSTORE PUSH1 0x20 DUP2 ADD SWAP1 POP PUSH2 0x101D JUMP JUMPDEST PUSH1 0x0 DUP5 DUP5 ADD MSTORE POP POP POP POP JUMP JUMPDEST PUSH1 0x0 PUSH2 0x104F DUP3 PUSH2 0xFFE JUMP JUMPDEST PUSH2 0x1059 DUP2 DUP6 PUSH2 0x1009 JUMP JUMPDEST SWAP4 POP PUSH2 0x1069 DUP2 DUP6 PUSH1 0x20 DUP7 ADD PUSH2 0x101A JUMP JUMPDEST PUSH2 0x1072 DUP2 PUSH2 0xD75 JUMP JUMPDEST DUP5 ADD SWAP2 POP POP SWAP3 SWAP2 POP POP JUMP JUMPDEST PUSH2 0x1086 DUP2 PUSH2 0xEB1 JUMP JUMPDEST DUP3 MSTORE POP POP JUMP JUMPDEST PUSH1 0x0 PUSH20 0xFFFFFFFFFFFFFFFFFFFFFFFFFFFFFFFFFFFFFFFF DUP3 AND SWAP1 POP SWAP2 SWAP1 POP JUMP JUMPDEST PUSH1 0x0 PUSH2 0x10B7 DUP3 PUSH2 0x108C JUMP JUMPDEST SWAP1 POP SWAP2 SWAP1 POP JUMP JUMPDEST PUSH2 0x10C7 DUP2 PUSH2 0x10AC JUMP JUMPDEST DUP3 MSTORE POP POP JUMP JUMPDEST PUSH1 0x0 DUP2 ISZERO ISZERO SWAP1 POP SWAP2 SWAP1 POP JUMP JUMPDEST PUSH2 0x10E2 DUP2 PUSH2 0x10CD JUMP JUMPDEST DUP3 MSTORE POP POP JUMP JUMPDEST PUSH1 0x0 PUSH1 0xE0 DUP4 ADD PUSH1 0x0 DUP4 ADD MLOAD DUP5 DUP3 SUB PUSH1 0x0 DUP7 ADD MSTORE PUSH2 0x1105 DUP3 DUP3 PUSH2 0x1044 JUMP JUMPDEST SWAP2 POP POP PUSH1 0x20 DUP4 ADD MLOAD PUSH2 0x111A PUSH1 0x20 DUP7 ADD DUP3 PUSH2 0x107D JUMP JUMPDEST POP PUSH1 0x40 DUP4 ADD MLOAD PUSH2 0x112D PUSH1 0x40 DUP7 ADD DUP3 PUSH2 0x10BE JUMP JUMPDEST POP PUSH1 0x60 DUP4 ADD MLOAD DUP5 DUP3 SUB PUSH1 0x60 DUP7 ADD MSTORE PUSH2 0x1145 DUP3 DUP3 PUSH2 0x1044 JUMP JUMPDEST SWAP2 POP POP PUSH1 0x80 DUP4 ADD MLOAD DUP5 DUP3 SUB PUSH1 0x80 DUP7 ADD MSTORE PUSH2 0x115F DUP3 DUP3 PUSH2 0x1044 JUMP JUMPDEST SWAP2 POP POP PUSH1 0xA0 DUP4 ADD MLOAD DUP5 DUP3 SUB PUSH1 0xA0 DUP7 ADD MSTORE PUSH2 0x1179 DUP3 DUP3 PUSH2 0x1044 JUMP JUMPDEST SWAP2 POP POP PUSH1 0xC0 DUP4 ADD MLOAD PUSH2 0x118E PUSH1 0xC0 DUP7 ADD DUP3 PUSH2 0x10D9 JUMP JUMPDEST POP DUP1 SWAP2 POP POP SWAP3 SWAP2 POP POP JUMP JUMPDEST PUSH1 0x0 PUSH2 0x11A5 DUP4 DUP4 PUSH2 0x10E8 JUMP JUMPDEST SWAP1 POP SWAP3 SWAP2 POP POP JUMP JUMPDEST PUSH1 0x0 PUSH1 0x20 DUP3 ADD SWAP1 POP SWAP2 SWAP1 POP JUMP JUMPDEST PUSH1 0x0 PUSH2 0x11C5 DUP3 PUSH2 0xFD2 JUMP JUMPDEST PUSH2 0x11CF DUP2 DUP6 PUSH2 0xFDD JUMP JUMPDEST SWAP4 POP DUP4 PUSH1 0x20 DUP3 MUL DUP6 ADD PUSH2 0x11E1 DUP6 PUSH2 0xFEE JUMP JUMPDEST DUP1 PUSH1 0x0 JUMPDEST DUP6 DUP2 LT ISZERO PUSH2 0x121D JUMPI DUP5 DUP5 SUB DUP10 MSTORE DUP2 MLOAD PUSH2 0x11FE DUP6 DUP3 PUSH2 0x1199 JUMP JUMPDEST SWAP5 POP PUSH2 0x1209 DUP4 PUSH2 0x11AD JUMP JUMPDEST SWAP3 POP PUSH1 0x20 DUP11 ADD SWAP10 POP POP PUSH1 0x1 DUP2 ADD SWAP1 POP PUSH2 0x11E5 JUMP JUMPDEST POP DUP3 SWAP8 POP DUP8 SWAP6 POP POP POP POP POP POP SWAP3 SWAP2 POP POP JUMP JUMPDEST PUSH1 0x0 PUSH1 0x20 DUP3 ADD SWAP1 POP DUP2 DUP2 SUB PUSH1 0x0 DUP4 ADD MSTORE PUSH2 0x1249 DUP2 DUP5 PUSH2 0x11BA JUMP JUMPDEST SWAP1 POP SWAP3 SWAP2 POP POP JUMP JUMPDEST PUSH2 0x125A DUP2 PUSH2 0x10AC JUMP JUMPDEST DUP2 EQ PUSH2 0x1265 JUMPI PUSH1 0x0 DUP1 REVERT JUMPDEST POP JUMP JUMPDEST PUSH1 0x0 DUP2 CALLDATALOAD SWAP1 POP PUSH2 0x1277 DUP2 PUSH2 0x1251 JUMP JUMPDEST SWAP3 SWAP2 POP POP JUMP JUMPDEST PUSH1 0x0 DUP1 PUSH1 0x40 DUP4 DUP6 SUB SLT ISZERO PUSH2 0x1294 JUMPI PUSH2 0x1293 PUSH2 0xD61 JUMP JUMPDEST JUMPDEST PUSH1 0x0 PUSH2 0x12A2 DUP6 DUP3 DUP7 ADD PUSH2 0xED2 JUMP JUMPDEST SWAP3 POP POP PUSH1 0x20 PUSH2 0x12B3 DUP6 DUP3 DUP7 ADD PUSH2 0x1268 JUMP JUMPDEST SWAP2 POP POP SWAP3 POP SWAP3 SWAP1 POP JUMP JUMPDEST PUSH2 0x12C6 DUP2 PUSH2 0xEB1 JUMP JUMPDEST DUP3 MSTORE POP POP JUMP JUMPDEST PUSH1 0x0 PUSH1 0x20 DUP3 ADD SWAP1 POP PUSH2 0x12E1 PUSH1 0x0 DUP4 ADD DUP5 PUSH2 0x12BD JUMP JUMPDEST SWAP3 SWAP2 POP POP JUMP JUMPDEST PUSH1 0x0 PUSH1 0x20 DUP3 DUP5 SUB SLT ISZERO PUSH2 0x12FD JUMPI PUSH2 0x12FC PUSH2 0xD61 JUMP JUMPDEST JUMPDEST PUSH1 0x0 PUSH2 0x130B DUP5 DUP3 DUP6 ADD PUSH2 0xED2 JUMP JUMPDEST SWAP2 POP POP SWAP3 SWAP2 POP POP JUMP JUMPDEST PUSH1 0x0 DUP3 DUP3 MSTORE PUSH1 0x20 DUP3 ADD SWAP1 POP SWAP3 SWAP2 POP POP JUMP JUMPDEST PUSH1 0x0 PUSH2 0x1330 DUP3 PUSH2 0xFFE JUMP JUMPDEST PUSH2 0x133A DUP2 DUP6 PUSH2 0x1314 JUMP JUMPDEST SWAP4 POP PUSH2 0x134A DUP2 DUP6 PUSH1 0x20 DUP7 ADD PUSH2 0x101A JUMP JUMPDEST PUSH2 0x1353 DUP2 PUSH2 0xD75 JUMP JUMPDEST DUP5 ADD SWAP2 POP POP SWAP3 SWAP2 POP POP JUMP JUMPDEST PUSH2 0x1367 DUP2 PUSH2 0x10AC JUMP JUMPDEST DUP3 MSTORE POP POP JUMP JUMPDEST PUSH2 0x1376 DUP2 PUSH2 0x10CD JUMP JUMPDEST DUP3 MSTORE POP POP JUMP JUMPDEST PUSH1 0x0 PUSH1 0xE0 DUP3 ADD SWAP1 POP DUP2 DUP2 SUB PUSH1 0x0 DUP4 ADD MSTORE PUSH2 0x1396 DUP2 DUP11 PUSH2 0x1325 JUMP JUMPDEST SWAP1 POP PUSH2 0x13A5 PUSH1 0x20 DUP4 ADD DUP10 PUSH2 0x12BD JUMP JUMPDEST PUSH2 0x13B2 PUSH1 0x40 DUP4 ADD DUP9 PUSH2 0x135E JUMP JUMPDEST DUP2 DUP2 SUB PUSH1 0x60 DUP4 ADD MSTORE PUSH2 0x13C4 DUP2 DUP8 PUSH2 0x1325 JUMP JUMPDEST SWAP1 POP DUP2 DUP2 SUB PUSH1 0x80 DUP4 ADD MSTORE PUSH2 0x13D8 DUP2 DUP7 PUSH2 0x1325 JUMP JUMPDEST SWAP1 POP DUP2 DUP2 SUB PUSH1 0xA0 DUP4 ADD MSTORE PUSH2 0x13EC DUP2 DUP6 PUSH2 0x1325 JUMP JUMPDEST SWAP1 POP PUSH2 0x13FB PUSH1 0xC0 DUP4 ADD DUP5 PUSH2 0x136D JUMP JUMPDEST SWAP9 SWAP8 POP POP POP POP POP POP POP POP JUMP JUMPDEST PUSH32 0x4C6F636174696F6E206973207265717569726564000000000000000000000000 PUSH1 0x0 DUP3 ADD MSTORE POP JUMP JUMPDEST PUSH1 0x0 PUSH2 0x143D PUSH1 0x14 DUP4 PUSH2 0x1314 JUMP JUMPDEST SWAP2 POP PUSH2 0x1448 DUP3 PUSH2 0x1407 JUMP JUMPDEST PUSH1 0x20 DUP3 ADD SWAP1 POP SWAP2 SWAP1 POP JUMP JUMPDEST PUSH1 0x0 PUSH1 0x20 DUP3 ADD SWAP1 POP DUP2 DUP2 SUB PUSH1 0x0 DUP4 ADD MSTORE PUSH2 0x146C DUP2 PUSH2 0x1430 JUMP JUMPDEST SWAP1 POP SWAP2 SWAP1 POP JUMP JUMPDEST PUSH32 0x53697A65206D7573742062652067726561746572207468616E207A65726F0000 PUSH1 0x0 DUP3 ADD MSTORE POP JUMP JUMPDEST PUSH1 0x0 PUSH2 0x14A9 PUSH1 0x1E DUP4 PUSH2 0x1314 JUMP JUMPDEST SWAP2 POP PUSH2 0x14B4 DUP3 PUSH2 0x1473 JUMP JUMPDEST PUSH1 0x20 DUP3 ADD SWAP1 POP SWAP2 SWAP1 POP JUMP JUMPDEST PUSH1 0x0 PUSH1 0x20 DUP3 ADD SWAP1 POP DUP2 DUP2 SUB PUSH1 0x0 DUP4 ADD MSTORE PUSH2 0x14D8 DUP2 PUSH2 0x149C JUMP JUMPDEST SWAP1 POP SWAP2 SWAP1 POP JUMP JUMPDEST PUSH32 0x446F63756D656E74206861736820697320726571756972656400000000000000 PUSH1 0x0 DUP3 ADD MSTORE POP JUMP JUMPDEST PUSH1 0x0 PUSH2 0x1515 PUSH1 0x19 DUP4 PUSH2 0x1314 JUMP JUMPDEST SWAP2 POP PUSH2 0x1520 DUP3 PUSH2 0x14DF JUMP JUMPDEST PUSH1 0x20 DUP3 ADD SWAP1 POP SWAP2 SWAP1 POP JUMP JUMPDEST PUSH1 0x0 PUSH1 0x20 DUP3 ADD SWAP1 POP DUP2 DUP2 SUB PUSH1 0x0 DUP4 ADD MSTORE PUSH2 0x1544 DUP2 PUSH2 0x1508 JUMP JUMPDEST SWAP1 POP SWAP2 SWAP1 POP JUMP JUMPDEST PUSH32 0x4C61746974756465206973207265717569726564000000000000000000000000 PUSH1 0x0 DUP3 ADD MSTORE POP JUMP JUMPDEST PUSH1 0x0 PUSH2 0x1581 PUSH1 0x14 DUP4 PUSH2 0x1314 JUMP JUMPDEST SWAP2 POP PUSH2 0x158C DUP3 PUSH2 0x154B JUMP JUMPDEST PUSH1 0x20 DUP3 ADD SWAP1 POP SWAP2 SWAP1 POP JUMP JUMPDEST PUSH1 0x0 PUSH1 0x20 DUP3 ADD SWAP1 POP DUP2 DUP2 SUB PUSH1 0x0 DUP4 ADD MSTORE PUSH2 0x15B0 DUP2 PUSH2 0x1574 JUMP JUMPDEST SWAP1 POP SWAP2 SWAP1 POP JUMP JUMPDEST PUSH32 0x4C6F6E6769747564652069732072657175697265640000000000000000000000 PUSH1 0x0 DUP3 ADD MSTORE POP JUMP JUMPDEST PUSH1 0x0 PUSH2 0x15ED PUSH1 0x15 DUP4 PUSH2 0x1314 JUMP JUMPDEST SWAP2 POP PUSH2 0x15F8 DUP3 PUSH2 0x15B7 JUMP JUMPDEST PUSH1 0x20 DUP3 ADD SWAP1 POP SWAP2 SWAP1 POP JUMP JUMPDEST PUSH1 0x0 PUSH1 0x20 DUP3 ADD SWAP1 POP DUP2 DUP2 SUB PUSH1 0x0 DUP4 ADD MSTORE PUSH2 0x161C DUP2 PUSH2 0x15E0 JUMP JUMPDEST SWAP1 POP SWAP2 SWAP1 POP JUMP JUMPDEST PUSH1 0x0 DUP2 SWAP1 POP SWAP3 SWAP2 POP POP JUMP JUMPDEST PUSH1 0x0 PUSH2 0x1639 DUP3 PUSH2 0xFFE JUMP JUMPDEST PUSH2 0x1643 DUP2 DUP6 PUSH2 0x1623 JUMP JUMPDEST SWAP4 POP PUSH2 0x1653 DUP2 DUP6 PUSH1 0x20 DUP7 ADD PUSH2 0x101A JUMP JUMPDEST DUP1 DUP5 ADD SWAP2 POP POP SWAP3 SWAP2 POP POP JUMP JUMPDEST PUSH1 0x0 PUSH2 0x166B DUP3 DUP5 PUSH2 0x162E JUMP JUMPDEST SWAP2 POP DUP2 SWAP1 POP SWAP3 SWAP2 POP POP JUMP JUMPDEST PUSH32 0x54686973206C616E6420697320616C7265616479207265676973746572656400 PUSH1 0x0 DUP3 ADD MSTORE POP JUMP JUMPDEST PUSH1 0x0 PUSH2 0x16AC PUSH1 0x1F DUP4 PUSH2 0x1314 JUMP JUMPDEST SWAP2 POP PUSH2 0x16B7 DUP3 PUSH2 0x1676 JUMP JUMPDEST PUSH1 0x20 DUP3 ADD SWAP1 POP SWAP2 SWAP1 POP JUMP JUMPDEST PUSH1 0x0 PUSH1 0x20 DUP3 ADD SWAP1 POP DUP2 DUP2 SUB PUSH1 0x0 DUP4 ADD MSTORE PUSH2 0x16DB DUP2 PUSH2 0x169F JUMP JUMPDEST SWAP1 POP SWAP2 SWAP1 POP JUMP JUMPDEST PUSH32 0x4E487B7100000000000000000000000000000000000000000000000000000000 PUSH1 0x0 MSTORE PUSH1 0x22 PUSH1 0x4 MSTORE PUSH1 0x24 PUSH1 0x0 REVERT JUMPDEST PUSH1 0x0 PUSH1 0x2 DUP3 DIV SWAP1 POP PUSH1 0x1 DUP3 AND DUP1 PUSH2 0x1729 JUMPI PUSH1 0x7F DUP3 AND SWAP2 POP JUMPDEST PUSH1 0x20 DUP3 LT DUP2 SUB PUSH2 0x173C JUMPI PUSH2 0x173B PUSH2 0x16E2 JUMP JUMPDEST JUMPDEST POP SWAP2 SWAP1 POP JUMP JUMPDEST PUSH1 0x0 DUP2 SWAP1 POP DUP2 PUSH1 0x0 MSTORE PUSH1 0x20 PUSH1 0x0 KECCAK256 SWAP1 POP SWAP2 SWAP1 POP JUMP JUMPDEST PUSH1 0x0 PUSH1 0x20 PUSH1 0x1F DUP4 ADD DIV SWAP1 POP SWAP2 SWAP1 POP JUMP JUMPDEST PUSH1 0x0 DUP3 DUP3 SHL SWAP1 POP SWAP3 SWAP2 POP POP JUMP JUMPDEST PUSH1 0x0 PUSH1 0x8 DUP4 MUL PUSH2 0x17A4 PUSH32 0xFFFFFFFFFFFFFFFFFFFFFFFFFFFFFFFFFFFFFFFFFFFFFFFFFFFFFFFFFFFFFFFF DUP3 PUSH2 0x1767 JUMP JUMPDEST PUSH2 0x17AE DUP7 DUP4 PUSH2 0x1767 JUMP JUMPDEST SWAP6 POP DUP1 NOT DUP5 AND SWAP4 POP DUP1 DUP7 AND DUP5 OR SWAP3 POP POP POP SWAP4 SWAP3 POP POP POP JUMP JUMPDEST PUSH1 0x0 DUP2 SWAP1 POP SWAP2 SWAP1 POP JUMP JUMPDEST PUSH1 0x0 PUSH2 0x17EB PUSH2 0x17E6 PUSH2 0x17E1 DUP5 PUSH2 0xEB1 JUMP JUMPDEST PUSH2 0x17C6 JUMP JUMPDEST PUSH2 0xEB1 JUMP JUMPDEST SWAP1 POP SWAP2 SWAP1 POP JUMP JUMPDEST PUSH1 0x0 DUP2 SWAP1 POP SWAP2 SWAP1 POP JUMP JUMPDEST PUSH2 0x1805 DUP4 PUSH2 0x17D0 JUMP JUMPDEST PUSH2 0x1819 PUSH2 0x1811 DUP3 PUSH2 0x17F2 JUMP JUMPDEST DUP5 DUP5 SLOAD PUSH2 0x1774 JUMP JUMPDEST DUP3 SSTORE POP POP POP POP JUMP JUMPDEST PUSH1 0x0 SWAP1 JUMP JUMPDEST PUSH2 0x182E PUSH2 0x1821 JUMP JUMPDEST PUSH2 0x1839 DUP2 DUP5 DUP5 PUSH2 0x17FC JUMP JUMPDEST POP POP POP JUMP JUMPDEST JUMPDEST DUP2 DUP2 LT ISZERO PUSH2 0x185D JUMPI PUSH2 0x1852 PUSH1 0x0 DUP3 PUSH2 0x1826 JUMP JUMPDEST PUSH1 0x1 DUP2 ADD SWAP1 POP PUSH2 0x183F JUMP JUMPDEST POP POP JUMP JUMPDEST PUSH1 0x1F DUP3 GT ISZERO PUSH2 0x18A2 JUMPI PUSH2 0x1873 DUP2 PUSH2 0x1742 JUMP JUMPDEST PUSH2 0x187C DUP5 PUSH2 0x1757 JUMP JUMPDEST DUP2 ADD PUSH1 0x20 DUP6 LT ISZERO PUSH2 0x188B JUMPI DUP2 SWAP1 POP JUMPDEST PUSH2 0x189F PUSH2 0x1897 DUP6 PUSH2 0x1757 JUMP JUMPDEST DUP4 ADD DUP3 PUSH2 0x183E JUMP JUMPDEST POP POP JUMPDEST POP POP POP JUMP JUMPDEST PUSH1 0x0 DUP3 DUP3 SHR SWAP1 POP SWAP3 SWAP2 POP POP JUMP JUMPDEST PUSH1 0x0 PUSH2 0x18C5 PUSH1 0x0 NOT DUP5 PUSH1 0x8 MUL PUSH2 0x18A7 JUMP JUMPDEST NOT DUP1 DUP4 AND SWAP2 POP POP SWAP3 SWAP2 POP POP JUMP JUMPDEST PUSH1 0x0 PUSH2 0x18DE DUP4 DUP4 PUSH2 0x18B4 JUMP JUMPDEST SWAP2 POP DUP3 PUSH1 0x2 MUL DUP3 OR SWAP1 POP SWAP3 SWAP2 POP POP JUMP JUMPDEST PUSH2 0x18F7 DUP3 PUSH2 0xFFE JUMP JUMPDEST PUSH8 0xFFFFFFFFFFFFFFFF DUP2 GT ISZERO PUSH2 0x1910 JUMPI PUSH2 0x190F PUSH2 0xD86 JUMP JUMPDEST JUMPDEST PUSH2 0x191A DUP3 SLOAD PUSH2 0x1711 JUMP JUMPDEST PUSH2 0x1925 DUP3 DUP3 DUP6 PUSH2 0x1861 JUMP JUMPDEST PUSH1 0x0 PUSH1 0x20 SWAP1 POP PUSH1 0x1F DUP4 GT PUSH1 0x1 DUP2 EQ PUSH2 0x1958 JUMPI PUSH1 0x0 DUP5 ISZERO PUSH2 0x1946 JUMPI DUP3 DUP8 ADD MLOAD SWAP1 POP JUMPDEST PUSH2 0x1950 DUP6 DUP3 PUSH2 0x18D2 JUMP JUMPDEST DUP7 SSTORE POP PUSH2 0x19B8 JUMP JUMPDEST PUSH1 0x1F NOT DUP5 AND PUSH2 0x1966 DUP7 PUSH2 0x1742 JUMP JUMPDEST PUSH1 0x0 JUMPDEST DUP3 DUP2 LT ISZERO PUSH2 0x198E JUMPI DUP5 DUP10 ADD MLOAD DUP3 SSTORE PUSH1 0x1 DUP3 ADD SWAP2 POP PUSH1 0x20 DUP6 ADD SWAP5 POP PUSH1 0x20 DUP2 ADD SWAP1 POP PUSH2 0x1969 JUMP JUMPDEST DUP7 DUP4 LT ISZERO PUSH2 0x19AB JUMPI DUP5 DUP10 ADD MLOAD PUSH2 0x19A7 PUSH1 0x1F DUP10 AND DUP3 PUSH2 0x18B4 JUMP JUMPDEST DUP4 SSTORE POP JUMPDEST PUSH1 0x1 PUSH1 0x2 DUP9 MUL ADD DUP9 SSTORE POP POP POP JUMPDEST POP POP POP POP POP POP JUMP JUMPDEST PUSH1 0x0 PUSH1 0xA0 DUP3 ADD SWAP1 POP DUP2 DUP2 SUB PUSH1 0x0 DUP4 ADD MSTORE PUSH2 0x19DA DUP2 DUP9 PUSH2 0x1325 JUMP JUMPDEST SWAP1 POP PUSH2 0x19E9 PUSH1 0x20 DUP4 ADD DUP8 PUSH2 0x12BD JUMP JUMPDEST DUP2 DUP2 SUB PUSH1 0x40 DUP4 ADD MSTORE PUSH2 0x19FB DUP2 DUP7 PUSH2 0x1325 JUMP JUMPDEST SWAP1 POP DUP2 DUP2 SUB PUSH1 0x60 DUP4 ADD MSTORE PUSH2 0x1A0F DUP2 DUP6 PUSH2 0x1325 JUMP JUMPDEST SWAP1 POP DUP2 DUP2 SUB PUSH1 0x80 DUP4 ADD MSTORE PUSH2 0x1A23 DUP2 DUP5 PUSH2 0x1325 JUMP JUMPDEST SWAP1 POP SWAP7 SWAP6 POP POP POP POP POP POP JUMP JUMPDEST PUSH32 0x4E487B7100000000000000000000000000000000000000000000000000000000 PUSH1 0x0 MSTORE PUSH1 0x11 PUSH1 0x4 MSTORE PUSH1 0x24 PUSH1 0x0 REVERT JUMPDEST PUSH1 0x0 PUSH2 0x1A69 DUP3 PUSH2 0xEB1 JUMP JUMPDEST SWAP2 POP PUSH32 0xFFFFFFFFFFFFFFFFFFFFFFFFFFFFFFFFFFFFFFFFFFFFFFFFFFFFFFFFFFFFFFFF DUP3 SUB PUSH2 0x1A9B JUMPI PUSH2 0x1A9A PUSH2 0x1A2F JUMP JUMPDEST JUMPDEST PUSH1 0x1 DUP3 ADD SWAP1 POP SWAP2 SWAP1 POP JUMP JUMPDEST PUSH32 0x4E487B7100000000000000000000000000000000000000000000000000000000 PUSH1 0x0 MSTORE PUSH1 0x32 PUSH1 0x4 MSTORE PUSH1 0x24 PUSH1 0x0 REVERT JUMPDEST PUSH32 0x4F6E6C7920746865206F776E65722063616E20706572666F726D207468697320 PUSH1 0x0 DUP3 ADD MSTORE PUSH32 0x616374696F6E0000000000000000000000000000000000000000000000000000 PUSH1 0x20 DUP3 ADD MSTORE POP JUMP JUMPDEST PUSH1 0x0 PUSH2 0x1B31 PUSH1 0x26 DUP4 PUSH2 0x1314 JUMP JUMPDEST SWAP2 POP PUSH2 0x1B3C DUP3 PUSH2 0x1AD5 JUMP JUMPDEST PUSH1 0x40 DUP3 ADD SWAP1 POP SWAP2 SWAP1 POP JUMP JUMPDEST PUSH1 0x0 PUSH1 0x20 DUP3 ADD SWAP1 POP DUP2 DUP2 SUB PUSH1 0x0 DUP4 ADD MSTORE PUSH2 0x1B60 DUP2 PUSH2 0x1B24 JUMP JUMPDEST SWAP1 POP SWAP2 SWAP1 POP JUMP JUMPDEST PUSH32 0x4C616E6420494420697320696E76616C69640000000000000000000000000000 PUSH1 0x0 DUP3 ADD MSTORE POP JUMP JUMPDEST PUSH1 0x0 PUSH2 0x1B9D PUSH1 0x12 DUP4 PUSH2 0x1314 JUMP JUMPDEST SWAP2 POP PUSH2 0x1BA8 DUP3 PUSH2 0x1B67 JUMP JUMPDEST PUSH1 0x20 DUP3 ADD SWAP1 POP SWAP2 SWAP1 POP JUMP JUMPDEST PUSH1 0x0 PUSH1 0x20 DUP3 ADD SWAP1 POP DUP2 DUP2 SUB PUSH1 0x0 DUP4 ADD MSTORE PUSH2 0x1BCC DUP2 PUSH2 0x1B90 JUMP JUMPDEST SWAP1 POP SWAP2 SWAP1 POP JUMP JUMPDEST PUSH32 0x4E6577206F776E65722061646472657373206973207265717569726564000000 PUSH1 0x0 DUP3 ADD MSTORE POP JUMP JUMPDEST PUSH1 0x0 PUSH2 0x1C09 PUSH1 0x1D DUP4 PUSH2 0x1314 JUMP JUMPDEST SWAP2 POP PUSH2 0x1C14 DUP3 PUSH2 0x1BD3 JUMP JUMPDEST PUSH1 0x20 DUP3 ADD SWAP1 POP SWAP2 SWAP1 POP JUMP JUMPDEST PUSH1 0x0 PUSH1 0x20 DUP3 ADD SWAP1 POP DUP2 DUP2 SUB PUSH1 0x0 DUP4 ADD MSTORE PUSH2 0x1C38 DUP2 PUSH2 0x1BFC JUMP JUMPDEST SWAP1 POP SWAP2 SWAP1 POP JUMP INVALID LOG2 PUSH5 0x6970667358 0x22 SLT KECCAK256 DUP6 SDIV MSTORE8 0x4F DUP15 PUSH18 0xDCDB3D608C7BFD5B79A9E6DB5D40E2E2D1C7 INVALID SLT DELEGATECALL TIMESTAMP 0xA5 0xD EXTCODECOPY ORIGIN PUSH5 0x736F6C6343 STOP ADDMOD LT STOP CALLER "
	},
	"abi": [
		{
			"anonymous": false,
			"inputs": [
				{
					"indexed": true,
					"internalType": "uint256",
					"name": "landId",
					"type": "uint256"
				},
				{
					"indexed": false,
					"internalType": "string",
					"name": "location",
					"type": "string"
				},
				{
					"indexed": false,
					"internalType": "uint256",
					"name": "size",
					"type": "uint256"
				},
				{
					"indexed": true,
					"internalType": "address",
					"name": "owner",
					"type": "address"
				},
				{
					"indexed": false,
					"internalType": "string",
					"name": "documentHash",
					"type": "string"
				},
				{
					"indexed": false,
					"internalType": "string",
					"name": "latitude",
					"type": "string"
				},
				{
					"indexed": false,
					"internalType": "string",
					"name": "longitude",
					"type": "string"
				}
			],
			"name": "LandRegistered",
			"type": "event"
		},
		{
			"anonymous": false,
			"inputs": [
				{
					"indexed": true,
					"internalType": "uint256",
					"name": "landId",
					"type": "uint256"
				},
				{
					"indexed": true,
					"internalType": "address",
					"name": "oldOwner",
					"type": "address"
				},
				{
					"indexed": true,
					"internalType": "address",
					"name": "newOwner",
					"type": "address"
				}
			],
			"name": "LandTransferred",
			"type": "event"
		},
		{
			"inputs": [
				{
					"internalType": "string",
					"name": "_location",
					"type": "string"
				},
				{
					"internalType": "uint256",
					"name": "_size",
					"type": "uint256"
				},
				{
					"internalType": "string",
					"name": "_documentHash",
					"type": "string"
				},
				{
					"internalType": "string",
					"name": "_latitude",
					"type": "string"
				},
				{
					"internalType": "string",
					"name": "_longitude",
					"type": "string"
				}
			],
			"name": "registerLand",
			"outputs": [],
			"stateMutability": "nonpayable",
			"type": "function"
		},
		{
			"inputs": [
				{
					"internalType": "uint256",
					"name": "_landId",
					"type": "uint256"
				},
				{
					"internalType": "address",
					"name": "_newOwner",
					"type": "address"
				}
			],
			"name": "transferLand",
			"outputs": [],
			"stateMutability": "nonpayable",
			"type": "function"
		},
		{
			"inputs": [],
			"name": "getAllLands",
			"outputs": [
				{
					"components": [
						{
							"internalType": "string",
							"name": "location",
							"type": "string"
						},
						{
							"internalType": "uint256",
							"name": "size",
							"type": "uint256"
						},
						{
							"internalType": "address",
							"name": "owner",
							"type": "address"
						},
						{
							"internalType": "string",
							"name": "documentHash",
							"type": "string"
						},
						{
							"internalType": "string",
							"name": "latitude",
							"type": "string"
						},
						{
							"internalType": "string",
							"name": "longitude",
							"type": "string"
						},
						{
							"internalType": "bool",
							"name": "exists",
							"type": "bool"
						}
					],
					"internalType": "struct LandRegistry.Land[]",
					"name": "",
					"type": "tuple[]"
				}
			],
			"stateMutability": "view",
			"type": "function"
		},
		{
			"inputs": [],
			"name": "landCount",
			"outputs": [
				{
					"internalType": "uint256",
					"name": "",
					"type": "uint256"
				}
			],
			"stateMutability": "view",
			"type": "function"
		},
		{
			"inputs": [
				{
					"internalType": "uint256",
					"name": "",
					"type": "uint256"
				}
			],
			"name": "lands",
			"outputs": [
				{
					"internalType": "string",
					"name": "location",
					"type": "string"
				},
				{
					"internalType": "uint256",
					"name": "size",
					"type": "uint256"
				},
				{
					"internalType": "address",
					"name": "owner",
					"type": "address"
				},
				{
					"internalType": "string",
					"name": "documentHash",
					"type": "string"
				},
				{
					"internalType": "string",
					"name": "latitude",
					"type": "string"
				},
				{
					"internalType": "string",
					"name": "longitude",
					"type": "string"
				},
				{
					"internalType": "bool",
					"name": "exists",
					"type": "bool"
				}
			],
			"stateMutability": "view",
			"type": "function"
		}
	],
	"storageLayout": {
		"storage": [
			{
				"astId": 21,
				"contract": "contracts/reg.sol:LandRegistry",
				"label": "lands",
				"offset": 0,
				"slot": "0",
				"type": "t_mapping(t_uint256,t_struct(Land)16_storage)"
			},
			{
				"astId": 25,
				"contract": "contracts/reg.sol:LandRegistry",
				"label": "registeredDocumentHashes",
				"offset": 0,
				"slot": "1",
				"type": "t_mapping(t_string_memory_ptr,t_bool)"
			},
			{
				"astId": 27,
				"contract": "contracts/reg.sol:LandRegistry",
				"label": "landCount",
				"offset": 0,
				"slot": "2",
				"type": "t_uint256"
			}
		],
		"types": {
			"t_address": {
				"encoding": "inplace",
				"label": "address",
				"numberOfBytes": "20"
			},
			"t_bool": {
				"encoding": "inplace",
				"label": "bool",
				"numberOfBytes": "1"
			},
			"t_mapping(t_string_memory_ptr,t_bool)": {
				"encoding": "mapping",
				"key": "t_string_memory_ptr",
				"label": "mapping(string => bool)",
				"numberOfBytes": "32",
				"value": "t_bool"
			},
			"t_mapping(t_uint256,t_struct(Land)16_storage)": {
				"encoding": "mapping",
				"key": "t_uint256",
				"label": "mapping(uint256 => struct LandRegistry.Land)",
				"numberOfBytes": "32",
				"value": "t_struct(Land)16_storage"
			},
			"t_string_memory_ptr": {
				"encoding": "bytes",
				"label": "string",
				"numberOfBytes": "32"
			},
			"t_string_storage": {
				"encoding": "bytes",
				"label": "string",
				"numberOfBytes": "32"
			},
			"t_struct(Land)16_storage": {
				"encoding": "inplace",
				"label": "struct LandRegistry.Land",
				"members": [
					{
						"astId": 3,
						"contract": "contracts/reg.sol:LandRegistry",
						"label": "location",
						"offset": 0,
						"slot": "0",
						"type": "t_string_storage"
					},
					{
						"astId": 5,
						"contract": "contracts/reg.sol:LandRegistry",
						"label": "size",
						"offset": 0,
						"slot": "1",
						"type": "t_uint256"
					},
					{
						"astId": 7,
						"contract": "contracts/reg.sol:LandRegistry",
						"label": "owner",
						"offset": 0,
						"slot": "2",
						"type": "t_address"
					},
					{
						"astId": 9,
						"contract": "contracts/reg.sol:LandRegistry",
						"label": "documentHash",
						"offset": 0,
						"slot": "3",
						"type": "t_string_storage"
					},
					{
						"astId": 11,
						"contract": "contracts/reg.sol:LandRegistry",
						"label": "latitude",
						"offset": 0,
						"slot": "4",
						"type": "t_string_storage"
					},
					{
						"astId": 13,
						"contract": "contracts/reg.sol:LandRegistry",
						"label": "longitude",
						"offset": 0,
						"slot": "5",
						"type": "t_string_storage"
					},
					{
						"astId": 15,
						"contract": "contracts/reg.sol:LandRegistry",
						"label": "exists",
						"offset": 0,
						"slot": "6",
						"type": "t_bool"
					}
				],
				"numberOfBytes": "224"
			},
			"t_uint256": {
				"encoding": "inplace",
				"label": "uint256",
				"numberOfBytes": "32"
			}
		}
	},
	"web3Deploy": "var landregistryContract = new web3.eth.Contract([{\"anonymous\":false,\"inputs\":[{\"indexed\":true,\"internalType\":\"uint256\",\"name\":\"landId\",\"type\":\"uint256\"},{\"indexed\":false,\"internalType\":\"string\",\"name\":\"location\",\"type\":\"string\"},{\"indexed\":false,\"internalType\":\"uint256\",\"name\":\"size\",\"type\":\"uint256\"},{\"indexed\":true,\"internalType\":\"address\",\"name\":\"owner\",\"type\":\"address\"},{\"indexed\":false,\"internalType\":\"string\",\"name\":\"documentHash\",\"type\":\"string\"},{\"indexed\":false,\"internalType\":\"string\",\"name\":\"latitude\",\"type\":\"string\"},{\"indexed\":false,\"internalType\":\"string\",\"name\":\"longitude\",\"type\":\"string\"}],\"name\":\"LandRegistered\",\"type\":\"event\"},{\"anonymous\":false,\"inputs\":[{\"indexed\":true,\"internalType\":\"uint256\",\"name\":\"landId\",\"type\":\"uint256\"},{\"indexed\":true,\"internalType\":\"address\",\"name\":\"oldOwner\",\"type\":\"address\"},{\"indexed\":true,\"internalType\":\"address\",\"name\":\"newOwner\",\"type\":\"address\"}],\"name\":\"LandTransferred\",\"type\":\"event\"},{\"inputs\":[],\"name\":\"getAllLands\",\"outputs\":[{\"components\":[{\"internalType\":\"string\",\"name\":\"location\",\"type\":\"string\"},{\"internalType\":\"uint256\",\"name\":\"size\",\"type\":\"uint256\"},{\"internalType\":\"address\",\"name\":\"owner\",\"type\":\"address\"},{\"internalType\":\"string\",\"name\":\"documentHash\",\"type\":\"string\"},{\"internalType\":\"string\",\"name\":\"latitude\",\"type\":\"string\"},{\"internalType\":\"string\",\"name\":\"longitude\",\"type\":\"string\"},{\"internalType\":\"bool\",\"name\":\"exists\",\"type\":\"bool\"}],\"internalType\":\"struct LandRegistry.Land[]\",\"name\":\"\",\"type\":\"tuple[]\"}],\"stateMutability\":\"view\",\"type\":\"function\"},{\"inputs\":[],\"name\":\"landCount\",\"outputs\":[{\"internalType\":\"uint256\",\"name\":\"\",\"type\":\"uint256\"}],\"stateMutability\":\"view\",\"type\":\"function\"},{\"inputs\":[{\"internalType\":\"uint256\",\"name\":\"\",\"type\":\"uint256\"}],\"name\":\"lands\",\"outputs\":[{\"internalType\":\"string\",\"name\":\"location\",\"type\":\"string\"},{\"internalType\":\"uint256\",\"name\":\"size\",\"type\":\"uint256\"},{\"internalType\":\"address\",\"name\":\"owner\",\"type\":\"address\"},{\"internalType\":\"string\",\"name\":\"documentHash\",\"type\":\"string\"},{\"internalType\":\"string\",\"name\":\"latitude\",\"type\":\"string\"},{\"internalType\":\"string\",\"name\":\"longitude\",\"type\":\"string\"},{\"internalType\":\"bool\",\"name\":\"exists\",\"type\":\"bool\"}],\"stateMutability\":\"view\",\"type\":\"function\"},{\"inputs\":[{\"internalType\":\"string\",\"name\":\"_location\",\"type\":\"string\"},{\"internalType\":\"uint256\",\"name\":\"_size\",\"type\":\"uint256\"},{\"internalType\":\"string\",\"name\":\"_documentHash\",\"type\":\"string\"},{\"internalType\":\"string\",\"name\":\"_latitude\",\"type\":\"string\"},{\"internalType\":\"string\",\"name\":\"_longitude\",\"type\":\"string\"}],\"name\":\"registerLand\",\"outputs\":[],\"stateMutability\":\"nonpayable\",\"type\":\"function\"},{\"inputs\":[{\"internalType\":\"uint256\",\"name\":\"_landId\",\"type\":\"uint256\"},{\"internalType\":\"address\",\"name\":\"_newOwner\",\"type\":\"address\"}],\"name\":\"transferLand\",\"outputs\":[],\"stateMutability\":\"nonpayable\",\"type\":\"function\"}]);\nvar landregistry = landregistryContract.deploy({\n     data: '0x608060405234801561001057600080fd5b50611c75806100206000396000f3fe608060405234801561001057600080fd5b50600436106100575760003560e01c80632e7d68401461005c578063b7b6e54314610078578063c798ff7d14610096578063d7bce658146100b2578063e261f1e5146100d0575b600080fd5b61007660048036038101906100719190610ee7565b610106565b005b61008061049f565b60405161008d919061122f565b60405180910390f35b6100b060048036038101906100ab919061127d565b610827565b005b6100ba610a6d565b6040516100c791906112cc565b60405180910390f35b6100ea60048036038101906100e591906112e7565b610a73565b6040516100fd979695949392919061137c565b60405180910390f35b600085511161014a576040517f08c379a000000000000000000000000000000000000000000000000000000000815260040161014190611453565b60405180910390fd5b6000841161018d576040517f08c379a0000000000000000000000000000000000000000000000000000000008152600401610184906114bf565b60405180910390fd5b60008351116101d1576040517f08c379a00000000000000000000000000000000000000000000000000000000081526004016101c89061152b565b60405180910390fd5b6000825111610215576040517f08c379a000000000000000000000000000000000000000000000000000000000815260040161020c90611597565b60405180910390fd5b6000815111610259576040517f08c379a000000000000000000000000000000000000000000000000000000000815260040161025090611603565b60405180910390fd5b600183604051610269919061165f565b908152602001604051809103902060009054906101000a900460ff16156102c5576040517f08c379a00000000000000000000000000000000000000000000000000000000081526004016102bc906116c2565b60405180910390fd5b6040518060e001604052808681526020018581526020013373ffffffffffffffffffffffffffffffffffffffff168152602001848152602001838152602001828152602001600115158152506000806002548152602001908152602001600020600082015181600001908161033a91906118ee565b506020820151816001015560408201518160020160006101000a81548173ffffffffffffffffffffffffffffffffffffffff021916908373ffffffffffffffffffffffffffffffffffffffff16021790555060608201518160030190816103a191906118ee565b5060808201518160040190816103b791906118ee565b5060a08201518160050190816103cd91906118ee565b5060c08201518160060160006101000a81548160ff02191690831515021790555090505060018084604051610402919061165f565b908152602001604051809103902060006101000a81548160ff0219169083151502179055503373ffffffffffffffffffffffffffffffffffffffff166002547f291cc4d7438d72c7ac86127a5aee9737efa86872da9d572a94bc53cfe4a11dc487878787876040516104789594939291906119c0565b60405180910390a36002600081548092919061049390611a5e565b91905055505050505050565b6060600060025467ffffffffffffffff8111156104bf576104be610d86565b5b6040519080825280602002602001820160405280156104f857816020015b6104e5610d02565b8152602001906001900390816104dd5790505b50905060005b60025481101561081f5760008060008381526020019081526020016000209050806040518060e001604052908160008201805461053a90611711565b80601f016020809104026020016040519081016040528092919081815260200182805461056690611711565b80156105b35780601f10610588576101008083540402835291602001916105b3565b820191906000526020600020905b81548152906001019060200180831161059657829003601f168201915b50505050508152602001600182015481526020016002820160009054906101000a900473ffffffffffffffffffffffffffffffffffffffff1673ffffffffffffffffffffffffffffffffffffffff1673ffffffffffffffffffffffffffffffffffffffff16815260200160038201805461062c90611711565b80601f016020809104026020016040519081016040528092919081815260200182805461065890611711565b80156106a55780601f1061067a576101008083540402835291602001916106a5565b820191906000526020600020905b81548152906001019060200180831161068857829003601f168201915b505050505081526020016004820180546106be90611711565b80601f01602080910402602001604051908101604052809291908181526020018280546106ea90611711565b80156107375780601f1061070c57610100808354040283529160200191610737565b820191906000526020600020905b81548152906001019060200180831161071a57829003601f168201915b5050505050815260200160058201805461075090611711565b80601f016020809104026020016040519081016040528092919081815260200182805461077c90611711565b80156107c95780601f1061079e576101008083540402835291602001916107c9565b820191906000526020600020905b8154815290600101906020018083116107ac57829003601f168201915b505050505081526020016006820160009054906101000a900460ff161515151581525050838381518110610800576107ff611aa6565b5b602002602001018190525050808061081790611a5e565b9150506104fe565b508091505090565b8160008082815260200190815260200160002060020160009054906101000a900473ffffffffffffffffffffffffffffffffffffffff1673ffffffffffffffffffffffffffffffffffffffff163373ffffffffffffffffffffffffffffffffffffffff16146108cb576040517f08c379a00000000000000000000000000000000000000000000000000000000081526004016108c290611b47565b60405180910390fd5b600254831061090f576040517f08c379a000000000000000000000000000000000000000000000000000000000815260040161090690611bb3565b60405180910390fd5b600073ffffffffffffffffffffffffffffffffffffffff168273ffffffffffffffffffffffffffffffffffffffff160361097e576040517f08c379a000000000000000000000000000000000000000000000000000000000815260040161097590611c1f565b60405180910390fd5b600080600085815260200190815260200160002060020160009054906101000a900473ffffffffffffffffffffffffffffffffffffffff1690508260008086815260200190815260200160002060020160006101000a81548173ffffffffffffffffffffffffffffffffffffffff021916908373ffffffffffffffffffffffffffffffffffffffff1602179055508273ffffffffffffffffffffffffffffffffffffffff168173ffffffffffffffffffffffffffffffffffffffff16857f1080b2f211753e5090f26ef7ffdc6bb3e66a125c7290200d10b502160bb1f56660405160405180910390a450505050565b60025481565b6000602052806000526040600020600091509050806000018054610a9690611711565b80601f0160208091040260200160405190810160405280929190818152602001828054610ac290611711565b8015610b0f5780601f10610ae457610100808354040283529160200191610b0f565b820191906000526020600020905b815481529060010190602001808311610af257829003601f168201915b5050505050908060010154908060020160009054906101000a900473ffffffffffffffffffffffffffffffffffffffff1690806003018054610b5090611711565b80601f0160208091040260200160405190810160405280929190818152602001828054610b7c90611711565b8015610bc95780601f10610b9e57610100808354040283529160200191610bc9565b820191906000526020600020905b815481529060010190602001808311610bac57829003601f168201915b505050505090806004018054610bde90611711565b80601f0160208091040260200160405190810160405280929190818152602001828054610c0a90611711565b8015610c575780601f10610c2c57610100808354040283529160200191610c57565b820191906000526020600020905b815481529060010190602001808311610c3a57829003601f168201915b505050505090806005018054610c6c90611711565b80601f0160208091040260200160405190810160405280929190818152602001828054610c9890611711565b8015610ce55780601f10610cba57610100808354040283529160200191610ce5565b820191906000526020600020905b815481529060010190602001808311610cc857829003601f168201915b5050505050908060060160009054906101000a900460ff16905087565b6040518060e001604052806060815260200160008152602001600073ffffffffffffffffffffffffffffffffffffffff1681526020016060815260200160608152602001606081526020016000151581525090565b6000604051905090565b600080fd5b600080fd5b600080fd5b600080fd5b6000601f19601f8301169050919050565b7f4e487b7100000000000000000000000000000000000000000000000000000000600052604160045260246000fd5b610dbe82610d75565b810181811067ffffffffffffffff82111715610ddd57610ddc610d86565b5b80604052505050565b6000610df0610d57565b9050610dfc8282610db5565b919050565b600067ffffffffffffffff821115610e1c57610e1b610d86565b5b610e2582610d75565b9050602081019050919050565b82818337600083830152505050565b6000610e54610e4f84610e01565b610de6565b905082815260208101848484011115610e7057610e6f610d70565b5b610e7b848285610e32565b509392505050565b600082601f830112610e9857610e97610d6b565b5b8135610ea8848260208601610e41565b91505092915050565b6000819050919050565b610ec481610eb1565b8114610ecf57600080fd5b50565b600081359050610ee181610ebb565b92915050565b600080600080600060a08688031215610f0357610f02610d61565b5b600086013567ffffffffffffffff811115610f2157610f20610d66565b5b610f2d88828901610e83565b9550506020610f3e88828901610ed2565b945050604086013567ffffffffffffffff811115610f5f57610f5e610d66565b5b610f6b88828901610e83565b935050606086013567ffffffffffffffff811115610f8c57610f8b610d66565b5b610f9888828901610e83565b925050608086013567ffffffffffffffff811115610fb957610fb8610d66565b5b610fc588828901610e83565b9150509295509295909350565b600081519050919050565b600082825260208201905092915050565b6000819050602082019050919050565b600081519050919050565b600082825260208201905092915050565b60005b8381101561103857808201518184015260208101905061101d565b60008484015250505050565b600061104f82610ffe565b6110598185611009565b935061106981856020860161101a565b61107281610d75565b840191505092915050565b61108681610eb1565b82525050565b600073ffffffffffffffffffffffffffffffffffffffff82169050919050565b60006110b78261108c565b9050919050565b6110c7816110ac565b82525050565b60008115159050919050565b6110e2816110cd565b82525050565b600060e08301600083015184820360008601526111058282611044565b915050602083015161111a602086018261107d565b50604083015161112d60408601826110be565b50606083015184820360608601526111458282611044565b9150506080830151848203608086015261115f8282611044565b91505060a083015184820360a08601526111798282611044565b91505060c083015161118e60c08601826110d9565b508091505092915050565b60006111a583836110e8565b905092915050565b6000602082019050919050565b60006111c582610fd2565b6111cf8185610fdd565b9350836020820285016111e185610fee565b8060005b8581101561121d57848403895281516111fe8582611199565b9450611209836111ad565b925060208a019950506001810190506111e5565b50829750879550505050505092915050565b6000602082019050818103600083015261124981846111ba565b905092915050565b61125a816110ac565b811461126557600080fd5b50565b60008135905061127781611251565b92915050565b6000806040838503121561129457611293610d61565b5b60006112a285828601610ed2565b92505060206112b385828601611268565b9150509250929050565b6112c681610eb1565b82525050565b60006020820190506112e160008301846112bd565b92915050565b6000602082840312156112fd576112fc610d61565b5b600061130b84828501610ed2565b91505092915050565b600082825260208201905092915050565b600061133082610ffe565b61133a8185611314565b935061134a81856020860161101a565b61135381610d75565b840191505092915050565b611367816110ac565b82525050565b611376816110cd565b82525050565b600060e0820190508181036000830152611396818a611325565b90506113a560208301896112bd565b6113b2604083018861135e565b81810360608301526113c48187611325565b905081810360808301526113d88186611325565b905081810360a08301526113ec8185611325565b90506113fb60c083018461136d565b98975050505050505050565b7f4c6f636174696f6e206973207265717569726564000000000000000000000000600082015250565b600061143d601483611314565b915061144882611407565b602082019050919050565b6000602082019050818103600083015261146c81611430565b9050919050565b7f53697a65206d7573742062652067726561746572207468616e207a65726f0000600082015250565b60006114a9601e83611314565b91506114b482611473565b602082019050919050565b600060208201905081810360008301526114d88161149c565b9050919050565b7f446f63756d656e74206861736820697320726571756972656400000000000000600082015250565b6000611515601983611314565b9150611520826114df565b602082019050919050565b6000602082019050818103600083015261154481611508565b9050919050565b7f4c61746974756465206973207265717569726564000000000000000000000000600082015250565b6000611581601483611314565b915061158c8261154b565b602082019050919050565b600060208201905081810360008301526115b081611574565b9050919050565b7f4c6f6e6769747564652069732072657175697265640000000000000000000000600082015250565b60006115ed601583611314565b91506115f8826115b7565b602082019050919050565b6000602082019050818103600083015261161c816115e0565b9050919050565b600081905092915050565b600061163982610ffe565b6116438185611623565b935061165381856020860161101a565b80840191505092915050565b600061166b828461162e565b915081905092915050565b7f54686973206c616e6420697320616c7265616479207265676973746572656400600082015250565b60006116ac601f83611314565b91506116b782611676565b602082019050919050565b600060208201905081810360008301526116db8161169f565b9050919050565b7f4e487b7100000000000000000000000000000000000000000000000000000000600052602260045260246000fd5b6000600282049050600182168061172957607f821691505b60208210810361173c5761173b6116e2565b5b50919050565b60008190508160005260206000209050919050565b60006020601f8301049050919050565b600082821b905092915050565b6000600883026117a47fffffffffffffffffffffffffffffffffffffffffffffffffffffffffffffffff82611767565b6117ae8683611767565b95508019841693508086168417925050509392505050565b6000819050919050565b60006117eb6117e66117e184610eb1565b6117c6565b610eb1565b9050919050565b6000819050919050565b611805836117d0565b611819611811826117f2565b848454611774565b825550505050565b600090565b61182e611821565b6118398184846117fc565b505050565b5b8181101561185d57611852600082611826565b60018101905061183f565b5050565b601f8211156118a25761187381611742565b61187c84611757565b8101602085101561188b578190505b61189f61189785611757565b83018261183e565b50505b505050565b600082821c905092915050565b60006118c5600019846008026118a7565b1980831691505092915050565b60006118de83836118b4565b9150826002028217905092915050565b6118f782610ffe565b67ffffffffffffffff8111156119105761190f610d86565b5b61191a8254611711565b611925828285611861565b600060209050601f8311600181146119585760008415611946578287015190505b61195085826118d2565b8655506119b8565b601f19841661196686611742565b60005b8281101561198e57848901518255600182019150602085019450602081019050611969565b868310156119ab57848901516119a7601f8916826118b4565b8355505b6001600288020188555050505b505050505050565b600060a08201905081810360008301526119da8188611325565b90506119e960208301876112bd565b81810360408301526119fb8186611325565b90508181036060830152611a0f8185611325565b90508181036080830152611a238184611325565b90509695505050505050565b7f4e487b7100000000000000000000000000000000000000000000000000000000600052601160045260246000fd5b6000611a6982610eb1565b91507fffffffffffffffffffffffffffffffffffffffffffffffffffffffffffffffff8203611a9b57611a9a611a2f565b5b600182019050919050565b7f4e487b7100000000000000000000000000000000000000000000000000000000600052603260045260246000fd5b7f4f6e6c7920746865206f776e65722063616e20706572666f726d20746869732060008201527f616374696f6e0000000000000000000000000000000000000000000000000000602082015250565b6000611b31602683611314565b9150611b3c82611ad5565b604082019050919050565b60006020820190508181036000830152611b6081611b24565b9050919050565b7f4c616e6420494420697320696e76616c69640000000000000000000000000000600082015250565b6000611b9d601283611314565b9150611ba882611b67565b602082019050919050565b60006020820190508181036000830152611bcc81611b90565b9050919050565b7f4e6577206f776e65722061646472657373206973207265717569726564000000600082015250565b6000611c09601d83611314565b9150611c1482611bd3565b602082019050919050565b60006020820190508181036000830152611c3881611bfc565b905091905056fea26469706673582212208505534f8e71dcdb3d608c7bfd5b79a9e6db5d40e2e2d1c7fe12f442a50d3c3264736f6c63430008100033', \n     arguments: [\n     ]\n}).send({\n     from: web3.eth.accounts[0], \n     gas: '4700000'\n   }, function (e, contract){\n    console.log(e, contract);\n    if (typeof contract.address !== 'undefined') {\n         console.log('Contract mined! address: ' + contract.address + ' transactionHash: ' + contract.transactionHash);\n    }\n })",
	"functionHashes": {
		"b7b6e543": "getAllLands()",
		"d7bce658": "landCount()",
		"e261f1e5": "lands(uint256)",
		"2e7d6840": "registerLand(string,uint256,string,string,string)",
		"c798ff7d": "transferLand(uint256,address)"
	},
	"gasEstimates": {
		"Creation": {
			"codeDepositCost": "1457000",
			"executionCost": "1520",
			"totalCost": "1458520"
		},
		"External": {
			"getAllLands()": "infinite",
			"landCount()": "2473",
			"lands(uint256)": "infinite",
			"registerLand(string,uint256,string,string,string)": "infinite",
			"transferLand(uint256,address)": "33574"
		}
	},
	"devdoc": {
		"kind": "dev",
		"methods": {},
		"version": 1
	},
	"userdoc": {
		"kind": "user",
		"methods": {},
		"version": 1
	},
	"Runtime Bytecode": {
		"immutableReferences": {},
		"linkReferences": {},
		"object": "608060405234801561001057600080fd5b50600436106100575760003560e01c80632e7d68401461005c578063b7b6e54314610078578063c798ff7d14610096578063d7bce658146100b2578063e261f1e5146100d0575b600080fd5b61007660048036038101906100719190610ee7565b610106565b005b61008061049f565b60405161008d919061122f565b60405180910390f35b6100b060048036038101906100ab919061127d565b610827565b005b6100ba610a6d565b6040516100c791906112cc565b60405180910390f35b6100ea60048036038101906100e591906112e7565b610a73565b6040516100fd979695949392919061137c565b60405180910390f35b600085511161014a576040517f08c379a000000000000000000000000000000000000000000000000000000000815260040161014190611453565b60405180910390fd5b6000841161018d576040517f08c379a0000000000000000000000000000000000000000000000000000000008152600401610184906114bf565b60405180910390fd5b60008351116101d1576040517f08c379a00000000000000000000000000000000000000000000000000000000081526004016101c89061152b565b60405180910390fd5b6000825111610215576040517f08c379a000000000000000000000000000000000000000000000000000000000815260040161020c90611597565b60405180910390fd5b6000815111610259576040517f08c379a000000000000000000000000000000000000000000000000000000000815260040161025090611603565b60405180910390fd5b600183604051610269919061165f565b908152602001604051809103902060009054906101000a900460ff16156102c5576040517f08c379a00000000000000000000000000000000000000000000000000000000081526004016102bc906116c2565b60405180910390fd5b6040518060e001604052808681526020018581526020013373ffffffffffffffffffffffffffffffffffffffff168152602001848152602001838152602001828152602001600115158152506000806002548152602001908152602001600020600082015181600001908161033a91906118ee565b506020820151816001015560408201518160020160006101000a81548173ffffffffffffffffffffffffffffffffffffffff021916908373ffffffffffffffffffffffffffffffffffffffff16021790555060608201518160030190816103a191906118ee565b5060808201518160040190816103b791906118ee565b5060a08201518160050190816103cd91906118ee565b5060c08201518160060160006101000a81548160ff02191690831515021790555090505060018084604051610402919061165f565b908152602001604051809103902060006101000a81548160ff0219169083151502179055503373ffffffffffffffffffffffffffffffffffffffff166002547f291cc4d7438d72c7ac86127a5aee9737efa86872da9d572a94bc53cfe4a11dc487878787876040516104789594939291906119c0565b60405180910390a36002600081548092919061049390611a5e565b91905055505050505050565b6060600060025467ffffffffffffffff8111156104bf576104be610d86565b5b6040519080825280602002602001820160405280156104f857816020015b6104e5610d02565b8152602001906001900390816104dd5790505b50905060005b60025481101561081f5760008060008381526020019081526020016000209050806040518060e001604052908160008201805461053a90611711565b80601f016020809104026020016040519081016040528092919081815260200182805461056690611711565b80156105b35780601f10610588576101008083540402835291602001916105b3565b820191906000526020600020905b81548152906001019060200180831161059657829003601f168201915b50505050508152602001600182015481526020016002820160009054906101000a900473ffffffffffffffffffffffffffffffffffffffff1673ffffffffffffffffffffffffffffffffffffffff1673ffffffffffffffffffffffffffffffffffffffff16815260200160038201805461062c90611711565b80601f016020809104026020016040519081016040528092919081815260200182805461065890611711565b80156106a55780601f1061067a576101008083540402835291602001916106a5565b820191906000526020600020905b81548152906001019060200180831161068857829003601f168201915b505050505081526020016004820180546106be90611711565b80601f01602080910402602001604051908101604052809291908181526020018280546106ea90611711565b80156107375780601f1061070c57610100808354040283529160200191610737565b820191906000526020600020905b81548152906001019060200180831161071a57829003601f168201915b5050505050815260200160058201805461075090611711565b80601f016020809104026020016040519081016040528092919081815260200182805461077c90611711565b80156107c95780601f1061079e576101008083540402835291602001916107c9565b820191906000526020600020905b8154815290600101906020018083116107ac57829003601f168201915b505050505081526020016006820160009054906101000a900460ff161515151581525050838381518110610800576107ff611aa6565b5b602002602001018190525050808061081790611a5e565b9150506104fe565b508091505090565b8160008082815260200190815260200160002060020160009054906101000a900473ffffffffffffffffffffffffffffffffffffffff1673ffffffffffffffffffffffffffffffffffffffff163373ffffffffffffffffffffffffffffffffffffffff16146108cb576040517f08c379a00000000000000000000000000000000000000000000000000000000081526004016108c290611b47565b60405180910390fd5b600254831061090f576040517f08c379a000000000000000000000000000000000000000000000000000000000815260040161090690611bb3565b60405180910390fd5b600073ffffffffffffffffffffffffffffffffffffffff168273ffffffffffffffffffffffffffffffffffffffff160361097e576040517f08c379a000000000000000000000000000000000000000000000000000000000815260040161097590611c1f565b60405180910390fd5b600080600085815260200190815260200160002060020160009054906101000a900473ffffffffffffffffffffffffffffffffffffffff1690508260008086815260200190815260200160002060020160006101000a81548173ffffffffffffffffffffffffffffffffffffffff021916908373ffffffffffffffffffffffffffffffffffffffff1602179055508273ffffffffffffffffffffffffffffffffffffffff168173ffffffffffffffffffffffffffffffffffffffff16857f1080b2f211753e5090f26ef7ffdc6bb3e66a125c7290200d10b502160bb1f56660405160405180910390a450505050565b60025481565b6000602052806000526040600020600091509050806000018054610a9690611711565b80601f0160208091040260200160405190810160405280929190818152602001828054610ac290611711565b8015610b0f5780601f10610ae457610100808354040283529160200191610b0f565b820191906000526020600020905b815481529060010190602001808311610af257829003601f168201915b5050505050908060010154908060020160009054906101000a900473ffffffffffffffffffffffffffffffffffffffff1690806003018054610b5090611711565b80601f0160208091040260200160405190810160405280929190818152602001828054610b7c90611711565b8015610bc95780601f10610b9e57610100808354040283529160200191610bc9565b820191906000526020600020905b815481529060010190602001808311610bac57829003601f168201915b505050505090806004018054610bde90611711565b80601f0160208091040260200160405190810160405280929190818152602001828054610c0a90611711565b8015610c575780601f10610c2c57610100808354040283529160200191610c57565b820191906000526020600020905b815481529060010190602001808311610c3a57829003601f168201915b505050505090806005018054610c6c90611711565b80601f0160208091040260200160405190810160405280929190818152602001828054610c9890611711565b8015610ce55780601f10610cba57610100808354040283529160200191610ce5565b820191906000526020600020905b815481529060010190602001808311610cc857829003601f168201915b5050505050908060060160009054906101000a900460ff16905087565b6040518060e001604052806060815260200160008152602001600073ffffffffffffffffffffffffffffffffffffffff1681526020016060815260200160608152602001606081526020016000151581525090565b6000604051905090565b600080fd5b600080fd5b600080fd5b600080fd5b6000601f19601f8301169050919050565b7f4e487b7100000000000000000000000000000000000000000000000000000000600052604160045260246000fd5b610dbe82610d75565b810181811067ffffffffffffffff82111715610ddd57610ddc610d86565b5b80604052505050565b6000610df0610d57565b9050610dfc8282610db5565b919050565b600067ffffffffffffffff821115610e1c57610e1b610d86565b5b610e2582610d75565b9050602081019050919050565b82818337600083830152505050565b6000610e54610e4f84610e01565b610de6565b905082815260208101848484011115610e7057610e6f610d70565b5b610e7b848285610e32565b509392505050565b600082601f830112610e9857610e97610d6b565b5b8135610ea8848260208601610e41565b91505092915050565b6000819050919050565b610ec481610eb1565b8114610ecf57600080fd5b50565b600081359050610ee181610ebb565b92915050565b600080600080600060a08688031215610f0357610f02610d61565b5b600086013567ffffffffffffffff811115610f2157610f20610d66565b5b610f2d88828901610e83565b9550506020610f3e88828901610ed2565b945050604086013567ffffffffffffffff811115610f5f57610f5e610d66565b5b610f6b88828901610e83565b935050606086013567ffffffffffffffff811115610f8c57610f8b610d66565b5b610f9888828901610e83565b925050608086013567ffffffffffffffff811115610fb957610fb8610d66565b5b610fc588828901610e83565b9150509295509295909350565b600081519050919050565b600082825260208201905092915050565b6000819050602082019050919050565b600081519050919050565b600082825260208201905092915050565b60005b8381101561103857808201518184015260208101905061101d565b60008484015250505050565b600061104f82610ffe565b6110598185611009565b935061106981856020860161101a565b61107281610d75565b840191505092915050565b61108681610eb1565b82525050565b600073ffffffffffffffffffffffffffffffffffffffff82169050919050565b60006110b78261108c565b9050919050565b6110c7816110ac565b82525050565b60008115159050919050565b6110e2816110cd565b82525050565b600060e08301600083015184820360008601526111058282611044565b915050602083015161111a602086018261107d565b50604083015161112d60408601826110be565b50606083015184820360608601526111458282611044565b9150506080830151848203608086015261115f8282611044565b91505060a083015184820360a08601526111798282611044565b91505060c083015161118e60c08601826110d9565b508091505092915050565b60006111a583836110e8565b905092915050565b6000602082019050919050565b60006111c582610fd2565b6111cf8185610fdd565b9350836020820285016111e185610fee565b8060005b8581101561121d57848403895281516111fe8582611199565b9450611209836111ad565b925060208a019950506001810190506111e5565b50829750879550505050505092915050565b6000602082019050818103600083015261124981846111ba565b905092915050565b61125a816110ac565b811461126557600080fd5b50565b60008135905061127781611251565b92915050565b6000806040838503121561129457611293610d61565b5b60006112a285828601610ed2565b92505060206112b385828601611268565b9150509250929050565b6112c681610eb1565b82525050565b60006020820190506112e160008301846112bd565b92915050565b6000602082840312156112fd576112fc610d61565b5b600061130b84828501610ed2565b91505092915050565b600082825260208201905092915050565b600061133082610ffe565b61133a8185611314565b935061134a81856020860161101a565b61135381610d75565b840191505092915050565b611367816110ac565b82525050565b611376816110cd565b82525050565b600060e0820190508181036000830152611396818a611325565b90506113a560208301896112bd565b6113b2604083018861135e565b81810360608301526113c48187611325565b905081810360808301526113d88186611325565b905081810360a08301526113ec8185611325565b90506113fb60c083018461136d565b98975050505050505050565b7f4c6f636174696f6e206973207265717569726564000000000000000000000000600082015250565b600061143d601483611314565b915061144882611407565b602082019050919050565b6000602082019050818103600083015261146c81611430565b9050919050565b7f53697a65206d7573742062652067726561746572207468616e207a65726f0000600082015250565b60006114a9601e83611314565b91506114b482611473565b602082019050919050565b600060208201905081810360008301526114d88161149c565b9050919050565b7f446f63756d656e74206861736820697320726571756972656400000000000000600082015250565b6000611515601983611314565b9150611520826114df565b602082019050919050565b6000602082019050818103600083015261154481611508565b9050919050565b7f4c61746974756465206973207265717569726564000000000000000000000000600082015250565b6000611581601483611314565b915061158c8261154b565b602082019050919050565b600060208201905081810360008301526115b081611574565b9050919050565b7f4c6f6e6769747564652069732072657175697265640000000000000000000000600082015250565b60006115ed601583611314565b91506115f8826115b7565b602082019050919050565b6000602082019050818103600083015261161c816115e0565b9050919050565b600081905092915050565b600061163982610ffe565b6116438185611623565b935061165381856020860161101a565b80840191505092915050565b600061166b828461162e565b915081905092915050565b7f54686973206c616e6420697320616c7265616479207265676973746572656400600082015250565b60006116ac601f83611314565b91506116b782611676565b602082019050919050565b600060208201905081810360008301526116db8161169f565b9050919050565b7f4e487b7100000000000000000000000000000000000000000000000000000000600052602260045260246000fd5b6000600282049050600182168061172957607f821691505b60208210810361173c5761173b6116e2565b5b50919050565b60008190508160005260206000209050919050565b60006020601f8301049050919050565b600082821b905092915050565b6000600883026117a47fffffffffffffffffffffffffffffffffffffffffffffffffffffffffffffffff82611767565b6117ae8683611767565b95508019841693508086168417925050509392505050565b6000819050919050565b60006117eb6117e66117e184610eb1565b6117c6565b610eb1565b9050919050565b6000819050919050565b611805836117d0565b611819611811826117f2565b848454611774565b825550505050565b600090565b61182e611821565b6118398184846117fc565b505050565b5b8181101561185d57611852600082611826565b60018101905061183f565b5050565b601f8211156118a25761187381611742565b61187c84611757565b8101602085101561188b578190505b61189f61189785611757565b83018261183e565b50505b505050565b600082821c905092915050565b60006118c5600019846008026118a7565b1980831691505092915050565b60006118de83836118b4565b9150826002028217905092915050565b6118f782610ffe565b67ffffffffffffffff8111156119105761190f610d86565b5b61191a8254611711565b611925828285611861565b600060209050601f8311600181146119585760008415611946578287015190505b61195085826118d2565b8655506119b8565b601f19841661196686611742565b60005b8281101561198e57848901518255600182019150602085019450602081019050611969565b868310156119ab57848901516119a7601f8916826118b4565b8355505b6001600288020188555050505b505050505050565b600060a08201905081810360008301526119da8188611325565b90506119e960208301876112bd565b81810360408301526119fb8186611325565b90508181036060830152611a0f8185611325565b90508181036080830152611a238184611325565b90509695505050505050565b7f4e487b7100000000000000000000000000000000000000000000000000000000600052601160045260246000fd5b6000611a6982610eb1565b91507fffffffffffffffffffffffffffffffffffffffffffffffffffffffffffffffff8203611a9b57611a9a611a2f565b5b600182019050919050565b7f4e487b7100000000000000000000000000000000000000000000000000000000600052603260045260246000fd5b7f4f6e6c7920746865206f776e65722063616e20706572666f726d20746869732060008201527f616374696f6e0000000000000000000000000000000000000000000000000000602082015250565b6000611b31602683611314565b9150611b3c82611ad5565b604082019050919050565b60006020820190508181036000830152611b6081611b24565b9050919050565b7f4c616e6420494420697320696e76616c69640000000000000000000000000000600082015250565b6000611b9d601283611314565b9150611ba882611b67565b602082019050919050565b60006020820190508181036000830152611bcc81611b90565b9050919050565b7f4e6577206f776e65722061646472657373206973207265717569726564000000600082015250565b6000611c09601d83611314565b9150611c1482611bd3565b602082019050919050565b60006020820190508181036000830152611c3881611bfc565b905091905056fea26469706673582212208505534f8e71dcdb3d608c7bfd5b79a9e6db5d40e2e2d1c7fe12f442a50d3c3264736f6c63430008100033",
		"opcodes": "PUSH1 0x80 PUSH1 0x40 MSTORE CALLVALUE DUP1 ISZERO PUSH2 0x10 JUMPI PUSH1 0x0 DUP1 REVERT JUMPDEST POP PUSH1 0x4 CALLDATASIZE LT PUSH2 0x57 JUMPI PUSH1 0x0 CALLDATALOAD PUSH1 0xE0 SHR DUP1 PUSH4 0x2E7D6840 EQ PUSH2 0x5C JUMPI DUP1 PUSH4 0xB7B6E543 EQ PUSH2 0x78 JUMPI DUP1 PUSH4 0xC798FF7D EQ PUSH2 0x96 JUMPI DUP1 PUSH4 0xD7BCE658 EQ PUSH2 0xB2 JUMPI DUP1 PUSH4 0xE261F1E5 EQ PUSH2 0xD0 JUMPI JUMPDEST PUSH1 0x0 DUP1 REVERT JUMPDEST PUSH2 0x76 PUSH1 0x4 DUP1 CALLDATASIZE SUB DUP2 ADD SWAP1 PUSH2 0x71 SWAP2 SWAP1 PUSH2 0xEE7 JUMP JUMPDEST PUSH2 0x106 JUMP JUMPDEST STOP JUMPDEST PUSH2 0x80 PUSH2 0x49F JUMP JUMPDEST PUSH1 0x40 MLOAD PUSH2 0x8D SWAP2 SWAP1 PUSH2 0x122F JUMP JUMPDEST PUSH1 0x40 MLOAD DUP1 SWAP2 SUB SWAP1 RETURN JUMPDEST PUSH2 0xB0 PUSH1 0x4 DUP1 CALLDATASIZE SUB DUP2 ADD SWAP1 PUSH2 0xAB SWAP2 SWAP1 PUSH2 0x127D JUMP JUMPDEST PUSH2 0x827 JUMP JUMPDEST STOP JUMPDEST PUSH2 0xBA PUSH2 0xA6D JUMP JUMPDEST PUSH1 0x40 MLOAD PUSH2 0xC7 SWAP2 SWAP1 PUSH2 0x12CC JUMP JUMPDEST PUSH1 0x40 MLOAD DUP1 SWAP2 SUB SWAP1 RETURN JUMPDEST PUSH2 0xEA PUSH1 0x4 DUP1 CALLDATASIZE SUB DUP2 ADD SWAP1 PUSH2 0xE5 SWAP2 SWAP1 PUSH2 0x12E7 JUMP JUMPDEST PUSH2 0xA73 JUMP JUMPDEST PUSH1 0x40 MLOAD PUSH2 0xFD SWAP8 SWAP7 SWAP6 SWAP5 SWAP4 SWAP3 SWAP2 SWAP1 PUSH2 0x137C JUMP JUMPDEST PUSH1 0x40 MLOAD DUP1 SWAP2 SUB SWAP1 RETURN JUMPDEST PUSH1 0x0 DUP6 MLOAD GT PUSH2 0x14A JUMPI PUSH1 0x40 MLOAD PUSH32 0x8C379A000000000000000000000000000000000000000000000000000000000 DUP2 MSTORE PUSH1 0x4 ADD PUSH2 0x141 SWAP1 PUSH2 0x1453 JUMP JUMPDEST PUSH1 0x40 MLOAD DUP1 SWAP2 SUB SWAP1 REVERT JUMPDEST PUSH1 0x0 DUP5 GT PUSH2 0x18D JUMPI PUSH1 0x40 MLOAD PUSH32 0x8C379A000000000000000000000000000000000000000000000000000000000 DUP2 MSTORE PUSH1 0x4 ADD PUSH2 0x184 SWAP1 PUSH2 0x14BF JUMP JUMPDEST PUSH1 0x40 MLOAD DUP1 SWAP2 SUB SWAP1 REVERT JUMPDEST PUSH1 0x0 DUP4 MLOAD GT PUSH2 0x1D1 JUMPI PUSH1 0x40 MLOAD PUSH32 0x8C379A000000000000000000000000000000000000000000000000000000000 DUP2 MSTORE PUSH1 0x4 ADD PUSH2 0x1C8 SWAP1 PUSH2 0x152B JUMP JUMPDEST PUSH1 0x40 MLOAD DUP1 SWAP2 SUB SWAP1 REVERT JUMPDEST PUSH1 0x0 DUP3 MLOAD GT PUSH2 0x215 JUMPI PUSH1 0x40 MLOAD PUSH32 0x8C379A000000000000000000000000000000000000000000000000000000000 DUP2 MSTORE PUSH1 0x4 ADD PUSH2 0x20C SWAP1 PUSH2 0x1597 JUMP JUMPDEST PUSH1 0x40 MLOAD DUP1 SWAP2 SUB SWAP1 REVERT JUMPDEST PUSH1 0x0 DUP2 MLOAD GT PUSH2 0x259 JUMPI PUSH1 0x40 MLOAD PUSH32 0x8C379A000000000000000000000000000000000000000000000000000000000 DUP2 MSTORE PUSH1 0x4 ADD PUSH2 0x250 SWAP1 PUSH2 0x1603 JUMP JUMPDEST PUSH1 0x40 MLOAD DUP1 SWAP2 SUB SWAP1 REVERT JUMPDEST PUSH1 0x1 DUP4 PUSH1 0x40 MLOAD PUSH2 0x269 SWAP2 SWAP1 PUSH2 0x165F JUMP JUMPDEST SWAP1 DUP2 MSTORE PUSH1 0x20 ADD PUSH1 0x40 MLOAD DUP1 SWAP2 SUB SWAP1 KECCAK256 PUSH1 0x0 SWAP1 SLOAD SWAP1 PUSH2 0x100 EXP SWAP1 DIV PUSH1 0xFF AND ISZERO PUSH2 0x2C5 JUMPI PUSH1 0x40 MLOAD PUSH32 0x8C379A000000000000000000000000000000000000000000000000000000000 DUP2 MSTORE PUSH1 0x4 ADD PUSH2 0x2BC SWAP1 PUSH2 0x16C2 JUMP JUMPDEST PUSH1 0x40 MLOAD DUP1 SWAP2 SUB SWAP1 REVERT JUMPDEST PUSH1 0x40 MLOAD DUP1 PUSH1 0xE0 ADD PUSH1 0x40 MSTORE DUP1 DUP7 DUP2 MSTORE PUSH1 0x20 ADD DUP6 DUP2 MSTORE PUSH1 0x20 ADD CALLER PUSH20 0xFFFFFFFFFFFFFFFFFFFFFFFFFFFFFFFFFFFFFFFF AND DUP2 MSTORE PUSH1 0x20 ADD DUP5 DUP2 MSTORE PUSH1 0x20 ADD DUP4 DUP2 MSTORE PUSH1 0x20 ADD DUP3 DUP2 MSTORE PUSH1 0x20 ADD PUSH1 0x1 ISZERO ISZERO DUP2 MSTORE POP PUSH1 0x0 DUP1 PUSH1 0x2 SLOAD DUP2 MSTORE PUSH1 0x20 ADD SWAP1 DUP2 MSTORE PUSH1 0x20 ADD PUSH1 0x0 KECCAK256 PUSH1 0x0 DUP3 ADD MLOAD DUP2 PUSH1 0x0 ADD SWAP1 DUP2 PUSH2 0x33A SWAP2 SWAP1 PUSH2 0x18EE JUMP JUMPDEST POP PUSH1 0x20 DUP3 ADD MLOAD DUP2 PUSH1 0x1 ADD SSTORE PUSH1 0x40 DUP3 ADD MLOAD DUP2 PUSH1 0x2 ADD PUSH1 0x0 PUSH2 0x100 EXP DUP2 SLOAD DUP2 PUSH20 0xFFFFFFFFFFFFFFFFFFFFFFFFFFFFFFFFFFFFFFFF MUL NOT AND SWAP1 DUP4 PUSH20 0xFFFFFFFFFFFFFFFFFFFFFFFFFFFFFFFFFFFFFFFF AND MUL OR SWAP1 SSTORE POP PUSH1 0x60 DUP3 ADD MLOAD DUP2 PUSH1 0x3 ADD SWAP1 DUP2 PUSH2 0x3A1 SWAP2 SWAP1 PUSH2 0x18EE JUMP JUMPDEST POP PUSH1 0x80 DUP3 ADD MLOAD DUP2 PUSH1 0x4 ADD SWAP1 DUP2 PUSH2 0x3B7 SWAP2 SWAP1 PUSH2 0x18EE JUMP JUMPDEST POP PUSH1 0xA0 DUP3 ADD MLOAD DUP2 PUSH1 0x5 ADD SWAP1 DUP2 PUSH2 0x3CD SWAP2 SWAP1 PUSH2 0x18EE JUMP JUMPDEST POP PUSH1 0xC0 DUP3 ADD MLOAD DUP2 PUSH1 0x6 ADD PUSH1 0x0 PUSH2 0x100 EXP DUP2 SLOAD DUP2 PUSH1 0xFF MUL NOT AND SWAP1 DUP4 ISZERO ISZERO MUL OR SWAP1 SSTORE POP SWAP1 POP POP PUSH1 0x1 DUP1 DUP5 PUSH1 0x40 MLOAD PUSH2 0x402 SWAP2 SWAP1 PUSH2 0x165F JUMP JUMPDEST SWAP1 DUP2 MSTORE PUSH1 0x20 ADD PUSH1 0x40 MLOAD DUP1 SWAP2 SUB SWAP1 KECCAK256 PUSH1 0x0 PUSH2 0x100 EXP DUP2 SLOAD DUP2 PUSH1 0xFF MUL NOT AND SWAP1 DUP4 ISZERO ISZERO MUL OR SWAP1 SSTORE POP CALLER PUSH20 0xFFFFFFFFFFFFFFFFFFFFFFFFFFFFFFFFFFFFFFFF AND PUSH1 0x2 SLOAD PUSH32 0x291CC4D7438D72C7AC86127A5AEE9737EFA86872DA9D572A94BC53CFE4A11DC4 DUP8 DUP8 DUP8 DUP8 DUP8 PUSH1 0x40 MLOAD PUSH2 0x478 SWAP6 SWAP5 SWAP4 SWAP3 SWAP2 SWAP1 PUSH2 0x19C0 JUMP JUMPDEST PUSH1 0x40 MLOAD DUP1 SWAP2 SUB SWAP1 LOG3 PUSH1 0x2 PUSH1 0x0 DUP2 SLOAD DUP1 SWAP3 SWAP2 SWAP1 PUSH2 0x493 SWAP1 PUSH2 0x1A5E JUMP JUMPDEST SWAP2 SWAP1 POP SSTORE POP POP POP POP POP POP JUMP JUMPDEST PUSH1 0x60 PUSH1 0x0 PUSH1 0x2 SLOAD PUSH8 0xFFFFFFFFFFFFFFFF DUP2 GT ISZERO PUSH2 0x4BF JUMPI PUSH2 0x4BE PUSH2 0xD86 JUMP JUMPDEST JUMPDEST PUSH1 0x40 MLOAD SWAP1 DUP1 DUP3 MSTORE DUP1 PUSH1 0x20 MUL PUSH1 0x20 ADD DUP3 ADD PUSH1 0x40 MSTORE DUP1 ISZERO PUSH2 0x4F8 JUMPI DUP2 PUSH1 0x20 ADD JUMPDEST PUSH2 0x4E5 PUSH2 0xD02 JUMP JUMPDEST DUP2 MSTORE PUSH1 0x20 ADD SWAP1 PUSH1 0x1 SWAP1 SUB SWAP1 DUP2 PUSH2 0x4DD JUMPI SWAP1 POP JUMPDEST POP SWAP1 POP PUSH1 0x0 JUMPDEST PUSH1 0x2 SLOAD DUP2 LT ISZERO PUSH2 0x81F JUMPI PUSH1 0x0 DUP1 PUSH1 0x0 DUP4 DUP2 MSTORE PUSH1 0x20 ADD SWAP1 DUP2 MSTORE PUSH1 0x20 ADD PUSH1 0x0 KECCAK256 SWAP1 POP DUP1 PUSH1 0x40 MLOAD DUP1 PUSH1 0xE0 ADD PUSH1 0x40 MSTORE SWAP1 DUP2 PUSH1 0x0 DUP3 ADD DUP1 SLOAD PUSH2 0x53A SWAP1 PUSH2 0x1711 JUMP JUMPDEST DUP1 PUSH1 0x1F ADD PUSH1 0x20 DUP1 SWAP2 DIV MUL PUSH1 0x20 ADD PUSH1 0x40 MLOAD SWAP1 DUP2 ADD PUSH1 0x40 MSTORE DUP1 SWAP3 SWAP2 SWAP1 DUP2 DUP2 MSTORE PUSH1 0x20 ADD DUP3 DUP1 SLOAD PUSH2 0x566 SWAP1 PUSH2 0x1711 JUMP JUMPDEST DUP1 ISZERO PUSH2 0x5B3 JUMPI DUP1 PUSH1 0x1F LT PUSH2 0x588 JUMPI PUSH2 0x100 DUP1 DUP4 SLOAD DIV MUL DUP4 MSTORE SWAP2 PUSH1 0x20 ADD SWAP2 PUSH2 0x5B3 JUMP JUMPDEST DUP3 ADD SWAP2 SWAP1 PUSH1 0x0 MSTORE PUSH1 0x20 PUSH1 0x0 KECCAK256 SWAP1 JUMPDEST DUP2 SLOAD DUP2 MSTORE SWAP1 PUSH1 0x1 ADD SWAP1 PUSH1 0x20 ADD DUP1 DUP4 GT PUSH2 0x596 JUMPI DUP3 SWAP1 SUB PUSH1 0x1F AND DUP3 ADD SWAP2 JUMPDEST POP POP POP POP POP DUP2 MSTORE PUSH1 0x20 ADD PUSH1 0x1 DUP3 ADD SLOAD DUP2 MSTORE PUSH1 0x20 ADD PUSH1 0x2 DUP3 ADD PUSH1 0x0 SWAP1 SLOAD SWAP1 PUSH2 0x100 EXP SWAP1 DIV PUSH20 0xFFFFFFFFFFFFFFFFFFFFFFFFFFFFFFFFFFFFFFFF AND PUSH20 0xFFFFFFFFFFFFFFFFFFFFFFFFFFFFFFFFFFFFFFFF AND PUSH20 0xFFFFFFFFFFFFFFFFFFFFFFFFFFFFFFFFFFFFFFFF AND DUP2 MSTORE PUSH1 0x20 ADD PUSH1 0x3 DUP3 ADD DUP1 SLOAD PUSH2 0x62C SWAP1 PUSH2 0x1711 JUMP JUMPDEST DUP1 PUSH1 0x1F ADD PUSH1 0x20 DUP1 SWAP2 DIV MUL PUSH1 0x20 ADD PUSH1 0x40 MLOAD SWAP1 DUP2 ADD PUSH1 0x40 MSTORE DUP1 SWAP3 SWAP2 SWAP1 DUP2 DUP2 MSTORE PUSH1 0x20 ADD DUP3 DUP1 SLOAD PUSH2 0x658 SWAP1 PUSH2 0x1711 JUMP JUMPDEST DUP1 ISZERO PUSH2 0x6A5 JUMPI DUP1 PUSH1 0x1F LT PUSH2 0x67A JUMPI PUSH2 0x100 DUP1 DUP4 SLOAD DIV MUL DUP4 MSTORE SWAP2 PUSH1 0x20 ADD SWAP2 PUSH2 0x6A5 JUMP JUMPDEST DUP3 ADD SWAP2 SWAP1 PUSH1 0x0 MSTORE PUSH1 0x20 PUSH1 0x0 KECCAK256 SWAP1 JUMPDEST DUP2 SLOAD DUP2 MSTORE SWAP1 PUSH1 0x1 ADD SWAP1 PUSH1 0x20 ADD DUP1 DUP4 GT PUSH2 0x688 JUMPI DUP3 SWAP1 SUB PUSH1 0x1F AND DUP3 ADD SWAP2 JUMPDEST POP POP POP POP POP DUP2 MSTORE PUSH1 0x20 ADD PUSH1 0x4 DUP3 ADD DUP1 SLOAD PUSH2 0x6BE SWAP1 PUSH2 0x1711 JUMP JUMPDEST DUP1 PUSH1 0x1F ADD PUSH1 0x20 DUP1 SWAP2 DIV MUL PUSH1 0x20 ADD PUSH1 0x40 MLOAD SWAP1 DUP2 ADD PUSH1 0x40 MSTORE DUP1 SWAP3 SWAP2 SWAP1 DUP2 DUP2 MSTORE PUSH1 0x20 ADD DUP3 DUP1 SLOAD PUSH2 0x6EA SWAP1 PUSH2 0x1711 JUMP JUMPDEST DUP1 ISZERO PUSH2 0x737 JUMPI DUP1 PUSH1 0x1F LT PUSH2 0x70C JUMPI PUSH2 0x100 DUP1 DUP4 SLOAD DIV MUL DUP4 MSTORE SWAP2 PUSH1 0x20 ADD SWAP2 PUSH2 0x737 JUMP JUMPDEST DUP3 ADD SWAP2 SWAP1 PUSH1 0x0 MSTORE PUSH1 0x20 PUSH1 0x0 KECCAK256 SWAP1 JUMPDEST DUP2 SLOAD DUP2 MSTORE SWAP1 PUSH1 0x1 ADD SWAP1 PUSH1 0x20 ADD DUP1 DUP4 GT PUSH2 0x71A JUMPI DUP3 SWAP1 SUB PUSH1 0x1F AND DUP3 ADD SWAP2 JUMPDEST POP POP POP POP POP DUP2 MSTORE PUSH1 0x20 ADD PUSH1 0x5 DUP3 ADD DUP1 SLOAD PUSH2 0x750 SWAP1 PUSH2 0x1711 JUMP JUMPDEST DUP1 PUSH1 0x1F ADD PUSH1 0x20 DUP1 SWAP2 DIV MUL PUSH1 0x20 ADD PUSH1 0x40 MLOAD SWAP1 DUP2 ADD PUSH1 0x40 MSTORE DUP1 SWAP3 SWAP2 SWAP1 DUP2 DUP2 MSTORE PUSH1 0x20 ADD DUP3 DUP1 SLOAD PUSH2 0x77C SWAP1 PUSH2 0x1711 JUMP JUMPDEST DUP1 ISZERO PUSH2 0x7C9 JUMPI DUP1 PUSH1 0x1F LT PUSH2 0x79E JUMPI PUSH2 0x100 DUP1 DUP4 SLOAD DIV MUL DUP4 MSTORE SWAP2 PUSH1 0x20 ADD SWAP2 PUSH2 0x7C9 JUMP JUMPDEST DUP3 ADD SWAP2 SWAP1 PUSH1 0x0 MSTORE PUSH1 0x20 PUSH1 0x0 KECCAK256 SWAP1 JUMPDEST DUP2 SLOAD DUP2 MSTORE SWAP1 PUSH1 0x1 ADD SWAP1 PUSH1 0x20 ADD DUP1 DUP4 GT PUSH2 0x7AC JUMPI DUP3 SWAP1 SUB PUSH1 0x1F AND DUP3 ADD SWAP2 JUMPDEST POP POP POP POP POP DUP2 MSTORE PUSH1 0x20 ADD PUSH1 0x6 DUP3 ADD PUSH1 0x0 SWAP1 SLOAD SWAP1 PUSH2 0x100 EXP SWAP1 DIV PUSH1 0xFF AND ISZERO ISZERO ISZERO ISZERO DUP2 MSTORE POP POP DUP4 DUP4 DUP2 MLOAD DUP2 LT PUSH2 0x800 JUMPI PUSH2 0x7FF PUSH2 0x1AA6 JUMP JUMPDEST JUMPDEST PUSH1 0x20 MUL PUSH1 0x20 ADD ADD DUP2 SWAP1 MSTORE POP POP DUP1 DUP1 PUSH2 0x817 SWAP1 PUSH2 0x1A5E JUMP JUMPDEST SWAP2 POP POP PUSH2 0x4FE JUMP JUMPDEST POP DUP1 SWAP2 POP POP SWAP1 JUMP JUMPDEST DUP2 PUSH1 0x0 DUP1 DUP3 DUP2 MSTORE PUSH1 0x20 ADD SWAP1 DUP2 MSTORE PUSH1 0x20 ADD PUSH1 0x0 KECCAK256 PUSH1 0x2 ADD PUSH1 0x0 SWAP1 SLOAD SWAP1 PUSH2 0x100 EXP SWAP1 DIV PUSH20 0xFFFFFFFFFFFFFFFFFFFFFFFFFFFFFFFFFFFFFFFF AND PUSH20 0xFFFFFFFFFFFFFFFFFFFFFFFFFFFFFFFFFFFFFFFF AND CALLER PUSH20 0xFFFFFFFFFFFFFFFFFFFFFFFFFFFFFFFFFFFFFFFF AND EQ PUSH2 0x8CB JUMPI PUSH1 0x40 MLOAD PUSH32 0x8C379A000000000000000000000000000000000000000000000000000000000 DUP2 MSTORE PUSH1 0x4 ADD PUSH2 0x8C2 SWAP1 PUSH2 0x1B47 JUMP JUMPDEST PUSH1 0x40 MLOAD DUP1 SWAP2 SUB SWAP1 REVERT JUMPDEST PUSH1 0x2 SLOAD DUP4 LT PUSH2 0x90F JUMPI PUSH1 0x40 MLOAD PUSH32 0x8C379A000000000000000000000000000000000000000000000000000000000 DUP2 MSTORE PUSH1 0x4 ADD PUSH2 0x906 SWAP1 PUSH2 0x1BB3 JUMP JUMPDEST PUSH1 0x40 MLOAD DUP1 SWAP2 SUB SWAP1 REVERT JUMPDEST PUSH1 0x0 PUSH20 0xFFFFFFFFFFFFFFFFFFFFFFFFFFFFFFFFFFFFFFFF AND DUP3 PUSH20 0xFFFFFFFFFFFFFFFFFFFFFFFFFFFFFFFFFFFFFFFF AND SUB PUSH2 0x97E JUMPI PUSH1 0x40 MLOAD PUSH32 0x8C379A000000000000000000000000000000000000000000000000000000000 DUP2 MSTORE PUSH1 0x4 ADD PUSH2 0x975 SWAP1 PUSH2 0x1C1F JUMP JUMPDEST PUSH1 0x40 MLOAD DUP1 SWAP2 SUB SWAP1 REVERT JUMPDEST PUSH1 0x0 DUP1 PUSH1 0x0 DUP6 DUP2 MSTORE PUSH1 0x20 ADD SWAP1 DUP2 MSTORE PUSH1 0x20 ADD PUSH1 0x0 KECCAK256 PUSH1 0x2 ADD PUSH1 0x0 SWAP1 SLOAD SWAP1 PUSH2 0x100 EXP SWAP1 DIV PUSH20 0xFFFFFFFFFFFFFFFFFFFFFFFFFFFFFFFFFFFFFFFF AND SWAP1 POP DUP3 PUSH1 0x0 DUP1 DUP7 DUP2 MSTORE PUSH1 0x20 ADD SWAP1 DUP2 MSTORE PUSH1 0x20 ADD PUSH1 0x0 KECCAK256 PUSH1 0x2 ADD PUSH1 0x0 PUSH2 0x100 EXP DUP2 SLOAD DUP2 PUSH20 0xFFFFFFFFFFFFFFFFFFFFFFFFFFFFFFFFFFFFFFFF MUL NOT AND SWAP1 DUP4 PUSH20 0xFFFFFFFFFFFFFFFFFFFFFFFFFFFFFFFFFFFFFFFF AND MUL OR SWAP1 SSTORE POP DUP3 PUSH20 0xFFFFFFFFFFFFFFFFFFFFFFFFFFFFFFFFFFFFFFFF AND DUP2 PUSH20 0xFFFFFFFFFFFFFFFFFFFFFFFFFFFFFFFFFFFFFFFF AND DUP6 PUSH32 0x1080B2F211753E5090F26EF7FFDC6BB3E66A125C7290200D10B502160BB1F566 PUSH1 0x40 MLOAD PUSH1 0x40 MLOAD DUP1 SWAP2 SUB SWAP1 LOG4 POP POP POP POP JUMP JUMPDEST PUSH1 0x2 SLOAD DUP2 JUMP JUMPDEST PUSH1 0x0 PUSH1 0x20 MSTORE DUP1 PUSH1 0x0 MSTORE PUSH1 0x40 PUSH1 0x0 KECCAK256 PUSH1 0x0 SWAP2 POP SWAP1 POP DUP1 PUSH1 0x0 ADD DUP1 SLOAD PUSH2 0xA96 SWAP1 PUSH2 0x1711 JUMP JUMPDEST DUP1 PUSH1 0x1F ADD PUSH1 0x20 DUP1 SWAP2 DIV MUL PUSH1 0x20 ADD PUSH1 0x40 MLOAD SWAP1 DUP2 ADD PUSH1 0x40 MSTORE DUP1 SWAP3 SWAP2 SWAP1 DUP2 DUP2 MSTORE PUSH1 0x20 ADD DUP3 DUP1 SLOAD PUSH2 0xAC2 SWAP1 PUSH2 0x1711 JUMP JUMPDEST DUP1 ISZERO PUSH2 0xB0F JUMPI DUP1 PUSH1 0x1F LT PUSH2 0xAE4 JUMPI PUSH2 0x100 DUP1 DUP4 SLOAD DIV MUL DUP4 MSTORE SWAP2 PUSH1 0x20 ADD SWAP2 PUSH2 0xB0F JUMP JUMPDEST DUP3 ADD SWAP2 SWAP1 PUSH1 0x0 MSTORE PUSH1 0x20 PUSH1 0x0 KECCAK256 SWAP1 JUMPDEST DUP2 SLOAD DUP2 MSTORE SWAP1 PUSH1 0x1 ADD SWAP1 PUSH1 0x20 ADD DUP1 DUP4 GT PUSH2 0xAF2 JUMPI DUP3 SWAP1 SUB PUSH1 0x1F AND DUP3 ADD SWAP2 JUMPDEST POP POP POP POP POP SWAP1 DUP1 PUSH1 0x1 ADD SLOAD SWAP1 DUP1 PUSH1 0x2 ADD PUSH1 0x0 SWAP1 SLOAD SWAP1 PUSH2 0x100 EXP SWAP1 DIV PUSH20 0xFFFFFFFFFFFFFFFFFFFFFFFFFFFFFFFFFFFFFFFF AND SWAP1 DUP1 PUSH1 0x3 ADD DUP1 SLOAD PUSH2 0xB50 SWAP1 PUSH2 0x1711 JUMP JUMPDEST DUP1 PUSH1 0x1F ADD PUSH1 0x20 DUP1 SWAP2 DIV MUL PUSH1 0x20 ADD PUSH1 0x40 MLOAD SWAP1 DUP2 ADD PUSH1 0x40 MSTORE DUP1 SWAP3 SWAP2 SWAP1 DUP2 DUP2 MSTORE PUSH1 0x20 ADD DUP3 DUP1 SLOAD PUSH2 0xB7C SWAP1 PUSH2 0x1711 JUMP JUMPDEST DUP1 ISZERO PUSH2 0xBC9 JUMPI DUP1 PUSH1 0x1F LT PUSH2 0xB9E JUMPI PUSH2 0x100 DUP1 DUP4 SLOAD DIV MUL DUP4 MSTORE SWAP2 PUSH1 0x20 ADD SWAP2 PUSH2 0xBC9 JUMP JUMPDEST DUP3 ADD SWAP2 SWAP1 PUSH1 0x0 MSTORE PUSH1 0x20 PUSH1 0x0 KECCAK256 SWAP1 JUMPDEST DUP2 SLOAD DUP2 MSTORE SWAP1 PUSH1 0x1 ADD SWAP1 PUSH1 0x20 ADD DUP1 DUP4 GT PUSH2 0xBAC JUMPI DUP3 SWAP1 SUB PUSH1 0x1F AND DUP3 ADD SWAP2 JUMPDEST POP POP POP POP POP SWAP1 DUP1 PUSH1 0x4 ADD DUP1 SLOAD PUSH2 0xBDE SWAP1 PUSH2 0x1711 JUMP JUMPDEST DUP1 PUSH1 0x1F ADD PUSH1 0x20 DUP1 SWAP2 DIV MUL PUSH1 0x20 ADD PUSH1 0x40 MLOAD SWAP1 DUP2 ADD PUSH1 0x40 MSTORE DUP1 SWAP3 SWAP2 SWAP1 DUP2 DUP2 MSTORE PUSH1 0x20 ADD DUP3 DUP1 SLOAD PUSH2 0xC0A SWAP1 PUSH2 0x1711 JUMP JUMPDEST DUP1 ISZERO PUSH2 0xC57 JUMPI DUP1 PUSH1 0x1F LT PUSH2 0xC2C JUMPI PUSH2 0x100 DUP1 DUP4 SLOAD DIV MUL DUP4 MSTORE SWAP2 PUSH1 0x20 ADD SWAP2 PUSH2 0xC57 JUMP JUMPDEST DUP3 ADD SWAP2 SWAP1 PUSH1 0x0 MSTORE PUSH1 0x20 PUSH1 0x0 KECCAK256 SWAP1 JUMPDEST DUP2 SLOAD DUP2 MSTORE SWAP1 PUSH1 0x1 ADD SWAP1 PUSH1 0x20 ADD DUP1 DUP4 GT PUSH2 0xC3A JUMPI DUP3 SWAP1 SUB PUSH1 0x1F AND DUP3 ADD SWAP2 JUMPDEST POP POP POP POP POP SWAP1 DUP1 PUSH1 0x5 ADD DUP1 SLOAD PUSH2 0xC6C SWAP1 PUSH2 0x1711 JUMP JUMPDEST DUP1 PUSH1 0x1F ADD PUSH1 0x20 DUP1 SWAP2 DIV MUL PUSH1 0x20 ADD PUSH1 0x40 MLOAD SWAP1 DUP2 ADD PUSH1 0x40 MSTORE DUP1 SWAP3 SWAP2 SWAP1 DUP2 DUP2 MSTORE PUSH1 0x20 ADD DUP3 DUP1 SLOAD PUSH2 0xC98 SWAP1 PUSH2 0x1711 JUMP JUMPDEST DUP1 ISZERO PUSH2 0xCE5 JUMPI DUP1 PUSH1 0x1F LT PUSH2 0xCBA JUMPI PUSH2 0x100 DUP1 DUP4 SLOAD DIV MUL DUP4 MSTORE SWAP2 PUSH1 0x20 ADD SWAP2 PUSH2 0xCE5 JUMP JUMPDEST DUP3 ADD SWAP2 SWAP1 PUSH1 0x0 MSTORE PUSH1 0x20 PUSH1 0x0 KECCAK256 SWAP1 JUMPDEST DUP2 SLOAD DUP2 MSTORE SWAP1 PUSH1 0x1 ADD SWAP1 PUSH1 0x20 ADD DUP1 DUP4 GT PUSH2 0xCC8 JUMPI DUP3 SWAP1 SUB PUSH1 0x1F AND DUP3 ADD SWAP2 JUMPDEST POP POP POP POP POP SWAP1 DUP1 PUSH1 0x6 ADD PUSH1 0x0 SWAP1 SLOAD SWAP1 PUSH2 0x100 EXP SWAP1 DIV PUSH1 0xFF AND SWAP1 POP DUP8 JUMP JUMPDEST PUSH1 0x40 MLOAD DUP1 PUSH1 0xE0 ADD PUSH1 0x40 MSTORE DUP1 PUSH1 0x60 DUP2 MSTORE PUSH1 0x20 ADD PUSH1 0x0 DUP2 MSTORE PUSH1 0x20 ADD PUSH1 0x0 PUSH20 0xFFFFFFFFFFFFFFFFFFFFFFFFFFFFFFFFFFFFFFFF AND DUP2 MSTORE PUSH1 0x20 ADD PUSH1 0x60 DUP2 MSTORE PUSH1 0x20 ADD PUSH1 0x60 DUP2 MSTORE PUSH1 0x20 ADD PUSH1 0x60 DUP2 MSTORE PUSH1 0x20 ADD PUSH1 0x0 ISZERO ISZERO DUP2 MSTORE POP SWAP1 JUMP JUMPDEST PUSH1 0x0 PUSH1 0x40 MLOAD SWAP1 POP SWAP1 JUMP JUMPDEST PUSH1 0x0 DUP1 REVERT JUMPDEST PUSH1 0x0 DUP1 REVERT JUMPDEST PUSH1 0x0 DUP1 REVERT JUMPDEST PUSH1 0x0 DUP1 REVERT JUMPDEST PUSH1 0x0 PUSH1 0x1F NOT PUSH1 0x1F DUP4 ADD AND SWAP1 POP SWAP2 SWAP1 POP JUMP JUMPDEST PUSH32 0x4E487B7100000000000000000000000000000000000000000000000000000000 PUSH1 0x0 MSTORE PUSH1 0x41 PUSH1 0x4 MSTORE PUSH1 0x24 PUSH1 0x0 REVERT JUMPDEST PUSH2 0xDBE DUP3 PUSH2 0xD75 JUMP JUMPDEST DUP2 ADD DUP2 DUP2 LT PUSH8 0xFFFFFFFFFFFFFFFF DUP3 GT OR ISZERO PUSH2 0xDDD JUMPI PUSH2 0xDDC PUSH2 0xD86 JUMP JUMPDEST JUMPDEST DUP1 PUSH1 0x40 MSTORE POP POP POP JUMP JUMPDEST PUSH1 0x0 PUSH2 0xDF0 PUSH2 0xD57 JUMP JUMPDEST SWAP1 POP PUSH2 0xDFC DUP3 DUP3 PUSH2 0xDB5 JUMP JUMPDEST SWAP2 SWAP1 POP JUMP JUMPDEST PUSH1 0x0 PUSH8 0xFFFFFFFFFFFFFFFF DUP3 GT ISZERO PUSH2 0xE1C JUMPI PUSH2 0xE1B PUSH2 0xD86 JUMP JUMPDEST JUMPDEST PUSH2 0xE25 DUP3 PUSH2 0xD75 JUMP JUMPDEST SWAP1 POP PUSH1 0x20 DUP2 ADD SWAP1 POP SWAP2 SWAP1 POP JUMP JUMPDEST DUP3 DUP2 DUP4 CALLDATACOPY PUSH1 0x0 DUP4 DUP4 ADD MSTORE POP POP POP JUMP JUMPDEST PUSH1 0x0 PUSH2 0xE54 PUSH2 0xE4F DUP5 PUSH2 0xE01 JUMP JUMPDEST PUSH2 0xDE6 JUMP JUMPDEST SWAP1 POP DUP3 DUP2 MSTORE PUSH1 0x20 DUP2 ADD DUP5 DUP5 DUP5 ADD GT ISZERO PUSH2 0xE70 JUMPI PUSH2 0xE6F PUSH2 0xD70 JUMP JUMPDEST JUMPDEST PUSH2 0xE7B DUP5 DUP3 DUP6 PUSH2 0xE32 JUMP JUMPDEST POP SWAP4 SWAP3 POP POP POP JUMP JUMPDEST PUSH1 0x0 DUP3 PUSH1 0x1F DUP4 ADD SLT PUSH2 0xE98 JUMPI PUSH2 0xE97 PUSH2 0xD6B JUMP JUMPDEST JUMPDEST DUP2 CALLDATALOAD PUSH2 0xEA8 DUP5 DUP3 PUSH1 0x20 DUP7 ADD PUSH2 0xE41 JUMP JUMPDEST SWAP2 POP POP SWAP3 SWAP2 POP POP JUMP JUMPDEST PUSH1 0x0 DUP2 SWAP1 POP SWAP2 SWAP1 POP JUMP JUMPDEST PUSH2 0xEC4 DUP2 PUSH2 0xEB1 JUMP JUMPDEST DUP2 EQ PUSH2 0xECF JUMPI PUSH1 0x0 DUP1 REVERT JUMPDEST POP JUMP JUMPDEST PUSH1 0x0 DUP2 CALLDATALOAD SWAP1 POP PUSH2 0xEE1 DUP2 PUSH2 0xEBB JUMP JUMPDEST SWAP3 SWAP2 POP POP JUMP JUMPDEST PUSH1 0x0 DUP1 PUSH1 0x0 DUP1 PUSH1 0x0 PUSH1 0xA0 DUP7 DUP9 SUB SLT ISZERO PUSH2 0xF03 JUMPI PUSH2 0xF02 PUSH2 0xD61 JUMP JUMPDEST JUMPDEST PUSH1 0x0 DUP7 ADD CALLDATALOAD PUSH8 0xFFFFFFFFFFFFFFFF DUP2 GT ISZERO PUSH2 0xF21 JUMPI PUSH2 0xF20 PUSH2 0xD66 JUMP JUMPDEST JUMPDEST PUSH2 0xF2D DUP9 DUP3 DUP10 ADD PUSH2 0xE83 JUMP JUMPDEST SWAP6 POP POP PUSH1 0x20 PUSH2 0xF3E DUP9 DUP3 DUP10 ADD PUSH2 0xED2 JUMP JUMPDEST SWAP5 POP POP PUSH1 0x40 DUP7 ADD CALLDATALOAD PUSH8 0xFFFFFFFFFFFFFFFF DUP2 GT ISZERO PUSH2 0xF5F JUMPI PUSH2 0xF5E PUSH2 0xD66 JUMP JUMPDEST JUMPDEST PUSH2 0xF6B DUP9 DUP3 DUP10 ADD PUSH2 0xE83 JUMP JUMPDEST SWAP4 POP POP PUSH1 0x60 DUP7 ADD CALLDATALOAD PUSH8 0xFFFFFFFFFFFFFFFF DUP2 GT ISZERO PUSH2 0xF8C JUMPI PUSH2 0xF8B PUSH2 0xD66 JUMP JUMPDEST JUMPDEST PUSH2 0xF98 DUP9 DUP3 DUP10 ADD PUSH2 0xE83 JUMP JUMPDEST SWAP3 POP POP PUSH1 0x80 DUP7 ADD CALLDATALOAD PUSH8 0xFFFFFFFFFFFFFFFF DUP2 GT ISZERO PUSH2 0xFB9 JUMPI PUSH2 0xFB8 PUSH2 0xD66 JUMP JUMPDEST JUMPDEST PUSH2 0xFC5 DUP9 DUP3 DUP10 ADD PUSH2 0xE83 JUMP JUMPDEST SWAP2 POP POP SWAP3 SWAP6 POP SWAP3 SWAP6 SWAP1 SWAP4 POP JUMP JUMPDEST PUSH1 0x0 DUP2 MLOAD SWAP1 POP SWAP2 SWAP1 POP JUMP JUMPDEST PUSH1 0x0 DUP3 DUP3 MSTORE PUSH1 0x20 DUP3 ADD SWAP1 POP SWAP3 SWAP2 POP POP JUMP JUMPDEST PUSH1 0x0 DUP2 SWAP1 POP PUSH1 0x20 DUP3 ADD SWAP1 POP SWAP2 SWAP1 POP JUMP JUMPDEST PUSH1 0x0 DUP2 MLOAD SWAP1 POP SWAP2 SWAP1 POP JUMP JUMPDEST PUSH1 0x0 DUP3 DUP3 MSTORE PUSH1 0x20 DUP3 ADD SWAP1 POP SWAP3 SWAP2 POP POP JUMP JUMPDEST PUSH1 0x0 JUMPDEST DUP4 DUP2 LT ISZERO PUSH2 0x1038 JUMPI DUP1 DUP3 ADD MLOAD DUP2 DUP5 ADD MSTORE PUSH1 0x20 DUP2 ADD SWAP1 POP PUSH2 0x101D JUMP JUMPDEST PUSH1 0x0 DUP5 DUP5 ADD MSTORE POP POP POP POP JUMP JUMPDEST PUSH1 0x0 PUSH2 0x104F DUP3 PUSH2 0xFFE JUMP JUMPDEST PUSH2 0x1059 DUP2 DUP6 PUSH2 0x1009 JUMP JUMPDEST SWAP4 POP PUSH2 0x1069 DUP2 DUP6 PUSH1 0x20 DUP7 ADD PUSH2 0x101A JUMP JUMPDEST PUSH2 0x1072 DUP2 PUSH2 0xD75 JUMP JUMPDEST DUP5 ADD SWAP2 POP POP SWAP3 SWAP2 POP POP JUMP JUMPDEST PUSH2 0x1086 DUP2 PUSH2 0xEB1 JUMP JUMPDEST DUP3 MSTORE POP POP JUMP JUMPDEST PUSH1 0x0 PUSH20 0xFFFFFFFFFFFFFFFFFFFFFFFFFFFFFFFFFFFFFFFF DUP3 AND SWAP1 POP SWAP2 SWAP1 POP JUMP JUMPDEST PUSH1 0x0 PUSH2 0x10B7 DUP3 PUSH2 0x108C JUMP JUMPDEST SWAP1 POP SWAP2 SWAP1 POP JUMP JUMPDEST PUSH2 0x10C7 DUP2 PUSH2 0x10AC JUMP JUMPDEST DUP3 MSTORE POP POP JUMP JUMPDEST PUSH1 0x0 DUP2 ISZERO ISZERO SWAP1 POP SWAP2 SWAP1 POP JUMP JUMPDEST PUSH2 0x10E2 DUP2 PUSH2 0x10CD JUMP JUMPDEST DUP3 MSTORE POP POP JUMP JUMPDEST PUSH1 0x0 PUSH1 0xE0 DUP4 ADD PUSH1 0x0 DUP4 ADD MLOAD DUP5 DUP3 SUB PUSH1 0x0 DUP7 ADD MSTORE PUSH2 0x1105 DUP3 DUP3 PUSH2 0x1044 JUMP JUMPDEST SWAP2 POP POP PUSH1 0x20 DUP4 ADD MLOAD PUSH2 0x111A PUSH1 0x20 DUP7 ADD DUP3 PUSH2 0x107D JUMP JUMPDEST POP PUSH1 0x40 DUP4 ADD MLOAD PUSH2 0x112D PUSH1 0x40 DUP7 ADD DUP3 PUSH2 0x10BE JUMP JUMPDEST POP PUSH1 0x60 DUP4 ADD MLOAD DUP5 DUP3 SUB PUSH1 0x60 DUP7 ADD MSTORE PUSH2 0x1145 DUP3 DUP3 PUSH2 0x1044 JUMP JUMPDEST SWAP2 POP POP PUSH1 0x80 DUP4 ADD MLOAD DUP5 DUP3 SUB PUSH1 0x80 DUP7 ADD MSTORE PUSH2 0x115F DUP3 DUP3 PUSH2 0x1044 JUMP JUMPDEST SWAP2 POP POP PUSH1 0xA0 DUP4 ADD MLOAD DUP5 DUP3 SUB PUSH1 0xA0 DUP7 ADD MSTORE PUSH2 0x1179 DUP3 DUP3 PUSH2 0x1044 JUMP JUMPDEST SWAP2 POP POP PUSH1 0xC0 DUP4 ADD MLOAD PUSH2 0x118E PUSH1 0xC0 DUP7 ADD DUP3 PUSH2 0x10D9 JUMP JUMPDEST POP DUP1 SWAP2 POP POP SWAP3 SWAP2 POP POP JUMP JUMPDEST PUSH1 0x0 PUSH2 0x11A5 DUP4 DUP4 PUSH2 0x10E8 JUMP JUMPDEST SWAP1 POP SWAP3 SWAP2 POP POP JUMP JUMPDEST PUSH1 0x0 PUSH1 0x20 DUP3 ADD SWAP1 POP SWAP2 SWAP1 POP JUMP JUMPDEST PUSH1 0x0 PUSH2 0x11C5 DUP3 PUSH2 0xFD2 JUMP JUMPDEST PUSH2 0x11CF DUP2 DUP6 PUSH2 0xFDD JUMP JUMPDEST SWAP4 POP DUP4 PUSH1 0x20 DUP3 MUL DUP6 ADD PUSH2 0x11E1 DUP6 PUSH2 0xFEE JUMP JUMPDEST DUP1 PUSH1 0x0 JUMPDEST DUP6 DUP2 LT ISZERO PUSH2 0x121D JUMPI DUP5 DUP5 SUB DUP10 MSTORE DUP2 MLOAD PUSH2 0x11FE DUP6 DUP3 PUSH2 0x1199 JUMP JUMPDEST SWAP5 POP PUSH2 0x1209 DUP4 PUSH2 0x11AD JUMP JUMPDEST SWAP3 POP PUSH1 0x20 DUP11 ADD SWAP10 POP POP PUSH1 0x1 DUP2 ADD SWAP1 POP PUSH2 0x11E5 JUMP JUMPDEST POP DUP3 SWAP8 POP DUP8 SWAP6 POP POP POP POP POP POP SWAP3 SWAP2 POP POP JUMP JUMPDEST PUSH1 0x0 PUSH1 0x20 DUP3 ADD SWAP1 POP DUP2 DUP2 SUB PUSH1 0x0 DUP4 ADD MSTORE PUSH2 0x1249 DUP2 DUP5 PUSH2 0x11BA JUMP JUMPDEST SWAP1 POP SWAP3 SWAP2 POP POP JUMP JUMPDEST PUSH2 0x125A DUP2 PUSH2 0x10AC JUMP JUMPDEST DUP2 EQ PUSH2 0x1265 JUMPI PUSH1 0x0 DUP1 REVERT JUMPDEST POP JUMP JUMPDEST PUSH1 0x0 DUP2 CALLDATALOAD SWAP1 POP PUSH2 0x1277 DUP2 PUSH2 0x1251 JUMP JUMPDEST SWAP3 SWAP2 POP POP JUMP JUMPDEST PUSH1 0x0 DUP1 PUSH1 0x40 DUP4 DUP6 SUB SLT ISZERO PUSH2 0x1294 JUMPI PUSH2 0x1293 PUSH2 0xD61 JUMP JUMPDEST JUMPDEST PUSH1 0x0 PUSH2 0x12A2 DUP6 DUP3 DUP7 ADD PUSH2 0xED2 JUMP JUMPDEST SWAP3 POP POP PUSH1 0x20 PUSH2 0x12B3 DUP6 DUP3 DUP7 ADD PUSH2 0x1268 JUMP JUMPDEST SWAP2 POP POP SWAP3 POP SWAP3 SWAP1 POP JUMP JUMPDEST PUSH2 0x12C6 DUP2 PUSH2 0xEB1 JUMP JUMPDEST DUP3 MSTORE POP POP JUMP JUMPDEST PUSH1 0x0 PUSH1 0x20 DUP3 ADD SWAP1 POP PUSH2 0x12E1 PUSH1 0x0 DUP4 ADD DUP5 PUSH2 0x12BD JUMP JUMPDEST SWAP3 SWAP2 POP POP JUMP JUMPDEST PUSH1 0x0 PUSH1 0x20 DUP3 DUP5 SUB SLT ISZERO PUSH2 0x12FD JUMPI PUSH2 0x12FC PUSH2 0xD61 JUMP JUMPDEST JUMPDEST PUSH1 0x0 PUSH2 0x130B DUP5 DUP3 DUP6 ADD PUSH2 0xED2 JUMP JUMPDEST SWAP2 POP POP SWAP3 SWAP2 POP POP JUMP JUMPDEST PUSH1 0x0 DUP3 DUP3 MSTORE PUSH1 0x20 DUP3 ADD SWAP1 POP SWAP3 SWAP2 POP POP JUMP JUMPDEST PUSH1 0x0 PUSH2 0x1330 DUP3 PUSH2 0xFFE JUMP JUMPDEST PUSH2 0x133A DUP2 DUP6 PUSH2 0x1314 JUMP JUMPDEST SWAP4 POP PUSH2 0x134A DUP2 DUP6 PUSH1 0x20 DUP7 ADD PUSH2 0x101A JUMP JUMPDEST PUSH2 0x1353 DUP2 PUSH2 0xD75 JUMP JUMPDEST DUP5 ADD SWAP2 POP POP SWAP3 SWAP2 POP POP JUMP JUMPDEST PUSH2 0x1367 DUP2 PUSH2 0x10AC JUMP JUMPDEST DUP3 MSTORE POP POP JUMP JUMPDEST PUSH2 0x1376 DUP2 PUSH2 0x10CD JUMP JUMPDEST DUP3 MSTORE POP POP JUMP JUMPDEST PUSH1 0x0 PUSH1 0xE0 DUP3 ADD SWAP1 POP DUP2 DUP2 SUB PUSH1 0x0 DUP4 ADD MSTORE PUSH2 0x1396 DUP2 DUP11 PUSH2 0x1325 JUMP JUMPDEST SWAP1 POP PUSH2 0x13A5 PUSH1 0x20 DUP4 ADD DUP10 PUSH2 0x12BD JUMP JUMPDEST PUSH2 0x13B2 PUSH1 0x40 DUP4 ADD DUP9 PUSH2 0x135E JUMP JUMPDEST DUP2 DUP2 SUB PUSH1 0x60 DUP4 ADD MSTORE PUSH2 0x13C4 DUP2 DUP8 PUSH2 0x1325 JUMP JUMPDEST SWAP1 POP DUP2 DUP2 SUB PUSH1 0x80 DUP4 ADD MSTORE PUSH2 0x13D8 DUP2 DUP7 PUSH2 0x1325 JUMP JUMPDEST SWAP1 POP DUP2 DUP2 SUB PUSH1 0xA0 DUP4 ADD MSTORE PUSH2 0x13EC DUP2 DUP6 PUSH2 0x1325 JUMP JUMPDEST SWAP1 POP PUSH2 0x13FB PUSH1 0xC0 DUP4 ADD DUP5 PUSH2 0x136D JUMP JUMPDEST SWAP9 SWAP8 POP POP POP POP POP POP POP POP JUMP JUMPDEST PUSH32 0x4C6F636174696F6E206973207265717569726564000000000000000000000000 PUSH1 0x0 DUP3 ADD MSTORE POP JUMP JUMPDEST PUSH1 0x0 PUSH2 0x143D PUSH1 0x14 DUP4 PUSH2 0x1314 JUMP JUMPDEST SWAP2 POP PUSH2 0x1448 DUP3 PUSH2 0x1407 JUMP JUMPDEST PUSH1 0x20 DUP3 ADD SWAP1 POP SWAP2 SWAP1 POP JUMP JUMPDEST PUSH1 0x0 PUSH1 0x20 DUP3 ADD SWAP1 POP DUP2 DUP2 SUB PUSH1 0x0 DUP4 ADD MSTORE PUSH2 0x146C DUP2 PUSH2 0x1430 JUMP JUMPDEST SWAP1 POP SWAP2 SWAP1 POP JUMP JUMPDEST PUSH32 0x53697A65206D7573742062652067726561746572207468616E207A65726F0000 PUSH1 0x0 DUP3 ADD MSTORE POP JUMP JUMPDEST PUSH1 0x0 PUSH2 0x14A9 PUSH1 0x1E DUP4 PUSH2 0x1314 JUMP JUMPDEST SWAP2 POP PUSH2 0x14B4 DUP3 PUSH2 0x1473 JUMP JUMPDEST PUSH1 0x20 DUP3 ADD SWAP1 POP SWAP2 SWAP1 POP JUMP JUMPDEST PUSH1 0x0 PUSH1 0x20 DUP3 ADD SWAP1 POP DUP2 DUP2 SUB PUSH1 0x0 DUP4 ADD MSTORE PUSH2 0x14D8 DUP2 PUSH2 0x149C JUMP JUMPDEST SWAP1 POP SWAP2 SWAP1 POP JUMP JUMPDEST PUSH32 0x446F63756D656E74206861736820697320726571756972656400000000000000 PUSH1 0x0 DUP3 ADD MSTORE POP JUMP JUMPDEST PUSH1 0x0 PUSH2 0x1515 PUSH1 0x19 DUP4 PUSH2 0x1314 JUMP JUMPDEST SWAP2 POP PUSH2 0x1520 DUP3 PUSH2 0x14DF JUMP JUMPDEST PUSH1 0x20 DUP3 ADD SWAP1 POP SWAP2 SWAP1 POP JUMP JUMPDEST PUSH1 0x0 PUSH1 0x20 DUP3 ADD SWAP1 POP DUP2 DUP2 SUB PUSH1 0x0 DUP4 ADD MSTORE PUSH2 0x1544 DUP2 PUSH2 0x1508 JUMP JUMPDEST SWAP1 POP SWAP2 SWAP1 POP JUMP JUMPDEST PUSH32 0x4C61746974756465206973207265717569726564000000000000000000000000 PUSH1 0x0 DUP3 ADD MSTORE POP JUMP JUMPDEST PUSH1 0x0 PUSH2 0x1581 PUSH1 0x14 DUP4 PUSH2 0x1314 JUMP JUMPDEST SWAP2 POP PUSH2 0x158C DUP3 PUSH2 0x154B JUMP JUMPDEST PUSH1 0x20 DUP3 ADD SWAP1 POP SWAP2 SWAP1 POP JUMP JUMPDEST PUSH1 0x0 PUSH1 0x20 DUP3 ADD SWAP1 POP DUP2 DUP2 SUB PUSH1 0x0 DUP4 ADD MSTORE PUSH2 0x15B0 DUP2 PUSH2 0x1574 JUMP JUMPDEST SWAP1 POP SWAP2 SWAP1 POP JUMP JUMPDEST PUSH32 0x4C6F6E6769747564652069732072657175697265640000000000000000000000 PUSH1 0x0 DUP3 ADD MSTORE POP JUMP JUMPDEST PUSH1 0x0 PUSH2 0x15ED PUSH1 0x15 DUP4 PUSH2 0x1314 JUMP JUMPDEST SWAP2 POP PUSH2 0x15F8 DUP3 PUSH2 0x15B7 JUMP JUMPDEST PUSH1 0x20 DUP3 ADD SWAP1 POP SWAP2 SWAP1 POP JUMP JUMPDEST PUSH1 0x0 PUSH1 0x20 DUP3 ADD SWAP1 POP DUP2 DUP2 SUB PUSH1 0x0 DUP4 ADD MSTORE PUSH2 0x161C DUP2 PUSH2 0x15E0 JUMP JUMPDEST SWAP1 POP SWAP2 SWAP1 POP JUMP JUMPDEST PUSH1 0x0 DUP2 SWAP1 POP SWAP3 SWAP2 POP POP JUMP JUMPDEST PUSH1 0x0 PUSH2 0x1639 DUP3 PUSH2 0xFFE JUMP JUMPDEST PUSH2 0x1643 DUP2 DUP6 PUSH2 0x1623 JUMP JUMPDEST SWAP4 POP PUSH2 0x1653 DUP2 DUP6 PUSH1 0x20 DUP7 ADD PUSH2 0x101A JUMP JUMPDEST DUP1 DUP5 ADD SWAP2 POP POP SWAP3 SWAP2 POP POP JUMP JUMPDEST PUSH1 0x0 PUSH2 0x166B DUP3 DUP5 PUSH2 0x162E JUMP JUMPDEST SWAP2 POP DUP2 SWAP1 POP SWAP3 SWAP2 POP POP JUMP JUMPDEST PUSH32 0x54686973206C616E6420697320616C7265616479207265676973746572656400 PUSH1 0x0 DUP3 ADD MSTORE POP JUMP JUMPDEST PUSH1 0x0 PUSH2 0x16AC PUSH1 0x1F DUP4 PUSH2 0x1314 JUMP JUMPDEST SWAP2 POP PUSH2 0x16B7 DUP3 PUSH2 0x1676 JUMP JUMPDEST PUSH1 0x20 DUP3 ADD SWAP1 POP SWAP2 SWAP1 POP JUMP JUMPDEST PUSH1 0x0 PUSH1 0x20 DUP3 ADD SWAP1 POP DUP2 DUP2 SUB PUSH1 0x0 DUP4 ADD MSTORE PUSH2 0x16DB DUP2 PUSH2 0x169F JUMP JUMPDEST SWAP1 POP SWAP2 SWAP1 POP JUMP JUMPDEST PUSH32 0x4E487B7100000000000000000000000000000000000000000000000000000000 PUSH1 0x0 MSTORE PUSH1 0x22 PUSH1 0x4 MSTORE PUSH1 0x24 PUSH1 0x0 REVERT JUMPDEST PUSH1 0x0 PUSH1 0x2 DUP3 DIV SWAP1 POP PUSH1 0x1 DUP3 AND DUP1 PUSH2 0x1729 JUMPI PUSH1 0x7F DUP3 AND SWAP2 POP JUMPDEST PUSH1 0x20 DUP3 LT DUP2 SUB PUSH2 0x173C JUMPI PUSH2 0x173B PUSH2 0x16E2 JUMP JUMPDEST JUMPDEST POP SWAP2 SWAP1 POP JUMP JUMPDEST PUSH1 0x0 DUP2 SWAP1 POP DUP2 PUSH1 0x0 MSTORE PUSH1 0x20 PUSH1 0x0 KECCAK256 SWAP1 POP SWAP2 SWAP1 POP JUMP JUMPDEST PUSH1 0x0 PUSH1 0x20 PUSH1 0x1F DUP4 ADD DIV SWAP1 POP SWAP2 SWAP1 POP JUMP JUMPDEST PUSH1 0x0 DUP3 DUP3 SHL SWAP1 POP SWAP3 SWAP2 POP POP JUMP JUMPDEST PUSH1 0x0 PUSH1 0x8 DUP4 MUL PUSH2 0x17A4 PUSH32 0xFFFFFFFFFFFFFFFFFFFFFFFFFFFFFFFFFFFFFFFFFFFFFFFFFFFFFFFFFFFFFFFF DUP3 PUSH2 0x1767 JUMP JUMPDEST PUSH2 0x17AE DUP7 DUP4 PUSH2 0x1767 JUMP JUMPDEST SWAP6 POP DUP1 NOT DUP5 AND SWAP4 POP DUP1 DUP7 AND DUP5 OR SWAP3 POP POP POP SWAP4 SWAP3 POP POP POP JUMP JUMPDEST PUSH1 0x0 DUP2 SWAP1 POP SWAP2 SWAP1 POP JUMP JUMPDEST PUSH1 0x0 PUSH2 0x17EB PUSH2 0x17E6 PUSH2 0x17E1 DUP5 PUSH2 0xEB1 JUMP JUMPDEST PUSH2 0x17C6 JUMP JUMPDEST PUSH2 0xEB1 JUMP JUMPDEST SWAP1 POP SWAP2 SWAP1 POP JUMP JUMPDEST PUSH1 0x0 DUP2 SWAP1 POP SWAP2 SWAP1 POP JUMP JUMPDEST PUSH2 0x1805 DUP4 PUSH2 0x17D0 JUMP JUMPDEST PUSH2 0x1819 PUSH2 0x1811 DUP3 PUSH2 0x17F2 JUMP JUMPDEST DUP5 DUP5 SLOAD PUSH2 0x1774 JUMP JUMPDEST DUP3 SSTORE POP POP POP POP JUMP JUMPDEST PUSH1 0x0 SWAP1 JUMP JUMPDEST PUSH2 0x182E PUSH2 0x1821 JUMP JUMPDEST PUSH2 0x1839 DUP2 DUP5 DUP5 PUSH2 0x17FC JUMP JUMPDEST POP POP POP JUMP JUMPDEST JUMPDEST DUP2 DUP2 LT ISZERO PUSH2 0x185D JUMPI PUSH2 0x1852 PUSH1 0x0 DUP3 PUSH2 0x1826 JUMP JUMPDEST PUSH1 0x1 DUP2 ADD SWAP1 POP PUSH2 0x183F JUMP JUMPDEST POP POP JUMP JUMPDEST PUSH1 0x1F DUP3 GT ISZERO PUSH2 0x18A2 JUMPI PUSH2 0x1873 DUP2 PUSH2 0x1742 JUMP JUMPDEST PUSH2 0x187C DUP5 PUSH2 0x1757 JUMP JUMPDEST DUP2 ADD PUSH1 0x20 DUP6 LT ISZERO PUSH2 0x188B JUMPI DUP2 SWAP1 POP JUMPDEST PUSH2 0x189F PUSH2 0x1897 DUP6 PUSH2 0x1757 JUMP JUMPDEST DUP4 ADD DUP3 PUSH2 0x183E JUMP JUMPDEST POP POP JUMPDEST POP POP POP JUMP JUMPDEST PUSH1 0x0 DUP3 DUP3 SHR SWAP1 POP SWAP3 SWAP2 POP POP JUMP JUMPDEST PUSH1 0x0 PUSH2 0x18C5 PUSH1 0x0 NOT DUP5 PUSH1 0x8 MUL PUSH2 0x18A7 JUMP JUMPDEST NOT DUP1 DUP4 AND SWAP2 POP POP SWAP3 SWAP2 POP POP JUMP JUMPDEST PUSH1 0x0 PUSH2 0x18DE DUP4 DUP4 PUSH2 0x18B4 JUMP JUMPDEST SWAP2 POP DUP3 PUSH1 0x2 MUL DUP3 OR SWAP1 POP SWAP3 SWAP2 POP POP JUMP JUMPDEST PUSH2 0x18F7 DUP3 PUSH2 0xFFE JUMP JUMPDEST PUSH8 0xFFFFFFFFFFFFFFFF DUP2 GT ISZERO PUSH2 0x1910 JUMPI PUSH2 0x190F PUSH2 0xD86 JUMP JUMPDEST JUMPDEST PUSH2 0x191A DUP3 SLOAD PUSH2 0x1711 JUMP JUMPDEST PUSH2 0x1925 DUP3 DUP3 DUP6 PUSH2 0x1861 JUMP JUMPDEST PUSH1 0x0 PUSH1 0x20 SWAP1 POP PUSH1 0x1F DUP4 GT PUSH1 0x1 DUP2 EQ PUSH2 0x1958 JUMPI PUSH1 0x0 DUP5 ISZERO PUSH2 0x1946 JUMPI DUP3 DUP8 ADD MLOAD SWAP1 POP JUMPDEST PUSH2 0x1950 DUP6 DUP3 PUSH2 0x18D2 JUMP JUMPDEST DUP7 SSTORE POP PUSH2 0x19B8 JUMP JUMPDEST PUSH1 0x1F NOT DUP5 AND PUSH2 0x1966 DUP7 PUSH2 0x1742 JUMP JUMPDEST PUSH1 0x0 JUMPDEST DUP3 DUP2 LT ISZERO PUSH2 0x198E JUMPI DUP5 DUP10 ADD MLOAD DUP3 SSTORE PUSH1 0x1 DUP3 ADD SWAP2 POP PUSH1 0x20 DUP6 ADD SWAP5 POP PUSH1 0x20 DUP2 ADD SWAP1 POP PUSH2 0x1969 JUMP JUMPDEST DUP7 DUP4 LT ISZERO PUSH2 0x19AB JUMPI DUP5 DUP10 ADD MLOAD PUSH2 0x19A7 PUSH1 0x1F DUP10 AND DUP3 PUSH2 0x18B4 JUMP JUMPDEST DUP4 SSTORE POP JUMPDEST PUSH1 0x1 PUSH1 0x2 DUP9 MUL ADD DUP9 SSTORE POP POP POP JUMPDEST POP POP POP POP POP POP JUMP JUMPDEST PUSH1 0x0 PUSH1 0xA0 DUP3 ADD SWAP1 POP DUP2 DUP2 SUB PUSH1 0x0 DUP4 ADD MSTORE PUSH2 0x19DA DUP2 DUP9 PUSH2 0x1325 JUMP JUMPDEST SWAP1 POP PUSH2 0x19E9 PUSH1 0x20 DUP4 ADD DUP8 PUSH2 0x12BD JUMP JUMPDEST DUP2 DUP2 SUB PUSH1 0x40 DUP4 ADD MSTORE PUSH2 0x19FB DUP2 DUP7 PUSH2 0x1325 JUMP JUMPDEST SWAP1 POP DUP2 DUP2 SUB PUSH1 0x60 DUP4 ADD MSTORE PUSH2 0x1A0F DUP2 DUP6 PUSH2 0x1325 JUMP JUMPDEST SWAP1 POP DUP2 DUP2 SUB PUSH1 0x80 DUP4 ADD MSTORE PUSH2 0x1A23 DUP2 DUP5 PUSH2 0x1325 JUMP JUMPDEST SWAP1 POP SWAP7 SWAP6 POP POP POP POP POP POP JUMP JUMPDEST PUSH32 0x4E487B7100000000000000000000000000000000000000000000000000000000 PUSH1 0x0 MSTORE PUSH1 0x11 PUSH1 0x4 MSTORE PUSH1 0x24 PUSH1 0x0 REVERT JUMPDEST PUSH1 0x0 PUSH2 0x1A69 DUP3 PUSH2 0xEB1 JUMP JUMPDEST SWAP2 POP PUSH32 0xFFFFFFFFFFFFFFFFFFFFFFFFFFFFFFFFFFFFFFFFFFFFFFFFFFFFFFFFFFFFFFFF DUP3 SUB PUSH2 0x1A9B JUMPI PUSH2 0x1A9A PUSH2 0x1A2F JUMP JUMPDEST JUMPDEST PUSH1 0x1 DUP3 ADD SWAP1 POP SWAP2 SWAP1 POP JUMP JUMPDEST PUSH32 0x4E487B7100000000000000000000000000000000000000000000000000000000 PUSH1 0x0 MSTORE PUSH1 0x32 PUSH1 0x4 MSTORE PUSH1 0x24 PUSH1 0x0 REVERT JUMPDEST PUSH32 0x4F6E6C7920746865206F776E65722063616E20706572666F726D207468697320 PUSH1 0x0 DUP3 ADD MSTORE PUSH32 0x616374696F6E0000000000000000000000000000000000000000000000000000 PUSH1 0x20 DUP3 ADD MSTORE POP JUMP JUMPDEST PUSH1 0x0 PUSH2 0x1B31 PUSH1 0x26 DUP4 PUSH2 0x1314 JUMP JUMPDEST SWAP2 POP PUSH2 0x1B3C DUP3 PUSH2 0x1AD5 JUMP JUMPDEST PUSH1 0x40 DUP3 ADD SWAP1 POP SWAP2 SWAP1 POP JUMP JUMPDEST PUSH1 0x0 PUSH1 0x20 DUP3 ADD SWAP1 POP DUP2 DUP2 SUB PUSH1 0x0 DUP4 ADD MSTORE PUSH2 0x1B60 DUP2 PUSH2 0x1B24 JUMP JUMPDEST SWAP1 POP SWAP2 SWAP1 POP JUMP JUMPDEST PUSH32 0x4C616E6420494420697320696E76616C69640000000000000000000000000000 PUSH1 0x0 DUP3 ADD MSTORE POP JUMP JUMPDEST PUSH1 0x0 PUSH2 0x1B9D PUSH1 0x12 DUP4 PUSH2 0x1314 JUMP JUMPDEST SWAP2 POP PUSH2 0x1BA8 DUP3 PUSH2 0x1B67 JUMP JUMPDEST PUSH1 0x20 DUP3 ADD SWAP1 POP SWAP2 SWAP1 POP JUMP JUMPDEST PUSH1 0x0 PUSH1 0x20 DUP3 ADD SWAP1 POP DUP2 DUP2 SUB PUSH1 0x0 DUP4 ADD MSTORE PUSH2 0x1BCC DUP2 PUSH2 0x1B90 JUMP JUMPDEST SWAP1 POP SWAP2 SWAP1 POP JUMP JUMPDEST PUSH32 0x4E6577206F776E65722061646472657373206973207265717569726564000000 PUSH1 0x0 DUP3 ADD MSTORE POP JUMP JUMPDEST PUSH1 0x0 PUSH2 0x1C09 PUSH1 0x1D DUP4 PUSH2 0x1314 JUMP JUMPDEST SWAP2 POP PUSH2 0x1C14 DUP3 PUSH2 0x1BD3 JUMP JUMPDEST PUSH1 0x20 DUP3 ADD SWAP1 POP SWAP2 SWAP1 POP JUMP JUMPDEST PUSH1 0x0 PUSH1 0x20 DUP3 ADD SWAP1 POP DUP2 DUP2 SUB PUSH1 0x0 DUP4 ADD MSTORE PUSH2 0x1C38 DUP2 PUSH2 0x1BFC JUMP JUMPDEST SWAP1 POP SWAP2 SWAP1 POP JUMP INVALID LOG2 PUSH5 0x6970667358 0x22 SLT KECCAK256 DUP6 SDIV MSTORE8 0x4F DUP15 PUSH18 0xDCDB3D608C7BFD5B79A9E6DB5D40E2E2D1C7 INVALID SLT DELEGATECALL TIMESTAMP 0xA5 0xD EXTCODECOPY ORIGIN PUSH5 0x736F6C6343 STOP ADDMOD LT STOP CALLER "
	},
	"Assembly": ".code\n  PUSH 80\t\t\tcontract LandRegistry {\\r\\n   ...\n  PUSH 40\t\t\tcontract LandRegistry {\\r\\n   ...\n  MSTORE \t\t\tcontract LandRegistry {\\r\\n   ...\n  CALLVALUE \t\t\tcontract LandRegistry {\\r\\n   ...\n  DUP1 \t\t\tcontract LandRegistry {\\r\\n   ...\n  ISZERO \t\t\tcontract LandRegistry {\\r\\n   ...\n  PUSH [tag] 1\t\t\tcontract LandRegistry {\\r\\n   ...\n  JUMPI \t\t\tcontract LandRegistry {\\r\\n   ...\n  PUSH 0\t\t\tcontract LandRegistry {\\r\\n   ...\n  DUP1 \t\t\tcontract LandRegistry {\\r\\n   ...\n  REVERT \t\t\tcontract LandRegistry {\\r\\n   ...\ntag 1\t\t\tcontract LandRegistry {\\r\\n   ...\n  JUMPDEST \t\t\tcontract LandRegistry {\\r\\n   ...\n  POP \t\t\tcontract LandRegistry {\\r\\n   ...\n  PUSH #[$] 0000000000000000000000000000000000000000000000000000000000000000\t\t\tcontract LandRegistry {\\r\\n   ...\n  DUP1 \t\t\tcontract LandRegistry {\\r\\n   ...\n  PUSH [$] 0000000000000000000000000000000000000000000000000000000000000000\t\t\tcontract LandRegistry {\\r\\n   ...\n  PUSH 0\t\t\tcontract LandRegistry {\\r\\n   ...\n  CODECOPY \t\t\tcontract LandRegistry {\\r\\n   ...\n  PUSH 0\t\t\tcontract LandRegistry {\\r\\n   ...\n  RETURN \t\t\tcontract LandRegistry {\\r\\n   ...\n.data\n  0:\n    .code\n      PUSH 80\t\t\tcontract LandRegistry {\\r\\n   ...\n      PUSH 40\t\t\tcontract LandRegistry {\\r\\n   ...\n      MSTORE \t\t\tcontract LandRegistry {\\r\\n   ...\n      CALLVALUE \t\t\tcontract LandRegistry {\\r\\n   ...\n      DUP1 \t\t\tcontract LandRegistry {\\r\\n   ...\n      ISZERO \t\t\tcontract LandRegistry {\\r\\n   ...\n      PUSH [tag] 1\t\t\tcontract LandRegistry {\\r\\n   ...\n      JUMPI \t\t\tcontract LandRegistry {\\r\\n   ...\n      PUSH 0\t\t\tcontract LandRegistry {\\r\\n   ...\n      DUP1 \t\t\tcontract LandRegistry {\\r\\n   ...\n      REVERT \t\t\tcontract LandRegistry {\\r\\n   ...\n    tag 1\t\t\tcontract LandRegistry {\\r\\n   ...\n      JUMPDEST \t\t\tcontract LandRegistry {\\r\\n   ...\n      POP \t\t\tcontract LandRegistry {\\r\\n   ...\n      PUSH 4\t\t\tcontract LandRegistry {\\r\\n   ...\n      CALLDATASIZE \t\t\tcontract LandRegistry {\\r\\n   ...\n      LT \t\t\tcontract LandRegistry {\\r\\n   ...\n      PUSH [tag] 2\t\t\tcontract LandRegistry {\\r\\n   ...\n      JUMPI \t\t\tcontract LandRegistry {\\r\\n   ...\n      PUSH 0\t\t\tcontract LandRegistry {\\r\\n   ...\n      CALLDATALOAD \t\t\tcontract LandRegistry {\\r\\n   ...\n      PUSH E0\t\t\tcontract LandRegistry {\\r\\n   ...\n      SHR \t\t\tcontract LandRegistry {\\r\\n   ...\n      DUP1 \t\t\tcontract LandRegistry {\\r\\n   ...\n      PUSH 2E7D6840\t\t\tcontract LandRegistry {\\r\\n   ...\n      EQ \t\t\tcontract LandRegistry {\\r\\n   ...\n      PUSH [tag] 3\t\t\tcontract LandRegistry {\\r\\n   ...\n      JUMPI \t\t\tcontract LandRegistry {\\r\\n   ...\n      DUP1 \t\t\tcontract LandRegistry {\\r\\n   ...\n      PUSH B7B6E543\t\t\tcontract LandRegistry {\\r\\n   ...\n      EQ \t\t\tcontract LandRegistry {\\r\\n   ...\n      PUSH [tag] 4\t\t\tcontract LandRegistry {\\r\\n   ...\n      JUMPI \t\t\tcontract LandRegistry {\\r\\n   ...\n      DUP1 \t\t\tcontract LandRegistry {\\r\\n   ...\n      PUSH C798FF7D\t\t\tcontract LandRegistry {\\r\\n   ...\n      EQ \t\t\tcontract LandRegistry {\\r\\n   ...\n      PUSH [tag] 5\t\t\tcontract LandRegistry {\\r\\n   ...\n      JUMPI \t\t\tcontract LandRegistry {\\r\\n   ...\n      DUP1 \t\t\tcontract LandRegistry {\\r\\n   ...\n      PUSH D7BCE658\t\t\tcontract LandRegistry {\\r\\n   ...\n      EQ \t\t\tcontract LandRegistry {\\r\\n   ...\n      PUSH [tag] 6\t\t\tcontract LandRegistry {\\r\\n   ...\n      JUMPI \t\t\tcontract LandRegistry {\\r\\n   ...\n      DUP1 \t\t\tcontract LandRegistry {\\r\\n   ...\n      PUSH E261F1E5\t\t\tcontract LandRegistry {\\r\\n   ...\n      EQ \t\t\tcontract LandRegistry {\\r\\n   ...\n      PUSH [tag] 7\t\t\tcontract LandRegistry {\\r\\n   ...\n      JUMPI \t\t\tcontract LandRegistry {\\r\\n   ...\n    tag 2\t\t\tcontract LandRegistry {\\r\\n   ...\n      JUMPDEST \t\t\tcontract LandRegistry {\\r\\n   ...\n      PUSH 0\t\t\tcontract LandRegistry {\\r\\n   ...\n      DUP1 \t\t\tcontract LandRegistry {\\r\\n   ...\n      REVERT \t\t\tcontract LandRegistry {\\r\\n   ...\n    tag 3\t\t\tfunction registerLand(\\r\\n    ...\n      JUMPDEST \t\t\tfunction registerLand(\\r\\n    ...\n      PUSH [tag] 8\t\t\tfunction registerLand(\\r\\n    ...\n      PUSH 4\t\t\tfunction registerLand(\\r\\n    ...\n      DUP1 \t\t\tfunction registerLand(\\r\\n    ...\n      CALLDATASIZE \t\t\tfunction registerLand(\\r\\n    ...\n      SUB \t\t\tfunction registerLand(\\r\\n    ...\n      DUP2 \t\t\tfunction registerLand(\\r\\n    ...\n      ADD \t\t\tfunction registerLand(\\r\\n    ...\n      SWAP1 \t\t\tfunction registerLand(\\r\\n    ...\n      PUSH [tag] 9\t\t\tfunction registerLand(\\r\\n    ...\n      SWAP2 \t\t\tfunction registerLand(\\r\\n    ...\n      SWAP1 \t\t\tfunction registerLand(\\r\\n    ...\n      PUSH [tag] 10\t\t\tfunction registerLand(\\r\\n    ...\n      JUMP \t\t\tfunction registerLand(\\r\\n    ...\n    tag 9\t\t\tfunction registerLand(\\r\\n    ...\n      JUMPDEST \t\t\tfunction registerLand(\\r\\n    ...\n      PUSH [tag] 11\t\t\tfunction registerLand(\\r\\n    ...\n      JUMP \t\t\tfunction registerLand(\\r\\n    ...\n    tag 8\t\t\tfunction registerLand(\\r\\n    ...\n      JUMPDEST \t\t\tfunction registerLand(\\r\\n    ...\n      STOP \t\t\tfunction registerLand(\\r\\n    ...\n    tag 4\t\t\tfunction getAllLands() public ...\n      JUMPDEST \t\t\tfunction getAllLands() public ...\n      PUSH [tag] 12\t\t\tfunction getAllLands() public ...\n      PUSH [tag] 13\t\t\tfunction getAllLands() public ...\n      JUMP \t\t\tfunction getAllLands() public ...\n    tag 12\t\t\tfunction getAllLands() public ...\n      JUMPDEST \t\t\tfunction getAllLands() public ...\n      PUSH 40\t\t\tfunction getAllLands() public ...\n      MLOAD \t\t\tfunction getAllLands() public ...\n      PUSH [tag] 14\t\t\tfunction getAllLands() public ...\n      SWAP2 \t\t\tfunction getAllLands() public ...\n      SWAP1 \t\t\tfunction getAllLands() public ...\n      PUSH [tag] 15\t\t\tfunction getAllLands() public ...\n      JUMP \t\t\tfunction getAllLands() public ...\n    tag 14\t\t\tfunction getAllLands() public ...\n      JUMPDEST \t\t\tfunction getAllLands() public ...\n      PUSH 40\t\t\tfunction getAllLands() public ...\n      MLOAD \t\t\tfunction getAllLands() public ...\n      DUP1 \t\t\tfunction getAllLands() public ...\n      SWAP2 \t\t\tfunction getAllLands() public ...\n      SUB \t\t\tfunction getAllLands() public ...\n      SWAP1 \t\t\tfunction getAllLands() public ...\n      RETURN \t\t\tfunction getAllLands() public ...\n    tag 5\t\t\tfunction transferLand(uint256 ...\n      JUMPDEST \t\t\tfunction transferLand(uint256 ...\n      PUSH [tag] 16\t\t\tfunction transferLand(uint256 ...\n      PUSH 4\t\t\tfunction transferLand(uint256 ...\n      DUP1 \t\t\tfunction transferLand(uint256 ...\n      CALLDATASIZE \t\t\tfunction transferLand(uint256 ...\n      SUB \t\t\tfunction transferLand(uint256 ...\n      DUP2 \t\t\tfunction transferLand(uint256 ...\n      ADD \t\t\tfunction transferLand(uint256 ...\n      SWAP1 \t\t\tfunction transferLand(uint256 ...\n      PUSH [tag] 17\t\t\tfunction transferLand(uint256 ...\n      SWAP2 \t\t\tfunction transferLand(uint256 ...\n      SWAP1 \t\t\tfunction transferLand(uint256 ...\n      PUSH [tag] 18\t\t\tfunction transferLand(uint256 ...\n      JUMP \t\t\tfunction transferLand(uint256 ...\n    tag 17\t\t\tfunction transferLand(uint256 ...\n      JUMPDEST \t\t\tfunction transferLand(uint256 ...\n      PUSH [tag] 19\t\t\tfunction transferLand(uint256 ...\n      JUMP \t\t\tfunction transferLand(uint256 ...\n    tag 16\t\t\tfunction transferLand(uint256 ...\n      JUMPDEST \t\t\tfunction transferLand(uint256 ...\n      STOP \t\t\tfunction transferLand(uint256 ...\n    tag 6\t\t\tuint256 public landCount\n      JUMPDEST \t\t\tuint256 public landCount\n      PUSH [tag] 20\t\t\tuint256 public landCount\n      PUSH [tag] 21\t\t\tuint256 public landCount\n      JUMP \t\t\tuint256 public landCount\n    tag 20\t\t\tuint256 public landCount\n      JUMPDEST \t\t\tuint256 public landCount\n      PUSH 40\t\t\tuint256 public landCount\n      MLOAD \t\t\tuint256 public landCount\n      PUSH [tag] 22\t\t\tuint256 public landCount\n      SWAP2 \t\t\tuint256 public landCount\n      SWAP1 \t\t\tuint256 public landCount\n      PUSH [tag] 23\t\t\tuint256 public landCount\n      JUMP \t\t\tuint256 public landCount\n    tag 22\t\t\tuint256 public landCount\n      JUMPDEST \t\t\tuint256 public landCount\n      PUSH 40\t\t\tuint256 public landCount\n      MLOAD \t\t\tuint256 public landCount\n      DUP1 \t\t\tuint256 public landCount\n      SWAP2 \t\t\tuint256 public landCount\n      SUB \t\t\tuint256 public landCount\n      SWAP1 \t\t\tuint256 public landCount\n      RETURN \t\t\tuint256 public landCount\n    tag 7\t\t\tmapping(uint256 => Land) publi...\n      JUMPDEST \t\t\tmapping(uint256 => Land) publi...\n      PUSH [tag] 24\t\t\tmapping(uint256 => Land) publi...\n      PUSH 4\t\t\tmapping(uint256 => Land) publi...\n      DUP1 \t\t\tmapping(uint256 => Land) publi...\n      CALLDATASIZE \t\t\tmapping(uint256 => Land) publi...\n      SUB \t\t\tmapping(uint256 => Land) publi...\n      DUP2 \t\t\tmapping(uint256 => Land) publi...\n      ADD \t\t\tmapping(uint256 => Land) publi...\n      SWAP1 \t\t\tmapping(uint256 => Land) publi...\n      PUSH [tag] 25\t\t\tmapping(uint256 => Land) publi...\n      SWAP2 \t\t\tmapping(uint256 => Land) publi...\n      SWAP1 \t\t\tmapping(uint256 => Land) publi...\n      PUSH [tag] 26\t\t\tmapping(uint256 => Land) publi...\n      JUMP \t\t\tmapping(uint256 => Land) publi...\n    tag 25\t\t\tmapping(uint256 => Land) publi...\n      JUMPDEST \t\t\tmapping(uint256 => Land) publi...\n      PUSH [tag] 27\t\t\tmapping(uint256 => Land) publi...\n      JUMP \t\t\tmapping(uint256 => Land) publi...\n    tag 24\t\t\tmapping(uint256 => Land) publi...\n      JUMPDEST \t\t\tmapping(uint256 => Land) publi...\n      PUSH 40\t\t\tmapping(uint256 => Land) publi...\n      MLOAD \t\t\tmapping(uint256 => Land) publi...\n      PUSH [tag] 28\t\t\tmapping(uint256 => Land) publi...\n      SWAP8 \t\t\tmapping(uint256 => Land) publi...\n      SWAP7 \t\t\tmapping(uint256 => Land) publi...\n      SWAP6 \t\t\tmapping(uint256 => Land) publi...\n      SWAP5 \t\t\tmapping(uint256 => Land) publi...\n      SWAP4 \t\t\tmapping(uint256 => Land) publi...\n      SWAP3 \t\t\tmapping(uint256 => Land) publi...\n      SWAP2 \t\t\tmapping(uint256 => Land) publi...\n      SWAP1 \t\t\tmapping(uint256 => Land) publi...\n      PUSH [tag] 29\t\t\tmapping(uint256 => Land) publi...\n      JUMP \t\t\tmapping(uint256 => Land) publi...\n    tag 28\t\t\tmapping(uint256 => Land) publi...\n      JUMPDEST \t\t\tmapping(uint256 => Land) publi...\n      PUSH 40\t\t\tmapping(uint256 => Land) publi...\n      MLOAD \t\t\tmapping(uint256 => Land) publi...\n      DUP1 \t\t\tmapping(uint256 => Land) publi...\n      SWAP2 \t\t\tmapping(uint256 => Land) publi...\n      SUB \t\t\tmapping(uint256 => Land) publi...\n      SWAP1 \t\t\tmapping(uint256 => Land) publi...\n      RETURN \t\t\tmapping(uint256 => Land) publi...\n    tag 11\t\t\tfunction registerLand(\\r\\n    ...\n      JUMPDEST \t\t\tfunction registerLand(\\r\\n    ...\n      PUSH 0\t\t\t0\n      DUP6 \t\t\t_location\n      MLOAD \t\t\tbytes(_location).length\n      GT \t\t\tbytes(_location).length > 0\n      PUSH [tag] 31\t\t\trequire(bytes(_location).lengt...\n      JUMPI \t\t\trequire(bytes(_location).lengt...\n      PUSH 40\t\t\trequire(bytes(_location).lengt...\n      MLOAD \t\t\trequire(bytes(_location).lengt...\n      PUSH 8C379A000000000000000000000000000000000000000000000000000000000\t\t\trequire(bytes(_location).lengt...\n      DUP2 \t\t\trequire(bytes(_location).lengt...\n      MSTORE \t\t\trequire(bytes(_location).lengt...\n      PUSH 4\t\t\trequire(bytes(_location).lengt...\n      ADD \t\t\trequire(bytes(_location).lengt...\n      PUSH [tag] 32\t\t\trequire(bytes(_location).lengt...\n      SWAP1 \t\t\trequire(bytes(_location).lengt...\n      PUSH [tag] 33\t\t\trequire(bytes(_location).lengt...\n      JUMP \t\t\trequire(bytes(_location).lengt...\n    tag 32\t\t\trequire(bytes(_location).lengt...\n      JUMPDEST \t\t\trequire(bytes(_location).lengt...\n      PUSH 40\t\t\trequire(bytes(_location).lengt...\n      MLOAD \t\t\trequire(bytes(_location).lengt...\n      DUP1 \t\t\trequire(bytes(_location).lengt...\n      SWAP2 \t\t\trequire(bytes(_location).lengt...\n      SUB \t\t\trequire(bytes(_location).lengt...\n      SWAP1 \t\t\trequire(bytes(_location).lengt...\n      REVERT \t\t\trequire(bytes(_location).lengt...\n    tag 31\t\t\trequire(bytes(_location).lengt...\n      JUMPDEST \t\t\trequire(bytes(_location).lengt...\n      PUSH 0\t\t\t0\n      DUP5 \t\t\t_size\n      GT \t\t\t_size > 0\n      PUSH [tag] 34\t\t\trequire(_size > 0, \"Size must ...\n      JUMPI \t\t\trequire(_size > 0, \"Size must ...\n      PUSH 40\t\t\trequire(_size > 0, \"Size must ...\n      MLOAD \t\t\trequire(_size > 0, \"Size must ...\n      PUSH 8C379A000000000000000000000000000000000000000000000000000000000\t\t\trequire(_size > 0, \"Size must ...\n      DUP2 \t\t\trequire(_size > 0, \"Size must ...\n      MSTORE \t\t\trequire(_size > 0, \"Size must ...\n      PUSH 4\t\t\trequire(_size > 0, \"Size must ...\n      ADD \t\t\trequire(_size > 0, \"Size must ...\n      PUSH [tag] 35\t\t\trequire(_size > 0, \"Size must ...\n      SWAP1 \t\t\trequire(_size > 0, \"Size must ...\n      PUSH [tag] 36\t\t\trequire(_size > 0, \"Size must ...\n      JUMP \t\t\trequire(_size > 0, \"Size must ...\n    tag 35\t\t\trequire(_size > 0, \"Size must ...\n      JUMPDEST \t\t\trequire(_size > 0, \"Size must ...\n      PUSH 40\t\t\trequire(_size > 0, \"Size must ...\n      MLOAD \t\t\trequire(_size > 0, \"Size must ...\n      DUP1 \t\t\trequire(_size > 0, \"Size must ...\n      SWAP2 \t\t\trequire(_size > 0, \"Size must ...\n      SUB \t\t\trequire(_size > 0, \"Size must ...\n      SWAP1 \t\t\trequire(_size > 0, \"Size must ...\n      REVERT \t\t\trequire(_size > 0, \"Size must ...\n    tag 34\t\t\trequire(_size > 0, \"Size must ...\n      JUMPDEST \t\t\trequire(_size > 0, \"Size must ...\n      PUSH 0\t\t\t0\n      DUP4 \t\t\t_documentHash\n      MLOAD \t\t\tbytes(_documentHash).length\n      GT \t\t\tbytes(_documentHash).length > ...\n      PUSH [tag] 37\t\t\trequire(bytes(_documentHash).l...\n      JUMPI \t\t\trequire(bytes(_documentHash).l...\n      PUSH 40\t\t\trequire(bytes(_documentHash).l...\n      MLOAD \t\t\trequire(bytes(_documentHash).l...\n      PUSH 8C379A000000000000000000000000000000000000000000000000000000000\t\t\trequire(bytes(_documentHash).l...\n      DUP2 \t\t\trequire(bytes(_documentHash).l...\n      MSTORE \t\t\trequire(bytes(_documentHash).l...\n      PUSH 4\t\t\trequire(bytes(_documentHash).l...\n      ADD \t\t\trequire(bytes(_documentHash).l...\n      PUSH [tag] 38\t\t\trequire(bytes(_documentHash).l...\n      SWAP1 \t\t\trequire(bytes(_documentHash).l...\n      PUSH [tag] 39\t\t\trequire(bytes(_documentHash).l...\n      JUMP \t\t\trequire(bytes(_documentHash).l...\n    tag 38\t\t\trequire(bytes(_documentHash).l...\n      JUMPDEST \t\t\trequire(bytes(_documentHash).l...\n      PUSH 40\t\t\trequire(bytes(_documentHash).l...\n      MLOAD \t\t\trequire(bytes(_documentHash).l...\n      DUP1 \t\t\trequire(bytes(_documentHash).l...\n      SWAP2 \t\t\trequire(bytes(_documentHash).l...\n      SUB \t\t\trequire(bytes(_documentHash).l...\n      SWAP1 \t\t\trequire(bytes(_documentHash).l...\n      REVERT \t\t\trequire(bytes(_documentHash).l...\n    tag 37\t\t\trequire(bytes(_documentHash).l...\n      JUMPDEST \t\t\trequire(bytes(_documentHash).l...\n      PUSH 0\t\t\t0\n      DUP3 \t\t\t_latitude\n      MLOAD \t\t\tbytes(_latitude).length\n      GT \t\t\tbytes(_latitude).length > 0\n      PUSH [tag] 40\t\t\trequire(bytes(_latitude).lengt...\n      JUMPI \t\t\trequire(bytes(_latitude).lengt...\n      PUSH 40\t\t\trequire(bytes(_latitude).lengt...\n      MLOAD \t\t\trequire(bytes(_latitude).lengt...\n      PUSH 8C379A000000000000000000000000000000000000000000000000000000000\t\t\trequire(bytes(_latitude).lengt...\n      DUP2 \t\t\trequire(bytes(_latitude).lengt...\n      MSTORE \t\t\trequire(bytes(_latitude).lengt...\n      PUSH 4\t\t\trequire(bytes(_latitude).lengt...\n      ADD \t\t\trequire(bytes(_latitude).lengt...\n      PUSH [tag] 41\t\t\trequire(bytes(_latitude).lengt...\n      SWAP1 \t\t\trequire(bytes(_latitude).lengt...\n      PUSH [tag] 42\t\t\trequire(bytes(_latitude).lengt...\n      JUMP \t\t\trequire(bytes(_latitude).lengt...\n    tag 41\t\t\trequire(bytes(_latitude).lengt...\n      JUMPDEST \t\t\trequire(bytes(_latitude).lengt...\n      PUSH 40\t\t\trequire(bytes(_latitude).lengt...\n      MLOAD \t\t\trequire(bytes(_latitude).lengt...\n      DUP1 \t\t\trequire(bytes(_latitude).lengt...\n      SWAP2 \t\t\trequire(bytes(_latitude).lengt...\n      SUB \t\t\trequire(bytes(_latitude).lengt...\n      SWAP1 \t\t\trequire(bytes(_latitude).lengt...\n      REVERT \t\t\trequire(bytes(_latitude).lengt...\n    tag 40\t\t\trequire(bytes(_latitude).lengt...\n      JUMPDEST \t\t\trequire(bytes(_latitude).lengt...\n      PUSH 0\t\t\t0\n      DUP2 \t\t\t_longitude\n      MLOAD \t\t\tbytes(_longitude).length\n      GT \t\t\tbytes(_longitude).length > 0\n      PUSH [tag] 43\t\t\trequire(bytes(_longitude).leng...\n      JUMPI \t\t\trequire(bytes(_longitude).leng...\n      PUSH 40\t\t\trequire(bytes(_longitude).leng...\n      MLOAD \t\t\trequire(bytes(_longitude).leng...\n      PUSH 8C379A000000000000000000000000000000000000000000000000000000000\t\t\trequire(bytes(_longitude).leng...\n      DUP2 \t\t\trequire(bytes(_longitude).leng...\n      MSTORE \t\t\trequire(bytes(_longitude).leng...\n      PUSH 4\t\t\trequire(bytes(_longitude).leng...\n      ADD \t\t\trequire(bytes(_longitude).leng...\n      PUSH [tag] 44\t\t\trequire(bytes(_longitude).leng...\n      SWAP1 \t\t\trequire(bytes(_longitude).leng...\n      PUSH [tag] 45\t\t\trequire(bytes(_longitude).leng...\n      JUMP \t\t\trequire(bytes(_longitude).leng...\n    tag 44\t\t\trequire(bytes(_longitude).leng...\n      JUMPDEST \t\t\trequire(bytes(_longitude).leng...\n      PUSH 40\t\t\trequire(bytes(_longitude).leng...\n      MLOAD \t\t\trequire(bytes(_longitude).leng...\n      DUP1 \t\t\trequire(bytes(_longitude).leng...\n      SWAP2 \t\t\trequire(bytes(_longitude).leng...\n      SUB \t\t\trequire(bytes(_longitude).leng...\n      SWAP1 \t\t\trequire(bytes(_longitude).leng...\n      REVERT \t\t\trequire(bytes(_longitude).leng...\n    tag 43\t\t\trequire(bytes(_longitude).leng...\n      JUMPDEST \t\t\trequire(bytes(_longitude).leng...\n      PUSH 1\t\t\tregisteredDocumentHashes\n      DUP4 \t\t\t_documentHash\n      PUSH 40\t\t\tregisteredDocumentHashes[_docu...\n      MLOAD \t\t\tregisteredDocumentHashes[_docu...\n      PUSH [tag] 46\t\t\tregisteredDocumentHashes[_docu...\n      SWAP2 \t\t\tregisteredDocumentHashes[_docu...\n      SWAP1 \t\t\tregisteredDocumentHashes[_docu...\n      PUSH [tag] 47\t\t\tregisteredDocumentHashes[_docu...\n      JUMP \t\t\tregisteredDocumentHashes[_docu...\n    tag 46\t\t\tregisteredDocumentHashes[_docu...\n      JUMPDEST \t\t\tregisteredDocumentHashes[_docu...\n      SWAP1 \t\t\tregisteredDocumentHashes[_docu...\n      DUP2 \t\t\tregisteredDocumentHashes[_docu...\n      MSTORE \t\t\tregisteredDocumentHashes[_docu...\n      PUSH 20\t\t\tregisteredDocumentHashes[_docu...\n      ADD \t\t\tregisteredDocumentHashes[_docu...\n      PUSH 40\t\t\tregisteredDocumentHashes[_docu...\n      MLOAD \t\t\tregisteredDocumentHashes[_docu...\n      DUP1 \t\t\tregisteredDocumentHashes[_docu...\n      SWAP2 \t\t\tregisteredDocumentHashes[_docu...\n      SUB \t\t\tregisteredDocumentHashes[_docu...\n      SWAP1 \t\t\tregisteredDocumentHashes[_docu...\n      KECCAK256 \t\t\tregisteredDocumentHashes[_docu...\n      PUSH 0\t\t\tregisteredDocumentHashes[_docu...\n      SWAP1 \t\t\tregisteredDocumentHashes[_docu...\n      SLOAD \t\t\tregisteredDocumentHashes[_docu...\n      SWAP1 \t\t\tregisteredDocumentHashes[_docu...\n      PUSH 100\t\t\tregisteredDocumentHashes[_docu...\n      EXP \t\t\tregisteredDocumentHashes[_docu...\n      SWAP1 \t\t\tregisteredDocumentHashes[_docu...\n      DIV \t\t\tregisteredDocumentHashes[_docu...\n      PUSH FF\t\t\tregisteredDocumentHashes[_docu...\n      AND \t\t\tregisteredDocumentHashes[_docu...\n      ISZERO \t\t\t!registeredDocumentHashes[_doc...\n      PUSH [tag] 48\t\t\trequire(!registeredDocumentHas...\n      JUMPI \t\t\trequire(!registeredDocumentHas...\n      PUSH 40\t\t\trequire(!registeredDocumentHas...\n      MLOAD \t\t\trequire(!registeredDocumentHas...\n      PUSH 8C379A000000000000000000000000000000000000000000000000000000000\t\t\trequire(!registeredDocumentHas...\n      DUP2 \t\t\trequire(!registeredDocumentHas...\n      MSTORE \t\t\trequire(!registeredDocumentHas...\n      PUSH 4\t\t\trequire(!registeredDocumentHas...\n      ADD \t\t\trequire(!registeredDocumentHas...\n      PUSH [tag] 49\t\t\trequire(!registeredDocumentHas...\n      SWAP1 \t\t\trequire(!registeredDocumentHas...\n      PUSH [tag] 50\t\t\trequire(!registeredDocumentHas...\n      JUMP \t\t\trequire(!registeredDocumentHas...\n    tag 49\t\t\trequire(!registeredDocumentHas...\n      JUMPDEST \t\t\trequire(!registeredDocumentHas...\n      PUSH 40\t\t\trequire(!registeredDocumentHas...\n      MLOAD \t\t\trequire(!registeredDocumentHas...\n      DUP1 \t\t\trequire(!registeredDocumentHas...\n      SWAP2 \t\t\trequire(!registeredDocumentHas...\n      SUB \t\t\trequire(!registeredDocumentHas...\n      SWAP1 \t\t\trequire(!registeredDocumentHas...\n      REVERT \t\t\trequire(!registeredDocumentHas...\n    tag 48\t\t\trequire(!registeredDocumentHas...\n      JUMPDEST \t\t\trequire(!registeredDocumentHas...\n      PUSH 40\t\t\tLand(_location, _size, msg.sen...\n      MLOAD \t\t\tLand(_location, _size, msg.sen...\n      DUP1 \t\t\tLand(_location, _size, msg.sen...\n      PUSH E0\t\t\tLand(_location, _size, msg.sen...\n      ADD \t\t\tLand(_location, _size, msg.sen...\n      PUSH 40\t\t\tLand(_location, _size, msg.sen...\n      MSTORE \t\t\tLand(_location, _size, msg.sen...\n      DUP1 \t\t\tLand(_location, _size, msg.sen...\n      DUP7 \t\t\t_location\n      DUP2 \t\t\tLand(_location, _size, msg.sen...\n      MSTORE \t\t\tLand(_location, _size, msg.sen...\n      PUSH 20\t\t\tLand(_location, _size, msg.sen...\n      ADD \t\t\tLand(_location, _size, msg.sen...\n      DUP6 \t\t\t_size\n      DUP2 \t\t\tLand(_location, _size, msg.sen...\n      MSTORE \t\t\tLand(_location, _size, msg.sen...\n      PUSH 20\t\t\tLand(_location, _size, msg.sen...\n      ADD \t\t\tLand(_location, _size, msg.sen...\n      CALLER \t\t\tmsg.sender\n      PUSH FFFFFFFFFFFFFFFFFFFFFFFFFFFFFFFFFFFFFFFF\t\t\tLand(_location, _size, msg.sen...\n      AND \t\t\tLand(_location, _size, msg.sen...\n      DUP2 \t\t\tLand(_location, _size, msg.sen...\n      MSTORE \t\t\tLand(_location, _size, msg.sen...\n      PUSH 20\t\t\tLand(_location, _size, msg.sen...\n      ADD \t\t\tLand(_location, _size, msg.sen...\n      DUP5 \t\t\t_documentHash\n      DUP2 \t\t\tLand(_location, _size, msg.sen...\n      MSTORE \t\t\tLand(_location, _size, msg.sen...\n      PUSH 20\t\t\tLand(_location, _size, msg.sen...\n      ADD \t\t\tLand(_location, _size, msg.sen...\n      DUP4 \t\t\t_latitude\n      DUP2 \t\t\tLand(_location, _size, msg.sen...\n      MSTORE \t\t\tLand(_location, _size, msg.sen...\n      PUSH 20\t\t\tLand(_location, _size, msg.sen...\n      ADD \t\t\tLand(_location, _size, msg.sen...\n      DUP3 \t\t\t_longitude\n      DUP2 \t\t\tLand(_location, _size, msg.sen...\n      MSTORE \t\t\tLand(_location, _size, msg.sen...\n      PUSH 20\t\t\tLand(_location, _size, msg.sen...\n      ADD \t\t\tLand(_location, _size, msg.sen...\n      PUSH 1\t\t\ttrue\n      ISZERO \t\t\tLand(_location, _size, msg.sen...\n      ISZERO \t\t\tLand(_location, _size, msg.sen...\n      DUP2 \t\t\tLand(_location, _size, msg.sen...\n      MSTORE \t\t\tLand(_location, _size, msg.sen...\n      POP \t\t\tLand(_location, _size, msg.sen...\n      PUSH 0\t\t\tlands\n      DUP1 \t\t\tlands[landCount]\n      PUSH 2\t\t\tlandCount\n      SLOAD \t\t\tlandCount\n      DUP2 \t\t\tlands[landCount]\n      MSTORE \t\t\tlands[landCount]\n      PUSH 20\t\t\tlands[landCount]\n      ADD \t\t\tlands[landCount]\n      SWAP1 \t\t\tlands[landCount]\n      DUP2 \t\t\tlands[landCount]\n      MSTORE \t\t\tlands[landCount]\n      PUSH 20\t\t\tlands[landCount]\n      ADD \t\t\tlands[landCount]\n      PUSH 0\t\t\tlands[landCount]\n      KECCAK256 \t\t\tlands[landCount]\n      PUSH 0\t\t\tlands[landCount] = Land(_locat...\n      DUP3 \t\t\tlands[landCount] = Land(_locat...\n      ADD \t\t\tlands[landCount] = Land(_locat...\n      MLOAD \t\t\tlands[landCount] = Land(_locat...\n      DUP2 \t\t\tlands[landCount] = Land(_locat...\n      PUSH 0\t\t\tlands[landCount] = Land(_locat...\n      ADD \t\t\tlands[landCount] = Land(_locat...\n      SWAP1 \t\t\tlands[landCount] = Land(_locat...\n      DUP2 \t\t\tlands[landCount] = Land(_locat...\n      PUSH [tag] 51\t\t\tlands[landCount] = Land(_locat...\n      SWAP2 \t\t\tlands[landCount] = Land(_locat...\n      SWAP1 \t\t\tlands[landCount] = Land(_locat...\n      PUSH [tag] 52\t\t\tlands[landCount] = Land(_locat...\n      JUMP \t\t\tlands[landCount] = Land(_locat...\n    tag 51\t\t\tlands[landCount] = Land(_locat...\n      JUMPDEST \t\t\tlands[landCount] = Land(_locat...\n      POP \t\t\tlands[landCount] = Land(_locat...\n      PUSH 20\t\t\tlands[landCount] = Land(_locat...\n      DUP3 \t\t\tlands[landCount] = Land(_locat...\n      ADD \t\t\tlands[landCount] = Land(_locat...\n      MLOAD \t\t\tlands[landCount] = Land(_locat...\n      DUP2 \t\t\tlands[landCount] = Land(_locat...\n      PUSH 1\t\t\tlands[landCount] = Land(_locat...\n      ADD \t\t\tlands[landCount] = Land(_locat...\n      SSTORE \t\t\tlands[landCount] = Land(_locat...\n      PUSH 40\t\t\tlands[landCount] = Land(_locat...\n      DUP3 \t\t\tlands[landCount] = Land(_locat...\n      ADD \t\t\tlands[landCount] = Land(_locat...\n      MLOAD \t\t\tlands[landCount] = Land(_locat...\n      DUP2 \t\t\tlands[landCount] = Land(_locat...\n      PUSH 2\t\t\tlands[landCount] = Land(_locat...\n      ADD \t\t\tlands[landCount] = Land(_locat...\n      PUSH 0\t\t\tlands[landCount] = Land(_locat...\n      PUSH 100\t\t\tlands[landCount] = Land(_locat...\n      EXP \t\t\tlands[landCount] = Land(_locat...\n      DUP2 \t\t\tlands[landCount] = Land(_locat...\n      SLOAD \t\t\tlands[landCount] = Land(_locat...\n      DUP2 \t\t\tlands[landCount] = Land(_locat...\n      PUSH FFFFFFFFFFFFFFFFFFFFFFFFFFFFFFFFFFFFFFFF\t\t\tlands[landCount] = Land(_locat...\n      MUL \t\t\tlands[landCount] = Land(_locat...\n      NOT \t\t\tlands[landCount] = Land(_locat...\n      AND \t\t\tlands[landCount] = Land(_locat...\n      SWAP1 \t\t\tlands[landCount] = Land(_locat...\n      DUP4 \t\t\tlands[landCount] = Land(_locat...\n      PUSH FFFFFFFFFFFFFFFFFFFFFFFFFFFFFFFFFFFFFFFF\t\t\tlands[landCount] = Land(_locat...\n      AND \t\t\tlands[landCount] = Land(_locat...\n      MUL \t\t\tlands[landCount] = Land(_locat...\n      OR \t\t\tlands[landCount] = Land(_locat...\n      SWAP1 \t\t\tlands[landCount] = Land(_locat...\n      SSTORE \t\t\tlands[landCount] = Land(_locat...\n      POP \t\t\tlands[landCount] = Land(_locat...\n      PUSH 60\t\t\tlands[landCount] = Land(_locat...\n      DUP3 \t\t\tlands[landCount] = Land(_locat...\n      ADD \t\t\tlands[landCount] = Land(_locat...\n      MLOAD \t\t\tlands[landCount] = Land(_locat...\n      DUP2 \t\t\tlands[landCount] = Land(_locat...\n      PUSH 3\t\t\tlands[landCount] = Land(_locat...\n      ADD \t\t\tlands[landCount] = Land(_locat...\n      SWAP1 \t\t\tlands[landCount] = Land(_locat...\n      DUP2 \t\t\tlands[landCount] = Land(_locat...\n      PUSH [tag] 53\t\t\tlands[landCount] = Land(_locat...\n      SWAP2 \t\t\tlands[landCount] = Land(_locat...\n      SWAP1 \t\t\tlands[landCount] = Land(_locat...\n      PUSH [tag] 52\t\t\tlands[landCount] = Land(_locat...\n      JUMP \t\t\tlands[landCount] = Land(_locat...\n    tag 53\t\t\tlands[landCount] = Land(_locat...\n      JUMPDEST \t\t\tlands[landCount] = Land(_locat...\n      POP \t\t\tlands[landCount] = Land(_locat...\n      PUSH 80\t\t\tlands[landCount] = Land(_locat...\n      DUP3 \t\t\tlands[landCount] = Land(_locat...\n      ADD \t\t\tlands[landCount] = Land(_locat...\n      MLOAD \t\t\tlands[landCount] = Land(_locat...\n      DUP2 \t\t\tlands[landCount] = Land(_locat...\n      PUSH 4\t\t\tlands[landCount] = Land(_locat...\n      ADD \t\t\tlands[landCount] = Land(_locat...\n      SWAP1 \t\t\tlands[landCount] = Land(_locat...\n      DUP2 \t\t\tlands[landCount] = Land(_locat...\n      PUSH [tag] 54\t\t\tlands[landCount] = Land(_locat...\n      SWAP2 \t\t\tlands[landCount] = Land(_locat...\n      SWAP1 \t\t\tlands[landCount] = Land(_locat...\n      PUSH [tag] 52\t\t\tlands[landCount] = Land(_locat...\n      JUMP \t\t\tlands[landCount] = Land(_locat...\n    tag 54\t\t\tlands[landCount] = Land(_locat...\n      JUMPDEST \t\t\tlands[landCount] = Land(_locat...\n      POP \t\t\tlands[landCount] = Land(_locat...\n      PUSH A0\t\t\tlands[landCount] = Land(_locat...\n      DUP3 \t\t\tlands[landCount] = Land(_locat...\n      ADD \t\t\tlands[landCount] = Land(_locat...\n      MLOAD \t\t\tlands[landCount] = Land(_locat...\n      DUP2 \t\t\tlands[landCount] = Land(_locat...\n      PUSH 5\t\t\tlands[landCount] = Land(_locat...\n      ADD \t\t\tlands[landCount] = Land(_locat...\n      SWAP1 \t\t\tlands[landCount] = Land(_locat...\n      DUP2 \t\t\tlands[landCount] = Land(_locat...\n      PUSH [tag] 55\t\t\tlands[landCount] = Land(_locat...\n      SWAP2 \t\t\tlands[landCount] = Land(_locat...\n      SWAP1 \t\t\tlands[landCount] = Land(_locat...\n      PUSH [tag] 52\t\t\tlands[landCount] = Land(_locat...\n      JUMP \t\t\tlands[landCount] = Land(_locat...\n    tag 55\t\t\tlands[landCount] = Land(_locat...\n      JUMPDEST \t\t\tlands[landCount] = Land(_locat...\n      POP \t\t\tlands[landCount] = Land(_locat...\n      PUSH C0\t\t\tlands[landCount] = Land(_locat...\n      DUP3 \t\t\tlands[landCount] = Land(_locat...\n      ADD \t\t\tlands[landCount] = Land(_locat...\n      MLOAD \t\t\tlands[landCount] = Land(_locat...\n      DUP2 \t\t\tlands[landCount] = Land(_locat...\n      PUSH 6\t\t\tlands[landCount] = Land(_locat...\n      ADD \t\t\tlands[landCount] = Land(_locat...\n      PUSH 0\t\t\tlands[landCount] = Land(_locat...\n      PUSH 100\t\t\tlands[landCount] = Land(_locat...\n      EXP \t\t\tlands[landCount] = Land(_locat...\n      DUP2 \t\t\tlands[landCount] = Land(_locat...\n      SLOAD \t\t\tlands[landCount] = Land(_locat...\n      DUP2 \t\t\tlands[landCount] = Land(_locat...\n      PUSH FF\t\t\tlands[landCount] = Land(_locat...\n      MUL \t\t\tlands[landCount] = Land(_locat...\n      NOT \t\t\tlands[landCount] = Land(_locat...\n      AND \t\t\tlands[landCount] = Land(_locat...\n      SWAP1 \t\t\tlands[landCount] = Land(_locat...\n      DUP4 \t\t\tlands[landCount] = Land(_locat...\n      ISZERO \t\t\tlands[landCount] = Land(_locat...\n      ISZERO \t\t\tlands[landCount] = Land(_locat...\n      MUL \t\t\tlands[landCount] = Land(_locat...\n      OR \t\t\tlands[landCount] = Land(_locat...\n      SWAP1 \t\t\tlands[landCount] = Land(_locat...\n      SSTORE \t\t\tlands[landCount] = Land(_locat...\n      POP \t\t\tlands[landCount] = Land(_locat...\n      SWAP1 \t\t\tlands[landCount] = Land(_locat...\n      POP \t\t\tlands[landCount] = Land(_locat...\n      POP \t\t\tlands[landCount] = Land(_locat...\n      PUSH 1\t\t\ttrue\n      DUP1 \t\t\tregisteredDocumentHashes\n      DUP5 \t\t\t_documentHash\n      PUSH 40\t\t\tregisteredDocumentHashes[_docu...\n      MLOAD \t\t\tregisteredDocumentHashes[_docu...\n      PUSH [tag] 56\t\t\tregisteredDocumentHashes[_docu...\n      SWAP2 \t\t\tregisteredDocumentHashes[_docu...\n      SWAP1 \t\t\tregisteredDocumentHashes[_docu...\n      PUSH [tag] 47\t\t\tregisteredDocumentHashes[_docu...\n      JUMP \t\t\tregisteredDocumentHashes[_docu...\n    tag 56\t\t\tregisteredDocumentHashes[_docu...\n      JUMPDEST \t\t\tregisteredDocumentHashes[_docu...\n      SWAP1 \t\t\tregisteredDocumentHashes[_docu...\n      DUP2 \t\t\tregisteredDocumentHashes[_docu...\n      MSTORE \t\t\tregisteredDocumentHashes[_docu...\n      PUSH 20\t\t\tregisteredDocumentHashes[_docu...\n      ADD \t\t\tregisteredDocumentHashes[_docu...\n      PUSH 40\t\t\tregisteredDocumentHashes[_docu...\n      MLOAD \t\t\tregisteredDocumentHashes[_docu...\n      DUP1 \t\t\tregisteredDocumentHashes[_docu...\n      SWAP2 \t\t\tregisteredDocumentHashes[_docu...\n      SUB \t\t\tregisteredDocumentHashes[_docu...\n      SWAP1 \t\t\tregisteredDocumentHashes[_docu...\n      KECCAK256 \t\t\tregisteredDocumentHashes[_docu...\n      PUSH 0\t\t\tregisteredDocumentHashes[_docu...\n      PUSH 100\t\t\tregisteredDocumentHashes[_docu...\n      EXP \t\t\tregisteredDocumentHashes[_docu...\n      DUP2 \t\t\tregisteredDocumentHashes[_docu...\n      SLOAD \t\t\tregisteredDocumentHashes[_docu...\n      DUP2 \t\t\tregisteredDocumentHashes[_docu...\n      PUSH FF\t\t\tregisteredDocumentHashes[_docu...\n      MUL \t\t\tregisteredDocumentHashes[_docu...\n      NOT \t\t\tregisteredDocumentHashes[_docu...\n      AND \t\t\tregisteredDocumentHashes[_docu...\n      SWAP1 \t\t\tregisteredDocumentHashes[_docu...\n      DUP4 \t\t\tregisteredDocumentHashes[_docu...\n      ISZERO \t\t\tregisteredDocumentHashes[_docu...\n      ISZERO \t\t\tregisteredDocumentHashes[_docu...\n      MUL \t\t\tregisteredDocumentHashes[_docu...\n      OR \t\t\tregisteredDocumentHashes[_docu...\n      SWAP1 \t\t\tregisteredDocumentHashes[_docu...\n      SSTORE \t\t\tregisteredDocumentHashes[_docu...\n      POP \t\t\tregisteredDocumentHashes[_docu...\n      CALLER \t\t\tmsg.sender\n      PUSH FFFFFFFFFFFFFFFFFFFFFFFFFFFFFFFFFFFFFFFF\t\t\tLandRegistered(landCount, _loc...\n      AND \t\t\tLandRegistered(landCount, _loc...\n      PUSH 2\t\t\tlandCount\n      SLOAD \t\t\tlandCount\n      PUSH 291CC4D7438D72C7AC86127A5AEE9737EFA86872DA9D572A94BC53CFE4A11DC4\t\t\tLandRegistered(landCount, _loc...\n      DUP8 \t\t\t_location\n      DUP8 \t\t\t_size\n      DUP8 \t\t\t_documentHash\n      DUP8 \t\t\t_latitude\n      DUP8 \t\t\t_longitude\n      PUSH 40\t\t\tLandRegistered(landCount, _loc...\n      MLOAD \t\t\tLandRegistered(landCount, _loc...\n      PUSH [tag] 57\t\t\tLandRegistered(landCount, _loc...\n      SWAP6 \t\t\tLandRegistered(landCount, _loc...\n      SWAP5 \t\t\tLandRegistered(landCount, _loc...\n      SWAP4 \t\t\tLandRegistered(landCount, _loc...\n      SWAP3 \t\t\tLandRegistered(landCount, _loc...\n      SWAP2 \t\t\tLandRegistered(landCount, _loc...\n      SWAP1 \t\t\tLandRegistered(landCount, _loc...\n      PUSH [tag] 58\t\t\tLandRegistered(landCount, _loc...\n      JUMP \t\t\tLandRegistered(landCount, _loc...\n    tag 57\t\t\tLandRegistered(landCount, _loc...\n      JUMPDEST \t\t\tLandRegistered(landCount, _loc...\n      PUSH 40\t\t\tLandRegistered(landCount, _loc...\n      MLOAD \t\t\tLandRegistered(landCount, _loc...\n      DUP1 \t\t\tLandRegistered(landCount, _loc...\n      SWAP2 \t\t\tLandRegistered(landCount, _loc...\n      SUB \t\t\tLandRegistered(landCount, _loc...\n      SWAP1 \t\t\tLandRegistered(landCount, _loc...\n      LOG3 \t\t\tLandRegistered(landCount, _loc...\n      PUSH 2\t\t\tlandCount\n      PUSH 0\t\t\tlandCount\n      DUP2 \t\t\tlandCount++\n      SLOAD \t\t\tlandCount++\n      DUP1 \t\t\tlandCount++\n      SWAP3 \t\t\tlandCount++\n      SWAP2 \t\t\tlandCount++\n      SWAP1 \t\t\tlandCount++\n      PUSH [tag] 59\t\t\tlandCount++\n      SWAP1 \t\t\tlandCount++\n      PUSH [tag] 60\t\t\tlandCount++\n      JUMP \t\t\tlandCount++\n    tag 59\t\t\tlandCount++\n      JUMPDEST \t\t\tlandCount++\n      SWAP2 \t\t\tlandCount++\n      SWAP1 \t\t\tlandCount++\n      POP \t\t\tlandCount++\n      SSTORE \t\t\tlandCount++\n      POP \t\t\tlandCount++\n      POP \t\t\tfunction registerLand(\\r\\n    ...\n      POP \t\t\tfunction registerLand(\\r\\n    ...\n      POP \t\t\tfunction registerLand(\\r\\n    ...\n      POP \t\t\tfunction registerLand(\\r\\n    ...\n      POP \t\t\tfunction registerLand(\\r\\n    ...\n      JUMP \t\t\tfunction registerLand(\\r\\n    ...\n    tag 13\t\t\tfunction getAllLands() public ...\n      JUMPDEST \t\t\tfunction getAllLands() public ...\n      PUSH 60\t\t\tLand[] memory\n      PUSH 0\t\t\tLand[] memory allLands\n      PUSH 2\t\t\tlandCount\n      SLOAD \t\t\tlandCount\n      PUSH FFFFFFFFFFFFFFFF\t\t\tnew Land[](landCount)\n      DUP2 \t\t\tnew Land[](landCount)\n      GT \t\t\tnew Land[](landCount)\n      ISZERO \t\t\tnew Land[](landCount)\n      PUSH [tag] 62\t\t\tnew Land[](landCount)\n      JUMPI \t\t\tnew Land[](landCount)\n      PUSH [tag] 63\t\t\tnew Land[](landCount)\n      PUSH [tag] 64\t\t\tnew Land[](landCount)\n      JUMP \t\t\tnew Land[](landCount)\n    tag 63\t\t\tnew Land[](landCount)\n      JUMPDEST \t\t\tnew Land[](landCount)\n    tag 62\t\t\tnew Land[](landCount)\n      JUMPDEST \t\t\tnew Land[](landCount)\n      PUSH 40\t\t\tnew Land[](landCount)\n      MLOAD \t\t\tnew Land[](landCount)\n      SWAP1 \t\t\tnew Land[](landCount)\n      DUP1 \t\t\tnew Land[](landCount)\n      DUP3 \t\t\tnew Land[](landCount)\n      MSTORE \t\t\tnew Land[](landCount)\n      DUP1 \t\t\tnew Land[](landCount)\n      PUSH 20\t\t\tnew Land[](landCount)\n      MUL \t\t\tnew Land[](landCount)\n      PUSH 20\t\t\tnew Land[](landCount)\n      ADD \t\t\tnew Land[](landCount)\n      DUP3 \t\t\tnew Land[](landCount)\n      ADD \t\t\tnew Land[](landCount)\n      PUSH 40\t\t\tnew Land[](landCount)\n      MSTORE \t\t\tnew Land[](landCount)\n      DUP1 \t\t\tnew Land[](landCount)\n      ISZERO \t\t\tnew Land[](landCount)\n      PUSH [tag] 65\t\t\tnew Land[](landCount)\n      JUMPI \t\t\tnew Land[](landCount)\n      DUP2 \t\t\tnew Land[](landCount)\n      PUSH 20\t\t\tnew Land[](landCount)\n      ADD \t\t\tnew Land[](landCount)\n    tag 66\t\t\tnew Land[](landCount)\n      JUMPDEST \t\t\tnew Land[](landCount)\n      PUSH [tag] 67\t\t\tnew Land[](landCount)\n      PUSH [tag] 68\t\t\tnew Land[](landCount)\n      JUMP \t\t\tnew Land[](landCount)\n    tag 67\t\t\tnew Land[](landCount)\n      JUMPDEST \t\t\tnew Land[](landCount)\n      DUP2 \t\t\tnew Land[](landCount)\n      MSTORE \t\t\tnew Land[](landCount)\n      PUSH 20\t\t\tnew Land[](landCount)\n      ADD \t\t\tnew Land[](landCount)\n      SWAP1 \t\t\tnew Land[](landCount)\n      PUSH 1\t\t\tnew Land[](landCount)\n      SWAP1 \t\t\tnew Land[](landCount)\n      SUB \t\t\tnew Land[](landCount)\n      SWAP1 \t\t\tnew Land[](landCount)\n      DUP2 \t\t\tnew Land[](landCount)\n      PUSH [tag] 66\t\t\tnew Land[](landCount)\n      JUMPI \t\t\tnew Land[](landCount)\n      SWAP1 \t\t\tnew Land[](landCount)\n      POP \t\t\tnew Land[](landCount)\n    tag 65\t\t\tnew Land[](landCount)\n      JUMPDEST \t\t\tnew Land[](landCount)\n      POP \t\t\tnew Land[](landCount)\n      SWAP1 \t\t\tLand[] memory allLands = new L...\n      POP \t\t\tLand[] memory allLands = new L...\n      PUSH 0\t\t\tuint256 i\n    tag 69\t\t\tfor (uint256 i = 0; i < landCo...\n      JUMPDEST \t\t\tfor (uint256 i = 0; i < landCo...\n      PUSH 2\t\t\tlandCount\n      SLOAD \t\t\tlandCount\n      DUP2 \t\t\ti\n      LT \t\t\ti < landCount\n      ISZERO \t\t\tfor (uint256 i = 0; i < landCo...\n      PUSH [tag] 70\t\t\tfor (uint256 i = 0; i < landCo...\n      JUMPI \t\t\tfor (uint256 i = 0; i < landCo...\n      PUSH 0\t\t\tLand storage land\n      DUP1 \t\t\tlands\n      PUSH 0\t\t\tlands[i]\n      DUP4 \t\t\ti\n      DUP2 \t\t\tlands[i]\n      MSTORE \t\t\tlands[i]\n      PUSH 20\t\t\tlands[i]\n      ADD \t\t\tlands[i]\n      SWAP1 \t\t\tlands[i]\n      DUP2 \t\t\tlands[i]\n      MSTORE \t\t\tlands[i]\n      PUSH 20\t\t\tlands[i]\n      ADD \t\t\tlands[i]\n      PUSH 0\t\t\tlands[i]\n      KECCAK256 \t\t\tlands[i]\n      SWAP1 \t\t\tLand storage land = lands[i]\n      POP \t\t\tLand storage land = lands[i]\n      DUP1 \t\t\tland\n      PUSH 40\t\t\tallLands[i] = land\n      MLOAD \t\t\tallLands[i] = land\n      DUP1 \t\t\tallLands[i] = land\n      PUSH E0\t\t\tallLands[i] = land\n      ADD \t\t\tallLands[i] = land\n      PUSH 40\t\t\tallLands[i] = land\n      MSTORE \t\t\tallLands[i] = land\n      SWAP1 \t\t\tallLands[i] = land\n      DUP2 \t\t\tallLands[i] = land\n      PUSH 0\t\t\tallLands[i] = land\n      DUP3 \t\t\tallLands[i] = land\n      ADD \t\t\tallLands[i] = land\n      DUP1 \t\t\tallLands[i] = land\n      SLOAD \t\t\tallLands[i] = land\n      PUSH [tag] 72\t\t\tallLands[i] = land\n      SWAP1 \t\t\tallLands[i] = land\n      PUSH [tag] 73\t\t\tallLands[i] = land\n      JUMP \t\t\tallLands[i] = land\n    tag 72\t\t\tallLands[i] = land\n      JUMPDEST \t\t\tallLands[i] = land\n      DUP1 \t\t\tallLands[i] = land\n      PUSH 1F\t\t\tallLands[i] = land\n      ADD \t\t\tallLands[i] = land\n      PUSH 20\t\t\tallLands[i] = land\n      DUP1 \t\t\tallLands[i] = land\n      SWAP2 \t\t\tallLands[i] = land\n      DIV \t\t\tallLands[i] = land\n      MUL \t\t\tallLands[i] = land\n      PUSH 20\t\t\tallLands[i] = land\n      ADD \t\t\tallLands[i] = land\n      PUSH 40\t\t\tallLands[i] = land\n      MLOAD \t\t\tallLands[i] = land\n      SWAP1 \t\t\tallLands[i] = land\n      DUP2 \t\t\tallLands[i] = land\n      ADD \t\t\tallLands[i] = land\n      PUSH 40\t\t\tallLands[i] = land\n      MSTORE \t\t\tallLands[i] = land\n      DUP1 \t\t\tallLands[i] = land\n      SWAP3 \t\t\tallLands[i] = land\n      SWAP2 \t\t\tallLands[i] = land\n      SWAP1 \t\t\tallLands[i] = land\n      DUP2 \t\t\tallLands[i] = land\n      DUP2 \t\t\tallLands[i] = land\n      MSTORE \t\t\tallLands[i] = land\n      PUSH 20\t\t\tallLands[i] = land\n      ADD \t\t\tallLands[i] = land\n      DUP3 \t\t\tallLands[i] = land\n      DUP1 \t\t\tallLands[i] = land\n      SLOAD \t\t\tallLands[i] = land\n      PUSH [tag] 74\t\t\tallLands[i] = land\n      SWAP1 \t\t\tallLands[i] = land\n      PUSH [tag] 73\t\t\tallLands[i] = land\n      JUMP \t\t\tallLands[i] = land\n    tag 74\t\t\tallLands[i] = land\n      JUMPDEST \t\t\tallLands[i] = land\n      DUP1 \t\t\tallLands[i] = land\n      ISZERO \t\t\tallLands[i] = land\n      PUSH [tag] 75\t\t\tallLands[i] = land\n      JUMPI \t\t\tallLands[i] = land\n      DUP1 \t\t\tallLands[i] = land\n      PUSH 1F\t\t\tallLands[i] = land\n      LT \t\t\tallLands[i] = land\n      PUSH [tag] 76\t\t\tallLands[i] = land\n      JUMPI \t\t\tallLands[i] = land\n      PUSH 100\t\t\tallLands[i] = land\n      DUP1 \t\t\tallLands[i] = land\n      DUP4 \t\t\tallLands[i] = land\n      SLOAD \t\t\tallLands[i] = land\n      DIV \t\t\tallLands[i] = land\n      MUL \t\t\tallLands[i] = land\n      DUP4 \t\t\tallLands[i] = land\n      MSTORE \t\t\tallLands[i] = land\n      SWAP2 \t\t\tallLands[i] = land\n      PUSH 20\t\t\tallLands[i] = land\n      ADD \t\t\tallLands[i] = land\n      SWAP2 \t\t\tallLands[i] = land\n      PUSH [tag] 75\t\t\tallLands[i] = land\n      JUMP \t\t\tallLands[i] = land\n    tag 76\t\t\tallLands[i] = land\n      JUMPDEST \t\t\tallLands[i] = land\n      DUP3 \t\t\tallLands[i] = land\n      ADD \t\t\tallLands[i] = land\n      SWAP2 \t\t\tallLands[i] = land\n      SWAP1 \t\t\tallLands[i] = land\n      PUSH 0\t\t\tallLands[i] = land\n      MSTORE \t\t\tallLands[i] = land\n      PUSH 20\t\t\tallLands[i] = land\n      PUSH 0\t\t\tallLands[i] = land\n      KECCAK256 \t\t\tallLands[i] = land\n      SWAP1 \t\t\tallLands[i] = land\n    tag 77\t\t\tallLands[i] = land\n      JUMPDEST \t\t\tallLands[i] = land\n      DUP2 \t\t\tallLands[i] = land\n      SLOAD \t\t\tallLands[i] = land\n      DUP2 \t\t\tallLands[i] = land\n      MSTORE \t\t\tallLands[i] = land\n      SWAP1 \t\t\tallLands[i] = land\n      PUSH 1\t\t\tallLands[i] = land\n      ADD \t\t\tallLands[i] = land\n      SWAP1 \t\t\tallLands[i] = land\n      PUSH 20\t\t\tallLands[i] = land\n      ADD \t\t\tallLands[i] = land\n      DUP1 \t\t\tallLands[i] = land\n      DUP4 \t\t\tallLands[i] = land\n      GT \t\t\tallLands[i] = land\n      PUSH [tag] 77\t\t\tallLands[i] = land\n      JUMPI \t\t\tallLands[i] = land\n      DUP3 \t\t\tallLands[i] = land\n      SWAP1 \t\t\tallLands[i] = land\n      SUB \t\t\tallLands[i] = land\n      PUSH 1F\t\t\tallLands[i] = land\n      AND \t\t\tallLands[i] = land\n      DUP3 \t\t\tallLands[i] = land\n      ADD \t\t\tallLands[i] = land\n      SWAP2 \t\t\tallLands[i] = land\n    tag 75\t\t\tallLands[i] = land\n      JUMPDEST \t\t\tallLands[i] = land\n      POP \t\t\tallLands[i] = land\n      POP \t\t\tallLands[i] = land\n      POP \t\t\tallLands[i] = land\n      POP \t\t\tallLands[i] = land\n      POP \t\t\tallLands[i] = land\n      DUP2 \t\t\tallLands[i] = land\n      MSTORE \t\t\tallLands[i] = land\n      PUSH 20\t\t\tallLands[i] = land\n      ADD \t\t\tallLands[i] = land\n      PUSH 1\t\t\tallLands[i] = land\n      DUP3 \t\t\tallLands[i] = land\n      ADD \t\t\tallLands[i] = land\n      SLOAD \t\t\tallLands[i] = land\n      DUP2 \t\t\tallLands[i] = land\n      MSTORE \t\t\tallLands[i] = land\n      PUSH 20\t\t\tallLands[i] = land\n      ADD \t\t\tallLands[i] = land\n      PUSH 2\t\t\tallLands[i] = land\n      DUP3 \t\t\tallLands[i] = land\n      ADD \t\t\tallLands[i] = land\n      PUSH 0\t\t\tallLands[i] = land\n      SWAP1 \t\t\tallLands[i] = land\n      SLOAD \t\t\tallLands[i] = land\n      SWAP1 \t\t\tallLands[i] = land\n      PUSH 100\t\t\tallLands[i] = land\n      EXP \t\t\tallLands[i] = land\n      SWAP1 \t\t\tallLands[i] = land\n      DIV \t\t\tallLands[i] = land\n      PUSH FFFFFFFFFFFFFFFFFFFFFFFFFFFFFFFFFFFFFFFF\t\t\tallLands[i] = land\n      AND \t\t\tallLands[i] = land\n      PUSH FFFFFFFFFFFFFFFFFFFFFFFFFFFFFFFFFFFFFFFF\t\t\tallLands[i] = land\n      AND \t\t\tallLands[i] = land\n      PUSH FFFFFFFFFFFFFFFFFFFFFFFFFFFFFFFFFFFFFFFF\t\t\tallLands[i] = land\n      AND \t\t\tallLands[i] = land\n      DUP2 \t\t\tallLands[i] = land\n      MSTORE \t\t\tallLands[i] = land\n      PUSH 20\t\t\tallLands[i] = land\n      ADD \t\t\tallLands[i] = land\n      PUSH 3\t\t\tallLands[i] = land\n      DUP3 \t\t\tallLands[i] = land\n      ADD \t\t\tallLands[i] = land\n      DUP1 \t\t\tallLands[i] = land\n      SLOAD \t\t\tallLands[i] = land\n      PUSH [tag] 78\t\t\tallLands[i] = land\n      SWAP1 \t\t\tallLands[i] = land\n      PUSH [tag] 73\t\t\tallLands[i] = land\n      JUMP \t\t\tallLands[i] = land\n    tag 78\t\t\tallLands[i] = land\n      JUMPDEST \t\t\tallLands[i] = land\n      DUP1 \t\t\tallLands[i] = land\n      PUSH 1F\t\t\tallLands[i] = land\n      ADD \t\t\tallLands[i] = land\n      PUSH 20\t\t\tallLands[i] = land\n      DUP1 \t\t\tallLands[i] = land\n      SWAP2 \t\t\tallLands[i] = land\n      DIV \t\t\tallLands[i] = land\n      MUL \t\t\tallLands[i] = land\n      PUSH 20\t\t\tallLands[i] = land\n      ADD \t\t\tallLands[i] = land\n      PUSH 40\t\t\tallLands[i] = land\n      MLOAD \t\t\tallLands[i] = land\n      SWAP1 \t\t\tallLands[i] = land\n      DUP2 \t\t\tallLands[i] = land\n      ADD \t\t\tallLands[i] = land\n      PUSH 40\t\t\tallLands[i] = land\n      MSTORE \t\t\tallLands[i] = land\n      DUP1 \t\t\tallLands[i] = land\n      SWAP3 \t\t\tallLands[i] = land\n      SWAP2 \t\t\tallLands[i] = land\n      SWAP1 \t\t\tallLands[i] = land\n      DUP2 \t\t\tallLands[i] = land\n      DUP2 \t\t\tallLands[i] = land\n      MSTORE \t\t\tallLands[i] = land\n      PUSH 20\t\t\tallLands[i] = land\n      ADD \t\t\tallLands[i] = land\n      DUP3 \t\t\tallLands[i] = land\n      DUP1 \t\t\tallLands[i] = land\n      SLOAD \t\t\tallLands[i] = land\n      PUSH [tag] 79\t\t\tallLands[i] = land\n      SWAP1 \t\t\tallLands[i] = land\n      PUSH [tag] 73\t\t\tallLands[i] = land\n      JUMP \t\t\tallLands[i] = land\n    tag 79\t\t\tallLands[i] = land\n      JUMPDEST \t\t\tallLands[i] = land\n      DUP1 \t\t\tallLands[i] = land\n      ISZERO \t\t\tallLands[i] = land\n      PUSH [tag] 80\t\t\tallLands[i] = land\n      JUMPI \t\t\tallLands[i] = land\n      DUP1 \t\t\tallLands[i] = land\n      PUSH 1F\t\t\tallLands[i] = land\n      LT \t\t\tallLands[i] = land\n      PUSH [tag] 81\t\t\tallLands[i] = land\n      JUMPI \t\t\tallLands[i] = land\n      PUSH 100\t\t\tallLands[i] = land\n      DUP1 \t\t\tallLands[i] = land\n      DUP4 \t\t\tallLands[i] = land\n      SLOAD \t\t\tallLands[i] = land\n      DIV \t\t\tallLands[i] = land\n      MUL \t\t\tallLands[i] = land\n      DUP4 \t\t\tallLands[i] = land\n      MSTORE \t\t\tallLands[i] = land\n      SWAP2 \t\t\tallLands[i] = land\n      PUSH 20\t\t\tallLands[i] = land\n      ADD \t\t\tallLands[i] = land\n      SWAP2 \t\t\tallLands[i] = land\n      PUSH [tag] 80\t\t\tallLands[i] = land\n      JUMP \t\t\tallLands[i] = land\n    tag 81\t\t\tallLands[i] = land\n      JUMPDEST \t\t\tallLands[i] = land\n      DUP3 \t\t\tallLands[i] = land\n      ADD \t\t\tallLands[i] = land\n      SWAP2 \t\t\tallLands[i] = land\n      SWAP1 \t\t\tallLands[i] = land\n      PUSH 0\t\t\tallLands[i] = land\n      MSTORE \t\t\tallLands[i] = land\n      PUSH 20\t\t\tallLands[i] = land\n      PUSH 0\t\t\tallLands[i] = land\n      KECCAK256 \t\t\tallLands[i] = land\n      SWAP1 \t\t\tallLands[i] = land\n    tag 82\t\t\tallLands[i] = land\n      JUMPDEST \t\t\tallLands[i] = land\n      DUP2 \t\t\tallLands[i] = land\n      SLOAD \t\t\tallLands[i] = land\n      DUP2 \t\t\tallLands[i] = land\n      MSTORE \t\t\tallLands[i] = land\n      SWAP1 \t\t\tallLands[i] = land\n      PUSH 1\t\t\tallLands[i] = land\n      ADD \t\t\tallLands[i] = land\n      SWAP1 \t\t\tallLands[i] = land\n      PUSH 20\t\t\tallLands[i] = land\n      ADD \t\t\tallLands[i] = land\n      DUP1 \t\t\tallLands[i] = land\n      DUP4 \t\t\tallLands[i] = land\n      GT \t\t\tallLands[i] = land\n      PUSH [tag] 82\t\t\tallLands[i] = land\n      JUMPI \t\t\tallLands[i] = land\n      DUP3 \t\t\tallLands[i] = land\n      SWAP1 \t\t\tallLands[i] = land\n      SUB \t\t\tallLands[i] = land\n      PUSH 1F\t\t\tallLands[i] = land\n      AND \t\t\tallLands[i] = land\n      DUP3 \t\t\tallLands[i] = land\n      ADD \t\t\tallLands[i] = land\n      SWAP2 \t\t\tallLands[i] = land\n    tag 80\t\t\tallLands[i] = land\n      JUMPDEST \t\t\tallLands[i] = land\n      POP \t\t\tallLands[i] = land\n      POP \t\t\tallLands[i] = land\n      POP \t\t\tallLands[i] = land\n      POP \t\t\tallLands[i] = land\n      POP \t\t\tallLands[i] = land\n      DUP2 \t\t\tallLands[i] = land\n      MSTORE \t\t\tallLands[i] = land\n      PUSH 20\t\t\tallLands[i] = land\n      ADD \t\t\tallLands[i] = land\n      PUSH 4\t\t\tallLands[i] = land\n      DUP3 \t\t\tallLands[i] = land\n      ADD \t\t\tallLands[i] = land\n      DUP1 \t\t\tallLands[i] = land\n      SLOAD \t\t\tallLands[i] = land\n      PUSH [tag] 83\t\t\tallLands[i] = land\n      SWAP1 \t\t\tallLands[i] = land\n      PUSH [tag] 73\t\t\tallLands[i] = land\n      JUMP \t\t\tallLands[i] = land\n    tag 83\t\t\tallLands[i] = land\n      JUMPDEST \t\t\tallLands[i] = land\n      DUP1 \t\t\tallLands[i] = land\n      PUSH 1F\t\t\tallLands[i] = land\n      ADD \t\t\tallLands[i] = land\n      PUSH 20\t\t\tallLands[i] = land\n      DUP1 \t\t\tallLands[i] = land\n      SWAP2 \t\t\tallLands[i] = land\n      DIV \t\t\tallLands[i] = land\n      MUL \t\t\tallLands[i] = land\n      PUSH 20\t\t\tallLands[i] = land\n      ADD \t\t\tallLands[i] = land\n      PUSH 40\t\t\tallLands[i] = land\n      MLOAD \t\t\tallLands[i] = land\n      SWAP1 \t\t\tallLands[i] = land\n      DUP2 \t\t\tallLands[i] = land\n      ADD \t\t\tallLands[i] = land\n      PUSH 40\t\t\tallLands[i] = land\n      MSTORE \t\t\tallLands[i] = land\n      DUP1 \t\t\tallLands[i] = land\n      SWAP3 \t\t\tallLands[i] = land\n      SWAP2 \t\t\tallLands[i] = land\n      SWAP1 \t\t\tallLands[i] = land\n      DUP2 \t\t\tallLands[i] = land\n      DUP2 \t\t\tallLands[i] = land\n      MSTORE \t\t\tallLands[i] = land\n      PUSH 20\t\t\tallLands[i] = land\n      ADD \t\t\tallLands[i] = land\n      DUP3 \t\t\tallLands[i] = land\n      DUP1 \t\t\tallLands[i] = land\n      SLOAD \t\t\tallLands[i] = land\n      PUSH [tag] 84\t\t\tallLands[i] = land\n      SWAP1 \t\t\tallLands[i] = land\n      PUSH [tag] 73\t\t\tallLands[i] = land\n      JUMP \t\t\tallLands[i] = land\n    tag 84\t\t\tallLands[i] = land\n      JUMPDEST \t\t\tallLands[i] = land\n      DUP1 \t\t\tallLands[i] = land\n      ISZERO \t\t\tallLands[i] = land\n      PUSH [tag] 85\t\t\tallLands[i] = land\n      JUMPI \t\t\tallLands[i] = land\n      DUP1 \t\t\tallLands[i] = land\n      PUSH 1F\t\t\tallLands[i] = land\n      LT \t\t\tallLands[i] = land\n      PUSH [tag] 86\t\t\tallLands[i] = land\n      JUMPI \t\t\tallLands[i] = land\n      PUSH 100\t\t\tallLands[i] = land\n      DUP1 \t\t\tallLands[i] = land\n      DUP4 \t\t\tallLands[i] = land\n      SLOAD \t\t\tallLands[i] = land\n      DIV \t\t\tallLands[i] = land\n      MUL \t\t\tallLands[i] = land\n      DUP4 \t\t\tallLands[i] = land\n      MSTORE \t\t\tallLands[i] = land\n      SWAP2 \t\t\tallLands[i] = land\n      PUSH 20\t\t\tallLands[i] = land\n      ADD \t\t\tallLands[i] = land\n      SWAP2 \t\t\tallLands[i] = land\n      PUSH [tag] 85\t\t\tallLands[i] = land\n      JUMP \t\t\tallLands[i] = land\n    tag 86\t\t\tallLands[i] = land\n      JUMPDEST \t\t\tallLands[i] = land\n      DUP3 \t\t\tallLands[i] = land\n      ADD \t\t\tallLands[i] = land\n      SWAP2 \t\t\tallLands[i] = land\n      SWAP1 \t\t\tallLands[i] = land\n      PUSH 0\t\t\tallLands[i] = land\n      MSTORE \t\t\tallLands[i] = land\n      PUSH 20\t\t\tallLands[i] = land\n      PUSH 0\t\t\tallLands[i] = land\n      KECCAK256 \t\t\tallLands[i] = land\n      SWAP1 \t\t\tallLands[i] = land\n    tag 87\t\t\tallLands[i] = land\n      JUMPDEST \t\t\tallLands[i] = land\n      DUP2 \t\t\tallLands[i] = land\n      SLOAD \t\t\tallLands[i] = land\n      DUP2 \t\t\tallLands[i] = land\n      MSTORE \t\t\tallLands[i] = land\n      SWAP1 \t\t\tallLands[i] = land\n      PUSH 1\t\t\tallLands[i] = land\n      ADD \t\t\tallLands[i] = land\n      SWAP1 \t\t\tallLands[i] = land\n      PUSH 20\t\t\tallLands[i] = land\n      ADD \t\t\tallLands[i] = land\n      DUP1 \t\t\tallLands[i] = land\n      DUP4 \t\t\tallLands[i] = land\n      GT \t\t\tallLands[i] = land\n      PUSH [tag] 87\t\t\tallLands[i] = land\n      JUMPI \t\t\tallLands[i] = land\n      DUP3 \t\t\tallLands[i] = land\n      SWAP1 \t\t\tallLands[i] = land\n      SUB \t\t\tallLands[i] = land\n      PUSH 1F\t\t\tallLands[i] = land\n      AND \t\t\tallLands[i] = land\n      DUP3 \t\t\tallLands[i] = land\n      ADD \t\t\tallLands[i] = land\n      SWAP2 \t\t\tallLands[i] = land\n    tag 85\t\t\tallLands[i] = land\n      JUMPDEST \t\t\tallLands[i] = land\n      POP \t\t\tallLands[i] = land\n      POP \t\t\tallLands[i] = land\n      POP \t\t\tallLands[i] = land\n      POP \t\t\tallLands[i] = land\n      POP \t\t\tallLands[i] = land\n      DUP2 \t\t\tallLands[i] = land\n      MSTORE \t\t\tallLands[i] = land\n      PUSH 20\t\t\tallLands[i] = land\n      ADD \t\t\tallLands[i] = land\n      PUSH 5\t\t\tallLands[i] = land\n      DUP3 \t\t\tallLands[i] = land\n      ADD \t\t\tallLands[i] = land\n      DUP1 \t\t\tallLands[i] = land\n      SLOAD \t\t\tallLands[i] = land\n      PUSH [tag] 88\t\t\tallLands[i] = land\n      SWAP1 \t\t\tallLands[i] = land\n      PUSH [tag] 73\t\t\tallLands[i] = land\n      JUMP \t\t\tallLands[i] = land\n    tag 88\t\t\tallLands[i] = land\n      JUMPDEST \t\t\tallLands[i] = land\n      DUP1 \t\t\tallLands[i] = land\n      PUSH 1F\t\t\tallLands[i] = land\n      ADD \t\t\tallLands[i] = land\n      PUSH 20\t\t\tallLands[i] = land\n      DUP1 \t\t\tallLands[i] = land\n      SWAP2 \t\t\tallLands[i] = land\n      DIV \t\t\tallLands[i] = land\n      MUL \t\t\tallLands[i] = land\n      PUSH 20\t\t\tallLands[i] = land\n      ADD \t\t\tallLands[i] = land\n      PUSH 40\t\t\tallLands[i] = land\n      MLOAD \t\t\tallLands[i] = land\n      SWAP1 \t\t\tallLands[i] = land\n      DUP2 \t\t\tallLands[i] = land\n      ADD \t\t\tallLands[i] = land\n      PUSH 40\t\t\tallLands[i] = land\n      MSTORE \t\t\tallLands[i] = land\n      DUP1 \t\t\tallLands[i] = land\n      SWAP3 \t\t\tallLands[i] = land\n      SWAP2 \t\t\tallLands[i] = land\n      SWAP1 \t\t\tallLands[i] = land\n      DUP2 \t\t\tallLands[i] = land\n      DUP2 \t\t\tallLands[i] = land\n      MSTORE \t\t\tallLands[i] = land\n      PUSH 20\t\t\tallLands[i] = land\n      ADD \t\t\tallLands[i] = land\n      DUP3 \t\t\tallLands[i] = land\n      DUP1 \t\t\tallLands[i] = land\n      SLOAD \t\t\tallLands[i] = land\n      PUSH [tag] 89\t\t\tallLands[i] = land\n      SWAP1 \t\t\tallLands[i] = land\n      PUSH [tag] 73\t\t\tallLands[i] = land\n      JUMP \t\t\tallLands[i] = land\n    tag 89\t\t\tallLands[i] = land\n      JUMPDEST \t\t\tallLands[i] = land\n      DUP1 \t\t\tallLands[i] = land\n      ISZERO \t\t\tallLands[i] = land\n      PUSH [tag] 90\t\t\tallLands[i] = land\n      JUMPI \t\t\tallLands[i] = land\n      DUP1 \t\t\tallLands[i] = land\n      PUSH 1F\t\t\tallLands[i] = land\n      LT \t\t\tallLands[i] = land\n      PUSH [tag] 91\t\t\tallLands[i] = land\n      JUMPI \t\t\tallLands[i] = land\n      PUSH 100\t\t\tallLands[i] = land\n      DUP1 \t\t\tallLands[i] = land\n      DUP4 \t\t\tallLands[i] = land\n      SLOAD \t\t\tallLands[i] = land\n      DIV \t\t\tallLands[i] = land\n      MUL \t\t\tallLands[i] = land\n      DUP4 \t\t\tallLands[i] = land\n      MSTORE \t\t\tallLands[i] = land\n      SWAP2 \t\t\tallLands[i] = land\n      PUSH 20\t\t\tallLands[i] = land\n      ADD \t\t\tallLands[i] = land\n      SWAP2 \t\t\tallLands[i] = land\n      PUSH [tag] 90\t\t\tallLands[i] = land\n      JUMP \t\t\tallLands[i] = land\n    tag 91\t\t\tallLands[i] = land\n      JUMPDEST \t\t\tallLands[i] = land\n      DUP3 \t\t\tallLands[i] = land\n      ADD \t\t\tallLands[i] = land\n      SWAP2 \t\t\tallLands[i] = land\n      SWAP1 \t\t\tallLands[i] = land\n      PUSH 0\t\t\tallLands[i] = land\n      MSTORE \t\t\tallLands[i] = land\n      PUSH 20\t\t\tallLands[i] = land\n      PUSH 0\t\t\tallLands[i] = land\n      KECCAK256 \t\t\tallLands[i] = land\n      SWAP1 \t\t\tallLands[i] = land\n    tag 92\t\t\tallLands[i] = land\n      JUMPDEST \t\t\tallLands[i] = land\n      DUP2 \t\t\tallLands[i] = land\n      SLOAD \t\t\tallLands[i] = land\n      DUP2 \t\t\tallLands[i] = land\n      MSTORE \t\t\tallLands[i] = land\n      SWAP1 \t\t\tallLands[i] = land\n      PUSH 1\t\t\tallLands[i] = land\n      ADD \t\t\tallLands[i] = land\n      SWAP1 \t\t\tallLands[i] = land\n      PUSH 20\t\t\tallLands[i] = land\n      ADD \t\t\tallLands[i] = land\n      DUP1 \t\t\tallLands[i] = land\n      DUP4 \t\t\tallLands[i] = land\n      GT \t\t\tallLands[i] = land\n      PUSH [tag] 92\t\t\tallLands[i] = land\n      JUMPI \t\t\tallLands[i] = land\n      DUP3 \t\t\tallLands[i] = land\n      SWAP1 \t\t\tallLands[i] = land\n      SUB \t\t\tallLands[i] = land\n      PUSH 1F\t\t\tallLands[i] = land\n      AND \t\t\tallLands[i] = land\n      DUP3 \t\t\tallLands[i] = land\n      ADD \t\t\tallLands[i] = land\n      SWAP2 \t\t\tallLands[i] = land\n    tag 90\t\t\tallLands[i] = land\n      JUMPDEST \t\t\tallLands[i] = land\n      POP \t\t\tallLands[i] = land\n      POP \t\t\tallLands[i] = land\n      POP \t\t\tallLands[i] = land\n      POP \t\t\tallLands[i] = land\n      POP \t\t\tallLands[i] = land\n      DUP2 \t\t\tallLands[i] = land\n      MSTORE \t\t\tallLands[i] = land\n      PUSH 20\t\t\tallLands[i] = land\n      ADD \t\t\tallLands[i] = land\n      PUSH 6\t\t\tallLands[i] = land\n      DUP3 \t\t\tallLands[i] = land\n      ADD \t\t\tallLands[i] = land\n      PUSH 0\t\t\tallLands[i] = land\n      SWAP1 \t\t\tallLands[i] = land\n      SLOAD \t\t\tallLands[i] = land\n      SWAP1 \t\t\tallLands[i] = land\n      PUSH 100\t\t\tallLands[i] = land\n      EXP \t\t\tallLands[i] = land\n      SWAP1 \t\t\tallLands[i] = land\n      DIV \t\t\tallLands[i] = land\n      PUSH FF\t\t\tallLands[i] = land\n      AND \t\t\tallLands[i] = land\n      ISZERO \t\t\tallLands[i] = land\n      ISZERO \t\t\tallLands[i] = land\n      ISZERO \t\t\tallLands[i] = land\n      ISZERO \t\t\tallLands[i] = land\n      DUP2 \t\t\tallLands[i] = land\n      MSTORE \t\t\tallLands[i] = land\n      POP \t\t\tallLands[i] = land\n      POP \t\t\tallLands[i] = land\n      DUP4 \t\t\tallLands\n      DUP4 \t\t\ti\n      DUP2 \t\t\tallLands[i]\n      MLOAD \t\t\tallLands[i]\n      DUP2 \t\t\tallLands[i]\n      LT \t\t\tallLands[i]\n      PUSH [tag] 93\t\t\tallLands[i]\n      JUMPI \t\t\tallLands[i]\n      PUSH [tag] 94\t\t\tallLands[i]\n      PUSH [tag] 95\t\t\tallLands[i]\n      JUMP \t\t\tallLands[i]\n    tag 94\t\t\tallLands[i]\n      JUMPDEST \t\t\tallLands[i]\n    tag 93\t\t\tallLands[i]\n      JUMPDEST \t\t\tallLands[i]\n      PUSH 20\t\t\tallLands[i]\n      MUL \t\t\tallLands[i]\n      PUSH 20\t\t\tallLands[i]\n      ADD \t\t\tallLands[i]\n      ADD \t\t\tallLands[i]\n      DUP2 \t\t\tallLands[i] = land\n      SWAP1 \t\t\tallLands[i] = land\n      MSTORE \t\t\tallLands[i] = land\n      POP \t\t\tallLands[i] = land\n      POP \t\t\t{\\r\\n            Land storage ...\n      DUP1 \t\t\ti++\n      DUP1 \t\t\ti++\n      PUSH [tag] 96\t\t\ti++\n      SWAP1 \t\t\ti++\n      PUSH [tag] 60\t\t\ti++\n      JUMP \t\t\ti++\n    tag 96\t\t\ti++\n      JUMPDEST \t\t\ti++\n      SWAP2 \t\t\ti++\n      POP \t\t\ti++\n      POP \t\t\ti++\n      PUSH [tag] 69\t\t\tfor (uint256 i = 0; i < landCo...\n      JUMP \t\t\tfor (uint256 i = 0; i < landCo...\n    tag 70\t\t\tfor (uint256 i = 0; i < landCo...\n      JUMPDEST \t\t\tfor (uint256 i = 0; i < landCo...\n      POP \t\t\tfor (uint256 i = 0; i < landCo...\n      DUP1 \t\t\tallLands\n      SWAP2 \t\t\treturn allLands\n      POP \t\t\treturn allLands\n      POP \t\t\treturn allLands\n      SWAP1 \t\t\tfunction getAllLands() public ...\n      JUMP \t\t\tfunction getAllLands() public ...\n    tag 19\t\t\tfunction transferLand(uint256 ...\n      JUMPDEST \t\t\tfunction transferLand(uint256 ...\n      DUP2 \t\t\t_landId\n      PUSH 0\t\t\tlands\n      DUP1 \t\t\tlands[_landId]\n      DUP3 \t\t\t_landId\n      DUP2 \t\t\tlands[_landId]\n      MSTORE \t\t\tlands[_landId]\n      PUSH 20\t\t\tlands[_landId]\n      ADD \t\t\tlands[_landId]\n      SWAP1 \t\t\tlands[_landId]\n      DUP2 \t\t\tlands[_landId]\n      MSTORE \t\t\tlands[_landId]\n      PUSH 20\t\t\tlands[_landId]\n      ADD \t\t\tlands[_landId]\n      PUSH 0\t\t\tlands[_landId]\n      KECCAK256 \t\t\tlands[_landId]\n      PUSH 2\t\t\tlands[_landId].owner\n      ADD \t\t\tlands[_landId].owner\n      PUSH 0\t\t\tlands[_landId].owner\n      SWAP1 \t\t\tlands[_landId].owner\n      SLOAD \t\t\tlands[_landId].owner\n      SWAP1 \t\t\tlands[_landId].owner\n      PUSH 100\t\t\tlands[_landId].owner\n      EXP \t\t\tlands[_landId].owner\n      SWAP1 \t\t\tlands[_landId].owner\n      DIV \t\t\tlands[_landId].owner\n      PUSH FFFFFFFFFFFFFFFFFFFFFFFFFFFFFFFFFFFFFFFF\t\t\tlands[_landId].owner\n      AND \t\t\tlands[_landId].owner\n      PUSH FFFFFFFFFFFFFFFFFFFFFFFFFFFFFFFFFFFFFFFF\t\t\tmsg.sender == lands[_landId].o...\n      AND \t\t\tmsg.sender == lands[_landId].o...\n      CALLER \t\t\tmsg.sender\n      PUSH FFFFFFFFFFFFFFFFFFFFFFFFFFFFFFFFFFFFFFFF\t\t\tmsg.sender == lands[_landId].o...\n      AND \t\t\tmsg.sender == lands[_landId].o...\n      EQ \t\t\tmsg.sender == lands[_landId].o...\n      PUSH [tag] 98\t\t\trequire(msg.sender == lands[_l...\n      JUMPI \t\t\trequire(msg.sender == lands[_l...\n      PUSH 40\t\t\trequire(msg.sender == lands[_l...\n      MLOAD \t\t\trequire(msg.sender == lands[_l...\n      PUSH 8C379A000000000000000000000000000000000000000000000000000000000\t\t\trequire(msg.sender == lands[_l...\n      DUP2 \t\t\trequire(msg.sender == lands[_l...\n      MSTORE \t\t\trequire(msg.sender == lands[_l...\n      PUSH 4\t\t\trequire(msg.sender == lands[_l...\n      ADD \t\t\trequire(msg.sender == lands[_l...\n      PUSH [tag] 99\t\t\trequire(msg.sender == lands[_l...\n      SWAP1 \t\t\trequire(msg.sender == lands[_l...\n      PUSH [tag] 100\t\t\trequire(msg.sender == lands[_l...\n      JUMP \t\t\trequire(msg.sender == lands[_l...\n    tag 99\t\t\trequire(msg.sender == lands[_l...\n      JUMPDEST \t\t\trequire(msg.sender == lands[_l...\n      PUSH 40\t\t\trequire(msg.sender == lands[_l...\n      MLOAD \t\t\trequire(msg.sender == lands[_l...\n      DUP1 \t\t\trequire(msg.sender == lands[_l...\n      SWAP2 \t\t\trequire(msg.sender == lands[_l...\n      SUB \t\t\trequire(msg.sender == lands[_l...\n      SWAP1 \t\t\trequire(msg.sender == lands[_l...\n      REVERT \t\t\trequire(msg.sender == lands[_l...\n    tag 98\t\t\trequire(msg.sender == lands[_l...\n      JUMPDEST \t\t\trequire(msg.sender == lands[_l...\n      PUSH 2\t\t\tlandCount\n      SLOAD \t\t\tlandCount\n      DUP4 \t\t\t_landId\n      LT \t\t\t_landId < landCount\n      PUSH [tag] 102\t\t\trequire(_landId < landCount, \"...\n      JUMPI \t\t\trequire(_landId < landCount, \"...\n      PUSH 40\t\t\trequire(_landId < landCount, \"...\n      MLOAD \t\t\trequire(_landId < landCount, \"...\n      PUSH 8C379A000000000000000000000000000000000000000000000000000000000\t\t\trequire(_landId < landCount, \"...\n      DUP2 \t\t\trequire(_landId < landCount, \"...\n      MSTORE \t\t\trequire(_landId < landCount, \"...\n      PUSH 4\t\t\trequire(_landId < landCount, \"...\n      ADD \t\t\trequire(_landId < landCount, \"...\n      PUSH [tag] 103\t\t\trequire(_landId < landCount, \"...\n      SWAP1 \t\t\trequire(_landId < landCount, \"...\n      PUSH [tag] 104\t\t\trequire(_landId < landCount, \"...\n      JUMP \t\t\trequire(_landId < landCount, \"...\n    tag 103\t\t\trequire(_landId < landCount, \"...\n      JUMPDEST \t\t\trequire(_landId < landCount, \"...\n      PUSH 40\t\t\trequire(_landId < landCount, \"...\n      MLOAD \t\t\trequire(_landId < landCount, \"...\n      DUP1 \t\t\trequire(_landId < landCount, \"...\n      SWAP2 \t\t\trequire(_landId < landCount, \"...\n      SUB \t\t\trequire(_landId < landCount, \"...\n      SWAP1 \t\t\trequire(_landId < landCount, \"...\n      REVERT \t\t\trequire(_landId < landCount, \"...\n    tag 102\t\t\trequire(_landId < landCount, \"...\n      JUMPDEST \t\t\trequire(_landId < landCount, \"...\n      PUSH 0\t\t\t0\n      PUSH FFFFFFFFFFFFFFFFFFFFFFFFFFFFFFFFFFFFFFFF\t\t\t_newOwner != address(0)\n      AND \t\t\t_newOwner != address(0)\n      DUP3 \t\t\t_newOwner\n      PUSH FFFFFFFFFFFFFFFFFFFFFFFFFFFFFFFFFFFFFFFF\t\t\t_newOwner != address(0)\n      AND \t\t\t_newOwner != address(0)\n      SUB \t\t\t_newOwner != address(0)\n      PUSH [tag] 105\t\t\trequire(_newOwner != address(0...\n      JUMPI \t\t\trequire(_newOwner != address(0...\n      PUSH 40\t\t\trequire(_newOwner != address(0...\n      MLOAD \t\t\trequire(_newOwner != address(0...\n      PUSH 8C379A000000000000000000000000000000000000000000000000000000000\t\t\trequire(_newOwner != address(0...\n      DUP2 \t\t\trequire(_newOwner != address(0...\n      MSTORE \t\t\trequire(_newOwner != address(0...\n      PUSH 4\t\t\trequire(_newOwner != address(0...\n      ADD \t\t\trequire(_newOwner != address(0...\n      PUSH [tag] 106\t\t\trequire(_newOwner != address(0...\n      SWAP1 \t\t\trequire(_newOwner != address(0...\n      PUSH [tag] 107\t\t\trequire(_newOwner != address(0...\n      JUMP \t\t\trequire(_newOwner != address(0...\n    tag 106\t\t\trequire(_newOwner != address(0...\n      JUMPDEST \t\t\trequire(_newOwner != address(0...\n      PUSH 40\t\t\trequire(_newOwner != address(0...\n      MLOAD \t\t\trequire(_newOwner != address(0...\n      DUP1 \t\t\trequire(_newOwner != address(0...\n      SWAP2 \t\t\trequire(_newOwner != address(0...\n      SUB \t\t\trequire(_newOwner != address(0...\n      SWAP1 \t\t\trequire(_newOwner != address(0...\n      REVERT \t\t\trequire(_newOwner != address(0...\n    tag 105\t\t\trequire(_newOwner != address(0...\n      JUMPDEST \t\t\trequire(_newOwner != address(0...\n      PUSH 0\t\t\taddress oldOwner\n      DUP1 \t\t\tlands\n      PUSH 0\t\t\tlands[_landId]\n      DUP6 \t\t\t_landId\n      DUP2 \t\t\tlands[_landId]\n      MSTORE \t\t\tlands[_landId]\n      PUSH 20\t\t\tlands[_landId]\n      ADD \t\t\tlands[_landId]\n      SWAP1 \t\t\tlands[_landId]\n      DUP2 \t\t\tlands[_landId]\n      MSTORE \t\t\tlands[_landId]\n      PUSH 20\t\t\tlands[_landId]\n      ADD \t\t\tlands[_landId]\n      PUSH 0\t\t\tlands[_landId]\n      KECCAK256 \t\t\tlands[_landId]\n      PUSH 2\t\t\tlands[_landId].owner\n      ADD \t\t\tlands[_landId].owner\n      PUSH 0\t\t\tlands[_landId].owner\n      SWAP1 \t\t\tlands[_landId].owner\n      SLOAD \t\t\tlands[_landId].owner\n      SWAP1 \t\t\tlands[_landId].owner\n      PUSH 100\t\t\tlands[_landId].owner\n      EXP \t\t\tlands[_landId].owner\n      SWAP1 \t\t\tlands[_landId].owner\n      DIV \t\t\tlands[_landId].owner\n      PUSH FFFFFFFFFFFFFFFFFFFFFFFFFFFFFFFFFFFFFFFF\t\t\tlands[_landId].owner\n      AND \t\t\tlands[_landId].owner\n      SWAP1 \t\t\taddress oldOwner = lands[_land...\n      POP \t\t\taddress oldOwner = lands[_land...\n      DUP3 \t\t\t_newOwner\n      PUSH 0\t\t\tlands\n      DUP1 \t\t\tlands[_landId]\n      DUP7 \t\t\t_landId\n      DUP2 \t\t\tlands[_landId]\n      MSTORE \t\t\tlands[_landId]\n      PUSH 20\t\t\tlands[_landId]\n      ADD \t\t\tlands[_landId]\n      SWAP1 \t\t\tlands[_landId]\n      DUP2 \t\t\tlands[_landId]\n      MSTORE \t\t\tlands[_landId]\n      PUSH 20\t\t\tlands[_landId]\n      ADD \t\t\tlands[_landId]\n      PUSH 0\t\t\tlands[_landId]\n      KECCAK256 \t\t\tlands[_landId]\n      PUSH 2\t\t\tlands[_landId].owner\n      ADD \t\t\tlands[_landId].owner\n      PUSH 0\t\t\tlands[_landId].owner\n      PUSH 100\t\t\tlands[_landId].owner = _newOwn...\n      EXP \t\t\tlands[_landId].owner = _newOwn...\n      DUP2 \t\t\tlands[_landId].owner = _newOwn...\n      SLOAD \t\t\tlands[_landId].owner = _newOwn...\n      DUP2 \t\t\tlands[_landId].owner = _newOwn...\n      PUSH FFFFFFFFFFFFFFFFFFFFFFFFFFFFFFFFFFFFFFFF\t\t\tlands[_landId].owner = _newOwn...\n      MUL \t\t\tlands[_landId].owner = _newOwn...\n      NOT \t\t\tlands[_landId].owner = _newOwn...\n      AND \t\t\tlands[_landId].owner = _newOwn...\n      SWAP1 \t\t\tlands[_landId].owner = _newOwn...\n      DUP4 \t\t\tlands[_landId].owner = _newOwn...\n      PUSH FFFFFFFFFFFFFFFFFFFFFFFFFFFFFFFFFFFFFFFF\t\t\tlands[_landId].owner = _newOwn...\n      AND \t\t\tlands[_landId].owner = _newOwn...\n      MUL \t\t\tlands[_landId].owner = _newOwn...\n      OR \t\t\tlands[_landId].owner = _newOwn...\n      SWAP1 \t\t\tlands[_landId].owner = _newOwn...\n      SSTORE \t\t\tlands[_landId].owner = _newOwn...\n      POP \t\t\tlands[_landId].owner = _newOwn...\n      DUP3 \t\t\t_newOwner\n      PUSH FFFFFFFFFFFFFFFFFFFFFFFFFFFFFFFFFFFFFFFF\t\t\tLandTransferred(_landId, oldOw...\n      AND \t\t\tLandTransferred(_landId, oldOw...\n      DUP2 \t\t\toldOwner\n      PUSH FFFFFFFFFFFFFFFFFFFFFFFFFFFFFFFFFFFFFFFF\t\t\tLandTransferred(_landId, oldOw...\n      AND \t\t\tLandTransferred(_landId, oldOw...\n      DUP6 \t\t\t_landId\n      PUSH 1080B2F211753E5090F26EF7FFDC6BB3E66A125C7290200D10B502160BB1F566\t\t\tLandTransferred(_landId, oldOw...\n      PUSH 40\t\t\tLandTransferred(_landId, oldOw...\n      MLOAD \t\t\tLandTransferred(_landId, oldOw...\n      PUSH 40\t\t\tLandTransferred(_landId, oldOw...\n      MLOAD \t\t\tLandTransferred(_landId, oldOw...\n      DUP1 \t\t\tLandTransferred(_landId, oldOw...\n      SWAP2 \t\t\tLandTransferred(_landId, oldOw...\n      SUB \t\t\tLandTransferred(_landId, oldOw...\n      SWAP1 \t\t\tLandTransferred(_landId, oldOw...\n      LOG4 \t\t\tLandTransferred(_landId, oldOw...\n      POP \t\t\t{\\r\\n        require(_landId <...\n      POP \t\t\tfunction transferLand(uint256 ...\n      POP \t\t\tfunction transferLand(uint256 ...\n      POP \t\t\tfunction transferLand(uint256 ...\n      JUMP \t\t\tfunction transferLand(uint256 ...\n    tag 21\t\t\tuint256 public landCount\n      JUMPDEST \t\t\tuint256 public landCount\n      PUSH 2\t\t\tuint256 public landCount\n      SLOAD \t\t\tuint256 public landCount\n      DUP2 \t\t\tuint256 public landCount\n      JUMP \t\t\tuint256 public landCount\n    tag 27\t\t\tmapping(uint256 => Land) publi...\n      JUMPDEST \t\t\tmapping(uint256 => Land) publi...\n      PUSH 0\t\t\tmapping(uint256 => Land) publi...\n      PUSH 20\t\t\tmapping(uint256 => Land) publi...\n      MSTORE \t\t\tmapping(uint256 => Land) publi...\n      DUP1 \t\t\tmapping(uint256 => Land) publi...\n      PUSH 0\t\t\tmapping(uint256 => Land) publi...\n      MSTORE \t\t\tmapping(uint256 => Land) publi...\n      PUSH 40\t\t\tmapping(uint256 => Land) publi...\n      PUSH 0\t\t\tmapping(uint256 => Land) publi...\n      KECCAK256 \t\t\tmapping(uint256 => Land) publi...\n      PUSH 0\t\t\tmapping(uint256 => Land) publi...\n      SWAP2 \t\t\tmapping(uint256 => Land) publi...\n      POP \t\t\tmapping(uint256 => Land) publi...\n      SWAP1 \t\t\tmapping(uint256 => Land) publi...\n      POP \t\t\tmapping(uint256 => Land) publi...\n      DUP1 \t\t\tmapping(uint256 => Land) publi...\n      PUSH 0\t\t\tmapping(uint256 => Land) publi...\n      ADD \t\t\tmapping(uint256 => Land) publi...\n      DUP1 \t\t\tmapping(uint256 => Land) publi...\n      SLOAD \t\t\tmapping(uint256 => Land) publi...\n      PUSH [tag] 108\t\t\tmapping(uint256 => Land) publi...\n      SWAP1 \t\t\tmapping(uint256 => Land) publi...\n      PUSH [tag] 73\t\t\tmapping(uint256 => Land) publi...\n      JUMP \t\t\tmapping(uint256 => Land) publi...\n    tag 108\t\t\tmapping(uint256 => Land) publi...\n      JUMPDEST \t\t\tmapping(uint256 => Land) publi...\n      DUP1 \t\t\tmapping(uint256 => Land) publi...\n      PUSH 1F\t\t\tmapping(uint256 => Land) publi...\n      ADD \t\t\tmapping(uint256 => Land) publi...\n      PUSH 20\t\t\tmapping(uint256 => Land) publi...\n      DUP1 \t\t\tmapping(uint256 => Land) publi...\n      SWAP2 \t\t\tmapping(uint256 => Land) publi...\n      DIV \t\t\tmapping(uint256 => Land) publi...\n      MUL \t\t\tmapping(uint256 => Land) publi...\n      PUSH 20\t\t\tmapping(uint256 => Land) publi...\n      ADD \t\t\tmapping(uint256 => Land) publi...\n      PUSH 40\t\t\tmapping(uint256 => Land) publi...\n      MLOAD \t\t\tmapping(uint256 => Land) publi...\n      SWAP1 \t\t\tmapping(uint256 => Land) publi...\n      DUP2 \t\t\tmapping(uint256 => Land) publi...\n      ADD \t\t\tmapping(uint256 => Land) publi...\n      PUSH 40\t\t\tmapping(uint256 => Land) publi...\n      MSTORE \t\t\tmapping(uint256 => Land) publi...\n      DUP1 \t\t\tmapping(uint256 => Land) publi...\n      SWAP3 \t\t\tmapping(uint256 => Land) publi...\n      SWAP2 \t\t\tmapping(uint256 => Land) publi...\n      SWAP1 \t\t\tmapping(uint256 => Land) publi...\n      DUP2 \t\t\tmapping(uint256 => Land) publi...\n      DUP2 \t\t\tmapping(uint256 => Land) publi...\n      MSTORE \t\t\tmapping(uint256 => Land) publi...\n      PUSH 20\t\t\tmapping(uint256 => Land) publi...\n      ADD \t\t\tmapping(uint256 => Land) publi...\n      DUP3 \t\t\tmapping(uint256 => Land) publi...\n      DUP1 \t\t\tmapping(uint256 => Land) publi...\n      SLOAD \t\t\tmapping(uint256 => Land) publi...\n      PUSH [tag] 109\t\t\tmapping(uint256 => Land) publi...\n      SWAP1 \t\t\tmapping(uint256 => Land) publi...\n      PUSH [tag] 73\t\t\tmapping(uint256 => Land) publi...\n      JUMP \t\t\tmapping(uint256 => Land) publi...\n    tag 109\t\t\tmapping(uint256 => Land) publi...\n      JUMPDEST \t\t\tmapping(uint256 => Land) publi...\n      DUP1 \t\t\tmapping(uint256 => Land) publi...\n      ISZERO \t\t\tmapping(uint256 => Land) publi...\n      PUSH [tag] 110\t\t\tmapping(uint256 => Land) publi...\n      JUMPI \t\t\tmapping(uint256 => Land) publi...\n      DUP1 \t\t\tmapping(uint256 => Land) publi...\n      PUSH 1F\t\t\tmapping(uint256 => Land) publi...\n      LT \t\t\tmapping(uint256 => Land) publi...\n      PUSH [tag] 111\t\t\tmapping(uint256 => Land) publi...\n      JUMPI \t\t\tmapping(uint256 => Land) publi...\n      PUSH 100\t\t\tmapping(uint256 => Land) publi...\n      DUP1 \t\t\tmapping(uint256 => Land) publi...\n      DUP4 \t\t\tmapping(uint256 => Land) publi...\n      SLOAD \t\t\tmapping(uint256 => Land) publi...\n      DIV \t\t\tmapping(uint256 => Land) publi...\n      MUL \t\t\tmapping(uint256 => Land) publi...\n      DUP4 \t\t\tmapping(uint256 => Land) publi...\n      MSTORE \t\t\tmapping(uint256 => Land) publi...\n      SWAP2 \t\t\tmapping(uint256 => Land) publi...\n      PUSH 20\t\t\tmapping(uint256 => Land) publi...\n      ADD \t\t\tmapping(uint256 => Land) publi...\n      SWAP2 \t\t\tmapping(uint256 => Land) publi...\n      PUSH [tag] 110\t\t\tmapping(uint256 => Land) publi...\n      JUMP \t\t\tmapping(uint256 => Land) publi...\n    tag 111\t\t\tmapping(uint256 => Land) publi...\n      JUMPDEST \t\t\tmapping(uint256 => Land) publi...\n      DUP3 \t\t\tmapping(uint256 => Land) publi...\n      ADD \t\t\tmapping(uint256 => Land) publi...\n      SWAP2 \t\t\tmapping(uint256 => Land) publi...\n      SWAP1 \t\t\tmapping(uint256 => Land) publi...\n      PUSH 0\t\t\tmapping(uint256 => Land) publi...\n      MSTORE \t\t\tmapping(uint256 => Land) publi...\n      PUSH 20\t\t\tmapping(uint256 => Land) publi...\n      PUSH 0\t\t\tmapping(uint256 => Land) publi...\n      KECCAK256 \t\t\tmapping(uint256 => Land) publi...\n      SWAP1 \t\t\tmapping(uint256 => Land) publi...\n    tag 112\t\t\tmapping(uint256 => Land) publi...\n      JUMPDEST \t\t\tmapping(uint256 => Land) publi...\n      DUP2 \t\t\tmapping(uint256 => Land) publi...\n      SLOAD \t\t\tmapping(uint256 => Land) publi...\n      DUP2 \t\t\tmapping(uint256 => Land) publi...\n      MSTORE \t\t\tmapping(uint256 => Land) publi...\n      SWAP1 \t\t\tmapping(uint256 => Land) publi...\n      PUSH 1\t\t\tmapping(uint256 => Land) publi...\n      ADD \t\t\tmapping(uint256 => Land) publi...\n      SWAP1 \t\t\tmapping(uint256 => Land) publi...\n      PUSH 20\t\t\tmapping(uint256 => Land) publi...\n      ADD \t\t\tmapping(uint256 => Land) publi...\n      DUP1 \t\t\tmapping(uint256 => Land) publi...\n      DUP4 \t\t\tmapping(uint256 => Land) publi...\n      GT \t\t\tmapping(uint256 => Land) publi...\n      PUSH [tag] 112\t\t\tmapping(uint256 => Land) publi...\n      JUMPI \t\t\tmapping(uint256 => Land) publi...\n      DUP3 \t\t\tmapping(uint256 => Land) publi...\n      SWAP1 \t\t\tmapping(uint256 => Land) publi...\n      SUB \t\t\tmapping(uint256 => Land) publi...\n      PUSH 1F\t\t\tmapping(uint256 => Land) publi...\n      AND \t\t\tmapping(uint256 => Land) publi...\n      DUP3 \t\t\tmapping(uint256 => Land) publi...\n      ADD \t\t\tmapping(uint256 => Land) publi...\n      SWAP2 \t\t\tmapping(uint256 => Land) publi...\n    tag 110\t\t\tmapping(uint256 => Land) publi...\n      JUMPDEST \t\t\tmapping(uint256 => Land) publi...\n      POP \t\t\tmapping(uint256 => Land) publi...\n      POP \t\t\tmapping(uint256 => Land) publi...\n      POP \t\t\tmapping(uint256 => Land) publi...\n      POP \t\t\tmapping(uint256 => Land) publi...\n      POP \t\t\tmapping(uint256 => Land) publi...\n      SWAP1 \t\t\tmapping(uint256 => Land) publi...\n      DUP1 \t\t\tmapping(uint256 => Land) publi...\n      PUSH 1\t\t\tmapping(uint256 => Land) publi...\n      ADD \t\t\tmapping(uint256 => Land) publi...\n      SLOAD \t\t\tmapping(uint256 => Land) publi...\n      SWAP1 \t\t\tmapping(uint256 => Land) publi...\n      DUP1 \t\t\tmapping(uint256 => Land) publi...\n      PUSH 2\t\t\tmapping(uint256 => Land) publi...\n      ADD \t\t\tmapping(uint256 => Land) publi...\n      PUSH 0\t\t\tmapping(uint256 => Land) publi...\n      SWAP1 \t\t\tmapping(uint256 => Land) publi...\n      SLOAD \t\t\tmapping(uint256 => Land) publi...\n      SWAP1 \t\t\tmapping(uint256 => Land) publi...\n      PUSH 100\t\t\tmapping(uint256 => Land) publi...\n      EXP \t\t\tmapping(uint256 => Land) publi...\n      SWAP1 \t\t\tmapping(uint256 => Land) publi...\n      DIV \t\t\tmapping(uint256 => Land) publi...\n      PUSH FFFFFFFFFFFFFFFFFFFFFFFFFFFFFFFFFFFFFFFF\t\t\tmapping(uint256 => Land) publi...\n      AND \t\t\tmapping(uint256 => Land) publi...\n      SWAP1 \t\t\tmapping(uint256 => Land) publi...\n      DUP1 \t\t\tmapping(uint256 => Land) publi...\n      PUSH 3\t\t\tmapping(uint256 => Land) publi...\n      ADD \t\t\tmapping(uint256 => Land) publi...\n      DUP1 \t\t\tmapping(uint256 => Land) publi...\n      SLOAD \t\t\tmapping(uint256 => Land) publi...\n      PUSH [tag] 113\t\t\tmapping(uint256 => Land) publi...\n      SWAP1 \t\t\tmapping(uint256 => Land) publi...\n      PUSH [tag] 73\t\t\tmapping(uint256 => Land) publi...\n      JUMP \t\t\tmapping(uint256 => Land) publi...\n    tag 113\t\t\tmapping(uint256 => Land) publi...\n      JUMPDEST \t\t\tmapping(uint256 => Land) publi...\n      DUP1 \t\t\tmapping(uint256 => Land) publi...\n      PUSH 1F\t\t\tmapping(uint256 => Land) publi...\n      ADD \t\t\tmapping(uint256 => Land) publi...\n      PUSH 20\t\t\tmapping(uint256 => Land) publi...\n      DUP1 \t\t\tmapping(uint256 => Land) publi...\n      SWAP2 \t\t\tmapping(uint256 => Land) publi...\n      DIV \t\t\tmapping(uint256 => Land) publi...\n      MUL \t\t\tmapping(uint256 => Land) publi...\n      PUSH 20\t\t\tmapping(uint256 => Land) publi...\n      ADD \t\t\tmapping(uint256 => Land) publi...\n      PUSH 40\t\t\tmapping(uint256 => Land) publi...\n      MLOAD \t\t\tmapping(uint256 => Land) publi...\n      SWAP1 \t\t\tmapping(uint256 => Land) publi...\n      DUP2 \t\t\tmapping(uint256 => Land) publi...\n      ADD \t\t\tmapping(uint256 => Land) publi...\n      PUSH 40\t\t\tmapping(uint256 => Land) publi...\n      MSTORE \t\t\tmapping(uint256 => Land) publi...\n      DUP1 \t\t\tmapping(uint256 => Land) publi...\n      SWAP3 \t\t\tmapping(uint256 => Land) publi...\n      SWAP2 \t\t\tmapping(uint256 => Land) publi...\n      SWAP1 \t\t\tmapping(uint256 => Land) publi...\n      DUP2 \t\t\tmapping(uint256 => Land) publi...\n      DUP2 \t\t\tmapping(uint256 => Land) publi...\n      MSTORE \t\t\tmapping(uint256 => Land) publi...\n      PUSH 20\t\t\tmapping(uint256 => Land) publi...\n      ADD \t\t\tmapping(uint256 => Land) publi...\n      DUP3 \t\t\tmapping(uint256 => Land) publi...\n      DUP1 \t\t\tmapping(uint256 => Land) publi...\n      SLOAD \t\t\tmapping(uint256 => Land) publi...\n      PUSH [tag] 114\t\t\tmapping(uint256 => Land) publi...\n      SWAP1 \t\t\tmapping(uint256 => Land) publi...\n      PUSH [tag] 73\t\t\tmapping(uint256 => Land) publi...\n      JUMP \t\t\tmapping(uint256 => Land) publi...\n    tag 114\t\t\tmapping(uint256 => Land) publi...\n      JUMPDEST \t\t\tmapping(uint256 => Land) publi...\n      DUP1 \t\t\tmapping(uint256 => Land) publi...\n      ISZERO \t\t\tmapping(uint256 => Land) publi...\n      PUSH [tag] 115\t\t\tmapping(uint256 => Land) publi...\n      JUMPI \t\t\tmapping(uint256 => Land) publi...\n      DUP1 \t\t\tmapping(uint256 => Land) publi...\n      PUSH 1F\t\t\tmapping(uint256 => Land) publi...\n      LT \t\t\tmapping(uint256 => Land) publi...\n      PUSH [tag] 116\t\t\tmapping(uint256 => Land) publi...\n      JUMPI \t\t\tmapping(uint256 => Land) publi...\n      PUSH 100\t\t\tmapping(uint256 => Land) publi...\n      DUP1 \t\t\tmapping(uint256 => Land) publi...\n      DUP4 \t\t\tmapping(uint256 => Land) publi...\n      SLOAD \t\t\tmapping(uint256 => Land) publi...\n      DIV \t\t\tmapping(uint256 => Land) publi...\n      MUL \t\t\tmapping(uint256 => Land) publi...\n      DUP4 \t\t\tmapping(uint256 => Land) publi...\n      MSTORE \t\t\tmapping(uint256 => Land) publi...\n      SWAP2 \t\t\tmapping(uint256 => Land) publi...\n      PUSH 20\t\t\tmapping(uint256 => Land) publi...\n      ADD \t\t\tmapping(uint256 => Land) publi...\n      SWAP2 \t\t\tmapping(uint256 => Land) publi...\n      PUSH [tag] 115\t\t\tmapping(uint256 => Land) publi...\n      JUMP \t\t\tmapping(uint256 => Land) publi...\n    tag 116\t\t\tmapping(uint256 => Land) publi...\n      JUMPDEST \t\t\tmapping(uint256 => Land) publi...\n      DUP3 \t\t\tmapping(uint256 => Land) publi...\n      ADD \t\t\tmapping(uint256 => Land) publi...\n      SWAP2 \t\t\tmapping(uint256 => Land) publi...\n      SWAP1 \t\t\tmapping(uint256 => Land) publi...\n      PUSH 0\t\t\tmapping(uint256 => Land) publi...\n      MSTORE \t\t\tmapping(uint256 => Land) publi...\n      PUSH 20\t\t\tmapping(uint256 => Land) publi...\n      PUSH 0\t\t\tmapping(uint256 => Land) publi...\n      KECCAK256 \t\t\tmapping(uint256 => Land) publi...\n      SWAP1 \t\t\tmapping(uint256 => Land) publi...\n    tag 117\t\t\tmapping(uint256 => Land) publi...\n      JUMPDEST \t\t\tmapping(uint256 => Land) publi...\n      DUP2 \t\t\tmapping(uint256 => Land) publi...\n      SLOAD \t\t\tmapping(uint256 => Land) publi...\n      DUP2 \t\t\tmapping(uint256 => Land) publi...\n      MSTORE \t\t\tmapping(uint256 => Land) publi...\n      SWAP1 \t\t\tmapping(uint256 => Land) publi...\n      PUSH 1\t\t\tmapping(uint256 => Land) publi...\n      ADD \t\t\tmapping(uint256 => Land) publi...\n      SWAP1 \t\t\tmapping(uint256 => Land) publi...\n      PUSH 20\t\t\tmapping(uint256 => Land) publi...\n      ADD \t\t\tmapping(uint256 => Land) publi...\n      DUP1 \t\t\tmapping(uint256 => Land) publi...\n      DUP4 \t\t\tmapping(uint256 => Land) publi...\n      GT \t\t\tmapping(uint256 => Land) publi...\n      PUSH [tag] 117\t\t\tmapping(uint256 => Land) publi...\n      JUMPI \t\t\tmapping(uint256 => Land) publi...\n      DUP3 \t\t\tmapping(uint256 => Land) publi...\n      SWAP1 \t\t\tmapping(uint256 => Land) publi...\n      SUB \t\t\tmapping(uint256 => Land) publi...\n      PUSH 1F\t\t\tmapping(uint256 => Land) publi...\n      AND \t\t\tmapping(uint256 => Land) publi...\n      DUP3 \t\t\tmapping(uint256 => Land) publi...\n      ADD \t\t\tmapping(uint256 => Land) publi...\n      SWAP2 \t\t\tmapping(uint256 => Land) publi...\n    tag 115\t\t\tmapping(uint256 => Land) publi...\n      JUMPDEST \t\t\tmapping(uint256 => Land) publi...\n      POP \t\t\tmapping(uint256 => Land) publi...\n      POP \t\t\tmapping(uint256 => Land) publi...\n      POP \t\t\tmapping(uint256 => Land) publi...\n      POP \t\t\tmapping(uint256 => Land) publi...\n      POP \t\t\tmapping(uint256 => Land) publi...\n      SWAP1 \t\t\tmapping(uint256 => Land) publi...\n      DUP1 \t\t\tmapping(uint256 => Land) publi...\n      PUSH 4\t\t\tmapping(uint256 => Land) publi...\n      ADD \t\t\tmapping(uint256 => Land) publi...\n      DUP1 \t\t\tmapping(uint256 => Land) publi...\n      SLOAD \t\t\tmapping(uint256 => Land) publi...\n      PUSH [tag] 118\t\t\tmapping(uint256 => Land) publi...\n      SWAP1 \t\t\tmapping(uint256 => Land) publi...\n      PUSH [tag] 73\t\t\tmapping(uint256 => Land) publi...\n      JUMP \t\t\tmapping(uint256 => Land) publi...\n    tag 118\t\t\tmapping(uint256 => Land) publi...\n      JUMPDEST \t\t\tmapping(uint256 => Land) publi...\n      DUP1 \t\t\tmapping(uint256 => Land) publi...\n      PUSH 1F\t\t\tmapping(uint256 => Land) publi...\n      ADD \t\t\tmapping(uint256 => Land) publi...\n      PUSH 20\t\t\tmapping(uint256 => Land) publi...\n      DUP1 \t\t\tmapping(uint256 => Land) publi...\n      SWAP2 \t\t\tmapping(uint256 => Land) publi...\n      DIV \t\t\tmapping(uint256 => Land) publi...\n      MUL \t\t\tmapping(uint256 => Land) publi...\n      PUSH 20\t\t\tmapping(uint256 => Land) publi...\n      ADD \t\t\tmapping(uint256 => Land) publi...\n      PUSH 40\t\t\tmapping(uint256 => Land) publi...\n      MLOAD \t\t\tmapping(uint256 => Land) publi...\n      SWAP1 \t\t\tmapping(uint256 => Land) publi...\n      DUP2 \t\t\tmapping(uint256 => Land) publi...\n      ADD \t\t\tmapping(uint256 => Land) publi...\n      PUSH 40\t\t\tmapping(uint256 => Land) publi...\n      MSTORE \t\t\tmapping(uint256 => Land) publi...\n      DUP1 \t\t\tmapping(uint256 => Land) publi...\n      SWAP3 \t\t\tmapping(uint256 => Land) publi...\n      SWAP2 \t\t\tmapping(uint256 => Land) publi...\n      SWAP1 \t\t\tmapping(uint256 => Land) publi...\n      DUP2 \t\t\tmapping(uint256 => Land) publi...\n      DUP2 \t\t\tmapping(uint256 => Land) publi...\n      MSTORE \t\t\tmapping(uint256 => Land) publi...\n      PUSH 20\t\t\tmapping(uint256 => Land) publi...\n      ADD \t\t\tmapping(uint256 => Land) publi...\n      DUP3 \t\t\tmapping(uint256 => Land) publi...\n      DUP1 \t\t\tmapping(uint256 => Land) publi...\n      SLOAD \t\t\tmapping(uint256 => Land) publi...\n      PUSH [tag] 119\t\t\tmapping(uint256 => Land) publi...\n      SWAP1 \t\t\tmapping(uint256 => Land) publi...\n      PUSH [tag] 73\t\t\tmapping(uint256 => Land) publi...\n      JUMP \t\t\tmapping(uint256 => Land) publi...\n    tag 119\t\t\tmapping(uint256 => Land) publi...\n      JUMPDEST \t\t\tmapping(uint256 => Land) publi...\n      DUP1 \t\t\tmapping(uint256 => Land) publi...\n      ISZERO \t\t\tmapping(uint256 => Land) publi...\n      PUSH [tag] 120\t\t\tmapping(uint256 => Land) publi...\n      JUMPI \t\t\tmapping(uint256 => Land) publi...\n      DUP1 \t\t\tmapping(uint256 => Land) publi...\n      PUSH 1F\t\t\tmapping(uint256 => Land) publi...\n      LT \t\t\tmapping(uint256 => Land) publi...\n      PUSH [tag] 121\t\t\tmapping(uint256 => Land) publi...\n      JUMPI \t\t\tmapping(uint256 => Land) publi...\n      PUSH 100\t\t\tmapping(uint256 => Land) publi...\n      DUP1 \t\t\tmapping(uint256 => Land) publi...\n      DUP4 \t\t\tmapping(uint256 => Land) publi...\n      SLOAD \t\t\tmapping(uint256 => Land) publi...\n      DIV \t\t\tmapping(uint256 => Land) publi...\n      MUL \t\t\tmapping(uint256 => Land) publi...\n      DUP4 \t\t\tmapping(uint256 => Land) publi...\n      MSTORE \t\t\tmapping(uint256 => Land) publi...\n      SWAP2 \t\t\tmapping(uint256 => Land) publi...\n      PUSH 20\t\t\tmapping(uint256 => Land) publi...\n      ADD \t\t\tmapping(uint256 => Land) publi...\n      SWAP2 \t\t\tmapping(uint256 => Land) publi...\n      PUSH [tag] 120\t\t\tmapping(uint256 => Land) publi...\n      JUMP \t\t\tmapping(uint256 => Land) publi...\n    tag 121\t\t\tmapping(uint256 => Land) publi...\n      JUMPDEST \t\t\tmapping(uint256 => Land) publi...\n      DUP3 \t\t\tmapping(uint256 => Land) publi...\n      ADD \t\t\tmapping(uint256 => Land) publi...\n      SWAP2 \t\t\tmapping(uint256 => Land) publi...\n      SWAP1 \t\t\tmapping(uint256 => Land) publi...\n      PUSH 0\t\t\tmapping(uint256 => Land) publi...\n      MSTORE \t\t\tmapping(uint256 => Land) publi...\n      PUSH 20\t\t\tmapping(uint256 => Land) publi...\n      PUSH 0\t\t\tmapping(uint256 => Land) publi...\n      KECCAK256 \t\t\tmapping(uint256 => Land) publi...\n      SWAP1 \t\t\tmapping(uint256 => Land) publi...\n    tag 122\t\t\tmapping(uint256 => Land) publi...\n      JUMPDEST \t\t\tmapping(uint256 => Land) publi...\n      DUP2 \t\t\tmapping(uint256 => Land) publi...\n      SLOAD \t\t\tmapping(uint256 => Land) publi...\n      DUP2 \t\t\tmapping(uint256 => Land) publi...\n      MSTORE \t\t\tmapping(uint256 => Land) publi...\n      SWAP1 \t\t\tmapping(uint256 => Land) publi...\n      PUSH 1\t\t\tmapping(uint256 => Land) publi...\n      ADD \t\t\tmapping(uint256 => Land) publi...\n      SWAP1 \t\t\tmapping(uint256 => Land) publi...\n      PUSH 20\t\t\tmapping(uint256 => Land) publi...\n      ADD \t\t\tmapping(uint256 => Land) publi...\n      DUP1 \t\t\tmapping(uint256 => Land) publi...\n      DUP4 \t\t\tmapping(uint256 => Land) publi...\n      GT \t\t\tmapping(uint256 => Land) publi...\n      PUSH [tag] 122\t\t\tmapping(uint256 => Land) publi...\n      JUMPI \t\t\tmapping(uint256 => Land) publi...\n      DUP3 \t\t\tmapping(uint256 => Land) publi...\n      SWAP1 \t\t\tmapping(uint256 => Land) publi...\n      SUB \t\t\tmapping(uint256 => Land) publi...\n      PUSH 1F\t\t\tmapping(uint256 => Land) publi...\n      AND \t\t\tmapping(uint256 => Land) publi...\n      DUP3 \t\t\tmapping(uint256 => Land) publi...\n      ADD \t\t\tmapping(uint256 => Land) publi...\n      SWAP2 \t\t\tmapping(uint256 => Land) publi...\n    tag 120\t\t\tmapping(uint256 => Land) publi...\n      JUMPDEST \t\t\tmapping(uint256 => Land) publi...\n      POP \t\t\tmapping(uint256 => Land) publi...\n      POP \t\t\tmapping(uint256 => Land) publi...\n      POP \t\t\tmapping(uint256 => Land) publi...\n      POP \t\t\tmapping(uint256 => Land) publi...\n      POP \t\t\tmapping(uint256 => Land) publi...\n      SWAP1 \t\t\tmapping(uint256 => Land) publi...\n      DUP1 \t\t\tmapping(uint256 => Land) publi...\n      PUSH 5\t\t\tmapping(uint256 => Land) publi...\n      ADD \t\t\tmapping(uint256 => Land) publi...\n      DUP1 \t\t\tmapping(uint256 => Land) publi...\n      SLOAD \t\t\tmapping(uint256 => Land) publi...\n      PUSH [tag] 123\t\t\tmapping(uint256 => Land) publi...\n      SWAP1 \t\t\tmapping(uint256 => Land) publi...\n      PUSH [tag] 73\t\t\tmapping(uint256 => Land) publi...\n      JUMP \t\t\tmapping(uint256 => Land) publi...\n    tag 123\t\t\tmapping(uint256 => Land) publi...\n      JUMPDEST \t\t\tmapping(uint256 => Land) publi...\n      DUP1 \t\t\tmapping(uint256 => Land) publi...\n      PUSH 1F\t\t\tmapping(uint256 => Land) publi...\n      ADD \t\t\tmapping(uint256 => Land) publi...\n      PUSH 20\t\t\tmapping(uint256 => Land) publi...\n      DUP1 \t\t\tmapping(uint256 => Land) publi...\n      SWAP2 \t\t\tmapping(uint256 => Land) publi...\n      DIV \t\t\tmapping(uint256 => Land) publi...\n      MUL \t\t\tmapping(uint256 => Land) publi...\n      PUSH 20\t\t\tmapping(uint256 => Land) publi...\n      ADD \t\t\tmapping(uint256 => Land) publi...\n      PUSH 40\t\t\tmapping(uint256 => Land) publi...\n      MLOAD \t\t\tmapping(uint256 => Land) publi...\n      SWAP1 \t\t\tmapping(uint256 => Land) publi...\n      DUP2 \t\t\tmapping(uint256 => Land) publi...\n      ADD \t\t\tmapping(uint256 => Land) publi...\n      PUSH 40\t\t\tmapping(uint256 => Land) publi...\n      MSTORE \t\t\tmapping(uint256 => Land) publi...\n      DUP1 \t\t\tmapping(uint256 => Land) publi...\n      SWAP3 \t\t\tmapping(uint256 => Land) publi...\n      SWAP2 \t\t\tmapping(uint256 => Land) publi...\n      SWAP1 \t\t\tmapping(uint256 => Land) publi...\n      DUP2 \t\t\tmapping(uint256 => Land) publi...\n      DUP2 \t\t\tmapping(uint256 => Land) publi...\n      MSTORE \t\t\tmapping(uint256 => Land) publi...\n      PUSH 20\t\t\tmapping(uint256 => Land) publi...\n      ADD \t\t\tmapping(uint256 => Land) publi...\n      DUP3 \t\t\tmapping(uint256 => Land) publi...\n      DUP1 \t\t\tmapping(uint256 => Land) publi...\n      SLOAD \t\t\tmapping(uint256 => Land) publi...\n      PUSH [tag] 124\t\t\tmapping(uint256 => Land) publi...\n      SWAP1 \t\t\tmapping(uint256 => Land) publi...\n      PUSH [tag] 73\t\t\tmapping(uint256 => Land) publi...\n      JUMP \t\t\tmapping(uint256 => Land) publi...\n    tag 124\t\t\tmapping(uint256 => Land) publi...\n      JUMPDEST \t\t\tmapping(uint256 => Land) publi...\n      DUP1 \t\t\tmapping(uint256 => Land) publi...\n      ISZERO \t\t\tmapping(uint256 => Land) publi...\n      PUSH [tag] 125\t\t\tmapping(uint256 => Land) publi...\n      JUMPI \t\t\tmapping(uint256 => Land) publi...\n      DUP1 \t\t\tmapping(uint256 => Land) publi...\n      PUSH 1F\t\t\tmapping(uint256 => Land) publi...\n      LT \t\t\tmapping(uint256 => Land) publi...\n      PUSH [tag] 126\t\t\tmapping(uint256 => Land) publi...\n      JUMPI \t\t\tmapping(uint256 => Land) publi...\n      PUSH 100\t\t\tmapping(uint256 => Land) publi...\n      DUP1 \t\t\tmapping(uint256 => Land) publi...\n      DUP4 \t\t\tmapping(uint256 => Land) publi...\n      SLOAD \t\t\tmapping(uint256 => Land) publi...\n      DIV \t\t\tmapping(uint256 => Land) publi...\n      MUL \t\t\tmapping(uint256 => Land) publi...\n      DUP4 \t\t\tmapping(uint256 => Land) publi...\n      MSTORE \t\t\tmapping(uint256 => Land) publi...\n      SWAP2 \t\t\tmapping(uint256 => Land) publi...\n      PUSH 20\t\t\tmapping(uint256 => Land) publi...\n      ADD \t\t\tmapping(uint256 => Land) publi...\n      SWAP2 \t\t\tmapping(uint256 => Land) publi...\n      PUSH [tag] 125\t\t\tmapping(uint256 => Land) publi...\n      JUMP \t\t\tmapping(uint256 => Land) publi...\n    tag 126\t\t\tmapping(uint256 => Land) publi...\n      JUMPDEST \t\t\tmapping(uint256 => Land) publi...\n      DUP3 \t\t\tmapping(uint256 => Land) publi...\n      ADD \t\t\tmapping(uint256 => Land) publi...\n      SWAP2 \t\t\tmapping(uint256 => Land) publi...\n      SWAP1 \t\t\tmapping(uint256 => Land) publi...\n      PUSH 0\t\t\tmapping(uint256 => Land) publi...\n      MSTORE \t\t\tmapping(uint256 => Land) publi...\n      PUSH 20\t\t\tmapping(uint256 => Land) publi...\n      PUSH 0\t\t\tmapping(uint256 => Land) publi...\n      KECCAK256 \t\t\tmapping(uint256 => Land) publi...\n      SWAP1 \t\t\tmapping(uint256 => Land) publi...\n    tag 127\t\t\tmapping(uint256 => Land) publi...\n      JUMPDEST \t\t\tmapping(uint256 => Land) publi...\n      DUP2 \t\t\tmapping(uint256 => Land) publi...\n      SLOAD \t\t\tmapping(uint256 => Land) publi...\n      DUP2 \t\t\tmapping(uint256 => Land) publi...\n      MSTORE \t\t\tmapping(uint256 => Land) publi...\n      SWAP1 \t\t\tmapping(uint256 => Land) publi...\n      PUSH 1\t\t\tmapping(uint256 => Land) publi...\n      ADD \t\t\tmapping(uint256 => Land) publi...\n      SWAP1 \t\t\tmapping(uint256 => Land) publi...\n      PUSH 20\t\t\tmapping(uint256 => Land) publi...\n      ADD \t\t\tmapping(uint256 => Land) publi...\n      DUP1 \t\t\tmapping(uint256 => Land) publi...\n      DUP4 \t\t\tmapping(uint256 => Land) publi...\n      GT \t\t\tmapping(uint256 => Land) publi...\n      PUSH [tag] 127\t\t\tmapping(uint256 => Land) publi...\n      JUMPI \t\t\tmapping(uint256 => Land) publi...\n      DUP3 \t\t\tmapping(uint256 => Land) publi...\n      SWAP1 \t\t\tmapping(uint256 => Land) publi...\n      SUB \t\t\tmapping(uint256 => Land) publi...\n      PUSH 1F\t\t\tmapping(uint256 => Land) publi...\n      AND \t\t\tmapping(uint256 => Land) publi...\n      DUP3 \t\t\tmapping(uint256 => Land) publi...\n      ADD \t\t\tmapping(uint256 => Land) publi...\n      SWAP2 \t\t\tmapping(uint256 => Land) publi...\n    tag 125\t\t\tmapping(uint256 => Land) publi...\n      JUMPDEST \t\t\tmapping(uint256 => Land) publi...\n      POP \t\t\tmapping(uint256 => Land) publi...\n      POP \t\t\tmapping(uint256 => Land) publi...\n      POP \t\t\tmapping(uint256 => Land) publi...\n      POP \t\t\tmapping(uint256 => Land) publi...\n      POP \t\t\tmapping(uint256 => Land) publi...\n      SWAP1 \t\t\tmapping(uint256 => Land) publi...\n      DUP1 \t\t\tmapping(uint256 => Land) publi...\n      PUSH 6\t\t\tmapping(uint256 => Land) publi...\n      ADD \t\t\tmapping(uint256 => Land) publi...\n      PUSH 0\t\t\tmapping(uint256 => Land) publi...\n      SWAP1 \t\t\tmapping(uint256 => Land) publi...\n      SLOAD \t\t\tmapping(uint256 => Land) publi...\n      SWAP1 \t\t\tmapping(uint256 => Land) publi...\n      PUSH 100\t\t\tmapping(uint256 => Land) publi...\n      EXP \t\t\tmapping(uint256 => Land) publi...\n      SWAP1 \t\t\tmapping(uint256 => Land) publi...\n      DIV \t\t\tmapping(uint256 => Land) publi...\n      PUSH FF\t\t\tmapping(uint256 => Land) publi...\n      AND \t\t\tmapping(uint256 => Land) publi...\n      SWAP1 \t\t\tmapping(uint256 => Land) publi...\n      POP \t\t\tmapping(uint256 => Land) publi...\n      DUP8 \t\t\tmapping(uint256 => Land) publi...\n      JUMP \t\t\tmapping(uint256 => Land) publi...\n    tag 68\t\t\t\n      JUMPDEST \t\t\t\n      PUSH 40\t\t\t\n      MLOAD \t\t\t\n      DUP1 \t\t\t\n      PUSH E0\t\t\t\n      ADD \t\t\t\n      PUSH 40\t\t\t\n      MSTORE \t\t\t\n      DUP1 \t\t\t\n      PUSH 60\t\t\t\n      DUP2 \t\t\t\n      MSTORE \t\t\t\n      PUSH 20\t\t\t\n      ADD \t\t\t\n      PUSH 0\t\t\t\n      DUP2 \t\t\t\n      MSTORE \t\t\t\n      PUSH 20\t\t\t\n      ADD \t\t\t\n      PUSH 0\t\t\t\n      PUSH FFFFFFFFFFFFFFFFFFFFFFFFFFFFFFFFFFFFFFFF\t\t\t\n      AND \t\t\t\n      DUP2 \t\t\t\n      MSTORE \t\t\t\n      PUSH 20\t\t\t\n      ADD \t\t\t\n      PUSH 60\t\t\t\n      DUP2 \t\t\t\n      MSTORE \t\t\t\n      PUSH 20\t\t\t\n      ADD \t\t\t\n      PUSH 60\t\t\t\n      DUP2 \t\t\t\n      MSTORE \t\t\t\n      PUSH 20\t\t\t\n      ADD \t\t\t\n      PUSH 60\t\t\t\n      DUP2 \t\t\t\n      MSTORE \t\t\t\n      PUSH 20\t\t\t\n      ADD \t\t\t\n      PUSH 0\t\t\t\n      ISZERO \t\t\t\n      ISZERO \t\t\t\n      DUP2 \t\t\t\n      MSTORE \t\t\t\n      POP \t\t\t\n      SWAP1 \t\t\t\n      JUMP \t\t\t\n    tag 128\t\t\t-License-Identifier: MIT\\r\\npr...\n      JUMPDEST \t\t\t-License-Identifier: MIT\\r\\npr...\n      PUSH 0\t\t\tsolidi\n      PUSH 40\t\t\tRe\n      MLOAD \t\t\tt LandReg\n      SWAP1 \t\t\t\\n\\r\\ncontract LandReg\n      POP \t\t\t\\n\\r\\ncontract LandReg\n      SWAP1 \t\t\t-License-Identifier: MIT\\r\\npr...\n      JUMP \t\t\t-License-Identifier: MIT\\r\\npr...\n    tag 129\t\t\t struct Land {\\r\\n        stri...\n      JUMPDEST \t\t\t struct Land {\\r\\n        stri...\n      PUSH 0\t\t\te\n      DUP1 \t\t\tc\n      REVERT \t\t\tring documen\n    tag 130\t\t\t    string latitude; // New pr...\n      JUMPDEST \t\t\t    string latitude; // New pr...\n      PUSH 0\t\t\t \n      DUP1 \t\t\t\\r\n      REVERT \t\t\tngitude\\r\\n   \n    tag 131\t\t\tists; // Track if the land is ...\n      JUMPDEST \t\t\tists; // Track if the land is ...\n      PUSH 0\t\t\tp\n      DUP1 \t\t\t \n      REVERT \t\t\ts;\\r\\n    mapp\n    tag 132\t\t\t> bool) private registeredDocu...\n      JUMPDEST \t\t\t> bool) private registeredDocu...\n      PUSH 0\t\t\tl\n      DUP1 \t\t\ti\n      REVERT \t\t\t56 public la\n    tag 133\t\t\t    event LandRegistered(uint2...\n      JUMPDEST \t\t\t    event LandRegistered(uint2...\n      PUSH 0\t\t\tlandId\n      PUSH 1F\t\t\txe\n      NOT \t\t\tindexed\n      PUSH 1F\t\t\tre\n      DUP4 \t\t\tze, a\n      ADD \t\t\t6 size, addres\n      AND \t\t\tnt256 size, address indexed \n      SWAP1 \t\t\tcation, uint256 size, address ...\n      POP \t\t\tcation, uint256 size, address ...\n      SWAP2 \t\t\t    event LandRegistered(uint2...\n      SWAP1 \t\t\t    event LandRegistered(uint2...\n      POP \t\t\t    event LandRegistered(uint2...\n      JUMP \t\t\t    event LandRegistered(uint2...\n    tag 64\t\t\tg documentHash, string latitud...\n      JUMPDEST \t\t\tg documentHash, string latitud...\n      PUSH 4E487B7100000000000000000000000000000000000000000000000000000000\t\t\te);\\r\\n    event LandTransferr...\n      PUSH 0\t\t\tt\n      MSTORE \t\t\tg longitude);\\r\\n    event Lan...\n      PUSH 41\t\t\tnewO\n      PUSH 4\t\t\te\n      MSTORE \t\t\ts indexed newOw\n      PUSH 24\t\t\tifie\n      PUSH 0\t\t\tM\n      REVERT \t\t\t    // Modifier\n    tag 134\t\t\t the caller is the owner of th...\n      JUMPDEST \t\t\t the caller is the owner of th...\n      PUSH [tag] 213\t\t\t      require(msg.sender ==\n      DUP3 \t\t\ter =\n      PUSH [tag] 133\t\t\t      require(msg.sender ==\n      JUMP \t\t\t      require(msg.sender ==\n    tag 213\t\t\t      require(msg.sender ==\n      JUMPDEST \t\t\t      require(msg.sender ==\n      DUP2 \t\t\td) {\\r\\n\n      ADD \t\t\tandId) {\\r\\n        require(ms...\n      DUP2 \t\t\t a new\n      DUP2 \t\t\t // Regist\n      LT \t\t\t    // Register a new \n      PUSH FFFFFFFFFFFFFFFF\t\t\t        _;\\r\\n    }\\r\n      DUP3 \t\t\t action\");\n      GT \t\t\this action\");\\r\\n        _;\\r\\...\n      OR \t\t\tm this action\");\\r\\n        _;...\n      ISZERO \t\t\tform this action\");\\r\\n       ...\n      PUSH [tag] 214\t\t\tform this action\");\\r\\n       ...\n      JUMPI \t\t\tform this action\");\\r\\n       ...\n      PUSH [tag] 215\t\t\t in the system\\r\\n  \n      PUSH [tag] 64\t\t\t in the system\\r\\n  \n      JUMP \t\t\t in the system\\r\\n  \n    tag 215\t\t\t in the system\\r\\n  \n      JUMPDEST \t\t\t in the system\\r\\n  \n    tag 214\t\t\tform this action\");\\r\\n       ...\n      JUMPDEST \t\t\tform this action\");\\r\\n       ...\n      DUP1 \t\t\td(\\r\\n      \n      PUSH 40\t\t\trL\n      MSTORE \t\t\tregisterLand(\\r\\n       \n      POP \t\t\todifier onlyOwner(uint256 _lan...\n      POP \t\t\t the caller is the owner of th...\n      POP \t\t\t the caller is the owner of th...\n      JUMP \t\t\t the caller is the owner of th...\n    tag 135\t\t\try _location,\\r\\n        uint2...\n      JUMPDEST \t\t\try _location,\\r\\n        uint2...\n      PUSH 0\t\t\tze,\\r\\n \n      PUSH [tag] 217\t\t\t_documentHash,\\r\\n    \n      PUSH [tag] 128\t\t\t_documentHash,\\r\\n    \n      JUMP \t\t\t_documentHash,\\r\\n    \n    tag 217\t\t\t_documentHash,\\r\\n    \n      JUMPDEST \t\t\t_documentHash,\\r\\n    \n      SWAP1 \t\t\tng memory _documentHash,\\r\\n  ...\n      POP \t\t\tng memory _documentHash,\\r\\n  ...\n      PUSH [tag] 218\t\t\tg memory _latitude, // New par...\n      DUP3 \t\t\taram\n      DUP3 \t\t\t// New\n      PUSH [tag] 134\t\t\tg memory _latitude, // New par...\n      JUMP \t\t\tg memory _latitude, // New par...\n    tag 218\t\t\tg memory _latitude, // New par...\n      JUMPDEST \t\t\tg memory _latitude, // New par...\n      SWAP2 \t\t\try _location,\\r\\n        uint2...\n      SWAP1 \t\t\try _location,\\r\\n        uint2...\n      POP \t\t\try _location,\\r\\n        uint2...\n      JUMP \t\t\try _location,\\r\\n        uint2...\n    tag 136\t\t\ttude\\r\\n        string memory ...\n      JUMPDEST \t\t\ttude\\r\\n        string memory ...\n      PUSH 0\t\t\tngit\n      PUSH FFFFFFFFFFFFFFFF\t\t\td\");\\r\\n        requ\n      DUP3 \t\t\t requi\n      GT \t\t\t is required\");\\r\\n        req...\n      ISZERO \t\t\tion is required\");\\r\\n        ...\n      PUSH [tag] 220\t\t\tion is required\");\\r\\n        ...\n      JUMPI \t\t\tion is required\");\\r\\n        ...\n      PUSH [tag] 221\t\t\t_size > 0, \"Size m\n      PUSH [tag] 64\t\t\t_size > 0, \"Size m\n      JUMP \t\t\t_size > 0, \"Size m\n    tag 221\t\t\t_size > 0, \"Size m\n      JUMPDEST \t\t\t_size > 0, \"Size m\n    tag 220\t\t\tion is required\");\\r\\n        ...\n      JUMPDEST \t\t\tion is required\");\\r\\n        ...\n      PUSH [tag] 222\t\t\tzero\");\\r\\n        require(byt...\n      DUP3 \t\t\tre(byt\n      PUSH [tag] 133\t\t\tzero\");\\r\\n        require(byt...\n      JUMP \t\t\tzero\");\\r\\n        require(byt...\n    tag 222\t\t\tzero\");\\r\\n        require(byt...\n      JUMPDEST \t\t\tzero\");\\r\\n        require(byt...\n      SWAP1 \t\t\ter than zero\");\\r\\n        req...\n      POP \t\t\ter than zero\");\\r\\n        req...\n      PUSH 20\t\t\t\");\\r\n      DUP2 \t\t\tquir\n      ADD \t\t\ts required\");\\r\\n\n      SWAP1 \t\t\tt hash is required\");\\r\\n\n      POP \t\t\tt hash is required\");\\r\\n\n      SWAP2 \t\t\ttude\\r\\n        string memory ...\n      SWAP1 \t\t\ttude\\r\\n        string memory ...\n      POP \t\t\ttude\\r\\n        string memory ...\n      JUMP \t\t\ttude\\r\\n        string memory ...\n    tag 137\t\t\tre(bytes(_latitude).length > 0...\n      JUMPDEST \t\t\tre(bytes(_latitude).length > 0...\n      DUP3 \t\t\ttes(_l\n      DUP2 \t\t\tre(\n      DUP4 \t\t\treq\n      CALLDATACOPY \t\t\tude\\r\\n        require(bytes(_...\n      PUSH 0\t\t\t \n      DUP4 \t\t\tgitude\n      DUP4 \t\t\t \"L\n      ADD \t\t\t> 0, \"Longitude \n      MSTORE \t\t\tlength > 0, \"Longitude is r\n      POP \t\t\tre(bytes(_latitude).length > 0...\n      POP \t\t\tre(bytes(_latitude).length > 0...\n      POP \t\t\tre(bytes(_latitude).length > 0...\n      JUMP \t\t\tre(bytes(_latitude).length > 0...\n    tag 138\t\t\t/ Validate longitude\\r\\n\\r\\n  ...\n      JUMPDEST \t\t\t/ Validate longitude\\r\\n\\r\\n  ...\n      PUSH 0\t\t\t mapp\n      PUSH [tag] 225\t\t\t(!registeredDocumentHashes[_do...\n      PUSH [tag] 226\t\t\tmentHashes[_documentHash], \"Th...\n      DUP5 \t\t\tlready\n      PUSH [tag] 136\t\t\tmentHashes[_documentHash], \"Th...\n      JUMP \t\t\tmentHashes[_documentHash], \"Th...\n    tag 226\t\t\tmentHashes[_documentHash], \"Th...\n      JUMPDEST \t\t\tmentHashes[_documentHash], \"Th...\n      PUSH [tag] 135\t\t\t(!registeredDocumentHashes[_do...\n      JUMP \t\t\t(!registeredDocumentHashes[_do...\n    tag 225\t\t\t(!registeredDocumentHashes[_do...\n      JUMPDEST \t\t\t(!registeredDocumentHashes[_do...\n      SWAP1 \t\t\t  require(!registeredDocumentH...\n      POP \t\t\t  require(!registeredDocumentH...\n      DUP3 \t\t\t lands\n      DUP2 \t\t\t     \n      MSTORE \t\t\t\");\\r\\n\\r\\n        lands[\n      PUSH 20\t\t\tize,\n      DUP2 \t\t\tion, \n      ADD \t\t\tocation, _size, \n      DUP5 \t\t\tude\n      DUP5 \t\t\th, _la\n      DUP5 \t\t\tntH\n      ADD \t\t\tcumentHash, _lat\n      GT \t\t\t_documentHash, _latitude,\n      ISZERO \t\t\tr, _documentHash, _latitude, _...\n      PUSH [tag] 227\t\t\tr, _documentHash, _latitude, _...\n      JUMPI \t\t\tr, _documentHash, _latitude, _...\n      PUSH [tag] 228\t\t\tongitude, true);\\r\\n        re...\n      PUSH [tag] 132\t\t\tongitude, true);\\r\\n        re...\n      JUMP \t\t\tongitude, true);\\r\\n        re...\n    tag 228\t\t\tongitude, true);\\r\\n        re...\n      JUMPDEST \t\t\tongitude, true);\\r\\n        re...\n    tag 227\t\t\tr, _documentHash, _latitude, _...\n      JUMPDEST \t\t\tr, _documentHash, _latitude, _...\n      PUSH [tag] 229\t\t\tment hash as registered\\r\\n\\r\\...\n      DUP5 \t\t\tistere\n      DUP3 \t\t\tndR\n      DUP6 \t\t\tit \n      PUSH [tag] 137\t\t\tment hash as registered\\r\\n\\r\\...\n      JUMP \t\t\tment hash as registered\\r\\n\\r\\...\n    tag 229\t\t\tment hash as registered\\r\\n\\r\\...\n      JUMPDEST \t\t\tment hash as registered\\r\\n\\r\\...\n      POP \t\t\tng\\r\\n        require(!registe...\n      SWAP4 \t\t\t/ Validate longitude\\r\\n\\r\\n  ...\n      SWAP3 \t\t\t/ Validate longitude\\r\\n\\r\\n  ...\n      POP \t\t\t/ Validate longitude\\r\\n\\r\\n  ...\n      POP \t\t\t/ Validate longitude\\r\\n\\r\\n  ...\n      POP \t\t\t/ Validate longitude\\r\\n\\r\\n  ...\n      JUMP \t\t\t/ Validate longitude\\r\\n\\r\\n  ...\n    tag 139\t\t\tze, msg.sender, _documentHash,...\n      JUMPDEST \t\t\tze, msg.sender, _documentHash,...\n      PUSH 0\t\t\t     \n      DUP3 \t\t\tnd \n      PUSH 1F\t\t\tsfer\n      DUP4 \t\t\t // Tr\n      ADD \t\t\t\\n    // Transfer \n      SLT \t\t\t}\\r\\n\\r\\n    // Transfer land ...\n      PUSH [tag] 231\t\t\tt++;\\r\\n    }\\r\\n\\r\\n    // Tr...\n      JUMPI \t\t\tt++;\\r\\n    }\\r\\n\\r\\n    // Tr...\n      PUSH [tag] 232\t\t\tship to a new owner\\r\\n    fun...\n      PUSH [tag] 131\t\t\tship to a new owner\\r\\n    fun...\n      JUMP \t\t\tship to a new owner\\r\\n    fun...\n    tag 232\t\t\tship to a new owner\\r\\n    fun...\n      JUMPDEST \t\t\tship to a new owner\\r\\n    fun...\n    tag 231\t\t\tt++;\\r\\n    }\\r\\n\\r\\n    // Tr...\n      JUMPDEST \t\t\tt++;\\r\\n    }\\r\\n\\r\\n    // Tr...\n      DUP2 \t\t\t   req\n      CALLDATALOAD \t\t\tdId) {\\r\\n        requ\n      PUSH [tag] 233\t\t\tCount, \"Land ID is invalid\");\\...\n      DUP5 \t\t\tw o\n      DUP3 \t\t\t(0), \"\n      PUSH 20\t\t\taddr\n      DUP7 \t\t\twner !\n      ADD \t\t\tnewOwner != addre\n      PUSH [tag] 138\t\t\tCount, \"Land ID is invalid\");\\...\n      JUMP \t\t\tCount, \"Land ID is invalid\");\\...\n    tag 233\t\t\tCount, \"Land ID is invalid\");\\...\n      JUMPDEST \t\t\tCount, \"Land ID is invalid\");\\...\n      SWAP2 \t\t\tId < landCount, \"Land ID is in...\n      POP \t\t\tId < landCount, \"Land ID is in...\n      POP \t\t\t  landCount++;\\r\\n    }\\r\\n\\r\\...\n      SWAP3 \t\t\tze, msg.sender, _documentHash,...\n      SWAP2 \t\t\tze, msg.sender, _documentHash,...\n      POP \t\t\tze, msg.sender, _documentHash,...\n      POP \t\t\tze, msg.sender, _documentHash,...\n      JUMP \t\t\tze, msg.sender, _documentHash,...\n    tag 140\t\t\tis required\");\\r\\n\\r\\n        ...\n      JUMPDEST \t\t\tis required\");\\r\\n\\r\\n        ...\n      PUSH 0\t\t\tOwner =\n      DUP2 \t\t\t\\r\\n   \n      SWAP1 \t\t\tdId].owner;\\r\\n   \n      POP \t\t\tdId].owner;\\r\\n   \n      SWAP2 \t\t\tis required\");\\r\\n\\r\\n        ...\n      SWAP1 \t\t\tis required\");\\r\\n\\r\\n        ...\n      POP \t\t\tis required\");\\r\\n\\r\\n        ...\n      JUMP \t\t\tis required\");\\r\\n\\r\\n        ...\n    tag 141\t\t\tlandId].owner = _newOwner;\\r\\n...\n      JUMPDEST \t\t\tlandId].owner = _newOwner;\\r\\n...\n      PUSH [tag] 236\t\t\tner, _newOwner);\\r\\n    }\\r\n      DUP2 \t\t\t    }\n      PUSH [tag] 140\t\t\tner, _newOwner);\\r\\n    }\\r\n      JUMP \t\t\tner, _newOwner);\\r\\n    }\\r\n    tag 236\t\t\tner, _newOwner);\\r\\n    }\\r\n      JUMPDEST \t\t\tner, _newOwner);\\r\\n    }\\r\n      DUP2 \t\t\t, old\n      EQ \t\t\tdId, oldOwner, _newOwner);\\r\\n...\n      PUSH [tag] 237\t\t\terred(_landId, oldOwner, _newO...\n      JUMPI \t\t\terred(_landId, oldOwner, _newO...\n      PUSH 0\t\t\ta\n      DUP1 \t\t\te\n      REVERT \t\t\t  // View al\n    tag 237\t\t\terred(_landId, oldOwner, _newO...\n      JUMPDEST \t\t\terred(_landId, oldOwner, _newO...\n      POP \t\t\tlandId].owner = _newOwner;\\r\\n...\n      JUMP \t\t\tlandId].owner = _newOwner;\\r\\n...\n    tag 142\t\t\tands\\r\\n    function getAllLan...\n      JUMPDEST \t\t\tands\\r\\n    function getAllLan...\n      PUSH 0\t\t\teturn\n      DUP2 \t\t\t[] mem\n      CALLDATALOAD \t\t\t\\n        Land[] memo\n      SWAP1 \t\t\temory) {\\r\\n        Land[] mem...\n      POP \t\t\temory) {\\r\\n        Land[] mem...\n      PUSH [tag] 239\t\t\tds = new Land[](landCount);\\r\\...\n      DUP2 \t\t\t\\r\\n\\r\\n \n      PUSH [tag] 141\t\t\tds = new Land[](landCount);\\r\\...\n      JUMP \t\t\tds = new Land[](landCount);\\r\\...\n    tag 239\t\t\tds = new Land[](landCount);\\r\\...\n      JUMPDEST \t\t\tds = new Land[](landCount);\\r\\...\n      SWAP3 \t\t\tands\\r\\n    function getAllLan...\n      SWAP2 \t\t\tands\\r\\n    function getAllLan...\n      POP \t\t\tands\\r\\n    function getAllLan...\n      POP \t\t\tands\\r\\n    function getAllLan...\n      JUMP \t\t\tands\\r\\n    function getAllLan...\n    tag 10\t\t\tint256 i = 0; i < landCount; i...\n      JUMPDEST \t\t\tint256 i = 0; i < landCount; i...\n      PUSH 0\t\t\teturn \n      DUP1 \t\t\tlLands\n      PUSH 0\t\t\t\\n    }\n      DUP1 \t\t\t}\\r\\n\n      PUSH 0\t\t\t\n      PUSH A0\t\t\t\n      DUP7 \t\t\t\n      DUP9 \t\t\t\n      SUB \t\t\t\n      SLT \t\t\t\n      ISZERO \t\t\t\n      PUSH [tag] 241\t\t\t\n      JUMPI \t\t\t\n      PUSH [tag] 242\t\t\t\n      PUSH [tag] 129\t\t\t\n      JUMP \t\t\t\n    tag 242\t\t\t\n      JUMPDEST \t\t\t\n    tag 241\t\t\t\n      JUMPDEST \t\t\t\n      PUSH 0\t\t\t\n      DUP7 \t\t\t\n      ADD \t\t\t\n      CALLDATALOAD \t\t\t\n      PUSH FFFFFFFFFFFFFFFF\t\t\t\n      DUP2 \t\t\t\n      GT \t\t\t\n      ISZERO \t\t\t\n      PUSH [tag] 243\t\t\t\n      JUMPI \t\t\t\n      PUSH [tag] 244\t\t\t\n      PUSH [tag] 130\t\t\t\n      JUMP \t\t\t\n    tag 244\t\t\t\n      JUMPDEST \t\t\t\n    tag 243\t\t\t\n      JUMPDEST \t\t\t\n      PUSH [tag] 245\t\t\t\n      DUP9 \t\t\t\n      DUP3 \t\t\t\n      DUP10 \t\t\t\n      ADD \t\t\t\n      PUSH [tag] 139\t\t\t\n      JUMP \t\t\t\n    tag 245\t\t\t\n      JUMPDEST \t\t\t\n      SWAP6 \t\t\t\n      POP \t\t\t\n      POP \t\t\t\n      PUSH 20\t\t\t\n      PUSH [tag] 246\t\t\t\n      DUP9 \t\t\t\n      DUP3 \t\t\t\n      DUP10 \t\t\t\n      ADD \t\t\t\n      PUSH [tag] 142\t\t\t\n      JUMP \t\t\t\n    tag 246\t\t\t\n      JUMPDEST \t\t\t\n      SWAP5 \t\t\t\n      POP \t\t\t\n      POP \t\t\t\n      PUSH 40\t\t\t\n      DUP7 \t\t\t\n      ADD \t\t\t\n      CALLDATALOAD \t\t\t\n      PUSH FFFFFFFFFFFFFFFF\t\t\t\n      DUP2 \t\t\t\n      GT \t\t\t\n      ISZERO \t\t\t\n      PUSH [tag] 247\t\t\t\n      JUMPI \t\t\t\n      PUSH [tag] 248\t\t\t\n      PUSH [tag] 130\t\t\t\n      JUMP \t\t\t\n    tag 248\t\t\t\n      JUMPDEST \t\t\t\n    tag 247\t\t\t\n      JUMPDEST \t\t\t\n      PUSH [tag] 249\t\t\t\n      DUP9 \t\t\t\n      DUP3 \t\t\t\n      DUP10 \t\t\t\n      ADD \t\t\t\n      PUSH [tag] 139\t\t\t\n      JUMP \t\t\t\n    tag 249\t\t\t\n      JUMPDEST \t\t\t\n      SWAP4 \t\t\t\n      POP \t\t\t\n      POP \t\t\t\n      PUSH 60\t\t\t\n      DUP7 \t\t\t\n      ADD \t\t\t\n      CALLDATALOAD \t\t\t\n      PUSH FFFFFFFFFFFFFFFF\t\t\t\n      DUP2 \t\t\t\n      GT \t\t\t\n      ISZERO \t\t\t\n      PUSH [tag] 250\t\t\t\n      JUMPI \t\t\t\n      PUSH [tag] 251\t\t\t\n      PUSH [tag] 130\t\t\t\n      JUMP \t\t\t\n    tag 251\t\t\t\n      JUMPDEST \t\t\t\n    tag 250\t\t\t\n      JUMPDEST \t\t\t\n      PUSH [tag] 252\t\t\t\n      DUP9 \t\t\t\n      DUP3 \t\t\t\n      DUP10 \t\t\t\n      ADD \t\t\t\n      PUSH [tag] 139\t\t\t\n      JUMP \t\t\t\n    tag 252\t\t\t\n      JUMPDEST \t\t\t\n      SWAP3 \t\t\t\n      POP \t\t\t\n      POP \t\t\t\n      PUSH 80\t\t\t\n      DUP7 \t\t\t\n      ADD \t\t\t\n      CALLDATALOAD \t\t\t\n      PUSH FFFFFFFFFFFFFFFF\t\t\t\n      DUP2 \t\t\t\n      GT \t\t\t\n      ISZERO \t\t\t\n      PUSH [tag] 253\t\t\t\n      JUMPI \t\t\t\n      PUSH [tag] 254\t\t\t\n      PUSH [tag] 130\t\t\t\n      JUMP \t\t\t\n    tag 254\t\t\t\n      JUMPDEST \t\t\t\n    tag 253\t\t\t\n      JUMPDEST \t\t\t\n      PUSH [tag] 255\t\t\t\n      DUP9 \t\t\t\n      DUP3 \t\t\t\n      DUP10 \t\t\t\n      ADD \t\t\t\n      PUSH [tag] 139\t\t\t\n      JUMP \t\t\t\n    tag 255\t\t\t\n      JUMPDEST \t\t\t\n      SWAP2 \t\t\t\n      POP \t\t\t\n      POP \t\t\t\n      SWAP3 \t\t\tint256 i = 0; i < landCount; i...\n      SWAP6 \t\t\tint256 i = 0; i < landCount; i...\n      POP \t\t\tint256 i = 0; i < landCount; i...\n      SWAP3 \t\t\tint256 i = 0; i < landCount; i...\n      SWAP6 \t\t\tint256 i = 0; i < landCount; i...\n      SWAP1 \t\t\tint256 i = 0; i < landCount; i...\n      SWAP4 \t\t\tint256 i = 0; i < landCount; i...\n      POP \t\t\tint256 i = 0; i < landCount; i...\n      JUMP \t\t\tint256 i = 0; i < landCount; i...\n    tag 143\t\t\t\n      JUMPDEST \t\t\t\n      PUSH 0\t\t\t\n      DUP2 \t\t\t\n      MLOAD \t\t\t\n      SWAP1 \t\t\t\n      POP \t\t\t\n      SWAP2 \t\t\t\n      SWAP1 \t\t\t\n      POP \t\t\t\n      JUMP \t\t\t\n    tag 144\t\t\t\n      JUMPDEST \t\t\t\n      PUSH 0\t\t\t\n      DUP3 \t\t\t\n      DUP3 \t\t\t\n      MSTORE \t\t\t\n      PUSH 20\t\t\t\n      DUP3 \t\t\t\n      ADD \t\t\t\n      SWAP1 \t\t\t\n      POP \t\t\t\n      SWAP3 \t\t\t\n      SWAP2 \t\t\t\n      POP \t\t\t\n      POP \t\t\t\n      JUMP \t\t\t\n    tag 145\t\t\t\n      JUMPDEST \t\t\t\n      PUSH 0\t\t\t\n      DUP2 \t\t\t\n      SWAP1 \t\t\t\n      POP \t\t\t\n      PUSH 20\t\t\t\n      DUP3 \t\t\t\n      ADD \t\t\t\n      SWAP1 \t\t\t\n      POP \t\t\t\n      SWAP2 \t\t\t\n      SWAP1 \t\t\t\n      POP \t\t\t\n      JUMP \t\t\t\n    tag 146\t\t\t\n      JUMPDEST \t\t\t\n      PUSH 0\t\t\t\n      DUP2 \t\t\t\n      MLOAD \t\t\t\n      SWAP1 \t\t\t\n      POP \t\t\t\n      SWAP2 \t\t\t\n      SWAP1 \t\t\t\n      POP \t\t\t\n      JUMP \t\t\t\n    tag 147\t\t\t\n      JUMPDEST \t\t\t\n      PUSH 0\t\t\t\n      DUP3 \t\t\t\n      DUP3 \t\t\t\n      MSTORE \t\t\t\n      PUSH 20\t\t\t\n      DUP3 \t\t\t\n      ADD \t\t\t\n      SWAP1 \t\t\t\n      POP \t\t\t\n      SWAP3 \t\t\t\n      SWAP2 \t\t\t\n      POP \t\t\t\n      POP \t\t\t\n      JUMP \t\t\t\n    tag 148\t\t\t\n      JUMPDEST \t\t\t\n      PUSH 0\t\t\t\n    tag 262\t\t\t\n      JUMPDEST \t\t\t\n      DUP4 \t\t\t\n      DUP2 \t\t\t\n      LT \t\t\t\n      ISZERO \t\t\t\n      PUSH [tag] 264\t\t\t\n      JUMPI \t\t\t\n      DUP1 \t\t\t\n      DUP3 \t\t\t\n      ADD \t\t\t\n      MLOAD \t\t\t\n      DUP2 \t\t\t\n      DUP5 \t\t\t\n      ADD \t\t\t\n      MSTORE \t\t\t\n      PUSH 20\t\t\t\n      DUP2 \t\t\t\n      ADD \t\t\t\n      SWAP1 \t\t\t\n      POP \t\t\t\n      PUSH [tag] 262\t\t\t\n      JUMP \t\t\t\n    tag 264\t\t\t\n      JUMPDEST \t\t\t\n      PUSH 0\t\t\t\n      DUP5 \t\t\t\n      DUP5 \t\t\t\n      ADD \t\t\t\n      MSTORE \t\t\t\n      POP \t\t\t\n      POP \t\t\t\n      POP \t\t\t\n      POP \t\t\t\n      JUMP \t\t\t\n    tag 149\t\t\t\n      JUMPDEST \t\t\t\n      PUSH 0\t\t\t\n      PUSH [tag] 266\t\t\t\n      DUP3 \t\t\t\n      PUSH [tag] 146\t\t\t\n      JUMP \t\t\t\n    tag 266\t\t\t\n      JUMPDEST \t\t\t\n      PUSH [tag] 267\t\t\t\n      DUP2 \t\t\t\n      DUP6 \t\t\t\n      PUSH [tag] 147\t\t\t\n      JUMP \t\t\t\n    tag 267\t\t\t\n      JUMPDEST \t\t\t\n      SWAP4 \t\t\t\n      POP \t\t\t\n      PUSH [tag] 268\t\t\t\n      DUP2 \t\t\t\n      DUP6 \t\t\t\n      PUSH 20\t\t\t\n      DUP7 \t\t\t\n      ADD \t\t\t\n      PUSH [tag] 148\t\t\t\n      JUMP \t\t\t\n    tag 268\t\t\t\n      JUMPDEST \t\t\t\n      PUSH [tag] 269\t\t\t\n      DUP2 \t\t\t\n      PUSH [tag] 133\t\t\t\n      JUMP \t\t\t\n    tag 269\t\t\t\n      JUMPDEST \t\t\t\n      DUP5 \t\t\t\n      ADD \t\t\t\n      SWAP2 \t\t\t\n      POP \t\t\t\n      POP \t\t\t\n      SWAP3 \t\t\t\n      SWAP2 \t\t\t\n      POP \t\t\t\n      POP \t\t\t\n      JUMP \t\t\t\n    tag 150\t\t\t\n      JUMPDEST \t\t\t\n      PUSH [tag] 271\t\t\t\n      DUP2 \t\t\t\n      PUSH [tag] 140\t\t\t\n      JUMP \t\t\t\n    tag 271\t\t\t\n      JUMPDEST \t\t\t\n      DUP3 \t\t\t\n      MSTORE \t\t\t\n      POP \t\t\t\n      POP \t\t\t\n      JUMP \t\t\t\n    tag 151\t\t\t\n      JUMPDEST \t\t\t\n      PUSH 0\t\t\t\n      PUSH FFFFFFFFFFFFFFFFFFFFFFFFFFFFFFFFFFFFFFFF\t\t\t\n      DUP3 \t\t\t\n      AND \t\t\t\n      SWAP1 \t\t\t\n      POP \t\t\t\n      SWAP2 \t\t\t\n      SWAP1 \t\t\t\n      POP \t\t\t\n      JUMP \t\t\t\n    tag 152\t\t\t\n      JUMPDEST \t\t\t\n      PUSH 0\t\t\t\n      PUSH [tag] 274\t\t\t\n      DUP3 \t\t\t\n      PUSH [tag] 151\t\t\t\n      JUMP \t\t\t\n    tag 274\t\t\t\n      JUMPDEST \t\t\t\n      SWAP1 \t\t\t\n      POP \t\t\t\n      SWAP2 \t\t\t\n      SWAP1 \t\t\t\n      POP \t\t\t\n      JUMP \t\t\t\n    tag 153\t\t\t\n      JUMPDEST \t\t\t\n      PUSH [tag] 276\t\t\t\n      DUP2 \t\t\t\n      PUSH [tag] 152\t\t\t\n      JUMP \t\t\t\n    tag 276\t\t\t\n      JUMPDEST \t\t\t\n      DUP3 \t\t\t\n      MSTORE \t\t\t\n      POP \t\t\t\n      POP \t\t\t\n      JUMP \t\t\t\n    tag 154\t\t\t\n      JUMPDEST \t\t\t\n      PUSH 0\t\t\t\n      DUP2 \t\t\t\n      ISZERO \t\t\t\n      ISZERO \t\t\t\n      SWAP1 \t\t\t\n      POP \t\t\t\n      SWAP2 \t\t\t\n      SWAP1 \t\t\t\n      POP \t\t\t\n      JUMP \t\t\t\n    tag 155\t\t\t\n      JUMPDEST \t\t\t\n      PUSH [tag] 279\t\t\t\n      DUP2 \t\t\t\n      PUSH [tag] 154\t\t\t\n      JUMP \t\t\t\n    tag 279\t\t\t\n      JUMPDEST \t\t\t\n      DUP3 \t\t\t\n      MSTORE \t\t\t\n      POP \t\t\t\n      POP \t\t\t\n      JUMP \t\t\t\n    tag 156\t\t\t\n      JUMPDEST \t\t\t\n      PUSH 0\t\t\t\n      PUSH E0\t\t\t\n      DUP4 \t\t\t\n      ADD \t\t\t\n      PUSH 0\t\t\t\n      DUP4 \t\t\t\n      ADD \t\t\t\n      MLOAD \t\t\t\n      DUP5 \t\t\t\n      DUP3 \t\t\t\n      SUB \t\t\t\n      PUSH 0\t\t\t\n      DUP7 \t\t\t\n      ADD \t\t\t\n      MSTORE \t\t\t\n      PUSH [tag] 281\t\t\t\n      DUP3 \t\t\t\n      DUP3 \t\t\t\n      PUSH [tag] 149\t\t\t\n      JUMP \t\t\t\n    tag 281\t\t\t\n      JUMPDEST \t\t\t\n      SWAP2 \t\t\t\n      POP \t\t\t\n      POP \t\t\t\n      PUSH 20\t\t\t\n      DUP4 \t\t\t\n      ADD \t\t\t\n      MLOAD \t\t\t\n      PUSH [tag] 282\t\t\t\n      PUSH 20\t\t\t\n      DUP7 \t\t\t\n      ADD \t\t\t\n      DUP3 \t\t\t\n      PUSH [tag] 150\t\t\t\n      JUMP \t\t\t\n    tag 282\t\t\t\n      JUMPDEST \t\t\t\n      POP \t\t\t\n      PUSH 40\t\t\t\n      DUP4 \t\t\t\n      ADD \t\t\t\n      MLOAD \t\t\t\n      PUSH [tag] 283\t\t\t\n      PUSH 40\t\t\t\n      DUP7 \t\t\t\n      ADD \t\t\t\n      DUP3 \t\t\t\n      PUSH [tag] 153\t\t\t\n      JUMP \t\t\t\n    tag 283\t\t\t\n      JUMPDEST \t\t\t\n      POP \t\t\t\n      PUSH 60\t\t\t\n      DUP4 \t\t\t\n      ADD \t\t\t\n      MLOAD \t\t\t\n      DUP5 \t\t\t\n      DUP3 \t\t\t\n      SUB \t\t\t\n      PUSH 60\t\t\t\n      DUP7 \t\t\t\n      ADD \t\t\t\n      MSTORE \t\t\t\n      PUSH [tag] 284\t\t\t\n      DUP3 \t\t\t\n      DUP3 \t\t\t\n      PUSH [tag] 149\t\t\t\n      JUMP \t\t\t\n    tag 284\t\t\t\n      JUMPDEST \t\t\t\n      SWAP2 \t\t\t\n      POP \t\t\t\n      POP \t\t\t\n      PUSH 80\t\t\t\n      DUP4 \t\t\t\n      ADD \t\t\t\n      MLOAD \t\t\t\n      DUP5 \t\t\t\n      DUP3 \t\t\t\n      SUB \t\t\t\n      PUSH 80\t\t\t\n      DUP7 \t\t\t\n      ADD \t\t\t\n      MSTORE \t\t\t\n      PUSH [tag] 285\t\t\t\n      DUP3 \t\t\t\n      DUP3 \t\t\t\n      PUSH [tag] 149\t\t\t\n      JUMP \t\t\t\n    tag 285\t\t\t\n      JUMPDEST \t\t\t\n      SWAP2 \t\t\t\n      POP \t\t\t\n      POP \t\t\t\n      PUSH A0\t\t\t\n      DUP4 \t\t\t\n      ADD \t\t\t\n      MLOAD \t\t\t\n      DUP5 \t\t\t\n      DUP3 \t\t\t\n      SUB \t\t\t\n      PUSH A0\t\t\t\n      DUP7 \t\t\t\n      ADD \t\t\t\n      MSTORE \t\t\t\n      PUSH [tag] 286\t\t\t\n      DUP3 \t\t\t\n      DUP3 \t\t\t\n      PUSH [tag] 149\t\t\t\n      JUMP \t\t\t\n    tag 286\t\t\t\n      JUMPDEST \t\t\t\n      SWAP2 \t\t\t\n      POP \t\t\t\n      POP \t\t\t\n      PUSH C0\t\t\t\n      DUP4 \t\t\t\n      ADD \t\t\t\n      MLOAD \t\t\t\n      PUSH [tag] 287\t\t\t\n      PUSH C0\t\t\t\n      DUP7 \t\t\t\n      ADD \t\t\t\n      DUP3 \t\t\t\n      PUSH [tag] 155\t\t\t\n      JUMP \t\t\t\n    tag 287\t\t\t\n      JUMPDEST \t\t\t\n      POP \t\t\t\n      DUP1 \t\t\t\n      SWAP2 \t\t\t\n      POP \t\t\t\n      POP \t\t\t\n      SWAP3 \t\t\t\n      SWAP2 \t\t\t\n      POP \t\t\t\n      POP \t\t\t\n      JUMP \t\t\t\n    tag 157\t\t\t\n      JUMPDEST \t\t\t\n      PUSH 0\t\t\t\n      PUSH [tag] 289\t\t\t\n      DUP4 \t\t\t\n      DUP4 \t\t\t\n      PUSH [tag] 156\t\t\t\n      JUMP \t\t\t\n    tag 289\t\t\t\n      JUMPDEST \t\t\t\n      SWAP1 \t\t\t\n      POP \t\t\t\n      SWAP3 \t\t\t\n      SWAP2 \t\t\t\n      POP \t\t\t\n      POP \t\t\t\n      JUMP \t\t\t\n    tag 158\t\t\t\n      JUMPDEST \t\t\t\n      PUSH 0\t\t\t\n      PUSH 20\t\t\t\n      DUP3 \t\t\t\n      ADD \t\t\t\n      SWAP1 \t\t\t\n      POP \t\t\t\n      SWAP2 \t\t\t\n      SWAP1 \t\t\t\n      POP \t\t\t\n      JUMP \t\t\t\n    tag 159\t\t\t\n      JUMPDEST \t\t\t\n      PUSH 0\t\t\t\n      PUSH [tag] 292\t\t\t\n      DUP3 \t\t\t\n      PUSH [tag] 143\t\t\t\n      JUMP \t\t\t\n    tag 292\t\t\t\n      JUMPDEST \t\t\t\n      PUSH [tag] 293\t\t\t\n      DUP2 \t\t\t\n      DUP6 \t\t\t\n      PUSH [tag] 144\t\t\t\n      JUMP \t\t\t\n    tag 293\t\t\t\n      JUMPDEST \t\t\t\n      SWAP4 \t\t\t\n      POP \t\t\t\n      DUP4 \t\t\t\n      PUSH 20\t\t\t\n      DUP3 \t\t\t\n      MUL \t\t\t\n      DUP6 \t\t\t\n      ADD \t\t\t\n      PUSH [tag] 294\t\t\t\n      DUP6 \t\t\t\n      PUSH [tag] 145\t\t\t\n      JUMP \t\t\t\n    tag 294\t\t\t\n      JUMPDEST \t\t\t\n      DUP1 \t\t\t\n      PUSH 0\t\t\t\n    tag 295\t\t\t\n      JUMPDEST \t\t\t\n      DUP6 \t\t\t\n      DUP2 \t\t\t\n      LT \t\t\t\n      ISZERO \t\t\t\n      PUSH [tag] 297\t\t\t\n      JUMPI \t\t\t\n      DUP5 \t\t\t\n      DUP5 \t\t\t\n      SUB \t\t\t\n      DUP10 \t\t\t\n      MSTORE \t\t\t\n      DUP2 \t\t\t\n      MLOAD \t\t\t\n      PUSH [tag] 298\t\t\t\n      DUP6 \t\t\t\n      DUP3 \t\t\t\n      PUSH [tag] 157\t\t\t\n      JUMP \t\t\t\n    tag 298\t\t\t\n      JUMPDEST \t\t\t\n      SWAP5 \t\t\t\n      POP \t\t\t\n      PUSH [tag] 299\t\t\t\n      DUP4 \t\t\t\n      PUSH [tag] 158\t\t\t\n      JUMP \t\t\t\n    tag 299\t\t\t\n      JUMPDEST \t\t\t\n      SWAP3 \t\t\t\n      POP \t\t\t\n      PUSH 20\t\t\t\n      DUP11 \t\t\t\n      ADD \t\t\t\n      SWAP10 \t\t\t\n      POP \t\t\t\n      POP \t\t\t\n      PUSH 1\t\t\t\n      DUP2 \t\t\t\n      ADD \t\t\t\n      SWAP1 \t\t\t\n      POP \t\t\t\n      PUSH [tag] 295\t\t\t\n      JUMP \t\t\t\n    tag 297\t\t\t\n      JUMPDEST \t\t\t\n      POP \t\t\t\n      DUP3 \t\t\t\n      SWAP8 \t\t\t\n      POP \t\t\t\n      DUP8 \t\t\t\n      SWAP6 \t\t\t\n      POP \t\t\t\n      POP \t\t\t\n      POP \t\t\t\n      POP \t\t\t\n      POP \t\t\t\n      POP \t\t\t\n      SWAP3 \t\t\t\n      SWAP2 \t\t\t\n      POP \t\t\t\n      POP \t\t\t\n      JUMP \t\t\t\n    tag 15\t\t\t\n      JUMPDEST \t\t\t\n      PUSH 0\t\t\t\n      PUSH 20\t\t\t\n      DUP3 \t\t\t\n      ADD \t\t\t\n      SWAP1 \t\t\t\n      POP \t\t\t\n      DUP2 \t\t\t\n      DUP2 \t\t\t\n      SUB \t\t\t\n      PUSH 0\t\t\t\n      DUP4 \t\t\t\n      ADD \t\t\t\n      MSTORE \t\t\t\n      PUSH [tag] 301\t\t\t\n      DUP2 \t\t\t\n      DUP5 \t\t\t\n      PUSH [tag] 159\t\t\t\n      JUMP \t\t\t\n    tag 301\t\t\t\n      JUMPDEST \t\t\t\n      SWAP1 \t\t\t\n      POP \t\t\t\n      SWAP3 \t\t\t\n      SWAP2 \t\t\t\n      POP \t\t\t\n      POP \t\t\t\n      JUMP \t\t\t\n    tag 160\t\t\t\n      JUMPDEST \t\t\t\n      PUSH [tag] 303\t\t\t\n      DUP2 \t\t\t\n      PUSH [tag] 152\t\t\t\n      JUMP \t\t\t\n    tag 303\t\t\t\n      JUMPDEST \t\t\t\n      DUP2 \t\t\t\n      EQ \t\t\t\n      PUSH [tag] 304\t\t\t\n      JUMPI \t\t\t\n      PUSH 0\t\t\t\n      DUP1 \t\t\t\n      REVERT \t\t\t\n    tag 304\t\t\t\n      JUMPDEST \t\t\t\n      POP \t\t\t\n      JUMP \t\t\t\n    tag 161\t\t\t\n      JUMPDEST \t\t\t\n      PUSH 0\t\t\t\n      DUP2 \t\t\t\n      CALLDATALOAD \t\t\t\n      SWAP1 \t\t\t\n      POP \t\t\t\n      PUSH [tag] 306\t\t\t\n      DUP2 \t\t\t\n      PUSH [tag] 160\t\t\t\n      JUMP \t\t\t\n    tag 306\t\t\t\n      JUMPDEST \t\t\t\n      SWAP3 \t\t\t\n      SWAP2 \t\t\t\n      POP \t\t\t\n      POP \t\t\t\n      JUMP \t\t\t\n    tag 18\t\t\t\n      JUMPDEST \t\t\t\n      PUSH 0\t\t\t\n      DUP1 \t\t\t\n      PUSH 40\t\t\t\n      DUP4 \t\t\t\n      DUP6 \t\t\t\n      SUB \t\t\t\n      SLT \t\t\t\n      ISZERO \t\t\t\n      PUSH [tag] 308\t\t\t\n      JUMPI \t\t\t\n      PUSH [tag] 309\t\t\t\n      PUSH [tag] 129\t\t\t\n      JUMP \t\t\t\n    tag 309\t\t\t\n      JUMPDEST \t\t\t\n    tag 308\t\t\t\n      JUMPDEST \t\t\t\n      PUSH 0\t\t\t\n      PUSH [tag] 310\t\t\t\n      DUP6 \t\t\t\n      DUP3 \t\t\t\n      DUP7 \t\t\t\n      ADD \t\t\t\n      PUSH [tag] 142\t\t\t\n      JUMP \t\t\t\n    tag 310\t\t\t\n      JUMPDEST \t\t\t\n      SWAP3 \t\t\t\n      POP \t\t\t\n      POP \t\t\t\n      PUSH 20\t\t\t\n      PUSH [tag] 311\t\t\t\n      DUP6 \t\t\t\n      DUP3 \t\t\t\n      DUP7 \t\t\t\n      ADD \t\t\t\n      PUSH [tag] 161\t\t\t\n      JUMP \t\t\t\n    tag 311\t\t\t\n      JUMPDEST \t\t\t\n      SWAP2 \t\t\t\n      POP \t\t\t\n      POP \t\t\t\n      SWAP3 \t\t\t\n      POP \t\t\t\n      SWAP3 \t\t\t\n      SWAP1 \t\t\t\n      POP \t\t\t\n      JUMP \t\t\t\n    tag 162\t\t\t\n      JUMPDEST \t\t\t\n      PUSH [tag] 313\t\t\t\n      DUP2 \t\t\t\n      PUSH [tag] 140\t\t\t\n      JUMP \t\t\t\n    tag 313\t\t\t\n      JUMPDEST \t\t\t\n      DUP3 \t\t\t\n      MSTORE \t\t\t\n      POP \t\t\t\n      POP \t\t\t\n      JUMP \t\t\t\n    tag 23\t\t\t\n      JUMPDEST \t\t\t\n      PUSH 0\t\t\t\n      PUSH 20\t\t\t\n      DUP3 \t\t\t\n      ADD \t\t\t\n      SWAP1 \t\t\t\n      POP \t\t\t\n      PUSH [tag] 315\t\t\t\n      PUSH 0\t\t\t\n      DUP4 \t\t\t\n      ADD \t\t\t\n      DUP5 \t\t\t\n      PUSH [tag] 162\t\t\t\n      JUMP \t\t\t\n    tag 315\t\t\t\n      JUMPDEST \t\t\t\n      SWAP3 \t\t\t\n      SWAP2 \t\t\t\n      POP \t\t\t\n      POP \t\t\t\n      JUMP \t\t\t\n    tag 26\t\t\t\n      JUMPDEST \t\t\t\n      PUSH 0\t\t\t\n      PUSH 20\t\t\t\n      DUP3 \t\t\t\n      DUP5 \t\t\t\n      SUB \t\t\t\n      SLT \t\t\t\n      ISZERO \t\t\t\n      PUSH [tag] 317\t\t\t\n      JUMPI \t\t\t\n      PUSH [tag] 318\t\t\t\n      PUSH [tag] 129\t\t\t\n      JUMP \t\t\t\n    tag 318\t\t\t\n      JUMPDEST \t\t\t\n    tag 317\t\t\t\n      JUMPDEST \t\t\t\n      PUSH 0\t\t\t\n      PUSH [tag] 319\t\t\t\n      DUP5 \t\t\t\n      DUP3 \t\t\t\n      DUP6 \t\t\t\n      ADD \t\t\t\n      PUSH [tag] 142\t\t\t\n      JUMP \t\t\t\n    tag 319\t\t\t\n      JUMPDEST \t\t\t\n      SWAP2 \t\t\t\n      POP \t\t\t\n      POP \t\t\t\n      SWAP3 \t\t\t\n      SWAP2 \t\t\t\n      POP \t\t\t\n      POP \t\t\t\n      JUMP \t\t\t\n    tag 163\t\t\t\n      JUMPDEST \t\t\t\n      PUSH 0\t\t\t\n      DUP3 \t\t\t\n      DUP3 \t\t\t\n      MSTORE \t\t\t\n      PUSH 20\t\t\t\n      DUP3 \t\t\t\n      ADD \t\t\t\n      SWAP1 \t\t\t\n      POP \t\t\t\n      SWAP3 \t\t\t\n      SWAP2 \t\t\t\n      POP \t\t\t\n      POP \t\t\t\n      JUMP \t\t\t\n    tag 164\t\t\t\n      JUMPDEST \t\t\t\n      PUSH 0\t\t\t\n      PUSH [tag] 322\t\t\t\n      DUP3 \t\t\t\n      PUSH [tag] 146\t\t\t\n      JUMP \t\t\t\n    tag 322\t\t\t\n      JUMPDEST \t\t\t\n      PUSH [tag] 323\t\t\t\n      DUP2 \t\t\t\n      DUP6 \t\t\t\n      PUSH [tag] 163\t\t\t\n      JUMP \t\t\t\n    tag 323\t\t\t\n      JUMPDEST \t\t\t\n      SWAP4 \t\t\t\n      POP \t\t\t\n      PUSH [tag] 324\t\t\t\n      DUP2 \t\t\t\n      DUP6 \t\t\t\n      PUSH 20\t\t\t\n      DUP7 \t\t\t\n      ADD \t\t\t\n      PUSH [tag] 148\t\t\t\n      JUMP \t\t\t\n    tag 324\t\t\t\n      JUMPDEST \t\t\t\n      PUSH [tag] 325\t\t\t\n      DUP2 \t\t\t\n      PUSH [tag] 133\t\t\t\n      JUMP \t\t\t\n    tag 325\t\t\t\n      JUMPDEST \t\t\t\n      DUP5 \t\t\t\n      ADD \t\t\t\n      SWAP2 \t\t\t\n      POP \t\t\t\n      POP \t\t\t\n      SWAP3 \t\t\t\n      SWAP2 \t\t\t\n      POP \t\t\t\n      POP \t\t\t\n      JUMP \t\t\t\n    tag 165\t\t\t\n      JUMPDEST \t\t\t\n      PUSH [tag] 327\t\t\t\n      DUP2 \t\t\t\n      PUSH [tag] 152\t\t\t\n      JUMP \t\t\t\n    tag 327\t\t\t\n      JUMPDEST \t\t\t\n      DUP3 \t\t\t\n      MSTORE \t\t\t\n      POP \t\t\t\n      POP \t\t\t\n      JUMP \t\t\t\n    tag 166\t\t\t\n      JUMPDEST \t\t\t\n      PUSH [tag] 329\t\t\t\n      DUP2 \t\t\t\n      PUSH [tag] 154\t\t\t\n      JUMP \t\t\t\n    tag 329\t\t\t\n      JUMPDEST \t\t\t\n      DUP3 \t\t\t\n      MSTORE \t\t\t\n      POP \t\t\t\n      POP \t\t\t\n      JUMP \t\t\t\n    tag 29\t\t\t\n      JUMPDEST \t\t\t\n      PUSH 0\t\t\t\n      PUSH E0\t\t\t\n      DUP3 \t\t\t\n      ADD \t\t\t\n      SWAP1 \t\t\t\n      POP \t\t\t\n      DUP2 \t\t\t\n      DUP2 \t\t\t\n      SUB \t\t\t\n      PUSH 0\t\t\t\n      DUP4 \t\t\t\n      ADD \t\t\t\n      MSTORE \t\t\t\n      PUSH [tag] 331\t\t\t\n      DUP2 \t\t\t\n      DUP11 \t\t\t\n      PUSH [tag] 164\t\t\t\n      JUMP \t\t\t\n    tag 331\t\t\t\n      JUMPDEST \t\t\t\n      SWAP1 \t\t\t\n      POP \t\t\t\n      PUSH [tag] 332\t\t\t\n      PUSH 20\t\t\t\n      DUP4 \t\t\t\n      ADD \t\t\t\n      DUP10 \t\t\t\n      PUSH [tag] 162\t\t\t\n      JUMP \t\t\t\n    tag 332\t\t\t\n      JUMPDEST \t\t\t\n      PUSH [tag] 333\t\t\t\n      PUSH 40\t\t\t\n      DUP4 \t\t\t\n      ADD \t\t\t\n      DUP9 \t\t\t\n      PUSH [tag] 165\t\t\t\n      JUMP \t\t\t\n    tag 333\t\t\t\n      JUMPDEST \t\t\t\n      DUP2 \t\t\t\n      DUP2 \t\t\t\n      SUB \t\t\t\n      PUSH 60\t\t\t\n      DUP4 \t\t\t\n      ADD \t\t\t\n      MSTORE \t\t\t\n      PUSH [tag] 334\t\t\t\n      DUP2 \t\t\t\n      DUP8 \t\t\t\n      PUSH [tag] 164\t\t\t\n      JUMP \t\t\t\n    tag 334\t\t\t\n      JUMPDEST \t\t\t\n      SWAP1 \t\t\t\n      POP \t\t\t\n      DUP2 \t\t\t\n      DUP2 \t\t\t\n      SUB \t\t\t\n      PUSH 80\t\t\t\n      DUP4 \t\t\t\n      ADD \t\t\t\n      MSTORE \t\t\t\n      PUSH [tag] 335\t\t\t\n      DUP2 \t\t\t\n      DUP7 \t\t\t\n      PUSH [tag] 164\t\t\t\n      JUMP \t\t\t\n    tag 335\t\t\t\n      JUMPDEST \t\t\t\n      SWAP1 \t\t\t\n      POP \t\t\t\n      DUP2 \t\t\t\n      DUP2 \t\t\t\n      SUB \t\t\t\n      PUSH A0\t\t\t\n      DUP4 \t\t\t\n      ADD \t\t\t\n      MSTORE \t\t\t\n      PUSH [tag] 336\t\t\t\n      DUP2 \t\t\t\n      DUP6 \t\t\t\n      PUSH [tag] 164\t\t\t\n      JUMP \t\t\t\n    tag 336\t\t\t\n      JUMPDEST \t\t\t\n      SWAP1 \t\t\t\n      POP \t\t\t\n      PUSH [tag] 337\t\t\t\n      PUSH C0\t\t\t\n      DUP4 \t\t\t\n      ADD \t\t\t\n      DUP5 \t\t\t\n      PUSH [tag] 166\t\t\t\n      JUMP \t\t\t\n    tag 337\t\t\t\n      JUMPDEST \t\t\t\n      SWAP9 \t\t\t\n      SWAP8 \t\t\t\n      POP \t\t\t\n      POP \t\t\t\n      POP \t\t\t\n      POP \t\t\t\n      POP \t\t\t\n      POP \t\t\t\n      POP \t\t\t\n      POP \t\t\t\n      JUMP \t\t\t\n    tag 167\t\t\t\n      JUMPDEST \t\t\t\n      PUSH 4C6F636174696F6E206973207265717569726564000000000000000000000000\t\t\t\n      PUSH 0\t\t\t\n      DUP3 \t\t\t\n      ADD \t\t\t\n      MSTORE \t\t\t\n      POP \t\t\t\n      JUMP \t\t\t\n    tag 168\t\t\t\n      JUMPDEST \t\t\t\n      PUSH 0\t\t\t\n      PUSH [tag] 340\t\t\t\n      PUSH 14\t\t\t\n      DUP4 \t\t\t\n      PUSH [tag] 163\t\t\t\n      JUMP \t\t\t\n    tag 340\t\t\t\n      JUMPDEST \t\t\t\n      SWAP2 \t\t\t\n      POP \t\t\t\n      PUSH [tag] 341\t\t\t\n      DUP3 \t\t\t\n      PUSH [tag] 167\t\t\t\n      JUMP \t\t\t\n    tag 341\t\t\t\n      JUMPDEST \t\t\t\n      PUSH 20\t\t\t\n      DUP3 \t\t\t\n      ADD \t\t\t\n      SWAP1 \t\t\t\n      POP \t\t\t\n      SWAP2 \t\t\t\n      SWAP1 \t\t\t\n      POP \t\t\t\n      JUMP \t\t\t\n    tag 33\t\t\t\n      JUMPDEST \t\t\t\n      PUSH 0\t\t\t\n      PUSH 20\t\t\t\n      DUP3 \t\t\t\n      ADD \t\t\t\n      SWAP1 \t\t\t\n      POP \t\t\t\n      DUP2 \t\t\t\n      DUP2 \t\t\t\n      SUB \t\t\t\n      PUSH 0\t\t\t\n      DUP4 \t\t\t\n      ADD \t\t\t\n      MSTORE \t\t\t\n      PUSH [tag] 343\t\t\t\n      DUP2 \t\t\t\n      PUSH [tag] 168\t\t\t\n      JUMP \t\t\t\n    tag 343\t\t\t\n      JUMPDEST \t\t\t\n      SWAP1 \t\t\t\n      POP \t\t\t\n      SWAP2 \t\t\t\n      SWAP1 \t\t\t\n      POP \t\t\t\n      JUMP \t\t\t\n    tag 169\t\t\t\n      JUMPDEST \t\t\t\n      PUSH 53697A65206D7573742062652067726561746572207468616E207A65726F0000\t\t\t\n      PUSH 0\t\t\t\n      DUP3 \t\t\t\n      ADD \t\t\t\n      MSTORE \t\t\t\n      POP \t\t\t\n      JUMP \t\t\t\n    tag 170\t\t\t\n      JUMPDEST \t\t\t\n      PUSH 0\t\t\t\n      PUSH [tag] 346\t\t\t\n      PUSH 1E\t\t\t\n      DUP4 \t\t\t\n      PUSH [tag] 163\t\t\t\n      JUMP \t\t\t\n    tag 346\t\t\t\n      JUMPDEST \t\t\t\n      SWAP2 \t\t\t\n      POP \t\t\t\n      PUSH [tag] 347\t\t\t\n      DUP3 \t\t\t\n      PUSH [tag] 169\t\t\t\n      JUMP \t\t\t\n    tag 347\t\t\t\n      JUMPDEST \t\t\t\n      PUSH 20\t\t\t\n      DUP3 \t\t\t\n      ADD \t\t\t\n      SWAP1 \t\t\t\n      POP \t\t\t\n      SWAP2 \t\t\t\n      SWAP1 \t\t\t\n      POP \t\t\t\n      JUMP \t\t\t\n    tag 36\t\t\t\n      JUMPDEST \t\t\t\n      PUSH 0\t\t\t\n      PUSH 20\t\t\t\n      DUP3 \t\t\t\n      ADD \t\t\t\n      SWAP1 \t\t\t\n      POP \t\t\t\n      DUP2 \t\t\t\n      DUP2 \t\t\t\n      SUB \t\t\t\n      PUSH 0\t\t\t\n      DUP4 \t\t\t\n      ADD \t\t\t\n      MSTORE \t\t\t\n      PUSH [tag] 349\t\t\t\n      DUP2 \t\t\t\n      PUSH [tag] 170\t\t\t\n      JUMP \t\t\t\n    tag 349\t\t\t\n      JUMPDEST \t\t\t\n      SWAP1 \t\t\t\n      POP \t\t\t\n      SWAP2 \t\t\t\n      SWAP1 \t\t\t\n      POP \t\t\t\n      JUMP \t\t\t\n    tag 171\t\t\t\n      JUMPDEST \t\t\t\n      PUSH 446F63756D656E74206861736820697320726571756972656400000000000000\t\t\t\n      PUSH 0\t\t\t\n      DUP3 \t\t\t\n      ADD \t\t\t\n      MSTORE \t\t\t\n      POP \t\t\t\n      JUMP \t\t\t\n    tag 172\t\t\t\n      JUMPDEST \t\t\t\n      PUSH 0\t\t\t\n      PUSH [tag] 352\t\t\t\n      PUSH 19\t\t\t\n      DUP4 \t\t\t\n      PUSH [tag] 163\t\t\t\n      JUMP \t\t\t\n    tag 352\t\t\t\n      JUMPDEST \t\t\t\n      SWAP2 \t\t\t\n      POP \t\t\t\n      PUSH [tag] 353\t\t\t\n      DUP3 \t\t\t\n      PUSH [tag] 171\t\t\t\n      JUMP \t\t\t\n    tag 353\t\t\t\n      JUMPDEST \t\t\t\n      PUSH 20\t\t\t\n      DUP3 \t\t\t\n      ADD \t\t\t\n      SWAP1 \t\t\t\n      POP \t\t\t\n      SWAP2 \t\t\t\n      SWAP1 \t\t\t\n      POP \t\t\t\n      JUMP \t\t\t\n    tag 39\t\t\t\n      JUMPDEST \t\t\t\n      PUSH 0\t\t\t\n      PUSH 20\t\t\t\n      DUP3 \t\t\t\n      ADD \t\t\t\n      SWAP1 \t\t\t\n      POP \t\t\t\n      DUP2 \t\t\t\n      DUP2 \t\t\t\n      SUB \t\t\t\n      PUSH 0\t\t\t\n      DUP4 \t\t\t\n      ADD \t\t\t\n      MSTORE \t\t\t\n      PUSH [tag] 355\t\t\t\n      DUP2 \t\t\t\n      PUSH [tag] 172\t\t\t\n      JUMP \t\t\t\n    tag 355\t\t\t\n      JUMPDEST \t\t\t\n      SWAP1 \t\t\t\n      POP \t\t\t\n      SWAP2 \t\t\t\n      SWAP1 \t\t\t\n      POP \t\t\t\n      JUMP \t\t\t\n    tag 173\t\t\t\n      JUMPDEST \t\t\t\n      PUSH 4C61746974756465206973207265717569726564000000000000000000000000\t\t\t\n      PUSH 0\t\t\t\n      DUP3 \t\t\t\n      ADD \t\t\t\n      MSTORE \t\t\t\n      POP \t\t\t\n      JUMP \t\t\t\n    tag 174\t\t\t\n      JUMPDEST \t\t\t\n      PUSH 0\t\t\t\n      PUSH [tag] 358\t\t\t\n      PUSH 14\t\t\t\n      DUP4 \t\t\t\n      PUSH [tag] 163\t\t\t\n      JUMP \t\t\t\n    tag 358\t\t\t\n      JUMPDEST \t\t\t\n      SWAP2 \t\t\t\n      POP \t\t\t\n      PUSH [tag] 359\t\t\t\n      DUP3 \t\t\t\n      PUSH [tag] 173\t\t\t\n      JUMP \t\t\t\n    tag 359\t\t\t\n      JUMPDEST \t\t\t\n      PUSH 20\t\t\t\n      DUP3 \t\t\t\n      ADD \t\t\t\n      SWAP1 \t\t\t\n      POP \t\t\t\n      SWAP2 \t\t\t\n      SWAP1 \t\t\t\n      POP \t\t\t\n      JUMP \t\t\t\n    tag 42\t\t\t\n      JUMPDEST \t\t\t\n      PUSH 0\t\t\t\n      PUSH 20\t\t\t\n      DUP3 \t\t\t\n      ADD \t\t\t\n      SWAP1 \t\t\t\n      POP \t\t\t\n      DUP2 \t\t\t\n      DUP2 \t\t\t\n      SUB \t\t\t\n      PUSH 0\t\t\t\n      DUP4 \t\t\t\n      ADD \t\t\t\n      MSTORE \t\t\t\n      PUSH [tag] 361\t\t\t\n      DUP2 \t\t\t\n      PUSH [tag] 174\t\t\t\n      JUMP \t\t\t\n    tag 361\t\t\t\n      JUMPDEST \t\t\t\n      SWAP1 \t\t\t\n      POP \t\t\t\n      SWAP2 \t\t\t\n      SWAP1 \t\t\t\n      POP \t\t\t\n      JUMP \t\t\t\n    tag 175\t\t\t\n      JUMPDEST \t\t\t\n      PUSH 4C6F6E6769747564652069732072657175697265640000000000000000000000\t\t\t\n      PUSH 0\t\t\t\n      DUP3 \t\t\t\n      ADD \t\t\t\n      MSTORE \t\t\t\n      POP \t\t\t\n      JUMP \t\t\t\n    tag 176\t\t\t\n      JUMPDEST \t\t\t\n      PUSH 0\t\t\t\n      PUSH [tag] 364\t\t\t\n      PUSH 15\t\t\t\n      DUP4 \t\t\t\n      PUSH [tag] 163\t\t\t\n      JUMP \t\t\t\n    tag 364\t\t\t\n      JUMPDEST \t\t\t\n      SWAP2 \t\t\t\n      POP \t\t\t\n      PUSH [tag] 365\t\t\t\n      DUP3 \t\t\t\n      PUSH [tag] 175\t\t\t\n      JUMP \t\t\t\n    tag 365\t\t\t\n      JUMPDEST \t\t\t\n      PUSH 20\t\t\t\n      DUP3 \t\t\t\n      ADD \t\t\t\n      SWAP1 \t\t\t\n      POP \t\t\t\n      SWAP2 \t\t\t\n      SWAP1 \t\t\t\n      POP \t\t\t\n      JUMP \t\t\t\n    tag 45\t\t\t\n      JUMPDEST \t\t\t\n      PUSH 0\t\t\t\n      PUSH 20\t\t\t\n      DUP3 \t\t\t\n      ADD \t\t\t\n      SWAP1 \t\t\t\n      POP \t\t\t\n      DUP2 \t\t\t\n      DUP2 \t\t\t\n      SUB \t\t\t\n      PUSH 0\t\t\t\n      DUP4 \t\t\t\n      ADD \t\t\t\n      MSTORE \t\t\t\n      PUSH [tag] 367\t\t\t\n      DUP2 \t\t\t\n      PUSH [tag] 176\t\t\t\n      JUMP \t\t\t\n    tag 367\t\t\t\n      JUMPDEST \t\t\t\n      SWAP1 \t\t\t\n      POP \t\t\t\n      SWAP2 \t\t\t\n      SWAP1 \t\t\t\n      POP \t\t\t\n      JUMP \t\t\t\n    tag 177\t\t\t\n      JUMPDEST \t\t\t\n      PUSH 0\t\t\t\n      DUP2 \t\t\t\n      SWAP1 \t\t\t\n      POP \t\t\t\n      SWAP3 \t\t\t\n      SWAP2 \t\t\t\n      POP \t\t\t\n      POP \t\t\t\n      JUMP \t\t\t\n    tag 178\t\t\t\n      JUMPDEST \t\t\t\n      PUSH 0\t\t\t\n      PUSH [tag] 370\t\t\t\n      DUP3 \t\t\t\n      PUSH [tag] 146\t\t\t\n      JUMP \t\t\t\n    tag 370\t\t\t\n      JUMPDEST \t\t\t\n      PUSH [tag] 371\t\t\t\n      DUP2 \t\t\t\n      DUP6 \t\t\t\n      PUSH [tag] 177\t\t\t\n      JUMP \t\t\t\n    tag 371\t\t\t\n      JUMPDEST \t\t\t\n      SWAP4 \t\t\t\n      POP \t\t\t\n      PUSH [tag] 372\t\t\t\n      DUP2 \t\t\t\n      DUP6 \t\t\t\n      PUSH 20\t\t\t\n      DUP7 \t\t\t\n      ADD \t\t\t\n      PUSH [tag] 148\t\t\t\n      JUMP \t\t\t\n    tag 372\t\t\t\n      JUMPDEST \t\t\t\n      DUP1 \t\t\t\n      DUP5 \t\t\t\n      ADD \t\t\t\n      SWAP2 \t\t\t\n      POP \t\t\t\n      POP \t\t\t\n      SWAP3 \t\t\t\n      SWAP2 \t\t\t\n      POP \t\t\t\n      POP \t\t\t\n      JUMP \t\t\t\n    tag 47\t\t\t\n      JUMPDEST \t\t\t\n      PUSH 0\t\t\t\n      PUSH [tag] 374\t\t\t\n      DUP3 \t\t\t\n      DUP5 \t\t\t\n      PUSH [tag] 178\t\t\t\n      JUMP \t\t\t\n    tag 374\t\t\t\n      JUMPDEST \t\t\t\n      SWAP2 \t\t\t\n      POP \t\t\t\n      DUP2 \t\t\t\n      SWAP1 \t\t\t\n      POP \t\t\t\n      SWAP3 \t\t\t\n      SWAP2 \t\t\t\n      POP \t\t\t\n      POP \t\t\t\n      JUMP \t\t\t\n    tag 179\t\t\t\n      JUMPDEST \t\t\t\n      PUSH 54686973206C616E6420697320616C7265616479207265676973746572656400\t\t\t\n      PUSH 0\t\t\t\n      DUP3 \t\t\t\n      ADD \t\t\t\n      MSTORE \t\t\t\n      POP \t\t\t\n      JUMP \t\t\t\n    tag 180\t\t\t\n      JUMPDEST \t\t\t\n      PUSH 0\t\t\t\n      PUSH [tag] 377\t\t\t\n      PUSH 1F\t\t\t\n      DUP4 \t\t\t\n      PUSH [tag] 163\t\t\t\n      JUMP \t\t\t\n    tag 377\t\t\t\n      JUMPDEST \t\t\t\n      SWAP2 \t\t\t\n      POP \t\t\t\n      PUSH [tag] 378\t\t\t\n      DUP3 \t\t\t\n      PUSH [tag] 179\t\t\t\n      JUMP \t\t\t\n    tag 378\t\t\t\n      JUMPDEST \t\t\t\n      PUSH 20\t\t\t\n      DUP3 \t\t\t\n      ADD \t\t\t\n      SWAP1 \t\t\t\n      POP \t\t\t\n      SWAP2 \t\t\t\n      SWAP1 \t\t\t\n      POP \t\t\t\n      JUMP \t\t\t\n    tag 50\t\t\t\n      JUMPDEST \t\t\t\n      PUSH 0\t\t\t\n      PUSH 20\t\t\t\n      DUP3 \t\t\t\n      ADD \t\t\t\n      SWAP1 \t\t\t\n      POP \t\t\t\n      DUP2 \t\t\t\n      DUP2 \t\t\t\n      SUB \t\t\t\n      PUSH 0\t\t\t\n      DUP4 \t\t\t\n      ADD \t\t\t\n      MSTORE \t\t\t\n      PUSH [tag] 380\t\t\t\n      DUP2 \t\t\t\n      PUSH [tag] 180\t\t\t\n      JUMP \t\t\t\n    tag 380\t\t\t\n      JUMPDEST \t\t\t\n      SWAP1 \t\t\t\n      POP \t\t\t\n      SWAP2 \t\t\t\n      SWAP1 \t\t\t\n      POP \t\t\t\n      JUMP \t\t\t\n    tag 181\t\t\t\n      JUMPDEST \t\t\t\n      PUSH 4E487B7100000000000000000000000000000000000000000000000000000000\t\t\t\n      PUSH 0\t\t\t\n      MSTORE \t\t\t\n      PUSH 22\t\t\t\n      PUSH 4\t\t\t\n      MSTORE \t\t\t\n      PUSH 24\t\t\t\n      PUSH 0\t\t\t\n      REVERT \t\t\t\n    tag 73\t\t\t\n      JUMPDEST \t\t\t\n      PUSH 0\t\t\t\n      PUSH 2\t\t\t\n      DUP3 \t\t\t\n      DIV \t\t\t\n      SWAP1 \t\t\t\n      POP \t\t\t\n      PUSH 1\t\t\t\n      DUP3 \t\t\t\n      AND \t\t\t\n      DUP1 \t\t\t\n      PUSH [tag] 383\t\t\t\n      JUMPI \t\t\t\n      PUSH 7F\t\t\t\n      DUP3 \t\t\t\n      AND \t\t\t\n      SWAP2 \t\t\t\n      POP \t\t\t\n    tag 383\t\t\t\n      JUMPDEST \t\t\t\n      PUSH 20\t\t\t\n      DUP3 \t\t\t\n      LT \t\t\t\n      DUP2 \t\t\t\n      SUB \t\t\t\n      PUSH [tag] 384\t\t\t\n      JUMPI \t\t\t\n      PUSH [tag] 385\t\t\t\n      PUSH [tag] 181\t\t\t\n      JUMP \t\t\t\n    tag 385\t\t\t\n      JUMPDEST \t\t\t\n    tag 384\t\t\t\n      JUMPDEST \t\t\t\n      POP \t\t\t\n      SWAP2 \t\t\t\n      SWAP1 \t\t\t\n      POP \t\t\t\n      JUMP \t\t\t\n    tag 182\t\t\t\n      JUMPDEST \t\t\t\n      PUSH 0\t\t\t\n      DUP2 \t\t\t\n      SWAP1 \t\t\t\n      POP \t\t\t\n      DUP2 \t\t\t\n      PUSH 0\t\t\t\n      MSTORE \t\t\t\n      PUSH 20\t\t\t\n      PUSH 0\t\t\t\n      KECCAK256 \t\t\t\n      SWAP1 \t\t\t\n      POP \t\t\t\n      SWAP2 \t\t\t\n      SWAP1 \t\t\t\n      POP \t\t\t\n      JUMP \t\t\t\n    tag 183\t\t\t\n      JUMPDEST \t\t\t\n      PUSH 0\t\t\t\n      PUSH 20\t\t\t\n      PUSH 1F\t\t\t\n      DUP4 \t\t\t\n      ADD \t\t\t\n      DIV \t\t\t\n      SWAP1 \t\t\t\n      POP \t\t\t\n      SWAP2 \t\t\t\n      SWAP1 \t\t\t\n      POP \t\t\t\n      JUMP \t\t\t\n    tag 184\t\t\t\n      JUMPDEST \t\t\t\n      PUSH 0\t\t\t\n      DUP3 \t\t\t\n      DUP3 \t\t\t\n      SHL \t\t\t\n      SWAP1 \t\t\t\n      POP \t\t\t\n      SWAP3 \t\t\t\n      SWAP2 \t\t\t\n      POP \t\t\t\n      POP \t\t\t\n      JUMP \t\t\t\n    tag 185\t\t\t\n      JUMPDEST \t\t\t\n      PUSH 0\t\t\t\n      PUSH 8\t\t\t\n      DUP4 \t\t\t\n      MUL \t\t\t\n      PUSH [tag] 390\t\t\t\n      PUSH FFFFFFFFFFFFFFFFFFFFFFFFFFFFFFFFFFFFFFFFFFFFFFFFFFFFFFFFFFFFFFFF\t\t\t\n      DUP3 \t\t\t\n      PUSH [tag] 184\t\t\t\n      JUMP \t\t\t\n    tag 390\t\t\t\n      JUMPDEST \t\t\t\n      PUSH [tag] 391\t\t\t\n      DUP7 \t\t\t\n      DUP4 \t\t\t\n      PUSH [tag] 184\t\t\t\n      JUMP \t\t\t\n    tag 391\t\t\t\n      JUMPDEST \t\t\t\n      SWAP6 \t\t\t\n      POP \t\t\t\n      DUP1 \t\t\t\n      NOT \t\t\t\n      DUP5 \t\t\t\n      AND \t\t\t\n      SWAP4 \t\t\t\n      POP \t\t\t\n      DUP1 \t\t\t\n      DUP7 \t\t\t\n      AND \t\t\t\n      DUP5 \t\t\t\n      OR \t\t\t\n      SWAP3 \t\t\t\n      POP \t\t\t\n      POP \t\t\t\n      POP \t\t\t\n      SWAP4 \t\t\t\n      SWAP3 \t\t\t\n      POP \t\t\t\n      POP \t\t\t\n      POP \t\t\t\n      JUMP \t\t\t\n    tag 186\t\t\t\n      JUMPDEST \t\t\t\n      PUSH 0\t\t\t\n      DUP2 \t\t\t\n      SWAP1 \t\t\t\n      POP \t\t\t\n      SWAP2 \t\t\t\n      SWAP1 \t\t\t\n      POP \t\t\t\n      JUMP \t\t\t\n    tag 187\t\t\t\n      JUMPDEST \t\t\t\n      PUSH 0\t\t\t\n      PUSH [tag] 394\t\t\t\n      PUSH [tag] 395\t\t\t\n      PUSH [tag] 396\t\t\t\n      DUP5 \t\t\t\n      PUSH [tag] 140\t\t\t\n      JUMP \t\t\t\n    tag 396\t\t\t\n      JUMPDEST \t\t\t\n      PUSH [tag] 186\t\t\t\n      JUMP \t\t\t\n    tag 395\t\t\t\n      JUMPDEST \t\t\t\n      PUSH [tag] 140\t\t\t\n      JUMP \t\t\t\n    tag 394\t\t\t\n      JUMPDEST \t\t\t\n      SWAP1 \t\t\t\n      POP \t\t\t\n      SWAP2 \t\t\t\n      SWAP1 \t\t\t\n      POP \t\t\t\n      JUMP \t\t\t\n    tag 188\t\t\t\n      JUMPDEST \t\t\t\n      PUSH 0\t\t\t\n      DUP2 \t\t\t\n      SWAP1 \t\t\t\n      POP \t\t\t\n      SWAP2 \t\t\t\n      SWAP1 \t\t\t\n      POP \t\t\t\n      JUMP \t\t\t\n    tag 189\t\t\t\n      JUMPDEST \t\t\t\n      PUSH [tag] 399\t\t\t\n      DUP4 \t\t\t\n      PUSH [tag] 187\t\t\t\n      JUMP \t\t\t\n    tag 399\t\t\t\n      JUMPDEST \t\t\t\n      PUSH [tag] 400\t\t\t\n      PUSH [tag] 401\t\t\t\n      DUP3 \t\t\t\n      PUSH [tag] 188\t\t\t\n      JUMP \t\t\t\n    tag 401\t\t\t\n      JUMPDEST \t\t\t\n      DUP5 \t\t\t\n      DUP5 \t\t\t\n      SLOAD \t\t\t\n      PUSH [tag] 185\t\t\t\n      JUMP \t\t\t\n    tag 400\t\t\t\n      JUMPDEST \t\t\t\n      DUP3 \t\t\t\n      SSTORE \t\t\t\n      POP \t\t\t\n      POP \t\t\t\n      POP \t\t\t\n      POP \t\t\t\n      JUMP \t\t\t\n    tag 190\t\t\t\n      JUMPDEST \t\t\t\n      PUSH 0\t\t\t\n      SWAP1 \t\t\t\n      JUMP \t\t\t\n    tag 191\t\t\t\n      JUMPDEST \t\t\t\n      PUSH [tag] 404\t\t\t\n      PUSH [tag] 190\t\t\t\n      JUMP \t\t\t\n    tag 404\t\t\t\n      JUMPDEST \t\t\t\n      PUSH [tag] 405\t\t\t\n      DUP2 \t\t\t\n      DUP5 \t\t\t\n      DUP5 \t\t\t\n      PUSH [tag] 189\t\t\t\n      JUMP \t\t\t\n    tag 405\t\t\t\n      JUMPDEST \t\t\t\n      POP \t\t\t\n      POP \t\t\t\n      POP \t\t\t\n      JUMP \t\t\t\n    tag 192\t\t\t\n      JUMPDEST \t\t\t\n    tag 407\t\t\t\n      JUMPDEST \t\t\t\n      DUP2 \t\t\t\n      DUP2 \t\t\t\n      LT \t\t\t\n      ISZERO \t\t\t\n      PUSH [tag] 409\t\t\t\n      JUMPI \t\t\t\n      PUSH [tag] 410\t\t\t\n      PUSH 0\t\t\t\n      DUP3 \t\t\t\n      PUSH [tag] 191\t\t\t\n      JUMP \t\t\t\n    tag 410\t\t\t\n      JUMPDEST \t\t\t\n      PUSH 1\t\t\t\n      DUP2 \t\t\t\n      ADD \t\t\t\n      SWAP1 \t\t\t\n      POP \t\t\t\n      PUSH [tag] 407\t\t\t\n      JUMP \t\t\t\n    tag 409\t\t\t\n      JUMPDEST \t\t\t\n      POP \t\t\t\n      POP \t\t\t\n      JUMP \t\t\t\n    tag 193\t\t\t\n      JUMPDEST \t\t\t\n      PUSH 1F\t\t\t\n      DUP3 \t\t\t\n      GT \t\t\t\n      ISZERO \t\t\t\n      PUSH [tag] 412\t\t\t\n      JUMPI \t\t\t\n      PUSH [tag] 413\t\t\t\n      DUP2 \t\t\t\n      PUSH [tag] 182\t\t\t\n      JUMP \t\t\t\n    tag 413\t\t\t\n      JUMPDEST \t\t\t\n      PUSH [tag] 414\t\t\t\n      DUP5 \t\t\t\n      PUSH [tag] 183\t\t\t\n      JUMP \t\t\t\n    tag 414\t\t\t\n      JUMPDEST \t\t\t\n      DUP2 \t\t\t\n      ADD \t\t\t\n      PUSH 20\t\t\t\n      DUP6 \t\t\t\n      LT \t\t\t\n      ISZERO \t\t\t\n      PUSH [tag] 415\t\t\t\n      JUMPI \t\t\t\n      DUP2 \t\t\t\n      SWAP1 \t\t\t\n      POP \t\t\t\n    tag 415\t\t\t\n      JUMPDEST \t\t\t\n      PUSH [tag] 416\t\t\t\n      PUSH [tag] 417\t\t\t\n      DUP6 \t\t\t\n      PUSH [tag] 183\t\t\t\n      JUMP \t\t\t\n    tag 417\t\t\t\n      JUMPDEST \t\t\t\n      DUP4 \t\t\t\n      ADD \t\t\t\n      DUP3 \t\t\t\n      PUSH [tag] 192\t\t\t\n      JUMP \t\t\t\n    tag 416\t\t\t\n      JUMPDEST \t\t\t\n      POP \t\t\t\n      POP \t\t\t\n    tag 412\t\t\t\n      JUMPDEST \t\t\t\n      POP \t\t\t\n      POP \t\t\t\n      POP \t\t\t\n      JUMP \t\t\t\n    tag 194\t\t\t\n      JUMPDEST \t\t\t\n      PUSH 0\t\t\t\n      DUP3 \t\t\t\n      DUP3 \t\t\t\n      SHR \t\t\t\n      SWAP1 \t\t\t\n      POP \t\t\t\n      SWAP3 \t\t\t\n      SWAP2 \t\t\t\n      POP \t\t\t\n      POP \t\t\t\n      JUMP \t\t\t\n    tag 195\t\t\t\n      JUMPDEST \t\t\t\n      PUSH 0\t\t\t\n      PUSH [tag] 420\t\t\t\n      PUSH 0\t\t\t\n      NOT \t\t\t\n      DUP5 \t\t\t\n      PUSH 8\t\t\t\n      MUL \t\t\t\n      PUSH [tag] 194\t\t\t\n      JUMP \t\t\t\n    tag 420\t\t\t\n      JUMPDEST \t\t\t\n      NOT \t\t\t\n      DUP1 \t\t\t\n      DUP4 \t\t\t\n      AND \t\t\t\n      SWAP2 \t\t\t\n      POP \t\t\t\n      POP \t\t\t\n      SWAP3 \t\t\t\n      SWAP2 \t\t\t\n      POP \t\t\t\n      POP \t\t\t\n      JUMP \t\t\t\n    tag 196\t\t\t\n      JUMPDEST \t\t\t\n      PUSH 0\t\t\t\n      PUSH [tag] 422\t\t\t\n      DUP4 \t\t\t\n      DUP4 \t\t\t\n      PUSH [tag] 195\t\t\t\n      JUMP \t\t\t\n    tag 422\t\t\t\n      JUMPDEST \t\t\t\n      SWAP2 \t\t\t\n      POP \t\t\t\n      DUP3 \t\t\t\n      PUSH 2\t\t\t\n      MUL \t\t\t\n      DUP3 \t\t\t\n      OR \t\t\t\n      SWAP1 \t\t\t\n      POP \t\t\t\n      SWAP3 \t\t\t\n      SWAP2 \t\t\t\n      POP \t\t\t\n      POP \t\t\t\n      JUMP \t\t\t\n    tag 52\t\t\t\n      JUMPDEST \t\t\t\n      PUSH [tag] 424\t\t\t\n      DUP3 \t\t\t\n      PUSH [tag] 146\t\t\t\n      JUMP \t\t\t\n    tag 424\t\t\t\n      JUMPDEST \t\t\t\n      PUSH FFFFFFFFFFFFFFFF\t\t\t\n      DUP2 \t\t\t\n      GT \t\t\t\n      ISZERO \t\t\t\n      PUSH [tag] 425\t\t\t\n      JUMPI \t\t\t\n      PUSH [tag] 426\t\t\t\n      PUSH [tag] 64\t\t\t\n      JUMP \t\t\t\n    tag 426\t\t\t\n      JUMPDEST \t\t\t\n    tag 425\t\t\t\n      JUMPDEST \t\t\t\n      PUSH [tag] 427\t\t\t\n      DUP3 \t\t\t\n      SLOAD \t\t\t\n      PUSH [tag] 73\t\t\t\n      JUMP \t\t\t\n    tag 427\t\t\t\n      JUMPDEST \t\t\t\n      PUSH [tag] 428\t\t\t\n      DUP3 \t\t\t\n      DUP3 \t\t\t\n      DUP6 \t\t\t\n      PUSH [tag] 193\t\t\t\n      JUMP \t\t\t\n    tag 428\t\t\t\n      JUMPDEST \t\t\t\n      PUSH 0\t\t\t\n      PUSH 20\t\t\t\n      SWAP1 \t\t\t\n      POP \t\t\t\n      PUSH 1F\t\t\t\n      DUP4 \t\t\t\n      GT \t\t\t\n      PUSH 1\t\t\t\n      DUP2 \t\t\t\n      EQ \t\t\t\n      PUSH [tag] 430\t\t\t\n      JUMPI \t\t\t\n      PUSH 0\t\t\t\n      DUP5 \t\t\t\n      ISZERO \t\t\t\n      PUSH [tag] 431\t\t\t\n      JUMPI \t\t\t\n      DUP3 \t\t\t\n      DUP8 \t\t\t\n      ADD \t\t\t\n      MLOAD \t\t\t\n      SWAP1 \t\t\t\n      POP \t\t\t\n    tag 431\t\t\t\n      JUMPDEST \t\t\t\n      PUSH [tag] 432\t\t\t\n      DUP6 \t\t\t\n      DUP3 \t\t\t\n      PUSH [tag] 196\t\t\t\n      JUMP \t\t\t\n    tag 432\t\t\t\n      JUMPDEST \t\t\t\n      DUP7 \t\t\t\n      SSTORE \t\t\t\n      POP \t\t\t\n      PUSH [tag] 429\t\t\t\n      JUMP \t\t\t\n    tag 430\t\t\t\n      JUMPDEST \t\t\t\n      PUSH 1F\t\t\t\n      NOT \t\t\t\n      DUP5 \t\t\t\n      AND \t\t\t\n      PUSH [tag] 433\t\t\t\n      DUP7 \t\t\t\n      PUSH [tag] 182\t\t\t\n      JUMP \t\t\t\n    tag 433\t\t\t\n      JUMPDEST \t\t\t\n      PUSH 0\t\t\t\n    tag 434\t\t\t\n      JUMPDEST \t\t\t\n      DUP3 \t\t\t\n      DUP2 \t\t\t\n      LT \t\t\t\n      ISZERO \t\t\t\n      PUSH [tag] 436\t\t\t\n      JUMPI \t\t\t\n      DUP5 \t\t\t\n      DUP10 \t\t\t\n      ADD \t\t\t\n      MLOAD \t\t\t\n      DUP3 \t\t\t\n      SSTORE \t\t\t\n      PUSH 1\t\t\t\n      DUP3 \t\t\t\n      ADD \t\t\t\n      SWAP2 \t\t\t\n      POP \t\t\t\n      PUSH 20\t\t\t\n      DUP6 \t\t\t\n      ADD \t\t\t\n      SWAP5 \t\t\t\n      POP \t\t\t\n      PUSH 20\t\t\t\n      DUP2 \t\t\t\n      ADD \t\t\t\n      SWAP1 \t\t\t\n      POP \t\t\t\n      PUSH [tag] 434\t\t\t\n      JUMP \t\t\t\n    tag 436\t\t\t\n      JUMPDEST \t\t\t\n      DUP7 \t\t\t\n      DUP4 \t\t\t\n      LT \t\t\t\n      ISZERO \t\t\t\n      PUSH [tag] 437\t\t\t\n      JUMPI \t\t\t\n      DUP5 \t\t\t\n      DUP10 \t\t\t\n      ADD \t\t\t\n      MLOAD \t\t\t\n      PUSH [tag] 438\t\t\t\n      PUSH 1F\t\t\t\n      DUP10 \t\t\t\n      AND \t\t\t\n      DUP3 \t\t\t\n      PUSH [tag] 195\t\t\t\n      JUMP \t\t\t\n    tag 438\t\t\t\n      JUMPDEST \t\t\t\n      DUP4 \t\t\t\n      SSTORE \t\t\t\n      POP \t\t\t\n    tag 437\t\t\t\n      JUMPDEST \t\t\t\n      PUSH 1\t\t\t\n      PUSH 2\t\t\t\n      DUP9 \t\t\t\n      MUL \t\t\t\n      ADD \t\t\t\n      DUP9 \t\t\t\n      SSTORE \t\t\t\n      POP \t\t\t\n      POP \t\t\t\n      POP \t\t\t\n    tag 429\t\t\t\n      JUMPDEST \t\t\t\n      POP \t\t\t\n      POP \t\t\t\n      POP \t\t\t\n      POP \t\t\t\n      POP \t\t\t\n      POP \t\t\t\n      JUMP \t\t\t\n    tag 58\t\t\t\n      JUMPDEST \t\t\t\n      PUSH 0\t\t\t\n      PUSH A0\t\t\t\n      DUP3 \t\t\t\n      ADD \t\t\t\n      SWAP1 \t\t\t\n      POP \t\t\t\n      DUP2 \t\t\t\n      DUP2 \t\t\t\n      SUB \t\t\t\n      PUSH 0\t\t\t\n      DUP4 \t\t\t\n      ADD \t\t\t\n      MSTORE \t\t\t\n      PUSH [tag] 440\t\t\t\n      DUP2 \t\t\t\n      DUP9 \t\t\t\n      PUSH [tag] 164\t\t\t\n      JUMP \t\t\t\n    tag 440\t\t\t\n      JUMPDEST \t\t\t\n      SWAP1 \t\t\t\n      POP \t\t\t\n      PUSH [tag] 441\t\t\t\n      PUSH 20\t\t\t\n      DUP4 \t\t\t\n      ADD \t\t\t\n      DUP8 \t\t\t\n      PUSH [tag] 162\t\t\t\n      JUMP \t\t\t\n    tag 441\t\t\t\n      JUMPDEST \t\t\t\n      DUP2 \t\t\t\n      DUP2 \t\t\t\n      SUB \t\t\t\n      PUSH 40\t\t\t\n      DUP4 \t\t\t\n      ADD \t\t\t\n      MSTORE \t\t\t\n      PUSH [tag] 442\t\t\t\n      DUP2 \t\t\t\n      DUP7 \t\t\t\n      PUSH [tag] 164\t\t\t\n      JUMP \t\t\t\n    tag 442\t\t\t\n      JUMPDEST \t\t\t\n      SWAP1 \t\t\t\n      POP \t\t\t\n      DUP2 \t\t\t\n      DUP2 \t\t\t\n      SUB \t\t\t\n      PUSH 60\t\t\t\n      DUP4 \t\t\t\n      ADD \t\t\t\n      MSTORE \t\t\t\n      PUSH [tag] 443\t\t\t\n      DUP2 \t\t\t\n      DUP6 \t\t\t\n      PUSH [tag] 164\t\t\t\n      JUMP \t\t\t\n    tag 443\t\t\t\n      JUMPDEST \t\t\t\n      SWAP1 \t\t\t\n      POP \t\t\t\n      DUP2 \t\t\t\n      DUP2 \t\t\t\n      SUB \t\t\t\n      PUSH 80\t\t\t\n      DUP4 \t\t\t\n      ADD \t\t\t\n      MSTORE \t\t\t\n      PUSH [tag] 444\t\t\t\n      DUP2 \t\t\t\n      DUP5 \t\t\t\n      PUSH [tag] 164\t\t\t\n      JUMP \t\t\t\n    tag 444\t\t\t\n      JUMPDEST \t\t\t\n      SWAP1 \t\t\t\n      POP \t\t\t\n      SWAP7 \t\t\t\n      SWAP6 \t\t\t\n      POP \t\t\t\n      POP \t\t\t\n      POP \t\t\t\n      POP \t\t\t\n      POP \t\t\t\n      POP \t\t\t\n      JUMP \t\t\t\n    tag 197\t\t\t\n      JUMPDEST \t\t\t\n      PUSH 4E487B7100000000000000000000000000000000000000000000000000000000\t\t\t\n      PUSH 0\t\t\t\n      MSTORE \t\t\t\n      PUSH 11\t\t\t\n      PUSH 4\t\t\t\n      MSTORE \t\t\t\n      PUSH 24\t\t\t\n      PUSH 0\t\t\t\n      REVERT \t\t\t\n    tag 60\t\t\t\n      JUMPDEST \t\t\t\n      PUSH 0\t\t\t\n      PUSH [tag] 447\t\t\t\n      DUP3 \t\t\t\n      PUSH [tag] 140\t\t\t\n      JUMP \t\t\t\n    tag 447\t\t\t\n      JUMPDEST \t\t\t\n      SWAP2 \t\t\t\n      POP \t\t\t\n      PUSH FFFFFFFFFFFFFFFFFFFFFFFFFFFFFFFFFFFFFFFFFFFFFFFFFFFFFFFFFFFFFFFF\t\t\t\n      DUP3 \t\t\t\n      SUB \t\t\t\n      PUSH [tag] 448\t\t\t\n      JUMPI \t\t\t\n      PUSH [tag] 449\t\t\t\n      PUSH [tag] 197\t\t\t\n      JUMP \t\t\t\n    tag 449\t\t\t\n      JUMPDEST \t\t\t\n    tag 448\t\t\t\n      JUMPDEST \t\t\t\n      PUSH 1\t\t\t\n      DUP3 \t\t\t\n      ADD \t\t\t\n      SWAP1 \t\t\t\n      POP \t\t\t\n      SWAP2 \t\t\t\n      SWAP1 \t\t\t\n      POP \t\t\t\n      JUMP \t\t\t\n    tag 95\t\t\t\n      JUMPDEST \t\t\t\n      PUSH 4E487B7100000000000000000000000000000000000000000000000000000000\t\t\t\n      PUSH 0\t\t\t\n      MSTORE \t\t\t\n      PUSH 32\t\t\t\n      PUSH 4\t\t\t\n      MSTORE \t\t\t\n      PUSH 24\t\t\t\n      PUSH 0\t\t\t\n      REVERT \t\t\t\n    tag 198\t\t\t\n      JUMPDEST \t\t\t\n      PUSH 4F6E6C7920746865206F776E65722063616E20706572666F726D207468697320\t\t\t\n      PUSH 0\t\t\t\n      DUP3 \t\t\t\n      ADD \t\t\t\n      MSTORE \t\t\t\n      PUSH 616374696F6E0000000000000000000000000000000000000000000000000000\t\t\t\n      PUSH 20\t\t\t\n      DUP3 \t\t\t\n      ADD \t\t\t\n      MSTORE \t\t\t\n      POP \t\t\t\n      JUMP \t\t\t\n    tag 199\t\t\t\n      JUMPDEST \t\t\t\n      PUSH 0\t\t\t\n      PUSH [tag] 453\t\t\t\n      PUSH 26\t\t\t\n      DUP4 \t\t\t\n      PUSH [tag] 163\t\t\t\n      JUMP \t\t\t\n    tag 453\t\t\t\n      JUMPDEST \t\t\t\n      SWAP2 \t\t\t\n      POP \t\t\t\n      PUSH [tag] 454\t\t\t\n      DUP3 \t\t\t\n      PUSH [tag] 198\t\t\t\n      JUMP \t\t\t\n    tag 454\t\t\t\n      JUMPDEST \t\t\t\n      PUSH 40\t\t\t\n      DUP3 \t\t\t\n      ADD \t\t\t\n      SWAP1 \t\t\t\n      POP \t\t\t\n      SWAP2 \t\t\t\n      SWAP1 \t\t\t\n      POP \t\t\t\n      JUMP \t\t\t\n    tag 100\t\t\t\n      JUMPDEST \t\t\t\n      PUSH 0\t\t\t\n      PUSH 20\t\t\t\n      DUP3 \t\t\t\n      ADD \t\t\t\n      SWAP1 \t\t\t\n      POP \t\t\t\n      DUP2 \t\t\t\n      DUP2 \t\t\t\n      SUB \t\t\t\n      PUSH 0\t\t\t\n      DUP4 \t\t\t\n      ADD \t\t\t\n      MSTORE \t\t\t\n      PUSH [tag] 456\t\t\t\n      DUP2 \t\t\t\n      PUSH [tag] 199\t\t\t\n      JUMP \t\t\t\n    tag 456\t\t\t\n      JUMPDEST \t\t\t\n      SWAP1 \t\t\t\n      POP \t\t\t\n      SWAP2 \t\t\t\n      SWAP1 \t\t\t\n      POP \t\t\t\n      JUMP \t\t\t\n    tag 200\t\t\t\n      JUMPDEST \t\t\t\n      PUSH 4C616E6420494420697320696E76616C69640000000000000000000000000000\t\t\t\n      PUSH 0\t\t\t\n      DUP3 \t\t\t\n      ADD \t\t\t\n      MSTORE \t\t\t\n      POP \t\t\t\n      JUMP \t\t\t\n    tag 201\t\t\t\n      JUMPDEST \t\t\t\n      PUSH 0\t\t\t\n      PUSH [tag] 459\t\t\t\n      PUSH 12\t\t\t\n      DUP4 \t\t\t\n      PUSH [tag] 163\t\t\t\n      JUMP \t\t\t\n    tag 459\t\t\t\n      JUMPDEST \t\t\t\n      SWAP2 \t\t\t\n      POP \t\t\t\n      PUSH [tag] 460\t\t\t\n      DUP3 \t\t\t\n      PUSH [tag] 200\t\t\t\n      JUMP \t\t\t\n    tag 460\t\t\t\n      JUMPDEST \t\t\t\n      PUSH 20\t\t\t\n      DUP3 \t\t\t\n      ADD \t\t\t\n      SWAP1 \t\t\t\n      POP \t\t\t\n      SWAP2 \t\t\t\n      SWAP1 \t\t\t\n      POP \t\t\t\n      JUMP \t\t\t\n    tag 104\t\t\t\n      JUMPDEST \t\t\t\n      PUSH 0\t\t\t\n      PUSH 20\t\t\t\n      DUP3 \t\t\t\n      ADD \t\t\t\n      SWAP1 \t\t\t\n      POP \t\t\t\n      DUP2 \t\t\t\n      DUP2 \t\t\t\n      SUB \t\t\t\n      PUSH 0\t\t\t\n      DUP4 \t\t\t\n      ADD \t\t\t\n      MSTORE \t\t\t\n      PUSH [tag] 462\t\t\t\n      DUP2 \t\t\t\n      PUSH [tag] 201\t\t\t\n      JUMP \t\t\t\n    tag 462\t\t\t\n      JUMPDEST \t\t\t\n      SWAP1 \t\t\t\n      POP \t\t\t\n      SWAP2 \t\t\t\n      SWAP1 \t\t\t\n      POP \t\t\t\n      JUMP \t\t\t\n    tag 202\t\t\t\n      JUMPDEST \t\t\t\n      PUSH 4E6577206F776E65722061646472657373206973207265717569726564000000\t\t\t\n      PUSH 0\t\t\t\n      DUP3 \t\t\t\n      ADD \t\t\t\n      MSTORE \t\t\t\n      POP \t\t\t\n      JUMP \t\t\t\n    tag 203\t\t\t\n      JUMPDEST \t\t\t\n      PUSH 0\t\t\t\n      PUSH [tag] 465\t\t\t\n      PUSH 1D\t\t\t\n      DUP4 \t\t\t\n      PUSH [tag] 163\t\t\t\n      JUMP \t\t\t\n    tag 465\t\t\t\n      JUMPDEST \t\t\t\n      SWAP2 \t\t\t\n      POP \t\t\t\n      PUSH [tag] 466\t\t\t\n      DUP3 \t\t\t\n      PUSH [tag] 202\t\t\t\n      JUMP \t\t\t\n    tag 466\t\t\t\n      JUMPDEST \t\t\t\n      PUSH 20\t\t\t\n      DUP3 \t\t\t\n      ADD \t\t\t\n      SWAP1 \t\t\t\n      POP \t\t\t\n      SWAP2 \t\t\t\n      SWAP1 \t\t\t\n      POP \t\t\t\n      JUMP \t\t\t\n    tag 107\t\t\t\n      JUMPDEST \t\t\t\n      PUSH 0\t\t\t\n      PUSH 20\t\t\t\n      DUP3 \t\t\t\n      ADD \t\t\t\n      SWAP1 \t\t\t\n      POP \t\t\t\n      DUP2 \t\t\t\n      DUP2 \t\t\t\n      SUB \t\t\t\n      PUSH 0\t\t\t\n      DUP4 \t\t\t\n      ADD \t\t\t\n      MSTORE \t\t\t\n      PUSH [tag] 468\t\t\t\n      DUP2 \t\t\t\n      PUSH [tag] 203\t\t\t\n      JUMP \t\t\t\n    tag 468\t\t\t\n      JUMPDEST \t\t\t\n      SWAP1 \t\t\t\n      POP \t\t\t\n      SWAP2 \t\t\t\n      SWAP1 \t\t\t\n      POP \t\t\t\n      JUMP \t\t\t\n    .data\n"
}