{
  "contractName": "LandRegistry",
  "abi": [
    {
      "anonymous": false,
      "inputs": [
        {
          "indexed": true,
          "internalType": "uint256",
          "name": "landId",
          "type": "uint256"
        },
        {
          "indexed": false,
          "internalType": "string",
          "name": "location",
          "type": "string"
        },
        {
          "indexed": false,
          "internalType": "uint256",
          "name": "size",
          "type": "uint256"
        },
        {
          "indexed": true,
          "internalType": "address",
          "name": "owner",
          "type": "address"
        },
        {
          "indexed": false,
          "internalType": "string",
          "name": "documentHash",
          "type": "string"
        }
      ],
      "name": "LandRegistered",
      "type": "event"
    },
    {
      "anonymous": false,
      "inputs": [
        {
          "indexed": true,
          "internalType": "uint256",
          "name": "landId",
          "type": "uint256"
        },
        {
          "indexed": true,
          "internalType": "address",
          "name": "oldOwner",
          "type": "address"
        },
        {
          "indexed": true,
          "internalType": "address",
          "name": "newOwner",
          "type": "address"
        }
      ],
      "name": "LandTransferred",
      "type": "event"
    },
    {
      "inputs": [],
      "name": "landCount",
      "outputs": [
        {
          "internalType": "uint256",
          "name": "",
          "type": "uint256"
        }
      ],
      "stateMutability": "view",
      "type": "function",
      "constant": true
    },
    {
      "inputs": [
        {
          "internalType": "uint256",
          "name": "",
          "type": "uint256"
        }
      ],
      "name": "lands",
      "outputs": [
        {
          "internalType": "string",
          "name": "location",
          "type": "string"
        },
        {
          "internalType": "uint256",
          "name": "size",
          "type": "uint256"
        },
        {
          "internalType": "address",
          "name": "owner",
          "type": "address"
        },
        {
          "internalType": "string",
          "name": "documentHash",
          "type": "string"
        },
        {
          "internalType": "bool",
          "name": "exists",
          "type": "bool"
        }
      ],
      "stateMutability": "view",
      "type": "function",
      "constant": true
    },
    {
      "inputs": [
        {
          "internalType": "string",
          "name": "_location",
          "type": "string"
        },
        {
          "internalType": "uint256",
          "name": "_size",
          "type": "uint256"
        },
        {
          "internalType": "string",
          "name": "_documentHash",
          "type": "string"
        }
      ],
      "name": "registerLand",
      "outputs": [],
      "stateMutability": "nonpayable",
      "type": "function"
    },
    {
      "inputs": [
        {
          "internalType": "uint256",
          "name": "_landId",
          "type": "uint256"
        },
        {
          "internalType": "address",
          "name": "_newOwner",
          "type": "address"
        }
      ],
      "name": "transferLand",
      "outputs": [],
      "stateMutability": "nonpayable",
      "type": "function"
    },
    {
      "inputs": [],
      "name": "getAllLands",
      "outputs": [
        {
          "components": [
            {
              "internalType": "string",
              "name": "location",
              "type": "string"
            },
            {
              "internalType": "uint256",
              "name": "size",
              "type": "uint256"
            },
            {
              "internalType": "address",
              "name": "owner",
              "type": "address"
            },
            {
              "internalType": "string",
              "name": "documentHash",
              "type": "string"
            },
            {
              "internalType": "bool",
              "name": "exists",
              "type": "bool"
            }
          ],
          "internalType": "struct LandRegistry.Land[]",
          "name": "",
          "type": "tuple[]"
        }
      ],
      "stateMutability": "view",
      "type": "function",
      "constant": true
    }
  ],
  "bytecode": "0x608060405234801561001057600080fd5b5061161e806100206000396000f3fe608060405234801561001057600080fd5b50600436106100575760003560e01c80637e6e448a1461005c578063b7b6e54314610078578063c798ff7d14610096578063d7bce658146100b2578063e261f1e5146100d0575b600080fd5b61007660048036038101906100719190610bf3565b610104565b005b610080610407565b60405161008d919061116d565b60405180910390f35b6100b060048036038101906100ab9190610c9b565b6106b7565b005b6100ba6108fe565b6040516100c79190611315565b60405180910390f35b6100ea60048036038101906100e59190610c72565b610904565b6040516100fb95949392919061118f565b60405180910390f35b6000835111610148576040517f08c379a000000000000000000000000000000000000000000000000000000000815260040161013f906112b5565b60405180910390fd5b6000821161018b576040517f08c379a000000000000000000000000000000000000000000000000000000000815260040161018290611295565b60405180910390fd5b60008151116101cf576040517f08c379a00000000000000000000000000000000000000000000000000000000081526004016101c690611275565b60405180910390fd5b60005b60015481101561029257816040516020016101ed919061113f565b604051602081830303815290604052805190602001206000808381526020019081526020016000206003016040516020016102289190611156565b60405160208183030381529060405280519060200120141561027f576040517f08c379a0000000000000000000000000000000000000000000000000000000008152600401610276906112f5565b60405180910390fd5b808061028a906114d3565b9150506101d2565b506040518060a001604052808481526020018381526020013373ffffffffffffffffffffffffffffffffffffffff1681526020018281526020016001151581525060008060015481526020019081526020016000206000820151816000019080519060200190610303929190610a77565b506020820151816001015560408201518160020160006101000a81548173ffffffffffffffffffffffffffffffffffffffff021916908373ffffffffffffffffffffffffffffffffffffffff1602179055506060820151816003019080519060200190610371929190610a77565b5060808201518160040160006101000a81548160ff0219169083151502179055509050503373ffffffffffffffffffffffffffffffffffffffff166001547f339619fa84b087c7546a6105aeb2c85c0b4fba885879b3d76b498f3c181f3e878585856040516103e2939291906111f0565b60405180910390a3600160008154809291906103fd906114d3565b9190505550505050565b6060600060015467ffffffffffffffff81111561044d577f4e487b7100000000000000000000000000000000000000000000000000000000600052604160045260246000fd5b60405190808252806020026020018201604052801561048657816020015b610473610afd565b81526020019060019003908161046b5790505b50905060005b6001548110156106af5760008060008381526020019081526020016000209050806040518060a00160405290816000820180546104c8906114a1565b80601f01602080910402602001604051908101604052809291908181526020018280546104f4906114a1565b80156105415780601f1061051657610100808354040283529160200191610541565b820191906000526020600020905b81548152906001019060200180831161052457829003601f168201915b50505050508152602001600182015481526020016002820160009054906101000a900473ffffffffffffffffffffffffffffffffffffffff1673ffffffffffffffffffffffffffffffffffffffff1673ffffffffffffffffffffffffffffffffffffffff1681526020016003820180546105ba906114a1565b80601f01602080910402602001604051908101604052809291908181526020018280546105e6906114a1565b80156106335780601f1061060857610100808354040283529160200191610633565b820191906000526020600020905b81548152906001019060200180831161061657829003601f168201915b505050505081526020016004820160009054906101000a900460ff161515151581525050838381518110610690577f4e487b7100000000000000000000000000000000000000000000000000000000600052603260045260246000fd5b60200260200101819052505080806106a7906114d3565b91505061048c565b508091505090565b8160008082815260200190815260200160002060020160009054906101000a900473ffffffffffffffffffffffffffffffffffffffff1673ffffffffffffffffffffffffffffffffffffffff163373ffffffffffffffffffffffffffffffffffffffff161461075b576040517f08c379a000000000000000000000000000000000000000000000000000000000815260040161075290611255565b60405180910390fd5b600154831061079f576040517f08c379a000000000000000000000000000000000000000000000000000000000815260040161079690611235565b60405180910390fd5b600073ffffffffffffffffffffffffffffffffffffffff168273ffffffffffffffffffffffffffffffffffffffff16141561080f576040517f08c379a0000000000000000000000000000000000000000000000000000000008152600401610806906112d5565b60405180910390fd5b600080600085815260200190815260200160002060020160009054906101000a900473ffffffffffffffffffffffffffffffffffffffff1690508260008086815260200190815260200160002060020160006101000a81548173ffffffffffffffffffffffffffffffffffffffff021916908373ffffffffffffffffffffffffffffffffffffffff1602179055508273ffffffffffffffffffffffffffffffffffffffff168173ffffffffffffffffffffffffffffffffffffffff16857f1080b2f211753e5090f26ef7ffdc6bb3e66a125c7290200d10b502160bb1f56660405160405180910390a450505050565b60015481565b6000602052806000526040600020600091509050806000018054610927906114a1565b80601f0160208091040260200160405190810160405280929190818152602001828054610953906114a1565b80156109a05780601f10610975576101008083540402835291602001916109a0565b820191906000526020600020905b81548152906001019060200180831161098357829003601f168201915b5050505050908060010154908060020160009054906101000a900473ffffffffffffffffffffffffffffffffffffffff16908060030180546109e1906114a1565b80601f0160208091040260200160405190810160405280929190818152602001828054610a0d906114a1565b8015610a5a5780601f10610a2f57610100808354040283529160200191610a5a565b820191906000526020600020905b815481529060010190602001808311610a3d57829003601f168201915b5050505050908060040160009054906101000a900460ff16905085565b828054610a83906114a1565b90600052602060002090601f016020900481019282610aa55760008555610aec565b82601f10610abe57805160ff1916838001178555610aec565b82800160010185558215610aec579182015b82811115610aeb578251825591602001919060010190610ad0565b5b509050610af99190610b44565b5090565b6040518060a001604052806060815260200160008152602001600073ffffffffffffffffffffffffffffffffffffffff168152602001606081526020016000151581525090565b5b80821115610b5d576000816000905550600101610b45565b5090565b6000610b74610b6f84611361565b611330565b905082815260208101848484011115610b8c57600080fd5b610b9784828561145f565b509392505050565b600081359050610bae816115ba565b92915050565b600082601f830112610bc557600080fd5b8135610bd5848260208601610b61565b91505092915050565b600081359050610bed816115d1565b92915050565b600080600060608486031215610c0857600080fd5b600084013567ffffffffffffffff811115610c2257600080fd5b610c2e86828701610bb4565b9350506020610c3f86828701610bde565b925050604084013567ffffffffffffffff811115610c5c57600080fd5b610c6886828701610bb4565b9150509250925092565b600060208284031215610c8457600080fd5b6000610c9284828501610bde565b91505092915050565b60008060408385031215610cae57600080fd5b6000610cbc85828601610bde565b9250506020610ccd85828601610b9f565b9150509250929050565b6000610ce383836110a4565b905092915050565b610cf481611417565b82525050565b610d0381611417565b82525050565b6000610d14826113b6565b610d1e81856113d9565b935083602082028501610d3085611391565b8060005b85811015610d6c5784840389528151610d4d8582610cd7565b9450610d58836113cc565b925060208a01995050600181019050610d34565b50829750879550505050505092915050565b610d8781611429565b82525050565b610d9681611429565b82525050565b6000610da7826113c1565b610db181856113ea565b9350610dc181856020860161146e565b610dca816115a9565b840191505092915050565b6000610de0826113c1565b610dea81856113fb565b9350610dfa81856020860161146e565b610e03816115a9565b840191505092915050565b6000610e19826113c1565b610e23818561140c565b9350610e3381856020860161146e565b80840191505092915050565b60008154610e4c816114a1565b610e56818661140c565b94506001821660008114610e715760018114610e8257610eb5565b60ff19831686528186019350610eb5565b610e8b856113a1565b60005b83811015610ead57815481890152600182019150602081019050610e8e565b838801955050505b50505092915050565b6000610ecb6012836113fb565b91507f4c616e6420494420697320696e76616c696400000000000000000000000000006000830152602082019050919050565b6000610f0b6026836113fb565b91507f4f6e6c7920746865206f776e65722063616e20706572666f726d20746869732060008301527f616374696f6e00000000000000000000000000000000000000000000000000006020830152604082019050919050565b6000610f716019836113fb565b91507f446f63756d656e742068617368206973207265717569726564000000000000006000830152602082019050919050565b6000610fb1601e836113fb565b91507f53697a65206d7573742062652067726561746572207468616e207a65726f00006000830152602082019050919050565b6000610ff16014836113fb565b91507f4c6f636174696f6e2069732072657175697265640000000000000000000000006000830152602082019050919050565b6000611031601d836113fb565b91507f4e6577206f776e657220616464726573732069732072657175697265640000006000830152602082019050919050565b6000611071601f836113fb565b91507f54686973206c616e6420697320616c72656164792072656769737465726564006000830152602082019050919050565b600060a08301600083015184820360008601526110c18282610d9c565b91505060208301516110d66020860182611121565b5060408301516110e96040860182610ceb565b50606083015184820360608601526111018282610d9c565b91505060808301516111166080860182610d7e565b508091505092915050565b61112a81611455565b82525050565b61113981611455565b82525050565b600061114b8284610e0e565b915081905092915050565b60006111628284610e3f565b915081905092915050565b600060208201905081810360008301526111878184610d09565b905092915050565b600060a08201905081810360008301526111a98188610dd5565b90506111b86020830187611130565b6111c56040830186610cfa565b81810360608301526111d78185610dd5565b90506111e66080830184610d8d565b9695505050505050565b6000606082019050818103600083015261120a8186610dd5565b90506112196020830185611130565b818103604083015261122b8184610dd5565b9050949350505050565b6000602082019050818103600083015261124e81610ebe565b9050919050565b6000602082019050818103600083015261126e81610efe565b9050919050565b6000602082019050818103600083015261128e81610f64565b9050919050565b600060208201905081810360008301526112ae81610fa4565b9050919050565b600060208201905081810360008301526112ce81610fe4565b9050919050565b600060208201905081810360008301526112ee81611024565b9050919050565b6000602082019050818103600083015261130e81611064565b9050919050565b600060208201905061132a6000830184611130565b92915050565b6000604051905081810181811067ffffffffffffffff821117156113575761135661157a565b5b8060405250919050565b600067ffffffffffffffff82111561137c5761137b61157a565b5b601f19601f8301169050602081019050919050565b6000819050602082019050919050565b60008190508160005260206000209050919050565b600081519050919050565b600081519050919050565b6000602082019050919050565b600082825260208201905092915050565b600082825260208201905092915050565b600082825260208201905092915050565b600081905092915050565b600061142282611435565b9050919050565b60008115159050919050565b600073ffffffffffffffffffffffffffffffffffffffff82169050919050565b6000819050919050565b82818337600083830152505050565b60005b8381101561148c578082015181840152602081019050611471565b8381111561149b576000848401525b50505050565b600060028204905060018216806114b957607f821691505b602082108114156114cd576114cc61154b565b5b50919050565b60006114de82611455565b91507fffffffffffffffffffffffffffffffffffffffffffffffffffffffffffffffff8214156115115761151061151c565b5b600182019050919050565b7f4e487b7100000000000000000000000000000000000000000000000000000000600052601160045260246000fd5b7f4e487b7100000000000000000000000000000000000000000000000000000000600052602260045260246000fd5b7f4e487b7100000000000000000000000000000000000000000000000000000000600052604160045260246000fd5b6000601f19601f8301169050919050565b6115c381611417565b81146115ce57600080fd5b50565b6115da81611455565b81146115e557600080fd5b5056fea2646970667358221220612dd2716772bd38dd8fc212dcb3bb5c6c99fe205e36360cd135729d2940b28464736f6c63430008000033",
  "immutableReferences": {},
  "source": "// SPDX-License-Identifier: MIT\r\npragma solidity ^0.8.0;\r\n\r\ncontract LandRegistry {\r\n    struct Land {\r\n        string location;\r\n        uint256 size;\r\n        address owner;\r\n        string documentHash;\r\n        bool exists; // Track if the land is already registered\r\n    }\r\n\r\n    mapping(uint256 => Land) public lands;\r\n    uint256 public landCount;\r\n\r\n    event LandRegistered(uint256 indexed landId, string location, uint256 size, address indexed owner, string documentHash);\r\n    event LandTransferred(uint256 indexed landId, address indexed oldOwner, address indexed newOwner);\r\n\r\n    // Modifier to check if the caller is the owner of the land\r\n    modifier onlyOwner(uint256 _landId) {\r\n        require(msg.sender == lands[_landId].owner, \"Only the owner can perform this action\");\r\n        _;\r\n    }\r\n\r\n    // Register a new land in the system\r\n    function registerLand(string memory _location, uint256 _size, string memory _documentHash) public {\r\n        require(bytes(_location).length > 0, \"Location is required\");\r\n        require(_size > 0, \"Size must be greater than zero\");\r\n        require(bytes(_documentHash).length > 0, \"Document hash is required\");\r\n\r\n        // Check for duplicate document hash\r\n        for (uint256 i = 0; i < landCount; i++) {\r\n            require(keccak256(abi.encodePacked(lands[i].documentHash)) != keccak256(abi.encodePacked(_documentHash)), \"This land is already registered\");\r\n        }\r\n\r\n        lands[landCount] = Land(_location, _size, msg.sender, _documentHash, true); // Mark the land as existing\r\n        emit LandRegistered(landCount, _location, _size, msg.sender, _documentHash);\r\n        landCount++;\r\n    }\r\n\r\n    // Transfer land ownership to a new owner\r\n    function transferLand(uint256 _landId, address _newOwner) public onlyOwner(_landId) {\r\n        require(_landId < landCount, \"Land ID is invalid\");\r\n        require(_newOwner != address(0), \"New owner address is required\");\r\n\r\n        address oldOwner = lands[_landId].owner;\r\n        lands[_landId].owner = _newOwner;\r\n\r\n        emit LandTransferred(_landId, oldOwner, _newOwner);\r\n    }\r\n\r\n    // View all registered lands\r\n    function getAllLands() public view returns (Land[] memory) {\r\n        Land[] memory allLands = new Land[](landCount);\r\n\r\n        for (uint256 i = 0; i < landCount; i++) {\r\n            Land storage land = lands[i];\r\n            allLands[i] = land;\r\n        }\r\n\r\n        return allLands;\r\n    }\r\n}\r\n",
  "sourcePath": "C:\\Users\\gades\\OneDrive\\Desktop\\performance\\contracts\\LandRegistry.sol",
  "compiler": {
    "name": "solc",
    "version": "0.8.0+commit.c7dfd78e.Emscripten.clang"
  },
  "schemaVersion": "3.4.16",
  "updatedAt": "2024-10-04T08:31:34.020Z",
  "networkType": "ethereum",
  "devdoc": {
    "kind": "dev",
    "methods": {},
    "version": 1
  },
  "userdoc": {
    "kind": "user",
    "methods": {},
    "version": 1
  }
}